{
	"contracts/common/CapybaraNFT.sol": {
		"CapybaraNFT": {
			"abi": [
				{
					"inputs": [
						{
							"internalType": "address",
							"name": "initialOwner",
							"type": "address"
						},
						{
							"internalType": "string",
							"name": "newuri",
							"type": "string"
						}
					],
					"stateMutability": "nonpayable",
					"type": "constructor"
				},
				{
					"inputs": [
						{
							"internalType": "address",
							"name": "sender",
							"type": "address"
						},
						{
							"internalType": "uint256",
							"name": "balance",
							"type": "uint256"
						},
						{
							"internalType": "uint256",
							"name": "needed",
							"type": "uint256"
						},
						{
							"internalType": "uint256",
							"name": "tokenId",
							"type": "uint256"
						}
					],
					"name": "ERC1155InsufficientBalance",
					"type": "error"
				},
				{
					"inputs": [
						{
							"internalType": "address",
							"name": "approver",
							"type": "address"
						}
					],
					"name": "ERC1155InvalidApprover",
					"type": "error"
				},
				{
					"inputs": [
						{
							"internalType": "uint256",
							"name": "idsLength",
							"type": "uint256"
						},
						{
							"internalType": "uint256",
							"name": "valuesLength",
							"type": "uint256"
						}
					],
					"name": "ERC1155InvalidArrayLength",
					"type": "error"
				},
				{
					"inputs": [
						{
							"internalType": "address",
							"name": "operator",
							"type": "address"
						}
					],
					"name": "ERC1155InvalidOperator",
					"type": "error"
				},
				{
					"inputs": [
						{
							"internalType": "address",
							"name": "receiver",
							"type": "address"
						}
					],
					"name": "ERC1155InvalidReceiver",
					"type": "error"
				},
				{
					"inputs": [
						{
							"internalType": "address",
							"name": "sender",
							"type": "address"
						}
					],
					"name": "ERC1155InvalidSender",
					"type": "error"
				},
				{
					"inputs": [
						{
							"internalType": "address",
							"name": "operator",
							"type": "address"
						},
						{
							"internalType": "address",
							"name": "owner",
							"type": "address"
						}
					],
					"name": "ERC1155MissingApprovalForAll",
					"type": "error"
				},
				{
					"inputs": [
						{
							"internalType": "address",
							"name": "owner",
							"type": "address"
						}
					],
					"name": "OwnableInvalidOwner",
					"type": "error"
				},
				{
					"inputs": [
						{
							"internalType": "address",
							"name": "account",
							"type": "address"
						}
					],
					"name": "OwnableUnauthorizedAccount",
					"type": "error"
				},
				{
					"anonymous": false,
					"inputs": [
						{
							"indexed": true,
							"internalType": "address",
							"name": "account",
							"type": "address"
						},
						{
							"indexed": true,
							"internalType": "address",
							"name": "operator",
							"type": "address"
						},
						{
							"indexed": false,
							"internalType": "bool",
							"name": "approved",
							"type": "bool"
						}
					],
					"name": "ApprovalForAll",
					"type": "event"
				},
				{
					"anonymous": false,
					"inputs": [
						{
							"indexed": true,
							"internalType": "address",
							"name": "previousOwner",
							"type": "address"
						},
						{
							"indexed": true,
							"internalType": "address",
							"name": "newOwner",
							"type": "address"
						}
					],
					"name": "OwnershipTransferred",
					"type": "event"
				},
				{
					"anonymous": false,
					"inputs": [
						{
							"indexed": true,
							"internalType": "address",
							"name": "operator",
							"type": "address"
						},
						{
							"indexed": true,
							"internalType": "address",
							"name": "from",
							"type": "address"
						},
						{
							"indexed": true,
							"internalType": "address",
							"name": "to",
							"type": "address"
						},
						{
							"indexed": false,
							"internalType": "uint256[]",
							"name": "ids",
							"type": "uint256[]"
						},
						{
							"indexed": false,
							"internalType": "uint256[]",
							"name": "values",
							"type": "uint256[]"
						}
					],
					"name": "TransferBatch",
					"type": "event"
				},
				{
					"anonymous": false,
					"inputs": [
						{
							"indexed": true,
							"internalType": "address",
							"name": "operator",
							"type": "address"
						},
						{
							"indexed": true,
							"internalType": "address",
							"name": "from",
							"type": "address"
						},
						{
							"indexed": true,
							"internalType": "address",
							"name": "to",
							"type": "address"
						},
						{
							"indexed": false,
							"internalType": "uint256",
							"name": "id",
							"type": "uint256"
						},
						{
							"indexed": false,
							"internalType": "uint256",
							"name": "value",
							"type": "uint256"
						}
					],
					"name": "TransferSingle",
					"type": "event"
				},
				{
					"anonymous": false,
					"inputs": [
						{
							"indexed": false,
							"internalType": "string",
							"name": "value",
							"type": "string"
						},
						{
							"indexed": true,
							"internalType": "uint256",
							"name": "id",
							"type": "uint256"
						}
					],
					"name": "URI",
					"type": "event"
				},
				{
					"inputs": [
						{
							"internalType": "address",
							"name": "account",
							"type": "address"
						},
						{
							"internalType": "uint256",
							"name": "id",
							"type": "uint256"
						}
					],
					"name": "balanceOf",
					"outputs": [
						{
							"internalType": "uint256",
							"name": "",
							"type": "uint256"
						}
					],
					"stateMutability": "view",
					"type": "function"
				},
				{
					"inputs": [
						{
							"internalType": "address[]",
							"name": "accounts",
							"type": "address[]"
						},
						{
							"internalType": "uint256[]",
							"name": "ids",
							"type": "uint256[]"
						}
					],
					"name": "balanceOfBatch",
					"outputs": [
						{
							"internalType": "uint256[]",
							"name": "",
							"type": "uint256[]"
						}
					],
					"stateMutability": "view",
					"type": "function"
				},
				{
					"inputs": [
						{
							"internalType": "address",
							"name": "account",
							"type": "address"
						},
						{
							"internalType": "uint256",
							"name": "id",
							"type": "uint256"
						},
						{
							"internalType": "uint256",
							"name": "value",
							"type": "uint256"
						}
					],
					"name": "burn",
					"outputs": [],
					"stateMutability": "nonpayable",
					"type": "function"
				},
				{
					"inputs": [
						{
							"internalType": "address",
							"name": "account",
							"type": "address"
						},
						{
							"internalType": "uint256[]",
							"name": "ids",
							"type": "uint256[]"
						},
						{
							"internalType": "uint256[]",
							"name": "values",
							"type": "uint256[]"
						}
					],
					"name": "burnBatch",
					"outputs": [],
					"stateMutability": "nonpayable",
					"type": "function"
				},
				{
					"inputs": [
						{
							"internalType": "address",
							"name": "account",
							"type": "address"
						},
						{
							"internalType": "address",
							"name": "operator",
							"type": "address"
						}
					],
					"name": "isApprovedForAll",
					"outputs": [
						{
							"internalType": "bool",
							"name": "",
							"type": "bool"
						}
					],
					"stateMutability": "view",
					"type": "function"
				},
				{
					"inputs": [
						{
							"internalType": "address",
							"name": "account",
							"type": "address"
						},
						{
							"internalType": "bytes",
							"name": "data",
							"type": "bytes"
						}
					],
					"name": "mint",
					"outputs": [],
					"stateMutability": "nonpayable",
					"type": "function"
				},
				{
					"inputs": [
						{
							"internalType": "address",
							"name": "to",
							"type": "address"
						},
						{
							"internalType": "uint256",
							"name": "count",
							"type": "uint256"
						},
						{
							"internalType": "bytes",
							"name": "data",
							"type": "bytes"
						}
					],
					"name": "mintBatch",
					"outputs": [],
					"stateMutability": "nonpayable",
					"type": "function"
				},
				{
					"inputs": [],
					"name": "owner",
					"outputs": [
						{
							"internalType": "address",
							"name": "",
							"type": "address"
						}
					],
					"stateMutability": "view",
					"type": "function"
				},
				{
					"inputs": [],
					"name": "renounceOwnership",
					"outputs": [],
					"stateMutability": "nonpayable",
					"type": "function"
				},
				{
					"inputs": [
						{
							"internalType": "address",
							"name": "from",
							"type": "address"
						},
						{
							"internalType": "address",
							"name": "to",
							"type": "address"
						},
						{
							"internalType": "uint256[]",
							"name": "ids",
							"type": "uint256[]"
						},
						{
							"internalType": "uint256[]",
							"name": "values",
							"type": "uint256[]"
						},
						{
							"internalType": "bytes",
							"name": "data",
							"type": "bytes"
						}
					],
					"name": "safeBatchTransferFrom",
					"outputs": [],
					"stateMutability": "nonpayable",
					"type": "function"
				},
				{
					"inputs": [
						{
							"internalType": "address",
							"name": "from",
							"type": "address"
						},
						{
							"internalType": "address",
							"name": "to",
							"type": "address"
						},
						{
							"internalType": "uint256",
							"name": "id",
							"type": "uint256"
						},
						{
							"internalType": "uint256",
							"name": "value",
							"type": "uint256"
						},
						{
							"internalType": "bytes",
							"name": "data",
							"type": "bytes"
						}
					],
					"name": "safeTransferFrom",
					"outputs": [],
					"stateMutability": "nonpayable",
					"type": "function"
				},
				{
					"inputs": [
						{
							"internalType": "address",
							"name": "operator",
							"type": "address"
						},
						{
							"internalType": "bool",
							"name": "approved",
							"type": "bool"
						}
					],
					"name": "setApprovalForAll",
					"outputs": [],
					"stateMutability": "nonpayable",
					"type": "function"
				},
				{
					"inputs": [
						{
							"internalType": "string",
							"name": "newuri",
							"type": "string"
						}
					],
					"name": "setURI",
					"outputs": [],
					"stateMutability": "nonpayable",
					"type": "function"
				},
				{
					"inputs": [
						{
							"internalType": "bytes4",
							"name": "interfaceId",
							"type": "bytes4"
						}
					],
					"name": "supportsInterface",
					"outputs": [
						{
							"internalType": "bool",
							"name": "",
							"type": "bool"
						}
					],
					"stateMutability": "view",
					"type": "function"
				},
				{
					"inputs": [
						{
							"internalType": "address",
							"name": "newOwner",
							"type": "address"
						}
					],
					"name": "transferOwnership",
					"outputs": [],
					"stateMutability": "nonpayable",
					"type": "function"
				},
				{
					"inputs": [
						{
							"internalType": "uint256",
							"name": "",
							"type": "uint256"
						}
					],
					"name": "uri",
					"outputs": [
						{
							"internalType": "string",
							"name": "",
							"type": "string"
						}
					],
					"stateMutability": "view",
					"type": "function"
				}
			],
			"devdoc": {
				"errors": {
					"ERC1155InsufficientBalance(address,uint256,uint256,uint256)": [
						{
							"details": "Indicates an error related to the current `balance` of a `sender`. Used in transfers.",
							"params": {
								"balance": "Current balance for the interacting account.",
								"needed": "Minimum amount required to perform a transfer.",
								"sender": "Address whose tokens are being transferred.",
								"tokenId": "Identifier number of a token."
							}
						}
					],
					"ERC1155InvalidApprover(address)": [
						{
							"details": "Indicates a failure with the `approver` of a token to be approved. Used in approvals.",
							"params": {
								"approver": "Address initiating an approval operation."
							}
						}
					],
					"ERC1155InvalidArrayLength(uint256,uint256)": [
						{
							"details": "Indicates an array length mismatch between ids and values in a safeBatchTransferFrom operation. Used in batch transfers.",
							"params": {
								"idsLength": "Length of the array of token identifiers",
								"valuesLength": "Length of the array of token amounts"
							}
						}
					],
					"ERC1155InvalidOperator(address)": [
						{
							"details": "Indicates a failure with the `operator` to be approved. Used in approvals.",
							"params": {
								"operator": "Address that may be allowed to operate on tokens without being their owner."
							}
						}
					],
					"ERC1155InvalidReceiver(address)": [
						{
							"details": "Indicates a failure with the token `receiver`. Used in transfers.",
							"params": {
								"receiver": "Address to which tokens are being transferred."
							}
						}
					],
					"ERC1155InvalidSender(address)": [
						{
							"details": "Indicates a failure with the token `sender`. Used in transfers.",
							"params": {
								"sender": "Address whose tokens are being transferred."
							}
						}
					],
					"ERC1155MissingApprovalForAll(address,address)": [
						{
							"details": "Indicates a failure with the `operator`’s approval. Used in transfers.",
							"params": {
								"operator": "Address that may be allowed to operate on tokens without being their owner.",
								"owner": "Address of the current owner of a token."
							}
						}
					],
					"OwnableInvalidOwner(address)": [
						{
							"details": "The owner is not a valid owner account. (eg. `address(0)`)"
						}
					],
					"OwnableUnauthorizedAccount(address)": [
						{
							"details": "The caller account is not authorized to perform an operation."
						}
					]
				},
				"events": {
					"ApprovalForAll(address,address,bool)": {
						"details": "Emitted when `account` grants or revokes permission to `operator` to transfer their tokens, according to `approved`."
					},
					"TransferBatch(address,address,address,uint256[],uint256[])": {
						"details": "Equivalent to multiple {TransferSingle} events, where `operator`, `from` and `to` are the same for all transfers."
					},
					"TransferSingle(address,address,address,uint256,uint256)": {
						"details": "Emitted when `value` amount of tokens of type `id` are transferred from `from` to `to` by `operator`."
					},
					"URI(string,uint256)": {
						"details": "Emitted when the URI for token type `id` changes to `value`, if it is a non-programmatic URI. If an {URI} event was emitted for `id`, the standard https://eips.ethereum.org/EIPS/eip-1155#metadata-extensions[guarantees] that `value` will equal the value returned by {IERC1155MetadataURI-uri}."
					}
				},
				"kind": "dev",
				"methods": {
					"balanceOf(address,uint256)": {
						"details": "See {IERC1155-balanceOf}."
					},
					"balanceOfBatch(address[],uint256[])": {
						"details": "See {IERC1155-balanceOfBatch}. Requirements: - `accounts` and `ids` must have the same length."
					},
					"isApprovedForAll(address,address)": {
						"details": "See {IERC1155-isApprovedForAll}."
					},
					"owner()": {
						"details": "Returns the address of the current owner."
					},
					"renounceOwnership()": {
						"details": "Leaves the contract without owner. It will not be possible to call `onlyOwner` functions. Can only be called by the current owner. NOTE: Renouncing ownership will leave the contract without an owner, thereby disabling any functionality that is only available to the owner."
					},
					"safeBatchTransferFrom(address,address,uint256[],uint256[],bytes)": {
						"details": "See {IERC1155-safeBatchTransferFrom}."
					},
					"safeTransferFrom(address,address,uint256,uint256,bytes)": {
						"details": "See {IERC1155-safeTransferFrom}."
					},
					"setApprovalForAll(address,bool)": {
						"details": "See {IERC1155-setApprovalForAll}."
					},
					"supportsInterface(bytes4)": {
						"details": "See {IERC165-supportsInterface}."
					},
					"transferOwnership(address)": {
						"details": "Transfers ownership of the contract to a new account (`newOwner`). Can only be called by the current owner."
					},
					"uri(uint256)": {
						"details": "See {IERC1155MetadataURI-uri}. This implementation returns the same URI for *all* token types. It relies on the token type ID substitution mechanism https://eips.ethereum.org/EIPS/eip-1155#metadata[defined in the EIP]. Clients calling this function must replace the `\\{id\\}` substring with the actual token type ID."
					}
				},
				"version": 1
			},
			"evm": {
				"assembly": "    /* \"contracts/common/CapybaraNFT.sol\":300:1041  contract CapybaraNFT is ERC1155, Ownable, ERC1155Burnable {... */\n  mstore(0x40, 0x80)\n    /* \"contracts/common/CapybaraNFT.sol\":399:548  constructor(... */\n  callvalue\n  dup1\n  iszero\n  tag_1\n  jumpi\n  0x00\n  dup1\n  revert\ntag_1:\n  pop\n  mload(0x40)\n  sub(codesize, bytecodeSize)\n  dup1\n  bytecodeSize\n  dup4\n  codecopy\n  dup2\n  dup2\n  add\n  0x40\n  mstore\n  dup2\n  add\n  swap1\n  tag_2\n  swap2\n  swap1\n  tag_3\n  jump\t// in\ntag_2:\n    /* \"contracts/common/CapybaraNFT.sol\":501:513  initialOwner */\n  dup2\n    /* \"contracts/common/CapybaraNFT.sol\":485:491  newuri */\n  dup2\n    /* \"@openzeppelin/contracts/token/ERC1155/ERC1155.sol\":1293:1306  _setURI(uri_) */\n  tag_8\n    /* \"@openzeppelin/contracts/token/ERC1155/ERC1155.sol\":1301:1305  uri_ */\n  dup2\n    /* \"@openzeppelin/contracts/token/ERC1155/ERC1155.sol\":1293:1300  _setURI */\n  shl(0x20, tag_9)\n    /* \"@openzeppelin/contracts/token/ERC1155/ERC1155.sol\":1293:1306  _setURI(uri_) */\n  0x20\n  shr\n  jump\t// in\ntag_8:\n    /* \"@openzeppelin/contracts/token/ERC1155/ERC1155.sol\":1251:1313  constructor(string memory uri_) {... */\n  pop\n    /* \"@openzeppelin/contracts/access/Ownable.sol\":1297:1298  0 */\n  0x00\n    /* \"@openzeppelin/contracts/access/Ownable.sol\":1273:1299  initialOwner == address(0) */\n  0xffffffffffffffffffffffffffffffffffffffff\n  and\n    /* \"@openzeppelin/contracts/access/Ownable.sol\":1273:1285  initialOwner */\n  dup2\n    /* \"@openzeppelin/contracts/access/Ownable.sol\":1273:1299  initialOwner == address(0) */\n  0xffffffffffffffffffffffffffffffffffffffff\n  and\n  sub\n    /* \"@openzeppelin/contracts/access/Ownable.sol\":1269:1364  if (initialOwner == address(0)) {... */\n  tag_11\n  jumpi\n    /* \"@openzeppelin/contracts/access/Ownable.sol\":1350:1351  0 */\n  0x00\n    /* \"@openzeppelin/contracts/access/Ownable.sol\":1322:1353  OwnableInvalidOwner(address(0)) */\n  mload(0x40)\n  0x1e4fbdf700000000000000000000000000000000000000000000000000000000\n  dup2\n  mstore\n  0x04\n  add\n  tag_12\n  swap2\n  swap1\n  tag_13\n  jump\t// in\ntag_12:\n  mload(0x40)\n  dup1\n  swap2\n  sub\n  swap1\n  revert\n    /* \"@openzeppelin/contracts/access/Ownable.sol\":1269:1364  if (initialOwner == address(0)) {... */\ntag_11:\n    /* \"@openzeppelin/contracts/access/Ownable.sol\":1373:1405  _transferOwnership(initialOwner) */\n  tag_14\n    /* \"@openzeppelin/contracts/access/Ownable.sol\":1392:1404  initialOwner */\n  dup2\n    /* \"@openzeppelin/contracts/access/Ownable.sol\":1373:1391  _transferOwnership */\n  shl(0x20, tag_15)\n    /* \"@openzeppelin/contracts/access/Ownable.sol\":1373:1405  _transferOwnership(initialOwner) */\n  0x20\n  shr\n  jump\t// in\ntag_14:\n    /* \"@openzeppelin/contracts/access/Ownable.sol\":1225:1412  constructor(address initialOwner) {... */\n  pop\n    /* \"contracts/common/CapybaraNFT.sol\":540:541  1 */\n  0x01\n    /* \"contracts/common/CapybaraNFT.sol\":525:537  _nextTokenId */\n  0x04\n    /* \"contracts/common/CapybaraNFT.sol\":525:541  _nextTokenId = 1 */\n  dup2\n  swap1\n  sstore\n  pop\n    /* \"contracts/common/CapybaraNFT.sol\":399:548  constructor(... */\n  pop\n  pop\n    /* \"contracts/common/CapybaraNFT.sol\":300:1041  contract CapybaraNFT is ERC1155, Ownable, ERC1155Burnable {... */\n  jump(tag_17)\n    /* \"@openzeppelin/contracts/token/ERC1155/ERC1155.sol\":10282:10368  function _setURI(string memory newuri) internal virtual {... */\ntag_9:\n    /* \"@openzeppelin/contracts/token/ERC1155/ERC1155.sol\":10355:10361  newuri */\n  dup1\n    /* \"@openzeppelin/contracts/token/ERC1155/ERC1155.sol\":10348:10352  _uri */\n  0x02\n    /* \"@openzeppelin/contracts/token/ERC1155/ERC1155.sol\":10348:10361  _uri = newuri */\n  swap1\n  dup2\n  tag_19\n  swap2\n  swap1\n  tag_20\n  jump\t// in\ntag_19:\n  pop\n    /* \"@openzeppelin/contracts/token/ERC1155/ERC1155.sol\":10282:10368  function _setURI(string memory newuri) internal virtual {... */\n  pop\n  jump\t// out\n    /* \"@openzeppelin/contracts/access/Ownable.sol\":2912:3099  function _transferOwnership(address newOwner) internal virtual {... */\ntag_15:\n    /* \"@openzeppelin/contracts/access/Ownable.sol\":2985:3001  address oldOwner */\n  0x00\n    /* \"@openzeppelin/contracts/access/Ownable.sol\":3004:3010  _owner */\n  0x03\n  0x00\n  swap1\n  sload\n  swap1\n  0x0100\n  exp\n  swap1\n  div\n  0xffffffffffffffffffffffffffffffffffffffff\n  and\n    /* \"@openzeppelin/contracts/access/Ownable.sol\":2985:3010  address oldOwner = _owner */\n  swap1\n  pop\n    /* \"@openzeppelin/contracts/access/Ownable.sol\":3029:3037  newOwner */\n  dup2\n    /* \"@openzeppelin/contracts/access/Ownable.sol\":3020:3026  _owner */\n  0x03\n  0x00\n    /* \"@openzeppelin/contracts/access/Ownable.sol\":3020:3037  _owner = newOwner */\n  0x0100\n  exp\n  dup2\n  sload\n  dup2\n  0xffffffffffffffffffffffffffffffffffffffff\n  mul\n  not\n  and\n  swap1\n  dup4\n  0xffffffffffffffffffffffffffffffffffffffff\n  and\n  mul\n  or\n  swap1\n  sstore\n  pop\n    /* \"@openzeppelin/contracts/access/Ownable.sol\":3083:3091  newOwner */\n  dup2\n    /* \"@openzeppelin/contracts/access/Ownable.sol\":3052:3092  OwnershipTransferred(oldOwner, newOwner) */\n  0xffffffffffffffffffffffffffffffffffffffff\n  and\n    /* \"@openzeppelin/contracts/access/Ownable.sol\":3073:3081  oldOwner */\n  dup2\n    /* \"@openzeppelin/contracts/access/Ownable.sol\":3052:3092  OwnershipTransferred(oldOwner, newOwner) */\n  0xffffffffffffffffffffffffffffffffffffffff\n  and\n  0x8be0079c531659141344cd1fd0a4f28419497f9722a3daafe3b4186f6b6457e0\n  mload(0x40)\n  mload(0x40)\n  dup1\n  swap2\n  sub\n  swap1\n  log3\n    /* \"@openzeppelin/contracts/access/Ownable.sol\":2975:3099  {... */\n  pop\n    /* \"@openzeppelin/contracts/access/Ownable.sol\":2912:3099  function _transferOwnership(address newOwner) internal virtual {... */\n  pop\n  jump\t// out\n    /* \"#utility.yul\":7:82   */\ntag_22:\n    /* \"#utility.yul\":40:46   */\n  0x00\n    /* \"#utility.yul\":73:75   */\n  0x40\n    /* \"#utility.yul\":67:76   */\n  mload\n    /* \"#utility.yul\":57:76   */\n  swap1\n  pop\n    /* \"#utility.yul\":7:82   */\n  swap1\n  jump\t// out\n    /* \"#utility.yul\":88:205   */\ntag_23:\n    /* \"#utility.yul\":197:198   */\n  0x00\n    /* \"#utility.yul\":194:195   */\n  dup1\n    /* \"#utility.yul\":187:199   */\n  revert\n    /* \"#utility.yul\":211:328   */\ntag_24:\n    /* \"#utility.yul\":320:321   */\n  0x00\n    /* \"#utility.yul\":317:318   */\n  dup1\n    /* \"#utility.yul\":310:322   */\n  revert\n    /* \"#utility.yul\":334:460   */\ntag_25:\n    /* \"#utility.yul\":371:378   */\n  0x00\n    /* \"#utility.yul\":411:453   */\n  0xffffffffffffffffffffffffffffffffffffffff\n    /* \"#utility.yul\":404:409   */\n  dup3\n    /* \"#utility.yul\":400:454   */\n  and\n    /* \"#utility.yul\":389:454   */\n  swap1\n  pop\n    /* \"#utility.yul\":334:460   */\n  swap2\n  swap1\n  pop\n  jump\t// out\n    /* \"#utility.yul\":466:562   */\ntag_26:\n    /* \"#utility.yul\":503:510   */\n  0x00\n    /* \"#utility.yul\":532:556   */\n  tag_65\n    /* \"#utility.yul\":550:555   */\n  dup3\n    /* \"#utility.yul\":532:556   */\n  tag_25\n  jump\t// in\ntag_65:\n    /* \"#utility.yul\":521:556   */\n  swap1\n  pop\n    /* \"#utility.yul\":466:562   */\n  swap2\n  swap1\n  pop\n  jump\t// out\n    /* \"#utility.yul\":568:690   */\ntag_27:\n    /* \"#utility.yul\":641:665   */\n  tag_67\n    /* \"#utility.yul\":659:664   */\n  dup2\n    /* \"#utility.yul\":641:665   */\n  tag_26\n  jump\t// in\ntag_67:\n    /* \"#utility.yul\":634:639   */\n  dup2\n    /* \"#utility.yul\":631:666   */\n  eq\n    /* \"#utility.yul\":621:684   */\n  tag_68\n  jumpi\n    /* \"#utility.yul\":680:681   */\n  0x00\n    /* \"#utility.yul\":677:678   */\n  dup1\n    /* \"#utility.yul\":670:682   */\n  revert\n    /* \"#utility.yul\":621:684   */\ntag_68:\n    /* \"#utility.yul\":568:690   */\n  pop\n  jump\t// out\n    /* \"#utility.yul\":696:839   */\ntag_28:\n    /* \"#utility.yul\":753:758   */\n  0x00\n    /* \"#utility.yul\":784:790   */\n  dup2\n    /* \"#utility.yul\":778:791   */\n  mload\n    /* \"#utility.yul\":769:791   */\n  swap1\n  pop\n    /* \"#utility.yul\":800:833   */\n  tag_70\n    /* \"#utility.yul\":827:832   */\n  dup2\n    /* \"#utility.yul\":800:833   */\n  tag_27\n  jump\t// in\ntag_70:\n    /* \"#utility.yul\":696:839   */\n  swap3\n  swap2\n  pop\n  pop\n  jump\t// out\n    /* \"#utility.yul\":845:962   */\ntag_29:\n    /* \"#utility.yul\":954:955   */\n  0x00\n    /* \"#utility.yul\":951:952   */\n  dup1\n    /* \"#utility.yul\":944:956   */\n  revert\n    /* \"#utility.yul\":968:1085   */\ntag_30:\n    /* \"#utility.yul\":1077:1078   */\n  0x00\n    /* \"#utility.yul\":1074:1075   */\n  dup1\n    /* \"#utility.yul\":1067:1079   */\n  revert\n    /* \"#utility.yul\":1091:1193   */\ntag_31:\n    /* \"#utility.yul\":1132:1138   */\n  0x00\n    /* \"#utility.yul\":1183:1185   */\n  0x1f\n    /* \"#utility.yul\":1179:1186   */\n  not\n    /* \"#utility.yul\":1174:1176   */\n  0x1f\n    /* \"#utility.yul\":1167:1172   */\n  dup4\n    /* \"#utility.yul\":1163:1177   */\n  add\n    /* \"#utility.yul\":1159:1187   */\n  and\n    /* \"#utility.yul\":1149:1187   */\n  swap1\n  pop\n    /* \"#utility.yul\":1091:1193   */\n  swap2\n  swap1\n  pop\n  jump\t// out\n    /* \"#utility.yul\":1199:1379   */\ntag_32:\n    /* \"#utility.yul\":1247:1324   */\n  0x4e487b7100000000000000000000000000000000000000000000000000000000\n    /* \"#utility.yul\":1244:1245   */\n  0x00\n    /* \"#utility.yul\":1237:1325   */\n  mstore\n    /* \"#utility.yul\":1344:1348   */\n  0x41\n    /* \"#utility.yul\":1341:1342   */\n  0x04\n    /* \"#utility.yul\":1334:1349   */\n  mstore\n    /* \"#utility.yul\":1368:1372   */\n  0x24\n    /* \"#utility.yul\":1365:1366   */\n  0x00\n    /* \"#utility.yul\":1358:1373   */\n  revert\n    /* \"#utility.yul\":1385:1666   */\ntag_33:\n    /* \"#utility.yul\":1468:1495   */\n  tag_76\n    /* \"#utility.yul\":1490:1494   */\n  dup3\n    /* \"#utility.yul\":1468:1495   */\n  tag_31\n  jump\t// in\ntag_76:\n    /* \"#utility.yul\":1460:1466   */\n  dup2\n    /* \"#utility.yul\":1456:1496   */\n  add\n    /* \"#utility.yul\":1598:1604   */\n  dup2\n    /* \"#utility.yul\":1586:1596   */\n  dup2\n    /* \"#utility.yul\":1583:1605   */\n  lt\n    /* \"#utility.yul\":1562:1580   */\n  0xffffffffffffffff\n    /* \"#utility.yul\":1550:1560   */\n  dup3\n    /* \"#utility.yul\":1547:1581   */\n  gt\n    /* \"#utility.yul\":1544:1606   */\n  or\n    /* \"#utility.yul\":1541:1629   */\n  iszero\n  tag_77\n  jumpi\n    /* \"#utility.yul\":1609:1627   */\n  tag_78\n  tag_32\n  jump\t// in\ntag_78:\n    /* \"#utility.yul\":1541:1629   */\ntag_77:\n    /* \"#utility.yul\":1649:1659   */\n  dup1\n    /* \"#utility.yul\":1645:1647   */\n  0x40\n    /* \"#utility.yul\":1638:1660   */\n  mstore\n    /* \"#utility.yul\":1428:1666   */\n  pop\n    /* \"#utility.yul\":1385:1666   */\n  pop\n  pop\n  jump\t// out\n    /* \"#utility.yul\":1672:1801   */\ntag_34:\n    /* \"#utility.yul\":1706:1712   */\n  0x00\n    /* \"#utility.yul\":1733:1753   */\n  tag_80\n  tag_22\n  jump\t// in\ntag_80:\n    /* \"#utility.yul\":1723:1753   */\n  swap1\n  pop\n    /* \"#utility.yul\":1762:1795   */\n  tag_81\n    /* \"#utility.yul\":1790:1794   */\n  dup3\n    /* \"#utility.yul\":1782:1788   */\n  dup3\n    /* \"#utility.yul\":1762:1795   */\n  tag_33\n  jump\t// in\ntag_81:\n    /* \"#utility.yul\":1672:1801   */\n  swap2\n  swap1\n  pop\n  jump\t// out\n    /* \"#utility.yul\":1807:2115   */\ntag_35:\n    /* \"#utility.yul\":1869:1873   */\n  0x00\n    /* \"#utility.yul\":1959:1977   */\n  0xffffffffffffffff\n    /* \"#utility.yul\":1951:1957   */\n  dup3\n    /* \"#utility.yul\":1948:1978   */\n  gt\n    /* \"#utility.yul\":1945:2001   */\n  iszero\n  tag_83\n  jumpi\n    /* \"#utility.yul\":1981:1999   */\n  tag_84\n  tag_32\n  jump\t// in\ntag_84:\n    /* \"#utility.yul\":1945:2001   */\ntag_83:\n    /* \"#utility.yul\":2019:2048   */\n  tag_85\n    /* \"#utility.yul\":2041:2047   */\n  dup3\n    /* \"#utility.yul\":2019:2048   */\n  tag_31\n  jump\t// in\ntag_85:\n    /* \"#utility.yul\":2011:2048   */\n  swap1\n  pop\n    /* \"#utility.yul\":2103:2107   */\n  0x20\n    /* \"#utility.yul\":2097:2101   */\n  dup2\n    /* \"#utility.yul\":2093:2108   */\n  add\n    /* \"#utility.yul\":2085:2108   */\n  swap1\n  pop\n    /* \"#utility.yul\":1807:2115   */\n  swap2\n  swap1\n  pop\n  jump\t// out\n    /* \"#utility.yul\":2121:2260   */\ntag_36:\n    /* \"#utility.yul\":2210:2216   */\n  dup3\n    /* \"#utility.yul\":2205:2208   */\n  dup2\n    /* \"#utility.yul\":2200:2203   */\n  dup4\n    /* \"#utility.yul\":2194:2217   */\n  mcopy\n    /* \"#utility.yul\":2251:2252   */\n  0x00\n    /* \"#utility.yul\":2242:2248   */\n  dup4\n    /* \"#utility.yul\":2237:2240   */\n  dup4\n    /* \"#utility.yul\":2233:2249   */\n  add\n    /* \"#utility.yul\":2226:2253   */\n  mstore\n    /* \"#utility.yul\":2121:2260   */\n  pop\n  pop\n  pop\n  jump\t// out\n    /* \"#utility.yul\":2266:2700   */\ntag_37:\n    /* \"#utility.yul\":2355:2360   */\n  0x00\n    /* \"#utility.yul\":2380:2446   */\n  tag_88\n    /* \"#utility.yul\":2396:2445   */\n  tag_89\n    /* \"#utility.yul\":2438:2444   */\n  dup5\n    /* \"#utility.yul\":2396:2445   */\n  tag_35\n  jump\t// in\ntag_89:\n    /* \"#utility.yul\":2380:2446   */\n  tag_34\n  jump\t// in\ntag_88:\n    /* \"#utility.yul\":2371:2446   */\n  swap1\n  pop\n    /* \"#utility.yul\":2469:2475   */\n  dup3\n    /* \"#utility.yul\":2462:2467   */\n  dup2\n    /* \"#utility.yul\":2455:2476   */\n  mstore\n    /* \"#utility.yul\":2507:2511   */\n  0x20\n    /* \"#utility.yul\":2500:2505   */\n  dup2\n    /* \"#utility.yul\":2496:2512   */\n  add\n    /* \"#utility.yul\":2545:2548   */\n  dup5\n    /* \"#utility.yul\":2536:2542   */\n  dup5\n    /* \"#utility.yul\":2531:2534   */\n  dup5\n    /* \"#utility.yul\":2527:2543   */\n  add\n    /* \"#utility.yul\":2524:2549   */\n  gt\n    /* \"#utility.yul\":2521:2633   */\n  iszero\n  tag_90\n  jumpi\n    /* \"#utility.yul\":2552:2631   */\n  tag_91\n  tag_30\n  jump\t// in\ntag_91:\n    /* \"#utility.yul\":2521:2633   */\ntag_90:\n    /* \"#utility.yul\":2642:2694   */\n  tag_92\n    /* \"#utility.yul\":2687:2693   */\n  dup5\n    /* \"#utility.yul\":2682:2685   */\n  dup3\n    /* \"#utility.yul\":2677:2680   */\n  dup6\n    /* \"#utility.yul\":2642:2694   */\n  tag_36\n  jump\t// in\ntag_92:\n    /* \"#utility.yul\":2361:2700   */\n  pop\n    /* \"#utility.yul\":2266:2700   */\n  swap4\n  swap3\n  pop\n  pop\n  pop\n  jump\t// out\n    /* \"#utility.yul\":2720:3075   */\ntag_38:\n    /* \"#utility.yul\":2787:2792   */\n  0x00\n    /* \"#utility.yul\":2836:2839   */\n  dup3\n    /* \"#utility.yul\":2829:2833   */\n  0x1f\n    /* \"#utility.yul\":2821:2827   */\n  dup4\n    /* \"#utility.yul\":2817:2834   */\n  add\n    /* \"#utility.yul\":2813:2840   */\n  slt\n    /* \"#utility.yul\":2803:2925   */\n  tag_94\n  jumpi\n    /* \"#utility.yul\":2844:2923   */\n  tag_95\n  tag_29\n  jump\t// in\ntag_95:\n    /* \"#utility.yul\":2803:2925   */\ntag_94:\n    /* \"#utility.yul\":2954:2960   */\n  dup2\n    /* \"#utility.yul\":2948:2961   */\n  mload\n    /* \"#utility.yul\":2979:3069   */\n  tag_96\n    /* \"#utility.yul\":3065:3068   */\n  dup5\n    /* \"#utility.yul\":3057:3063   */\n  dup3\n    /* \"#utility.yul\":3050:3054   */\n  0x20\n    /* \"#utility.yul\":3042:3048   */\n  dup7\n    /* \"#utility.yul\":3038:3055   */\n  add\n    /* \"#utility.yul\":2979:3069   */\n  tag_37\n  jump\t// in\ntag_96:\n    /* \"#utility.yul\":2970:3069   */\n  swap2\n  pop\n    /* \"#utility.yul\":2793:3075   */\n  pop\n    /* \"#utility.yul\":2720:3075   */\n  swap3\n  swap2\n  pop\n  pop\n  jump\t// out\n    /* \"#utility.yul\":3081:3761   */\ntag_3:\n    /* \"#utility.yul\":3170:3176   */\n  0x00\n    /* \"#utility.yul\":3178:3184   */\n  dup1\n    /* \"#utility.yul\":3227:3229   */\n  0x40\n    /* \"#utility.yul\":3215:3224   */\n  dup4\n    /* \"#utility.yul\":3206:3213   */\n  dup6\n    /* \"#utility.yul\":3202:3225   */\n  sub\n    /* \"#utility.yul\":3198:3230   */\n  slt\n    /* \"#utility.yul\":3195:3314   */\n  iszero\n  tag_98\n  jumpi\n    /* \"#utility.yul\":3233:3312   */\n  tag_99\n  tag_23\n  jump\t// in\ntag_99:\n    /* \"#utility.yul\":3195:3314   */\ntag_98:\n    /* \"#utility.yul\":3353:3354   */\n  0x00\n    /* \"#utility.yul\":3378:3442   */\n  tag_100\n    /* \"#utility.yul\":3434:3441   */\n  dup6\n    /* \"#utility.yul\":3425:3431   */\n  dup3\n    /* \"#utility.yul\":3414:3423   */\n  dup7\n    /* \"#utility.yul\":3410:3432   */\n  add\n    /* \"#utility.yul\":3378:3442   */\n  tag_28\n  jump\t// in\ntag_100:\n    /* \"#utility.yul\":3368:3442   */\n  swap3\n  pop\n    /* \"#utility.yul\":3324:3452   */\n  pop\n    /* \"#utility.yul\":3512:3514   */\n  0x20\n    /* \"#utility.yul\":3501:3510   */\n  dup4\n    /* \"#utility.yul\":3497:3515   */\n  add\n    /* \"#utility.yul\":3491:3516   */\n  mload\n    /* \"#utility.yul\":3543:3561   */\n  0xffffffffffffffff\n    /* \"#utility.yul\":3535:3541   */\n  dup2\n    /* \"#utility.yul\":3532:3562   */\n  gt\n    /* \"#utility.yul\":3529:3646   */\n  iszero\n  tag_101\n  jumpi\n    /* \"#utility.yul\":3565:3644   */\n  tag_102\n  tag_24\n  jump\t// in\ntag_102:\n    /* \"#utility.yul\":3529:3646   */\ntag_101:\n    /* \"#utility.yul\":3670:3744   */\n  tag_103\n    /* \"#utility.yul\":3736:3743   */\n  dup6\n    /* \"#utility.yul\":3727:3733   */\n  dup3\n    /* \"#utility.yul\":3716:3725   */\n  dup7\n    /* \"#utility.yul\":3712:3734   */\n  add\n    /* \"#utility.yul\":3670:3744   */\n  tag_38\n  jump\t// in\ntag_103:\n    /* \"#utility.yul\":3660:3744   */\n  swap2\n  pop\n    /* \"#utility.yul\":3462:3754   */\n  pop\n    /* \"#utility.yul\":3081:3761   */\n  swap3\n  pop\n  swap3\n  swap1\n  pop\n  jump\t// out\n    /* \"#utility.yul\":3767:3885   */\ntag_39:\n    /* \"#utility.yul\":3854:3878   */\n  tag_105\n    /* \"#utility.yul\":3872:3877   */\n  dup2\n    /* \"#utility.yul\":3854:3878   */\n  tag_26\n  jump\t// in\ntag_105:\n    /* \"#utility.yul\":3849:3852   */\n  dup3\n    /* \"#utility.yul\":3842:3879   */\n  mstore\n    /* \"#utility.yul\":3767:3885   */\n  pop\n  pop\n  jump\t// out\n    /* \"#utility.yul\":3891:4113   */\ntag_13:\n    /* \"#utility.yul\":3984:3988   */\n  0x00\n    /* \"#utility.yul\":4022:4024   */\n  0x20\n    /* \"#utility.yul\":4011:4020   */\n  dup3\n    /* \"#utility.yul\":4007:4025   */\n  add\n    /* \"#utility.yul\":3999:4025   */\n  swap1\n  pop\n    /* \"#utility.yul\":4035:4106   */\n  tag_107\n    /* \"#utility.yul\":4103:4104   */\n  0x00\n    /* \"#utility.yul\":4092:4101   */\n  dup4\n    /* \"#utility.yul\":4088:4105   */\n  add\n    /* \"#utility.yul\":4079:4085   */\n  dup5\n    /* \"#utility.yul\":4035:4106   */\n  tag_39\n  jump\t// in\ntag_107:\n    /* \"#utility.yul\":3891:4113   */\n  swap3\n  swap2\n  pop\n  pop\n  jump\t// out\n    /* \"#utility.yul\":4119:4218   */\ntag_40:\n    /* \"#utility.yul\":4171:4177   */\n  0x00\n    /* \"#utility.yul\":4205:4210   */\n  dup2\n    /* \"#utility.yul\":4199:4211   */\n  mload\n    /* \"#utility.yul\":4189:4211   */\n  swap1\n  pop\n    /* \"#utility.yul\":4119:4218   */\n  swap2\n  swap1\n  pop\n  jump\t// out\n    /* \"#utility.yul\":4224:4404   */\ntag_41:\n    /* \"#utility.yul\":4272:4349   */\n  0x4e487b7100000000000000000000000000000000000000000000000000000000\n    /* \"#utility.yul\":4269:4270   */\n  0x00\n    /* \"#utility.yul\":4262:4350   */\n  mstore\n    /* \"#utility.yul\":4369:4373   */\n  0x22\n    /* \"#utility.yul\":4366:4367   */\n  0x04\n    /* \"#utility.yul\":4359:4374   */\n  mstore\n    /* \"#utility.yul\":4393:4397   */\n  0x24\n    /* \"#utility.yul\":4390:4391   */\n  0x00\n    /* \"#utility.yul\":4383:4398   */\n  revert\n    /* \"#utility.yul\":4410:4730   */\ntag_42:\n    /* \"#utility.yul\":4454:4460   */\n  0x00\n    /* \"#utility.yul\":4491:4492   */\n  0x02\n    /* \"#utility.yul\":4485:4489   */\n  dup3\n    /* \"#utility.yul\":4481:4493   */\n  div\n    /* \"#utility.yul\":4471:4493   */\n  swap1\n  pop\n    /* \"#utility.yul\":4538:4539   */\n  0x01\n    /* \"#utility.yul\":4532:4536   */\n  dup3\n    /* \"#utility.yul\":4528:4540   */\n  and\n    /* \"#utility.yul\":4559:4577   */\n  dup1\n    /* \"#utility.yul\":4549:4630   */\n  tag_111\n  jumpi\n    /* \"#utility.yul\":4615:4619   */\n  0x7f\n    /* \"#utility.yul\":4607:4613   */\n  dup3\n    /* \"#utility.yul\":4603:4620   */\n  and\n    /* \"#utility.yul\":4593:4620   */\n  swap2\n  pop\n    /* \"#utility.yul\":4549:4630   */\ntag_111:\n    /* \"#utility.yul\":4677:4679   */\n  0x20\n    /* \"#utility.yul\":4669:4675   */\n  dup3\n    /* \"#utility.yul\":4666:4680   */\n  lt\n    /* \"#utility.yul\":4646:4664   */\n  dup2\n    /* \"#utility.yul\":4643:4681   */\n  sub\n    /* \"#utility.yul\":4640:4724   */\n  tag_112\n  jumpi\n    /* \"#utility.yul\":4696:4714   */\n  tag_113\n  tag_41\n  jump\t// in\ntag_113:\n    /* \"#utility.yul\":4640:4724   */\ntag_112:\n    /* \"#utility.yul\":4461:4730   */\n  pop\n    /* \"#utility.yul\":4410:4730   */\n  swap2\n  swap1\n  pop\n  jump\t// out\n    /* \"#utility.yul\":4736:4877   */\ntag_43:\n    /* \"#utility.yul\":4785:4789   */\n  0x00\n    /* \"#utility.yul\":4808:4811   */\n  dup2\n    /* \"#utility.yul\":4800:4811   */\n  swap1\n  pop\n    /* \"#utility.yul\":4831:4834   */\n  dup2\n    /* \"#utility.yul\":4828:4829   */\n  0x00\n    /* \"#utility.yul\":4821:4835   */\n  mstore\n    /* \"#utility.yul\":4865:4869   */\n  0x20\n    /* \"#utility.yul\":4862:4863   */\n  0x00\n    /* \"#utility.yul\":4852:4870   */\n  keccak256\n    /* \"#utility.yul\":4844:4870   */\n  swap1\n  pop\n    /* \"#utility.yul\":4736:4877   */\n  swap2\n  swap1\n  pop\n  jump\t// out\n    /* \"#utility.yul\":4883:4976   */\ntag_44:\n    /* \"#utility.yul\":4920:4926   */\n  0x00\n    /* \"#utility.yul\":4967:4969   */\n  0x20\n    /* \"#utility.yul\":4962:4964   */\n  0x1f\n    /* \"#utility.yul\":4955:4960   */\n  dup4\n    /* \"#utility.yul\":4951:4965   */\n  add\n    /* \"#utility.yul\":4947:4970   */\n  div\n    /* \"#utility.yul\":4937:4970   */\n  swap1\n  pop\n    /* \"#utility.yul\":4883:4976   */\n  swap2\n  swap1\n  pop\n  jump\t// out\n    /* \"#utility.yul\":4982:5089   */\ntag_45:\n    /* \"#utility.yul\":5026:5034   */\n  0x00\n    /* \"#utility.yul\":5076:5081   */\n  dup3\n    /* \"#utility.yul\":5070:5074   */\n  dup3\n    /* \"#utility.yul\":5066:5082   */\n  shl\n    /* \"#utility.yul\":5045:5082   */\n  swap1\n  pop\n    /* \"#utility.yul\":4982:5089   */\n  swap3\n  swap2\n  pop\n  pop\n  jump\t// out\n    /* \"#utility.yul\":5095:5488   */\ntag_46:\n    /* \"#utility.yul\":5164:5170   */\n  0x00\n    /* \"#utility.yul\":5214:5215   */\n  0x08\n    /* \"#utility.yul\":5202:5212   */\n  dup4\n    /* \"#utility.yul\":5198:5216   */\n  mul\n    /* \"#utility.yul\":5237:5334   */\n  tag_118\n    /* \"#utility.yul\":5267:5333   */\n  0xffffffffffffffffffffffffffffffffffffffffffffffffffffffffffffffff\n    /* \"#utility.yul\":5256:5265   */\n  dup3\n    /* \"#utility.yul\":5237:5334   */\n  tag_45\n  jump\t// in\ntag_118:\n    /* \"#utility.yul\":5355:5394   */\n  tag_119\n    /* \"#utility.yul\":5385:5393   */\n  dup7\n    /* \"#utility.yul\":5374:5383   */\n  dup4\n    /* \"#utility.yul\":5355:5394   */\n  tag_45\n  jump\t// in\ntag_119:\n    /* \"#utility.yul\":5343:5394   */\n  swap6\n  pop\n    /* \"#utility.yul\":5427:5431   */\n  dup1\n    /* \"#utility.yul\":5423:5432   */\n  not\n    /* \"#utility.yul\":5416:5421   */\n  dup5\n    /* \"#utility.yul\":5412:5433   */\n  and\n    /* \"#utility.yul\":5403:5433   */\n  swap4\n  pop\n    /* \"#utility.yul\":5476:5480   */\n  dup1\n    /* \"#utility.yul\":5466:5474   */\n  dup7\n    /* \"#utility.yul\":5462:5481   */\n  and\n    /* \"#utility.yul\":5455:5460   */\n  dup5\n    /* \"#utility.yul\":5452:5482   */\n  or\n    /* \"#utility.yul\":5442:5482   */\n  swap3\n  pop\n    /* \"#utility.yul\":5171:5488   */\n  pop\n  pop\n    /* \"#utility.yul\":5095:5488   */\n  swap4\n  swap3\n  pop\n  pop\n  pop\n  jump\t// out\n    /* \"#utility.yul\":5494:5571   */\ntag_47:\n    /* \"#utility.yul\":5531:5538   */\n  0x00\n    /* \"#utility.yul\":5560:5565   */\n  dup2\n    /* \"#utility.yul\":5549:5565   */\n  swap1\n  pop\n    /* \"#utility.yul\":5494:5571   */\n  swap2\n  swap1\n  pop\n  jump\t// out\n    /* \"#utility.yul\":5577:5637   */\ntag_48:\n    /* \"#utility.yul\":5605:5608   */\n  0x00\n    /* \"#utility.yul\":5626:5631   */\n  dup2\n    /* \"#utility.yul\":5619:5631   */\n  swap1\n  pop\n    /* \"#utility.yul\":5577:5637   */\n  swap2\n  swap1\n  pop\n  jump\t// out\n    /* \"#utility.yul\":5643:5785   */\ntag_49:\n    /* \"#utility.yul\":5693:5702   */\n  0x00\n    /* \"#utility.yul\":5726:5779   */\n  tag_123\n    /* \"#utility.yul\":5744:5778   */\n  tag_124\n    /* \"#utility.yul\":5753:5777   */\n  tag_125\n    /* \"#utility.yul\":5771:5776   */\n  dup5\n    /* \"#utility.yul\":5753:5777   */\n  tag_47\n  jump\t// in\ntag_125:\n    /* \"#utility.yul\":5744:5778   */\n  tag_48\n  jump\t// in\ntag_124:\n    /* \"#utility.yul\":5726:5779   */\n  tag_47\n  jump\t// in\ntag_123:\n    /* \"#utility.yul\":5713:5779   */\n  swap1\n  pop\n    /* \"#utility.yul\":5643:5785   */\n  swap2\n  swap1\n  pop\n  jump\t// out\n    /* \"#utility.yul\":5791:5866   */\ntag_50:\n    /* \"#utility.yul\":5834:5837   */\n  0x00\n    /* \"#utility.yul\":5855:5860   */\n  dup2\n    /* \"#utility.yul\":5848:5860   */\n  swap1\n  pop\n    /* \"#utility.yul\":5791:5866   */\n  swap2\n  swap1\n  pop\n  jump\t// out\n    /* \"#utility.yul\":5872:6141   */\ntag_51:\n    /* \"#utility.yul\":5982:6021   */\n  tag_128\n    /* \"#utility.yul\":6013:6020   */\n  dup4\n    /* \"#utility.yul\":5982:6021   */\n  tag_49\n  jump\t// in\ntag_128:\n    /* \"#utility.yul\":6043:6134   */\n  tag_129\n    /* \"#utility.yul\":6092:6133   */\n  tag_130\n    /* \"#utility.yul\":6116:6132   */\n  dup3\n    /* \"#utility.yul\":6092:6133   */\n  tag_50\n  jump\t// in\ntag_130:\n    /* \"#utility.yul\":6084:6090   */\n  dup5\n    /* \"#utility.yul\":6077:6081   */\n  dup5\n    /* \"#utility.yul\":6071:6082   */\n  sload\n    /* \"#utility.yul\":6043:6134   */\n  tag_46\n  jump\t// in\ntag_129:\n    /* \"#utility.yul\":6037:6041   */\n  dup3\n    /* \"#utility.yul\":6030:6135   */\n  sstore\n    /* \"#utility.yul\":5948:6141   */\n  pop\n    /* \"#utility.yul\":5872:6141   */\n  pop\n  pop\n  pop\n  jump\t// out\n    /* \"#utility.yul\":6147:6220   */\ntag_52:\n    /* \"#utility.yul\":6192:6195   */\n  0x00\n    /* \"#utility.yul\":6147:6220   */\n  swap1\n  jump\t// out\n    /* \"#utility.yul\":6226:6415   */\ntag_53:\n    /* \"#utility.yul\":6303:6335   */\n  tag_133\n  tag_52\n  jump\t// in\ntag_133:\n    /* \"#utility.yul\":6344:6409   */\n  tag_134\n    /* \"#utility.yul\":6402:6408   */\n  dup2\n    /* \"#utility.yul\":6394:6400   */\n  dup5\n    /* \"#utility.yul\":6388:6392   */\n  dup5\n    /* \"#utility.yul\":6344:6409   */\n  tag_51\n  jump\t// in\ntag_134:\n    /* \"#utility.yul\":6279:6415   */\n  pop\n    /* \"#utility.yul\":6226:6415   */\n  pop\n  pop\n  jump\t// out\n    /* \"#utility.yul\":6421:6607   */\ntag_54:\n    /* \"#utility.yul\":6481:6601   */\ntag_136:\n    /* \"#utility.yul\":6498:6501   */\n  dup2\n    /* \"#utility.yul\":6491:6496   */\n  dup2\n    /* \"#utility.yul\":6488:6502   */\n  lt\n    /* \"#utility.yul\":6481:6601   */\n  iszero\n  tag_138\n  jumpi\n    /* \"#utility.yul\":6552:6591   */\n  tag_139\n    /* \"#utility.yul\":6589:6590   */\n  0x00\n    /* \"#utility.yul\":6582:6587   */\n  dup3\n    /* \"#utility.yul\":6552:6591   */\n  tag_53\n  jump\t// in\ntag_139:\n    /* \"#utility.yul\":6525:6526   */\n  0x01\n    /* \"#utility.yul\":6518:6523   */\n  dup2\n    /* \"#utility.yul\":6514:6527   */\n  add\n    /* \"#utility.yul\":6505:6527   */\n  swap1\n  pop\n    /* \"#utility.yul\":6481:6601   */\n  jump(tag_136)\ntag_138:\n    /* \"#utility.yul\":6421:6607   */\n  pop\n  pop\n  jump\t// out\n    /* \"#utility.yul\":6613:7156   */\ntag_55:\n    /* \"#utility.yul\":6714:6716   */\n  0x1f\n    /* \"#utility.yul\":6709:6712   */\n  dup3\n    /* \"#utility.yul\":6706:6717   */\n  gt\n    /* \"#utility.yul\":6703:7149   */\n  iszero\n  tag_141\n  jumpi\n    /* \"#utility.yul\":6748:6786   */\n  tag_142\n    /* \"#utility.yul\":6780:6785   */\n  dup2\n    /* \"#utility.yul\":6748:6786   */\n  tag_43\n  jump\t// in\ntag_142:\n    /* \"#utility.yul\":6832:6861   */\n  tag_143\n    /* \"#utility.yul\":6850:6860   */\n  dup5\n    /* \"#utility.yul\":6832:6861   */\n  tag_44\n  jump\t// in\ntag_143:\n    /* \"#utility.yul\":6822:6830   */\n  dup2\n    /* \"#utility.yul\":6818:6862   */\n  add\n    /* \"#utility.yul\":7015:7017   */\n  0x20\n    /* \"#utility.yul\":7003:7013   */\n  dup6\n    /* \"#utility.yul\":7000:7018   */\n  lt\n    /* \"#utility.yul\":6997:7046   */\n  iszero\n  tag_144\n  jumpi\n    /* \"#utility.yul\":7036:7044   */\n  dup2\n    /* \"#utility.yul\":7021:7044   */\n  swap1\n  pop\n    /* \"#utility.yul\":6997:7046   */\ntag_144:\n    /* \"#utility.yul\":7059:7139   */\n  tag_145\n    /* \"#utility.yul\":7115:7137   */\n  tag_146\n    /* \"#utility.yul\":7133:7136   */\n  dup6\n    /* \"#utility.yul\":7115:7137   */\n  tag_44\n  jump\t// in\ntag_146:\n    /* \"#utility.yul\":7105:7113   */\n  dup4\n    /* \"#utility.yul\":7101:7138   */\n  add\n    /* \"#utility.yul\":7088:7099   */\n  dup3\n    /* \"#utility.yul\":7059:7139   */\n  tag_54\n  jump\t// in\ntag_145:\n    /* \"#utility.yul\":6718:7149   */\n  pop\n  pop\n    /* \"#utility.yul\":6703:7149   */\ntag_141:\n    /* \"#utility.yul\":6613:7156   */\n  pop\n  pop\n  pop\n  jump\t// out\n    /* \"#utility.yul\":7162:7279   */\ntag_56:\n    /* \"#utility.yul\":7216:7224   */\n  0x00\n    /* \"#utility.yul\":7266:7271   */\n  dup3\n    /* \"#utility.yul\":7260:7264   */\n  dup3\n    /* \"#utility.yul\":7256:7272   */\n  shr\n    /* \"#utility.yul\":7235:7272   */\n  swap1\n  pop\n    /* \"#utility.yul\":7162:7279   */\n  swap3\n  swap2\n  pop\n  pop\n  jump\t// out\n    /* \"#utility.yul\":7285:7454   */\ntag_57:\n    /* \"#utility.yul\":7329:7335   */\n  0x00\n    /* \"#utility.yul\":7362:7413   */\n  tag_149\n    /* \"#utility.yul\":7410:7411   */\n  0x00\n    /* \"#utility.yul\":7406:7412   */\n  not\n    /* \"#utility.yul\":7398:7403   */\n  dup5\n    /* \"#utility.yul\":7395:7396   */\n  0x08\n    /* \"#utility.yul\":7391:7404   */\n  mul\n    /* \"#utility.yul\":7362:7413   */\n  tag_56\n  jump\t// in\ntag_149:\n    /* \"#utility.yul\":7358:7414   */\n  not\n    /* \"#utility.yul\":7443:7447   */\n  dup1\n    /* \"#utility.yul\":7437:7441   */\n  dup4\n    /* \"#utility.yul\":7433:7448   */\n  and\n    /* \"#utility.yul\":7423:7448   */\n  swap2\n  pop\n    /* \"#utility.yul\":7336:7454   */\n  pop\n    /* \"#utility.yul\":7285:7454   */\n  swap3\n  swap2\n  pop\n  pop\n  jump\t// out\n    /* \"#utility.yul\":7459:7754   */\ntag_58:\n    /* \"#utility.yul\":7535:7539   */\n  0x00\n    /* \"#utility.yul\":7681:7710   */\n  tag_151\n    /* \"#utility.yul\":7706:7709   */\n  dup4\n    /* \"#utility.yul\":7700:7704   */\n  dup4\n    /* \"#utility.yul\":7681:7710   */\n  tag_57\n  jump\t// in\ntag_151:\n    /* \"#utility.yul\":7673:7710   */\n  swap2\n  pop\n    /* \"#utility.yul\":7743:7746   */\n  dup3\n    /* \"#utility.yul\":7740:7741   */\n  0x02\n    /* \"#utility.yul\":7736:7747   */\n  mul\n    /* \"#utility.yul\":7730:7734   */\n  dup3\n    /* \"#utility.yul\":7727:7748   */\n  or\n    /* \"#utility.yul\":7719:7748   */\n  swap1\n  pop\n    /* \"#utility.yul\":7459:7754   */\n  swap3\n  swap2\n  pop\n  pop\n  jump\t// out\n    /* \"#utility.yul\":7759:9154   */\ntag_20:\n    /* \"#utility.yul\":7876:7913   */\n  tag_153\n    /* \"#utility.yul\":7909:7912   */\n  dup3\n    /* \"#utility.yul\":7876:7913   */\n  tag_40\n  jump\t// in\ntag_153:\n    /* \"#utility.yul\":7978:7996   */\n  0xffffffffffffffff\n    /* \"#utility.yul\":7970:7976   */\n  dup2\n    /* \"#utility.yul\":7967:7997   */\n  gt\n    /* \"#utility.yul\":7964:8020   */\n  iszero\n  tag_154\n  jumpi\n    /* \"#utility.yul\":8000:8018   */\n  tag_155\n  tag_32\n  jump\t// in\ntag_155:\n    /* \"#utility.yul\":7964:8020   */\ntag_154:\n    /* \"#utility.yul\":8044:8082   */\n  tag_156\n    /* \"#utility.yul\":8076:8080   */\n  dup3\n    /* \"#utility.yul\":8070:8081   */\n  sload\n    /* \"#utility.yul\":8044:8082   */\n  tag_42\n  jump\t// in\ntag_156:\n    /* \"#utility.yul\":8129:8196   */\n  tag_157\n    /* \"#utility.yul\":8189:8195   */\n  dup3\n    /* \"#utility.yul\":8181:8187   */\n  dup3\n    /* \"#utility.yul\":8175:8179   */\n  dup6\n    /* \"#utility.yul\":8129:8196   */\n  tag_55\n  jump\t// in\ntag_157:\n    /* \"#utility.yul\":8223:8224   */\n  0x00\n    /* \"#utility.yul\":8247:8251   */\n  0x20\n    /* \"#utility.yul\":8234:8251   */\n  swap1\n  pop\n    /* \"#utility.yul\":8279:8281   */\n  0x1f\n    /* \"#utility.yul\":8271:8277   */\n  dup4\n    /* \"#utility.yul\":8268:8282   */\n  gt\n    /* \"#utility.yul\":8296:8297   */\n  0x01\n    /* \"#utility.yul\":8291:8909   */\n  dup2\n  eq\n  tag_159\n  jumpi\n    /* \"#utility.yul\":8953:8954   */\n  0x00\n    /* \"#utility.yul\":8970:8976   */\n  dup5\n    /* \"#utility.yul\":8967:9044   */\n  iszero\n  tag_160\n  jumpi\n    /* \"#utility.yul\":9019:9028   */\n  dup3\n    /* \"#utility.yul\":9014:9017   */\n  dup8\n    /* \"#utility.yul\":9010:9029   */\n  add\n    /* \"#utility.yul\":9004:9030   */\n  mload\n    /* \"#utility.yul\":8995:9030   */\n  swap1\n  pop\n    /* \"#utility.yul\":8967:9044   */\ntag_160:\n    /* \"#utility.yul\":9070:9137   */\n  tag_161\n    /* \"#utility.yul\":9130:9136   */\n  dup6\n    /* \"#utility.yul\":9123:9128   */\n  dup3\n    /* \"#utility.yul\":9070:9137   */\n  tag_58\n  jump\t// in\ntag_161:\n    /* \"#utility.yul\":9064:9068   */\n  dup7\n    /* \"#utility.yul\":9057:9138   */\n  sstore\n    /* \"#utility.yul\":8926:9148   */\n  pop\n    /* \"#utility.yul\":8261:9148   */\n  jump(tag_158)\n    /* \"#utility.yul\":8291:8909   */\ntag_159:\n    /* \"#utility.yul\":8343:8347   */\n  0x1f\n    /* \"#utility.yul\":8339:8348   */\n  not\n    /* \"#utility.yul\":8331:8337   */\n  dup5\n    /* \"#utility.yul\":8327:8349   */\n  and\n    /* \"#utility.yul\":8377:8414   */\n  tag_162\n    /* \"#utility.yul\":8409:8413   */\n  dup7\n    /* \"#utility.yul\":8377:8414   */\n  tag_43\n  jump\t// in\ntag_162:\n    /* \"#utility.yul\":8436:8437   */\n  0x00\n    /* \"#utility.yul\":8450:8658   */\ntag_163:\n    /* \"#utility.yul\":8464:8471   */\n  dup3\n    /* \"#utility.yul\":8461:8462   */\n  dup2\n    /* \"#utility.yul\":8458:8472   */\n  lt\n    /* \"#utility.yul\":8450:8658   */\n  iszero\n  tag_165\n  jumpi\n    /* \"#utility.yul\":8543:8552   */\n  dup5\n    /* \"#utility.yul\":8538:8541   */\n  dup10\n    /* \"#utility.yul\":8534:8553   */\n  add\n    /* \"#utility.yul\":8528:8554   */\n  mload\n    /* \"#utility.yul\":8520:8526   */\n  dup3\n    /* \"#utility.yul\":8513:8555   */\n  sstore\n    /* \"#utility.yul\":8594:8595   */\n  0x01\n    /* \"#utility.yul\":8586:8592   */\n  dup3\n    /* \"#utility.yul\":8582:8596   */\n  add\n    /* \"#utility.yul\":8572:8596   */\n  swap2\n  pop\n    /* \"#utility.yul\":8641:8643   */\n  0x20\n    /* \"#utility.yul\":8630:8639   */\n  dup6\n    /* \"#utility.yul\":8626:8644   */\n  add\n    /* \"#utility.yul\":8613:8644   */\n  swap5\n  pop\n    /* \"#utility.yul\":8487:8491   */\n  0x20\n    /* \"#utility.yul\":8484:8485   */\n  dup2\n    /* \"#utility.yul\":8480:8492   */\n  add\n    /* \"#utility.yul\":8475:8492   */\n  swap1\n  pop\n    /* \"#utility.yul\":8450:8658   */\n  jump(tag_163)\ntag_165:\n    /* \"#utility.yul\":8686:8692   */\n  dup7\n    /* \"#utility.yul\":8677:8684   */\n  dup4\n    /* \"#utility.yul\":8674:8693   */\n  lt\n    /* \"#utility.yul\":8671:8850   */\n  iszero\n  tag_166\n  jumpi\n    /* \"#utility.yul\":8744:8753   */\n  dup5\n    /* \"#utility.yul\":8739:8742   */\n  dup10\n    /* \"#utility.yul\":8735:8754   */\n  add\n    /* \"#utility.yul\":8729:8755   */\n  mload\n    /* \"#utility.yul\":8787:8835   */\n  tag_167\n    /* \"#utility.yul\":8829:8833   */\n  0x1f\n    /* \"#utility.yul\":8821:8827   */\n  dup10\n    /* \"#utility.yul\":8817:8834   */\n  and\n    /* \"#utility.yul\":8806:8815   */\n  dup3\n    /* \"#utility.yul\":8787:8835   */\n  tag_57\n  jump\t// in\ntag_167:\n    /* \"#utility.yul\":8779:8785   */\n  dup4\n    /* \"#utility.yul\":8772:8836   */\n  sstore\n    /* \"#utility.yul\":8694:8850   */\n  pop\n    /* \"#utility.yul\":8671:8850   */\ntag_166:\n    /* \"#utility.yul\":8896:8897   */\n  0x01\n    /* \"#utility.yul\":8892:8893   */\n  0x02\n    /* \"#utility.yul\":8884:8890   */\n  dup9\n    /* \"#utility.yul\":8880:8894   */\n  mul\n    /* \"#utility.yul\":8876:8898   */\n  add\n    /* \"#utility.yul\":8870:8874   */\n  dup9\n    /* \"#utility.yul\":8863:8899   */\n  sstore\n    /* \"#utility.yul\":8298:8909   */\n  pop\n  pop\n  pop\n    /* \"#utility.yul\":8261:9148   */\ntag_158:\n  pop\n    /* \"#utility.yul\":7851:9154   */\n  pop\n  pop\n  pop\n    /* \"#utility.yul\":7759:9154   */\n  pop\n  pop\n  jump\t// out\n    /* \"contracts/common/CapybaraNFT.sol\":300:1041  contract CapybaraNFT is ERC1155, Ownable, ERC1155Burnable {... */\ntag_17:\n  dataSize(sub_0)\n  dup1\n  dataOffset(sub_0)\n  0x00\n  codecopy\n  0x00\n  return\nstop\n\nsub_0: assembly {\n        /* \"contracts/common/CapybaraNFT.sol\":300:1041  contract CapybaraNFT is ERC1155, Ownable, ERC1155Burnable {... */\n      mstore(0x40, 0x80)\n      callvalue\n      dup1\n      iszero\n      tag_1\n      jumpi\n      0x00\n      dup1\n      revert\n    tag_1:\n      pop\n      jumpi(tag_2, lt(calldatasize, 0x04))\n      shr(0xe0, calldataload(0x00))\n      dup1\n      0x715018a6\n      gt\n      tag_19\n      jumpi\n      dup1\n      0xe985e9c5\n      gt\n      tag_20\n      jumpi\n      dup1\n      0xe985e9c5\n      eq\n      tag_15\n      jumpi\n      dup1\n      0xf242432a\n      eq\n      tag_16\n      jumpi\n      dup1\n      0xf2fde38b\n      eq\n      tag_17\n      jumpi\n      dup1\n      0xf5298aca\n      eq\n      tag_18\n      jumpi\n      jump(tag_2)\n    tag_20:\n      dup1\n      0x715018a6\n      eq\n      tag_11\n      jumpi\n      dup1\n      0x8da5cb5b\n      eq\n      tag_12\n      jumpi\n      dup1\n      0xa22cb465\n      eq\n      tag_13\n      jumpi\n      dup1\n      0xb510391f\n      eq\n      tag_14\n      jumpi\n      jump(tag_2)\n    tag_19:\n      dup1\n      0x2eb2c2d6\n      gt\n      tag_21\n      jumpi\n      dup1\n      0x2eb2c2d6\n      eq\n      tag_7\n      jumpi\n      dup1\n      0x31f0e6c8\n      eq\n      tag_8\n      jumpi\n      dup1\n      0x4e1273f4\n      eq\n      tag_9\n      jumpi\n      dup1\n      0x6b20c454\n      eq\n      tag_10\n      jumpi\n      jump(tag_2)\n    tag_21:\n      dup1\n      0xfdd58e\n      eq\n      tag_3\n      jumpi\n      dup1\n      0x01ffc9a7\n      eq\n      tag_4\n      jumpi\n      dup1\n      0x02fe5305\n      eq\n      tag_5\n      jumpi\n      dup1\n      0x0e89341c\n      eq\n      tag_6\n      jumpi\n    tag_2:\n      0x00\n      dup1\n      revert\n        /* \"@openzeppelin/contracts/token/ERC1155/ERC1155.sol\":2247:2379  function balanceOf(address account, uint256 id) public view virtual returns (uint256) {... */\n    tag_3:\n      tag_22\n      0x04\n      dup1\n      calldatasize\n      sub\n      dup2\n      add\n      swap1\n      tag_23\n      swap2\n      swap1\n      tag_24\n      jump\t// in\n    tag_23:\n      tag_25\n      jump\t// in\n    tag_22:\n      mload(0x40)\n      tag_26\n      swap2\n      swap1\n      tag_27\n      jump\t// in\n    tag_26:\n      mload(0x40)\n      dup1\n      swap2\n      sub\n      swap1\n      return\n        /* \"@openzeppelin/contracts/token/ERC1155/ERC1155.sol\":1380:1685  function supportsInterface(bytes4 interfaceId) public view virtual override(ERC165, IERC165) returns (bool) {... */\n    tag_4:\n      tag_28\n      0x04\n      dup1\n      calldatasize\n      sub\n      dup2\n      add\n      swap1\n      tag_29\n      swap2\n      swap1\n      tag_30\n      jump\t// in\n    tag_29:\n      tag_31\n      jump\t// in\n    tag_28:\n      mload(0x40)\n      tag_32\n      swap2\n      swap1\n      tag_33\n      jump\t// in\n    tag_32:\n      mload(0x40)\n      dup1\n      swap2\n      sub\n      swap1\n      return\n        /* \"contracts/common/CapybaraNFT.sol\":554:641  function setURI(string memory newuri) public onlyOwner {... */\n    tag_5:\n      tag_34\n      0x04\n      dup1\n      calldatasize\n      sub\n      dup2\n      add\n      swap1\n      tag_35\n      swap2\n      swap1\n      tag_36\n      jump\t// in\n    tag_35:\n      tag_37\n      jump\t// in\n    tag_34:\n      stop\n        /* \"@openzeppelin/contracts/token/ERC1155/ERC1155.sol\":2084:2187  function uri(uint256 /* id */) public view virtual returns (string memory) {... */\n    tag_6:\n      tag_38\n      0x04\n      dup1\n      calldatasize\n      sub\n      dup2\n      add\n      swap1\n      tag_39\n      swap2\n      swap1\n      tag_40\n      jump\t// in\n    tag_39:\n      tag_41\n      jump\t// in\n    tag_38:\n      mload(0x40)\n      tag_42\n      swap2\n      swap1\n      tag_43\n      jump\t// in\n    tag_42:\n      mload(0x40)\n      dup1\n      swap2\n      sub\n      swap1\n      return\n        /* \"@openzeppelin/contracts/token/ERC1155/ERC1155.sol\":4014:4443  function safeBatchTransferFrom(... */\n    tag_7:\n      tag_44\n      0x04\n      dup1\n      calldatasize\n      sub\n      dup2\n      add\n      swap1\n      tag_45\n      swap2\n      swap1\n      tag_46\n      jump\t// in\n    tag_45:\n      tag_47\n      jump\t// in\n    tag_44:\n      stop\n        /* \"contracts/common/CapybaraNFT.sol\":836:1039  function mintBatch(... */\n    tag_8:\n      tag_48\n      0x04\n      dup1\n      calldatasize\n      sub\n      dup2\n      add\n      swap1\n      tag_49\n      swap2\n      swap1\n      tag_50\n      jump\t// in\n    tag_49:\n      tag_51\n      jump\t// in\n    tag_48:\n      stop\n        /* \"@openzeppelin/contracts/token/ERC1155/ERC1155.sol\":2536:3088  function balanceOfBatch(... */\n    tag_9:\n      tag_52\n      0x04\n      dup1\n      calldatasize\n      sub\n      dup2\n      add\n      swap1\n      tag_53\n      swap2\n      swap1\n      tag_54\n      jump\t// in\n    tag_53:\n      tag_55\n      jump\t// in\n    tag_52:\n      mload(0x40)\n      tag_56\n      swap2\n      swap1\n      tag_57\n      jump\t// in\n    tag_56:\n      mload(0x40)\n      dup1\n      swap2\n      sub\n      swap1\n      return\n        /* \"@openzeppelin/contracts/token/ERC1155/extensions/ERC1155Burnable.sol\":681:994  function burnBatch(address account, uint256[] memory ids, uint256[] memory values) public virtual {... */\n    tag_10:\n      tag_58\n      0x04\n      dup1\n      calldatasize\n      sub\n      dup2\n      add\n      swap1\n      tag_59\n      swap2\n      swap1\n      tag_60\n      jump\t// in\n    tag_59:\n      tag_61\n      jump\t// in\n    tag_58:\n      stop\n        /* \"@openzeppelin/contracts/access/Ownable.sol\":2293:2394  function renounceOwnership() public virtual onlyOwner {... */\n    tag_11:\n      tag_62\n      tag_63\n      jump\t// in\n    tag_62:\n      stop\n        /* \"@openzeppelin/contracts/access/Ownable.sol\":1638:1723  function owner() public view virtual returns (address) {... */\n    tag_12:\n      tag_64\n      tag_65\n      jump\t// in\n    tag_64:\n      mload(0x40)\n      tag_66\n      swap2\n      swap1\n      tag_67\n      jump\t// in\n    tag_66:\n      mload(0x40)\n      dup1\n      swap2\n      sub\n      swap1\n      return\n        /* \"@openzeppelin/contracts/token/ERC1155/ERC1155.sol\":3156:3300  function setApprovalForAll(address operator, bool approved) public virtual {... */\n    tag_13:\n      tag_68\n      0x04\n      dup1\n      calldatasize\n      sub\n      dup2\n      add\n      swap1\n      tag_69\n      swap2\n      swap1\n      tag_70\n      jump\t// in\n    tag_69:\n      tag_71\n      jump\t// in\n    tag_68:\n      stop\n        /* \"contracts/common/CapybaraNFT.sol\":647:830  function mint(address account, bytes memory data) public onlyOwner {... */\n    tag_14:\n      tag_72\n      0x04\n      dup1\n      calldatasize\n      sub\n      dup2\n      add\n      swap1\n      tag_73\n      swap2\n      swap1\n      tag_74\n      jump\t// in\n    tag_73:\n      tag_75\n      jump\t// in\n    tag_72:\n      stop\n        /* \"@openzeppelin/contracts/token/ERC1155/ERC1155.sol\":3367:3524  function isApprovedForAll(address account, address operator) public view virtual returns (bool) {... */\n    tag_15:\n      tag_76\n      0x04\n      dup1\n      calldatasize\n      sub\n      dup2\n      add\n      swap1\n      tag_77\n      swap2\n      swap1\n      tag_78\n      jump\t// in\n    tag_77:\n      tag_79\n      jump\t// in\n    tag_76:\n      mload(0x40)\n      tag_80\n      swap2\n      swap1\n      tag_33\n      jump\t// in\n    tag_80:\n      mload(0x40)\n      dup1\n      swap2\n      sub\n      swap1\n      return\n        /* \"@openzeppelin/contracts/token/ERC1155/ERC1155.sol\":3591:3942  function safeTransferFrom(address from, address to, uint256 id, uint256 value, bytes memory data) public virtual {... */\n    tag_16:\n      tag_81\n      0x04\n      dup1\n      calldatasize\n      sub\n      dup2\n      add\n      swap1\n      tag_82\n      swap2\n      swap1\n      tag_83\n      jump\t// in\n    tag_82:\n      tag_84\n      jump\t// in\n    tag_81:\n      stop\n        /* \"@openzeppelin/contracts/access/Ownable.sol\":2543:2758  function transferOwnership(address newOwner) public virtual onlyOwner {... */\n    tag_17:\n      tag_85\n      0x04\n      dup1\n      calldatasize\n      sub\n      dup2\n      add\n      swap1\n      tag_86\n      swap2\n      swap1\n      tag_87\n      jump\t// in\n    tag_86:\n      tag_88\n      jump\t// in\n    tag_85:\n      stop\n        /* \"@openzeppelin/contracts/token/ERC1155/extensions/ERC1155Burnable.sol\":394:675  function burn(address account, uint256 id, uint256 value) public virtual {... */\n    tag_18:\n      tag_89\n      0x04\n      dup1\n      calldatasize\n      sub\n      dup2\n      add\n      swap1\n      tag_90\n      swap2\n      swap1\n      tag_91\n      jump\t// in\n    tag_90:\n      tag_92\n      jump\t// in\n    tag_89:\n      stop\n        /* \"@openzeppelin/contracts/token/ERC1155/ERC1155.sol\":2247:2379  function balanceOf(address account, uint256 id) public view virtual returns (uint256) {... */\n    tag_25:\n        /* \"@openzeppelin/contracts/token/ERC1155/ERC1155.sol\":2324:2331  uint256 */\n      0x00\n        /* \"@openzeppelin/contracts/token/ERC1155/ERC1155.sol\":2350:2359  _balances */\n      dup1\n        /* \"@openzeppelin/contracts/token/ERC1155/ERC1155.sol\":2350:2363  _balances[id] */\n      0x00\n        /* \"@openzeppelin/contracts/token/ERC1155/ERC1155.sol\":2360:2362  id */\n      dup4\n        /* \"@openzeppelin/contracts/token/ERC1155/ERC1155.sol\":2350:2363  _balances[id] */\n      dup2\n      mstore\n      0x20\n      add\n      swap1\n      dup2\n      mstore\n      0x20\n      add\n      0x00\n      keccak256\n        /* \"@openzeppelin/contracts/token/ERC1155/ERC1155.sol\":2350:2372  _balances[id][account] */\n      0x00\n        /* \"@openzeppelin/contracts/token/ERC1155/ERC1155.sol\":2364:2371  account */\n      dup5\n        /* \"@openzeppelin/contracts/token/ERC1155/ERC1155.sol\":2350:2372  _balances[id][account] */\n      0xffffffffffffffffffffffffffffffffffffffff\n      and\n      0xffffffffffffffffffffffffffffffffffffffff\n      and\n      dup2\n      mstore\n      0x20\n      add\n      swap1\n      dup2\n      mstore\n      0x20\n      add\n      0x00\n      keccak256\n      sload\n        /* \"@openzeppelin/contracts/token/ERC1155/ERC1155.sol\":2343:2372  return _balances[id][account] */\n      swap1\n      pop\n        /* \"@openzeppelin/contracts/token/ERC1155/ERC1155.sol\":2247:2379  function balanceOf(address account, uint256 id) public view virtual returns (uint256) {... */\n      swap3\n      swap2\n      pop\n      pop\n      jump\t// out\n        /* \"@openzeppelin/contracts/token/ERC1155/ERC1155.sol\":1380:1685  function supportsInterface(bytes4 interfaceId) public view virtual override(ERC165, IERC165) returns (bool) {... */\n    tag_31:\n        /* \"@openzeppelin/contracts/token/ERC1155/ERC1155.sol\":1482:1486  bool */\n      0x00\n        /* \"@openzeppelin/contracts/token/ERC1155/ERC1155.sol\":1532:1558  type(IERC1155).interfaceId */\n      0xd9b67a2600000000000000000000000000000000000000000000000000000000\n        /* \"@openzeppelin/contracts/token/ERC1155/ERC1155.sol\":1517:1558  interfaceId == type(IERC1155).interfaceId */\n      not(0xffffffffffffffffffffffffffffffffffffffffffffffffffffffff)\n      and\n        /* \"@openzeppelin/contracts/token/ERC1155/ERC1155.sol\":1517:1528  interfaceId */\n      dup3\n        /* \"@openzeppelin/contracts/token/ERC1155/ERC1155.sol\":1517:1558  interfaceId == type(IERC1155).interfaceId */\n      not(0xffffffffffffffffffffffffffffffffffffffffffffffffffffffff)\n      and\n      eq\n        /* \"@openzeppelin/contracts/token/ERC1155/ERC1155.sol\":1517:1626  interfaceId == type(IERC1155).interfaceId ||... */\n      dup1\n      tag_95\n      jumpi\n      pop\n        /* \"@openzeppelin/contracts/token/ERC1155/ERC1155.sol\":1589:1626  type(IERC1155MetadataURI).interfaceId */\n      0x0e89341c00000000000000000000000000000000000000000000000000000000\n        /* \"@openzeppelin/contracts/token/ERC1155/ERC1155.sol\":1574:1626  interfaceId == type(IERC1155MetadataURI).interfaceId */\n      not(0xffffffffffffffffffffffffffffffffffffffffffffffffffffffff)\n      and\n        /* \"@openzeppelin/contracts/token/ERC1155/ERC1155.sol\":1574:1585  interfaceId */\n      dup3\n        /* \"@openzeppelin/contracts/token/ERC1155/ERC1155.sol\":1574:1626  interfaceId == type(IERC1155MetadataURI).interfaceId */\n      not(0xffffffffffffffffffffffffffffffffffffffffffffffffffffffff)\n      and\n      eq\n        /* \"@openzeppelin/contracts/token/ERC1155/ERC1155.sol\":1517:1626  interfaceId == type(IERC1155).interfaceId ||... */\n    tag_95:\n        /* \"@openzeppelin/contracts/token/ERC1155/ERC1155.sol\":1517:1678  interfaceId == type(IERC1155).interfaceId ||... */\n      dup1\n      tag_96\n      jumpi\n      pop\n        /* \"@openzeppelin/contracts/token/ERC1155/ERC1155.sol\":1642:1678  super.supportsInterface(interfaceId) */\n      tag_97\n        /* \"@openzeppelin/contracts/token/ERC1155/ERC1155.sol\":1666:1677  interfaceId */\n      dup3\n        /* \"@openzeppelin/contracts/token/ERC1155/ERC1155.sol\":1642:1665  super.supportsInterface */\n      tag_98\n        /* \"@openzeppelin/contracts/token/ERC1155/ERC1155.sol\":1642:1678  super.supportsInterface(interfaceId) */\n      jump\t// in\n    tag_97:\n        /* \"@openzeppelin/contracts/token/ERC1155/ERC1155.sol\":1517:1678  interfaceId == type(IERC1155).interfaceId ||... */\n    tag_96:\n        /* \"@openzeppelin/contracts/token/ERC1155/ERC1155.sol\":1498:1678  return... */\n      swap1\n      pop\n        /* \"@openzeppelin/contracts/token/ERC1155/ERC1155.sol\":1380:1685  function supportsInterface(bytes4 interfaceId) public view virtual override(ERC165, IERC165) returns (bool) {... */\n      swap2\n      swap1\n      pop\n      jump\t// out\n        /* \"contracts/common/CapybaraNFT.sol\":554:641  function setURI(string memory newuri) public onlyOwner {... */\n    tag_37:\n        /* \"@openzeppelin/contracts/access/Ownable.sol\":1531:1544  _checkOwner() */\n      tag_100\n        /* \"@openzeppelin/contracts/access/Ownable.sol\":1531:1542  _checkOwner */\n      tag_101\n        /* \"@openzeppelin/contracts/access/Ownable.sol\":1531:1544  _checkOwner() */\n      jump\t// in\n    tag_100:\n        /* \"contracts/common/CapybaraNFT.sol\":619:634  _setURI(newuri) */\n      tag_103\n        /* \"contracts/common/CapybaraNFT.sol\":627:633  newuri */\n      dup2\n        /* \"contracts/common/CapybaraNFT.sol\":619:626  _setURI */\n      tag_104\n        /* \"contracts/common/CapybaraNFT.sol\":619:634  _setURI(newuri) */\n      jump\t// in\n    tag_103:\n        /* \"contracts/common/CapybaraNFT.sol\":554:641  function setURI(string memory newuri) public onlyOwner {... */\n      pop\n      jump\t// out\n        /* \"@openzeppelin/contracts/token/ERC1155/ERC1155.sol\":2084:2187  function uri(uint256 /* id */) public view virtual returns (string memory) {... */\n    tag_41:\n        /* \"@openzeppelin/contracts/token/ERC1155/ERC1155.sol\":2144:2157  string memory */\n      0x60\n        /* \"@openzeppelin/contracts/token/ERC1155/ERC1155.sol\":2176:2180  _uri */\n      0x02\n        /* \"@openzeppelin/contracts/token/ERC1155/ERC1155.sol\":2169:2180  return _uri */\n      dup1\n      sload\n      tag_106\n      swap1\n      tag_107\n      jump\t// in\n    tag_106:\n      dup1\n      0x1f\n      add\n      0x20\n      dup1\n      swap2\n      div\n      mul\n      0x20\n      add\n      mload(0x40)\n      swap1\n      dup2\n      add\n      0x40\n      mstore\n      dup1\n      swap3\n      swap2\n      swap1\n      dup2\n      dup2\n      mstore\n      0x20\n      add\n      dup3\n      dup1\n      sload\n      tag_108\n      swap1\n      tag_107\n      jump\t// in\n    tag_108:\n      dup1\n      iszero\n      tag_109\n      jumpi\n      dup1\n      0x1f\n      lt\n      tag_110\n      jumpi\n      0x0100\n      dup1\n      dup4\n      sload\n      div\n      mul\n      dup4\n      mstore\n      swap2\n      0x20\n      add\n      swap2\n      jump(tag_109)\n    tag_110:\n      dup3\n      add\n      swap2\n      swap1\n      0x00\n      mstore\n      keccak256(0x00, 0x20)\n      swap1\n    tag_111:\n      dup2\n      sload\n      dup2\n      mstore\n      swap1\n      0x01\n      add\n      swap1\n      0x20\n      add\n      dup1\n      dup4\n      gt\n      tag_111\n      jumpi\n      dup3\n      swap1\n      sub\n      0x1f\n      and\n      dup3\n      add\n      swap2\n    tag_109:\n      pop\n      pop\n      pop\n      pop\n      pop\n      swap1\n      pop\n        /* \"@openzeppelin/contracts/token/ERC1155/ERC1155.sol\":2084:2187  function uri(uint256 /* id */) public view virtual returns (string memory) {... */\n      swap2\n      swap1\n      pop\n      jump\t// out\n        /* \"@openzeppelin/contracts/token/ERC1155/ERC1155.sol\":4014:4443  function safeBatchTransferFrom(... */\n    tag_47:\n        /* \"@openzeppelin/contracts/token/ERC1155/ERC1155.sol\":4208:4222  address sender */\n      0x00\n        /* \"@openzeppelin/contracts/token/ERC1155/ERC1155.sol\":4225:4237  _msgSender() */\n      tag_113\n        /* \"@openzeppelin/contracts/token/ERC1155/ERC1155.sol\":4225:4235  _msgSender */\n      tag_114\n        /* \"@openzeppelin/contracts/token/ERC1155/ERC1155.sol\":4225:4237  _msgSender() */\n      jump\t// in\n    tag_113:\n        /* \"@openzeppelin/contracts/token/ERC1155/ERC1155.sol\":4208:4237  address sender = _msgSender() */\n      swap1\n      pop\n        /* \"@openzeppelin/contracts/token/ERC1155/ERC1155.sol\":4259:4265  sender */\n      dup1\n        /* \"@openzeppelin/contracts/token/ERC1155/ERC1155.sol\":4251:4265  from != sender */\n      0xffffffffffffffffffffffffffffffffffffffff\n      and\n        /* \"@openzeppelin/contracts/token/ERC1155/ERC1155.sol\":4251:4255  from */\n      dup7\n        /* \"@openzeppelin/contracts/token/ERC1155/ERC1155.sol\":4251:4265  from != sender */\n      0xffffffffffffffffffffffffffffffffffffffff\n      and\n      eq\n      iszero\n        /* \"@openzeppelin/contracts/token/ERC1155/ERC1155.sol\":4251:4300  from != sender && !isApprovedForAll(from, sender) */\n      dup1\n      iszero\n      tag_115\n      jumpi\n      pop\n        /* \"@openzeppelin/contracts/token/ERC1155/ERC1155.sol\":4270:4300  isApprovedForAll(from, sender) */\n      tag_116\n        /* \"@openzeppelin/contracts/token/ERC1155/ERC1155.sol\":4287:4291  from */\n      dup7\n        /* \"@openzeppelin/contracts/token/ERC1155/ERC1155.sol\":4293:4299  sender */\n      dup3\n        /* \"@openzeppelin/contracts/token/ERC1155/ERC1155.sol\":4270:4286  isApprovedForAll */\n      tag_79\n        /* \"@openzeppelin/contracts/token/ERC1155/ERC1155.sol\":4270:4300  isApprovedForAll(from, sender) */\n      jump\t// in\n    tag_116:\n        /* \"@openzeppelin/contracts/token/ERC1155/ERC1155.sol\":4269:4300  !isApprovedForAll(from, sender) */\n      iszero\n        /* \"@openzeppelin/contracts/token/ERC1155/ERC1155.sol\":4251:4300  from != sender && !isApprovedForAll(from, sender) */\n    tag_115:\n        /* \"@openzeppelin/contracts/token/ERC1155/ERC1155.sol\":4247:4376  if (from != sender && !isApprovedForAll(from, sender)) {... */\n      iszero\n      tag_117\n      jumpi\n        /* \"@openzeppelin/contracts/token/ERC1155/ERC1155.sol\":4352:4358  sender */\n      dup1\n        /* \"@openzeppelin/contracts/token/ERC1155/ERC1155.sol\":4360:4364  from */\n      dup7\n        /* \"@openzeppelin/contracts/token/ERC1155/ERC1155.sol\":4323:4365  ERC1155MissingApprovalForAll(sender, from) */\n      mload(0x40)\n      0xe237d92200000000000000000000000000000000000000000000000000000000\n      dup2\n      mstore\n      0x04\n      add\n      tag_118\n      swap3\n      swap2\n      swap1\n      tag_119\n      jump\t// in\n    tag_118:\n      mload(0x40)\n      dup1\n      swap2\n      sub\n      swap1\n      revert\n        /* \"@openzeppelin/contracts/token/ERC1155/ERC1155.sol\":4247:4376  if (from != sender && !isApprovedForAll(from, sender)) {... */\n    tag_117:\n        /* \"@openzeppelin/contracts/token/ERC1155/ERC1155.sol\":4385:4436  _safeBatchTransferFrom(from, to, ids, values, data) */\n      tag_120\n        /* \"@openzeppelin/contracts/token/ERC1155/ERC1155.sol\":4408:4412  from */\n      dup7\n        /* \"@openzeppelin/contracts/token/ERC1155/ERC1155.sol\":4414:4416  to */\n      dup7\n        /* \"@openzeppelin/contracts/token/ERC1155/ERC1155.sol\":4418:4421  ids */\n      dup7\n        /* \"@openzeppelin/contracts/token/ERC1155/ERC1155.sol\":4423:4429  values */\n      dup7\n        /* \"@openzeppelin/contracts/token/ERC1155/ERC1155.sol\":4431:4435  data */\n      dup7\n        /* \"@openzeppelin/contracts/token/ERC1155/ERC1155.sol\":4385:4407  _safeBatchTransferFrom */\n      tag_121\n        /* \"@openzeppelin/contracts/token/ERC1155/ERC1155.sol\":4385:4436  _safeBatchTransferFrom(from, to, ids, values, data) */\n      jump\t// in\n    tag_120:\n        /* \"@openzeppelin/contracts/token/ERC1155/ERC1155.sol\":4198:4443  {... */\n      pop\n        /* \"@openzeppelin/contracts/token/ERC1155/ERC1155.sol\":4014:4443  function safeBatchTransferFrom(... */\n      pop\n      pop\n      pop\n      pop\n      pop\n      jump\t// out\n        /* \"contracts/common/CapybaraNFT.sol\":836:1039  function mintBatch(... */\n    tag_51:\n        /* \"@openzeppelin/contracts/access/Ownable.sol\":1531:1544  _checkOwner() */\n      tag_123\n        /* \"@openzeppelin/contracts/access/Ownable.sol\":1531:1542  _checkOwner */\n      tag_101\n        /* \"@openzeppelin/contracts/access/Ownable.sol\":1531:1544  _checkOwner() */\n      jump\t// in\n    tag_123:\n        /* \"contracts/common/CapybaraNFT.sol\":963:972  uint256 i */\n      0x00\n        /* \"contracts/common/CapybaraNFT.sol\":958:1033  for (uint256 i = 0; i < count; i++) {... */\n    tag_125:\n        /* \"contracts/common/CapybaraNFT.sol\":982:987  count */\n      dup3\n        /* \"contracts/common/CapybaraNFT.sol\":978:979  i */\n      dup2\n        /* \"contracts/common/CapybaraNFT.sol\":978:987  i < count */\n      lt\n        /* \"contracts/common/CapybaraNFT.sol\":958:1033  for (uint256 i = 0; i < count; i++) {... */\n      iszero\n      tag_126\n      jumpi\n        /* \"contracts/common/CapybaraNFT.sol\":1008:1022  mint(to, data) */\n      tag_128\n        /* \"contracts/common/CapybaraNFT.sol\":1013:1015  to */\n      dup5\n        /* \"contracts/common/CapybaraNFT.sol\":1017:1021  data */\n      dup4\n        /* \"contracts/common/CapybaraNFT.sol\":1008:1012  mint */\n      tag_75\n        /* \"contracts/common/CapybaraNFT.sol\":1008:1022  mint(to, data) */\n      jump\t// in\n    tag_128:\n        /* \"contracts/common/CapybaraNFT.sol\":989:992  i++ */\n      dup1\n      dup1\n      0x01\n      add\n      swap2\n      pop\n      pop\n        /* \"contracts/common/CapybaraNFT.sol\":958:1033  for (uint256 i = 0; i < count; i++) {... */\n      jump(tag_125)\n    tag_126:\n      pop\n        /* \"contracts/common/CapybaraNFT.sol\":836:1039  function mintBatch(... */\n      pop\n      pop\n      pop\n      jump\t// out\n        /* \"@openzeppelin/contracts/token/ERC1155/ERC1155.sol\":2536:3088  function balanceOfBatch(... */\n    tag_55:\n        /* \"@openzeppelin/contracts/token/ERC1155/ERC1155.sol\":2660:2676  uint256[] memory */\n      0x60\n        /* \"@openzeppelin/contracts/token/ERC1155/ERC1155.sol\":2711:2714  ids */\n      dup2\n        /* \"@openzeppelin/contracts/token/ERC1155/ERC1155.sol\":2711:2721  ids.length */\n      mload\n        /* \"@openzeppelin/contracts/token/ERC1155/ERC1155.sol\":2692:2700  accounts */\n      dup4\n        /* \"@openzeppelin/contracts/token/ERC1155/ERC1155.sol\":2692:2707  accounts.length */\n      mload\n        /* \"@openzeppelin/contracts/token/ERC1155/ERC1155.sol\":2692:2721  accounts.length != ids.length */\n      eq\n        /* \"@openzeppelin/contracts/token/ERC1155/ERC1155.sol\":2688:2809  if (accounts.length != ids.length) {... */\n      tag_130\n      jumpi\n        /* \"@openzeppelin/contracts/token/ERC1155/ERC1155.sol\":2770:2773  ids */\n      dup2\n        /* \"@openzeppelin/contracts/token/ERC1155/ERC1155.sol\":2770:2780  ids.length */\n      mload\n        /* \"@openzeppelin/contracts/token/ERC1155/ERC1155.sol\":2782:2790  accounts */\n      dup4\n        /* \"@openzeppelin/contracts/token/ERC1155/ERC1155.sol\":2782:2797  accounts.length */\n      mload\n        /* \"@openzeppelin/contracts/token/ERC1155/ERC1155.sol\":2744:2798  ERC1155InvalidArrayLength(ids.length, accounts.length) */\n      mload(0x40)\n      0x5b05999100000000000000000000000000000000000000000000000000000000\n      dup2\n      mstore\n      0x04\n      add\n      tag_131\n      swap3\n      swap2\n      swap1\n      tag_132\n      jump\t// in\n    tag_131:\n      mload(0x40)\n      dup1\n      swap2\n      sub\n      swap1\n      revert\n        /* \"@openzeppelin/contracts/token/ERC1155/ERC1155.sol\":2688:2809  if (accounts.length != ids.length) {... */\n    tag_130:\n        /* \"@openzeppelin/contracts/token/ERC1155/ERC1155.sol\":2819:2849  uint256[] memory batchBalances */\n      0x00\n        /* \"@openzeppelin/contracts/token/ERC1155/ERC1155.sol\":2866:2874  accounts */\n      dup4\n        /* \"@openzeppelin/contracts/token/ERC1155/ERC1155.sol\":2866:2881  accounts.length */\n      mload\n        /* \"@openzeppelin/contracts/token/ERC1155/ERC1155.sol\":2852:2882  new uint256[](accounts.length) */\n      0xffffffffffffffff\n      dup2\n      gt\n      iszero\n      tag_133\n      jumpi\n      tag_134\n      tag_135\n      jump\t// in\n    tag_134:\n    tag_133:\n      mload(0x40)\n      swap1\n      dup1\n      dup3\n      mstore\n      dup1\n      0x20\n      mul\n      0x20\n      add\n      dup3\n      add\n      0x40\n      mstore\n      dup1\n      iszero\n      tag_136\n      jumpi\n      dup2\n      0x20\n      add\n      0x20\n      dup3\n      mul\n      dup1\n      calldatasize\n      dup4\n      calldatacopy\n      dup1\n      dup3\n      add\n      swap2\n      pop\n      pop\n      swap1\n      pop\n    tag_136:\n      pop\n        /* \"@openzeppelin/contracts/token/ERC1155/ERC1155.sol\":2819:2882  uint256[] memory batchBalances = new uint256[](accounts.length) */\n      swap1\n      pop\n        /* \"@openzeppelin/contracts/token/ERC1155/ERC1155.sol\":2898:2907  uint256 i */\n      0x00\n        /* \"@openzeppelin/contracts/token/ERC1155/ERC1155.sol\":2893:3051  for (uint256 i = 0; i < accounts.length; ++i) {... */\n    tag_137:\n        /* \"@openzeppelin/contracts/token/ERC1155/ERC1155.sol\":2917:2925  accounts */\n      dup5\n        /* \"@openzeppelin/contracts/token/ERC1155/ERC1155.sol\":2917:2932  accounts.length */\n      mload\n        /* \"@openzeppelin/contracts/token/ERC1155/ERC1155.sol\":2913:2914  i */\n      dup2\n        /* \"@openzeppelin/contracts/token/ERC1155/ERC1155.sol\":2913:2932  i < accounts.length */\n      lt\n        /* \"@openzeppelin/contracts/token/ERC1155/ERC1155.sol\":2893:3051  for (uint256 i = 0; i < accounts.length; ++i) {... */\n      iszero\n      tag_138\n      jumpi\n        /* \"@openzeppelin/contracts/token/ERC1155/ERC1155.sol\":2972:3040  balanceOf(accounts.unsafeMemoryAccess(i), ids.unsafeMemoryAccess(i)) */\n      tag_140\n        /* \"@openzeppelin/contracts/token/ERC1155/ERC1155.sol\":2982:3012  accounts.unsafeMemoryAccess(i) */\n      tag_141\n        /* \"@openzeppelin/contracts/token/ERC1155/ERC1155.sol\":3010:3011  i */\n      dup3\n        /* \"@openzeppelin/contracts/token/ERC1155/ERC1155.sol\":2982:2990  accounts */\n      dup8\n        /* \"@openzeppelin/contracts/token/ERC1155/ERC1155.sol\":2982:3009  accounts.unsafeMemoryAccess */\n      tag_142\n      swap1\n        /* \"@openzeppelin/contracts/token/ERC1155/ERC1155.sol\":2982:3012  accounts.unsafeMemoryAccess(i) */\n      swap2\n      swap1\n      0xffffffff\n      and\n      jump\t// in\n    tag_141:\n        /* \"@openzeppelin/contracts/token/ERC1155/ERC1155.sol\":3014:3039  ids.unsafeMemoryAccess(i) */\n      tag_143\n        /* \"@openzeppelin/contracts/token/ERC1155/ERC1155.sol\":3037:3038  i */\n      dup4\n        /* \"@openzeppelin/contracts/token/ERC1155/ERC1155.sol\":3014:3017  ids */\n      dup8\n        /* \"@openzeppelin/contracts/token/ERC1155/ERC1155.sol\":3014:3036  ids.unsafeMemoryAccess */\n      tag_144\n      swap1\n        /* \"@openzeppelin/contracts/token/ERC1155/ERC1155.sol\":3014:3039  ids.unsafeMemoryAccess(i) */\n      swap2\n      swap1\n      0xffffffff\n      and\n      jump\t// in\n    tag_143:\n        /* \"@openzeppelin/contracts/token/ERC1155/ERC1155.sol\":2972:2981  balanceOf */\n      tag_25\n        /* \"@openzeppelin/contracts/token/ERC1155/ERC1155.sol\":2972:3040  balanceOf(accounts.unsafeMemoryAccess(i), ids.unsafeMemoryAccess(i)) */\n      jump\t// in\n    tag_140:\n        /* \"@openzeppelin/contracts/token/ERC1155/ERC1155.sol\":2953:2966  batchBalances */\n      dup3\n        /* \"@openzeppelin/contracts/token/ERC1155/ERC1155.sol\":2967:2968  i */\n      dup3\n        /* \"@openzeppelin/contracts/token/ERC1155/ERC1155.sol\":2953:2969  batchBalances[i] */\n      dup2\n      mload\n      dup2\n      lt\n      tag_145\n      jumpi\n      tag_146\n      tag_147\n      jump\t// in\n    tag_146:\n    tag_145:\n      0x20\n      mul\n      0x20\n      add\n      add\n        /* \"@openzeppelin/contracts/token/ERC1155/ERC1155.sol\":2953:3040  batchBalances[i] = balanceOf(accounts.unsafeMemoryAccess(i), ids.unsafeMemoryAccess(i)) */\n      dup2\n      dup2\n      mstore\n      pop\n      pop\n        /* \"@openzeppelin/contracts/token/ERC1155/ERC1155.sol\":2934:2937  ++i */\n      dup1\n      0x01\n      add\n      swap1\n      pop\n        /* \"@openzeppelin/contracts/token/ERC1155/ERC1155.sol\":2893:3051  for (uint256 i = 0; i < accounts.length; ++i) {... */\n      jump(tag_137)\n    tag_138:\n      pop\n        /* \"@openzeppelin/contracts/token/ERC1155/ERC1155.sol\":3068:3081  batchBalances */\n      dup1\n        /* \"@openzeppelin/contracts/token/ERC1155/ERC1155.sol\":3061:3081  return batchBalances */\n      swap2\n      pop\n      pop\n        /* \"@openzeppelin/contracts/token/ERC1155/ERC1155.sol\":2536:3088  function balanceOfBatch(... */\n      swap3\n      swap2\n      pop\n      pop\n      jump\t// out\n        /* \"@openzeppelin/contracts/token/ERC1155/extensions/ERC1155Burnable.sol\":681:994  function burnBatch(address account, uint256[] memory ids, uint256[] memory values) public virtual {... */\n    tag_61:\n        /* \"@openzeppelin/contracts/token/ERC1155/extensions/ERC1155Burnable.sol\":804:816  _msgSender() */\n      tag_149\n        /* \"@openzeppelin/contracts/token/ERC1155/extensions/ERC1155Burnable.sol\":804:814  _msgSender */\n      tag_114\n        /* \"@openzeppelin/contracts/token/ERC1155/extensions/ERC1155Burnable.sol\":804:816  _msgSender() */\n      jump\t// in\n    tag_149:\n        /* \"@openzeppelin/contracts/token/ERC1155/extensions/ERC1155Burnable.sol\":793:816  account != _msgSender() */\n      0xffffffffffffffffffffffffffffffffffffffff\n      and\n        /* \"@openzeppelin/contracts/token/ERC1155/extensions/ERC1155Burnable.sol\":793:800  account */\n      dup4\n        /* \"@openzeppelin/contracts/token/ERC1155/extensions/ERC1155Burnable.sol\":793:816  account != _msgSender() */\n      0xffffffffffffffffffffffffffffffffffffffff\n      and\n      eq\n      iszero\n        /* \"@openzeppelin/contracts/token/ERC1155/extensions/ERC1155Burnable.sol\":793:860  account != _msgSender() && !isApprovedForAll(account, _msgSender()) */\n      dup1\n      iszero\n      tag_150\n      jumpi\n      pop\n        /* \"@openzeppelin/contracts/token/ERC1155/extensions/ERC1155Burnable.sol\":821:860  isApprovedForAll(account, _msgSender()) */\n      tag_151\n        /* \"@openzeppelin/contracts/token/ERC1155/extensions/ERC1155Burnable.sol\":838:845  account */\n      dup4\n        /* \"@openzeppelin/contracts/token/ERC1155/extensions/ERC1155Burnable.sol\":847:859  _msgSender() */\n      tag_152\n        /* \"@openzeppelin/contracts/token/ERC1155/extensions/ERC1155Burnable.sol\":847:857  _msgSender */\n      tag_114\n        /* \"@openzeppelin/contracts/token/ERC1155/extensions/ERC1155Burnable.sol\":847:859  _msgSender() */\n      jump\t// in\n    tag_152:\n        /* \"@openzeppelin/contracts/token/ERC1155/extensions/ERC1155Burnable.sol\":821:837  isApprovedForAll */\n      tag_79\n        /* \"@openzeppelin/contracts/token/ERC1155/extensions/ERC1155Burnable.sol\":821:860  isApprovedForAll(account, _msgSender()) */\n      jump\t// in\n    tag_151:\n        /* \"@openzeppelin/contracts/token/ERC1155/extensions/ERC1155Burnable.sol\":820:860  !isApprovedForAll(account, _msgSender()) */\n      iszero\n        /* \"@openzeppelin/contracts/token/ERC1155/extensions/ERC1155Burnable.sol\":793:860  account != _msgSender() && !isApprovedForAll(account, _msgSender()) */\n    tag_150:\n        /* \"@openzeppelin/contracts/token/ERC1155/extensions/ERC1155Burnable.sol\":789:945  if (account != _msgSender() && !isApprovedForAll(account, _msgSender())) {... */\n      iszero\n      tag_153\n      jumpi\n        /* \"@openzeppelin/contracts/token/ERC1155/extensions/ERC1155Burnable.sol\":912:924  _msgSender() */\n      tag_154\n        /* \"@openzeppelin/contracts/token/ERC1155/extensions/ERC1155Burnable.sol\":912:922  _msgSender */\n      tag_114\n        /* \"@openzeppelin/contracts/token/ERC1155/extensions/ERC1155Burnable.sol\":912:924  _msgSender() */\n      jump\t// in\n    tag_154:\n        /* \"@openzeppelin/contracts/token/ERC1155/extensions/ERC1155Burnable.sol\":926:933  account */\n      dup4\n        /* \"@openzeppelin/contracts/token/ERC1155/extensions/ERC1155Burnable.sol\":883:934  ERC1155MissingApprovalForAll(_msgSender(), account) */\n      mload(0x40)\n      0xe237d92200000000000000000000000000000000000000000000000000000000\n      dup2\n      mstore\n      0x04\n      add\n      tag_155\n      swap3\n      swap2\n      swap1\n      tag_119\n      jump\t// in\n    tag_155:\n      mload(0x40)\n      dup1\n      swap2\n      sub\n      swap1\n      revert\n        /* \"@openzeppelin/contracts/token/ERC1155/extensions/ERC1155Burnable.sol\":789:945  if (account != _msgSender() && !isApprovedForAll(account, _msgSender())) {... */\n    tag_153:\n        /* \"@openzeppelin/contracts/token/ERC1155/extensions/ERC1155Burnable.sol\":955:987  _burnBatch(account, ids, values) */\n      tag_156\n        /* \"@openzeppelin/contracts/token/ERC1155/extensions/ERC1155Burnable.sol\":966:973  account */\n      dup4\n        /* \"@openzeppelin/contracts/token/ERC1155/extensions/ERC1155Burnable.sol\":975:978  ids */\n      dup4\n        /* \"@openzeppelin/contracts/token/ERC1155/extensions/ERC1155Burnable.sol\":980:986  values */\n      dup4\n        /* \"@openzeppelin/contracts/token/ERC1155/extensions/ERC1155Burnable.sol\":955:965  _burnBatch */\n      tag_157\n        /* \"@openzeppelin/contracts/token/ERC1155/extensions/ERC1155Burnable.sol\":955:987  _burnBatch(account, ids, values) */\n      jump\t// in\n    tag_156:\n        /* \"@openzeppelin/contracts/token/ERC1155/extensions/ERC1155Burnable.sol\":681:994  function burnBatch(address account, uint256[] memory ids, uint256[] memory values) public virtual {... */\n      pop\n      pop\n      pop\n      jump\t// out\n        /* \"@openzeppelin/contracts/access/Ownable.sol\":2293:2394  function renounceOwnership() public virtual onlyOwner {... */\n    tag_63:\n        /* \"@openzeppelin/contracts/access/Ownable.sol\":1531:1544  _checkOwner() */\n      tag_159\n        /* \"@openzeppelin/contracts/access/Ownable.sol\":1531:1542  _checkOwner */\n      tag_101\n        /* \"@openzeppelin/contracts/access/Ownable.sol\":1531:1544  _checkOwner() */\n      jump\t// in\n    tag_159:\n        /* \"@openzeppelin/contracts/access/Ownable.sol\":2357:2387  _transferOwnership(address(0)) */\n      tag_161\n        /* \"@openzeppelin/contracts/access/Ownable.sol\":2384:2385  0 */\n      0x00\n        /* \"@openzeppelin/contracts/access/Ownable.sol\":2357:2375  _transferOwnership */\n      tag_162\n        /* \"@openzeppelin/contracts/access/Ownable.sol\":2357:2387  _transferOwnership(address(0)) */\n      jump\t// in\n    tag_161:\n        /* \"@openzeppelin/contracts/access/Ownable.sol\":2293:2394  function renounceOwnership() public virtual onlyOwner {... */\n      jump\t// out\n        /* \"@openzeppelin/contracts/access/Ownable.sol\":1638:1723  function owner() public view virtual returns (address) {... */\n    tag_65:\n        /* \"@openzeppelin/contracts/access/Ownable.sol\":1684:1691  address */\n      0x00\n        /* \"@openzeppelin/contracts/access/Ownable.sol\":1710:1716  _owner */\n      0x03\n      0x00\n      swap1\n      sload\n      swap1\n      0x0100\n      exp\n      swap1\n      div\n      0xffffffffffffffffffffffffffffffffffffffff\n      and\n        /* \"@openzeppelin/contracts/access/Ownable.sol\":1703:1716  return _owner */\n      swap1\n      pop\n        /* \"@openzeppelin/contracts/access/Ownable.sol\":1638:1723  function owner() public view virtual returns (address) {... */\n      swap1\n      jump\t// out\n        /* \"@openzeppelin/contracts/token/ERC1155/ERC1155.sol\":3156:3300  function setApprovalForAll(address operator, bool approved) public virtual {... */\n    tag_71:\n        /* \"@openzeppelin/contracts/token/ERC1155/ERC1155.sol\":3241:3293  _setApprovalForAll(_msgSender(), operator, approved) */\n      tag_165\n        /* \"@openzeppelin/contracts/token/ERC1155/ERC1155.sol\":3260:3272  _msgSender() */\n      tag_166\n        /* \"@openzeppelin/contracts/token/ERC1155/ERC1155.sol\":3260:3270  _msgSender */\n      tag_114\n        /* \"@openzeppelin/contracts/token/ERC1155/ERC1155.sol\":3260:3272  _msgSender() */\n      jump\t// in\n    tag_166:\n        /* \"@openzeppelin/contracts/token/ERC1155/ERC1155.sol\":3274:3282  operator */\n      dup4\n        /* \"@openzeppelin/contracts/token/ERC1155/ERC1155.sol\":3284:3292  approved */\n      dup4\n        /* \"@openzeppelin/contracts/token/ERC1155/ERC1155.sol\":3241:3259  _setApprovalForAll */\n      tag_167\n        /* \"@openzeppelin/contracts/token/ERC1155/ERC1155.sol\":3241:3293  _setApprovalForAll(_msgSender(), operator, approved) */\n      jump\t// in\n    tag_165:\n        /* \"@openzeppelin/contracts/token/ERC1155/ERC1155.sol\":3156:3300  function setApprovalForAll(address operator, bool approved) public virtual {... */\n      pop\n      pop\n      jump\t// out\n        /* \"contracts/common/CapybaraNFT.sol\":647:830  function mint(address account, bytes memory data) public onlyOwner {... */\n    tag_75:\n        /* \"@openzeppelin/contracts/access/Ownable.sol\":1531:1544  _checkOwner() */\n      tag_169\n        /* \"@openzeppelin/contracts/access/Ownable.sol\":1531:1542  _checkOwner */\n      tag_101\n        /* \"@openzeppelin/contracts/access/Ownable.sol\":1531:1544  _checkOwner() */\n      jump\t// in\n    tag_169:\n        /* \"contracts/common/CapybaraNFT.sol\":724:739  uint256 tokenId */\n      0x00\n        /* \"contracts/common/CapybaraNFT.sol\":742:754  _nextTokenId */\n      sload(0x04)\n        /* \"contracts/common/CapybaraNFT.sol\":724:754  uint256 tokenId = _nextTokenId */\n      swap1\n      pop\n        /* \"contracts/common/CapybaraNFT.sol\":764:796  _mint(account, tokenId, 1, data) */\n      tag_171\n        /* \"contracts/common/CapybaraNFT.sol\":770:777  account */\n      dup4\n        /* \"contracts/common/CapybaraNFT.sol\":779:786  tokenId */\n      dup3\n        /* \"contracts/common/CapybaraNFT.sol\":788:789  1 */\n      0x01\n        /* \"contracts/common/CapybaraNFT.sol\":791:795  data */\n      dup6\n        /* \"contracts/common/CapybaraNFT.sol\":764:769  _mint */\n      tag_172\n        /* \"contracts/common/CapybaraNFT.sol\":764:796  _mint(account, tokenId, 1, data) */\n      jump\t// in\n    tag_171:\n        /* \"contracts/common/CapybaraNFT.sol\":822:823  1 */\n      0x01\n        /* \"contracts/common/CapybaraNFT.sol\":806:818  _nextTokenId */\n      0x04\n      0x00\n        /* \"contracts/common/CapybaraNFT.sol\":806:823  _nextTokenId += 1 */\n      dup3\n      dup3\n      sload\n      tag_173\n      swap2\n      swap1\n      tag_174\n      jump\t// in\n    tag_173:\n      swap3\n      pop\n      pop\n      dup2\n      swap1\n      sstore\n      pop\n        /* \"contracts/common/CapybaraNFT.sol\":714:830  {... */\n      pop\n        /* \"contracts/common/CapybaraNFT.sol\":647:830  function mint(address account, bytes memory data) public onlyOwner {... */\n      pop\n      pop\n      jump\t// out\n        /* \"@openzeppelin/contracts/token/ERC1155/ERC1155.sol\":3367:3524  function isApprovedForAll(address account, address operator) public view virtual returns (bool) {... */\n    tag_79:\n        /* \"@openzeppelin/contracts/token/ERC1155/ERC1155.sol\":3457:3461  bool */\n      0x00\n        /* \"@openzeppelin/contracts/token/ERC1155/ERC1155.sol\":3480:3498  _operatorApprovals */\n      0x01\n        /* \"@openzeppelin/contracts/token/ERC1155/ERC1155.sol\":3480:3507  _operatorApprovals[account] */\n      0x00\n        /* \"@openzeppelin/contracts/token/ERC1155/ERC1155.sol\":3499:3506  account */\n      dup5\n        /* \"@openzeppelin/contracts/token/ERC1155/ERC1155.sol\":3480:3507  _operatorApprovals[account] */\n      0xffffffffffffffffffffffffffffffffffffffff\n      and\n      0xffffffffffffffffffffffffffffffffffffffff\n      and\n      dup2\n      mstore\n      0x20\n      add\n      swap1\n      dup2\n      mstore\n      0x20\n      add\n      0x00\n      keccak256\n        /* \"@openzeppelin/contracts/token/ERC1155/ERC1155.sol\":3480:3517  _operatorApprovals[account][operator] */\n      0x00\n        /* \"@openzeppelin/contracts/token/ERC1155/ERC1155.sol\":3508:3516  operator */\n      dup4\n        /* \"@openzeppelin/contracts/token/ERC1155/ERC1155.sol\":3480:3517  _operatorApprovals[account][operator] */\n      0xffffffffffffffffffffffffffffffffffffffff\n      and\n      0xffffffffffffffffffffffffffffffffffffffff\n      and\n      dup2\n      mstore\n      0x20\n      add\n      swap1\n      dup2\n      mstore\n      0x20\n      add\n      0x00\n      keccak256\n      0x00\n      swap1\n      sload\n      swap1\n      0x0100\n      exp\n      swap1\n      div\n      0xff\n      and\n        /* \"@openzeppelin/contracts/token/ERC1155/ERC1155.sol\":3473:3517  return _operatorApprovals[account][operator] */\n      swap1\n      pop\n        /* \"@openzeppelin/contracts/token/ERC1155/ERC1155.sol\":3367:3524  function isApprovedForAll(address account, address operator) public view virtual returns (bool) {... */\n      swap3\n      swap2\n      pop\n      pop\n      jump\t// out\n        /* \"@openzeppelin/contracts/token/ERC1155/ERC1155.sol\":3591:3942  function safeTransferFrom(address from, address to, uint256 id, uint256 value, bytes memory data) public virtual {... */\n    tag_84:\n        /* \"@openzeppelin/contracts/token/ERC1155/ERC1155.sol\":3714:3728  address sender */\n      0x00\n        /* \"@openzeppelin/contracts/token/ERC1155/ERC1155.sol\":3731:3743  _msgSender() */\n      tag_177\n        /* \"@openzeppelin/contracts/token/ERC1155/ERC1155.sol\":3731:3741  _msgSender */\n      tag_114\n        /* \"@openzeppelin/contracts/token/ERC1155/ERC1155.sol\":3731:3743  _msgSender() */\n      jump\t// in\n    tag_177:\n        /* \"@openzeppelin/contracts/token/ERC1155/ERC1155.sol\":3714:3743  address sender = _msgSender() */\n      swap1\n      pop\n        /* \"@openzeppelin/contracts/token/ERC1155/ERC1155.sol\":3765:3771  sender */\n      dup1\n        /* \"@openzeppelin/contracts/token/ERC1155/ERC1155.sol\":3757:3771  from != sender */\n      0xffffffffffffffffffffffffffffffffffffffff\n      and\n        /* \"@openzeppelin/contracts/token/ERC1155/ERC1155.sol\":3757:3761  from */\n      dup7\n        /* \"@openzeppelin/contracts/token/ERC1155/ERC1155.sol\":3757:3771  from != sender */\n      0xffffffffffffffffffffffffffffffffffffffff\n      and\n      eq\n      iszero\n        /* \"@openzeppelin/contracts/token/ERC1155/ERC1155.sol\":3757:3806  from != sender && !isApprovedForAll(from, sender) */\n      dup1\n      iszero\n      tag_178\n      jumpi\n      pop\n        /* \"@openzeppelin/contracts/token/ERC1155/ERC1155.sol\":3776:3806  isApprovedForAll(from, sender) */\n      tag_179\n        /* \"@openzeppelin/contracts/token/ERC1155/ERC1155.sol\":3793:3797  from */\n      dup7\n        /* \"@openzeppelin/contracts/token/ERC1155/ERC1155.sol\":3799:3805  sender */\n      dup3\n        /* \"@openzeppelin/contracts/token/ERC1155/ERC1155.sol\":3776:3792  isApprovedForAll */\n      tag_79\n        /* \"@openzeppelin/contracts/token/ERC1155/ERC1155.sol\":3776:3806  isApprovedForAll(from, sender) */\n      jump\t// in\n    tag_179:\n        /* \"@openzeppelin/contracts/token/ERC1155/ERC1155.sol\":3775:3806  !isApprovedForAll(from, sender) */\n      iszero\n        /* \"@openzeppelin/contracts/token/ERC1155/ERC1155.sol\":3757:3806  from != sender && !isApprovedForAll(from, sender) */\n    tag_178:\n        /* \"@openzeppelin/contracts/token/ERC1155/ERC1155.sol\":3753:3882  if (from != sender && !isApprovedForAll(from, sender)) {... */\n      iszero\n      tag_180\n      jumpi\n        /* \"@openzeppelin/contracts/token/ERC1155/ERC1155.sol\":3858:3864  sender */\n      dup1\n        /* \"@openzeppelin/contracts/token/ERC1155/ERC1155.sol\":3866:3870  from */\n      dup7\n        /* \"@openzeppelin/contracts/token/ERC1155/ERC1155.sol\":3829:3871  ERC1155MissingApprovalForAll(sender, from) */\n      mload(0x40)\n      0xe237d92200000000000000000000000000000000000000000000000000000000\n      dup2\n      mstore\n      0x04\n      add\n      tag_181\n      swap3\n      swap2\n      swap1\n      tag_119\n      jump\t// in\n    tag_181:\n      mload(0x40)\n      dup1\n      swap2\n      sub\n      swap1\n      revert\n        /* \"@openzeppelin/contracts/token/ERC1155/ERC1155.sol\":3753:3882  if (from != sender && !isApprovedForAll(from, sender)) {... */\n    tag_180:\n        /* \"@openzeppelin/contracts/token/ERC1155/ERC1155.sol\":3891:3935  _safeTransferFrom(from, to, id, value, data) */\n      tag_182\n        /* \"@openzeppelin/contracts/token/ERC1155/ERC1155.sol\":3909:3913  from */\n      dup7\n        /* \"@openzeppelin/contracts/token/ERC1155/ERC1155.sol\":3915:3917  to */\n      dup7\n        /* \"@openzeppelin/contracts/token/ERC1155/ERC1155.sol\":3919:3921  id */\n      dup7\n        /* \"@openzeppelin/contracts/token/ERC1155/ERC1155.sol\":3923:3928  value */\n      dup7\n        /* \"@openzeppelin/contracts/token/ERC1155/ERC1155.sol\":3930:3934  data */\n      dup7\n        /* \"@openzeppelin/contracts/token/ERC1155/ERC1155.sol\":3891:3908  _safeTransferFrom */\n      tag_183\n        /* \"@openzeppelin/contracts/token/ERC1155/ERC1155.sol\":3891:3935  _safeTransferFrom(from, to, id, value, data) */\n      jump\t// in\n    tag_182:\n        /* \"@openzeppelin/contracts/token/ERC1155/ERC1155.sol\":3704:3942  {... */\n      pop\n        /* \"@openzeppelin/contracts/token/ERC1155/ERC1155.sol\":3591:3942  function safeTransferFrom(address from, address to, uint256 id, uint256 value, bytes memory data) public virtual {... */\n      pop\n      pop\n      pop\n      pop\n      pop\n      jump\t// out\n        /* \"@openzeppelin/contracts/access/Ownable.sol\":2543:2758  function transferOwnership(address newOwner) public virtual onlyOwner {... */\n    tag_88:\n        /* \"@openzeppelin/contracts/access/Ownable.sol\":1531:1544  _checkOwner() */\n      tag_185\n        /* \"@openzeppelin/contracts/access/Ownable.sol\":1531:1542  _checkOwner */\n      tag_101\n        /* \"@openzeppelin/contracts/access/Ownable.sol\":1531:1544  _checkOwner() */\n      jump\t// in\n    tag_185:\n        /* \"@openzeppelin/contracts/access/Ownable.sol\":2647:2648  0 */\n      0x00\n        /* \"@openzeppelin/contracts/access/Ownable.sol\":2627:2649  newOwner == address(0) */\n      0xffffffffffffffffffffffffffffffffffffffff\n      and\n        /* \"@openzeppelin/contracts/access/Ownable.sol\":2627:2635  newOwner */\n      dup2\n        /* \"@openzeppelin/contracts/access/Ownable.sol\":2627:2649  newOwner == address(0) */\n      0xffffffffffffffffffffffffffffffffffffffff\n      and\n      sub\n        /* \"@openzeppelin/contracts/access/Ownable.sol\":2623:2714  if (newOwner == address(0)) {... */\n      tag_187\n      jumpi\n        /* \"@openzeppelin/contracts/access/Ownable.sol\":2700:2701  0 */\n      0x00\n        /* \"@openzeppelin/contracts/access/Ownable.sol\":2672:2703  OwnableInvalidOwner(address(0)) */\n      mload(0x40)\n      0x1e4fbdf700000000000000000000000000000000000000000000000000000000\n      dup2\n      mstore\n      0x04\n      add\n      tag_188\n      swap2\n      swap1\n      tag_67\n      jump\t// in\n    tag_188:\n      mload(0x40)\n      dup1\n      swap2\n      sub\n      swap1\n      revert\n        /* \"@openzeppelin/contracts/access/Ownable.sol\":2623:2714  if (newOwner == address(0)) {... */\n    tag_187:\n        /* \"@openzeppelin/contracts/access/Ownable.sol\":2723:2751  _transferOwnership(newOwner) */\n      tag_189\n        /* \"@openzeppelin/contracts/access/Ownable.sol\":2742:2750  newOwner */\n      dup2\n        /* \"@openzeppelin/contracts/access/Ownable.sol\":2723:2741  _transferOwnership */\n      tag_162\n        /* \"@openzeppelin/contracts/access/Ownable.sol\":2723:2751  _transferOwnership(newOwner) */\n      jump\t// in\n    tag_189:\n        /* \"@openzeppelin/contracts/access/Ownable.sol\":2543:2758  function transferOwnership(address newOwner) public virtual onlyOwner {... */\n      pop\n      jump\t// out\n        /* \"@openzeppelin/contracts/token/ERC1155/extensions/ERC1155Burnable.sol\":394:675  function burn(address account, uint256 id, uint256 value) public virtual {... */\n    tag_92:\n        /* \"@openzeppelin/contracts/token/ERC1155/extensions/ERC1155Burnable.sol\":492:504  _msgSender() */\n      tag_191\n        /* \"@openzeppelin/contracts/token/ERC1155/extensions/ERC1155Burnable.sol\":492:502  _msgSender */\n      tag_114\n        /* \"@openzeppelin/contracts/token/ERC1155/extensions/ERC1155Burnable.sol\":492:504  _msgSender() */\n      jump\t// in\n    tag_191:\n        /* \"@openzeppelin/contracts/token/ERC1155/extensions/ERC1155Burnable.sol\":481:504  account != _msgSender() */\n      0xffffffffffffffffffffffffffffffffffffffff\n      and\n        /* \"@openzeppelin/contracts/token/ERC1155/extensions/ERC1155Burnable.sol\":481:488  account */\n      dup4\n        /* \"@openzeppelin/contracts/token/ERC1155/extensions/ERC1155Burnable.sol\":481:504  account != _msgSender() */\n      0xffffffffffffffffffffffffffffffffffffffff\n      and\n      eq\n      iszero\n        /* \"@openzeppelin/contracts/token/ERC1155/extensions/ERC1155Burnable.sol\":481:548  account != _msgSender() && !isApprovedForAll(account, _msgSender()) */\n      dup1\n      iszero\n      tag_192\n      jumpi\n      pop\n        /* \"@openzeppelin/contracts/token/ERC1155/extensions/ERC1155Burnable.sol\":509:548  isApprovedForAll(account, _msgSender()) */\n      tag_193\n        /* \"@openzeppelin/contracts/token/ERC1155/extensions/ERC1155Burnable.sol\":526:533  account */\n      dup4\n        /* \"@openzeppelin/contracts/token/ERC1155/extensions/ERC1155Burnable.sol\":535:547  _msgSender() */\n      tag_194\n        /* \"@openzeppelin/contracts/token/ERC1155/extensions/ERC1155Burnable.sol\":535:545  _msgSender */\n      tag_114\n        /* \"@openzeppelin/contracts/token/ERC1155/extensions/ERC1155Burnable.sol\":535:547  _msgSender() */\n      jump\t// in\n    tag_194:\n        /* \"@openzeppelin/contracts/token/ERC1155/extensions/ERC1155Burnable.sol\":509:525  isApprovedForAll */\n      tag_79\n        /* \"@openzeppelin/contracts/token/ERC1155/extensions/ERC1155Burnable.sol\":509:548  isApprovedForAll(account, _msgSender()) */\n      jump\t// in\n    tag_193:\n        /* \"@openzeppelin/contracts/token/ERC1155/extensions/ERC1155Burnable.sol\":508:548  !isApprovedForAll(account, _msgSender()) */\n      iszero\n        /* \"@openzeppelin/contracts/token/ERC1155/extensions/ERC1155Burnable.sol\":481:548  account != _msgSender() && !isApprovedForAll(account, _msgSender()) */\n    tag_192:\n        /* \"@openzeppelin/contracts/token/ERC1155/extensions/ERC1155Burnable.sol\":477:633  if (account != _msgSender() && !isApprovedForAll(account, _msgSender())) {... */\n      iszero\n      tag_195\n      jumpi\n        /* \"@openzeppelin/contracts/token/ERC1155/extensions/ERC1155Burnable.sol\":600:612  _msgSender() */\n      tag_196\n        /* \"@openzeppelin/contracts/token/ERC1155/extensions/ERC1155Burnable.sol\":600:610  _msgSender */\n      tag_114\n        /* \"@openzeppelin/contracts/token/ERC1155/extensions/ERC1155Burnable.sol\":600:612  _msgSender() */\n      jump\t// in\n    tag_196:\n        /* \"@openzeppelin/contracts/token/ERC1155/extensions/ERC1155Burnable.sol\":614:621  account */\n      dup4\n        /* \"@openzeppelin/contracts/token/ERC1155/extensions/ERC1155Burnable.sol\":571:622  ERC1155MissingApprovalForAll(_msgSender(), account) */\n      mload(0x40)\n      0xe237d92200000000000000000000000000000000000000000000000000000000\n      dup2\n      mstore\n      0x04\n      add\n      tag_197\n      swap3\n      swap2\n      swap1\n      tag_119\n      jump\t// in\n    tag_197:\n      mload(0x40)\n      dup1\n      swap2\n      sub\n      swap1\n      revert\n        /* \"@openzeppelin/contracts/token/ERC1155/extensions/ERC1155Burnable.sol\":477:633  if (account != _msgSender() && !isApprovedForAll(account, _msgSender())) {... */\n    tag_195:\n        /* \"@openzeppelin/contracts/token/ERC1155/extensions/ERC1155Burnable.sol\":643:668  _burn(account, id, value) */\n      tag_198\n        /* \"@openzeppelin/contracts/token/ERC1155/extensions/ERC1155Burnable.sol\":649:656  account */\n      dup4\n        /* \"@openzeppelin/contracts/token/ERC1155/extensions/ERC1155Burnable.sol\":658:660  id */\n      dup4\n        /* \"@openzeppelin/contracts/token/ERC1155/extensions/ERC1155Burnable.sol\":662:667  value */\n      dup4\n        /* \"@openzeppelin/contracts/token/ERC1155/extensions/ERC1155Burnable.sol\":643:648  _burn */\n      tag_199\n        /* \"@openzeppelin/contracts/token/ERC1155/extensions/ERC1155Burnable.sol\":643:668  _burn(account, id, value) */\n      jump\t// in\n    tag_198:\n        /* \"@openzeppelin/contracts/token/ERC1155/extensions/ERC1155Burnable.sol\":394:675  function burn(address account, uint256 id, uint256 value) public virtual {... */\n      pop\n      pop\n      pop\n      jump\t// out\n        /* \"@openzeppelin/contracts/utils/introspection/ERC165.sol\":762:908  function supportsInterface(bytes4 interfaceId) public view virtual returns (bool) {... */\n    tag_98:\n        /* \"@openzeppelin/contracts/utils/introspection/ERC165.sol\":838:842  bool */\n      0x00\n        /* \"@openzeppelin/contracts/utils/introspection/ERC165.sol\":876:901  type(IERC165).interfaceId */\n      0x01ffc9a700000000000000000000000000000000000000000000000000000000\n        /* \"@openzeppelin/contracts/utils/introspection/ERC165.sol\":861:901  interfaceId == type(IERC165).interfaceId */\n      not(0xffffffffffffffffffffffffffffffffffffffffffffffffffffffff)\n      and\n        /* \"@openzeppelin/contracts/utils/introspection/ERC165.sol\":861:872  interfaceId */\n      dup3\n        /* \"@openzeppelin/contracts/utils/introspection/ERC165.sol\":861:901  interfaceId == type(IERC165).interfaceId */\n      not(0xffffffffffffffffffffffffffffffffffffffffffffffffffffffff)\n      and\n      eq\n        /* \"@openzeppelin/contracts/utils/introspection/ERC165.sol\":854:901  return interfaceId == type(IERC165).interfaceId */\n      swap1\n      pop\n        /* \"@openzeppelin/contracts/utils/introspection/ERC165.sol\":762:908  function supportsInterface(bytes4 interfaceId) public view virtual returns (bool) {... */\n      swap2\n      swap1\n      pop\n      jump\t// out\n        /* \"@openzeppelin/contracts/access/Ownable.sol\":1796:1958  function _checkOwner() internal view virtual {... */\n    tag_101:\n        /* \"@openzeppelin/contracts/access/Ownable.sol\":1866:1878  _msgSender() */\n      tag_202\n        /* \"@openzeppelin/contracts/access/Ownable.sol\":1866:1876  _msgSender */\n      tag_114\n        /* \"@openzeppelin/contracts/access/Ownable.sol\":1866:1878  _msgSender() */\n      jump\t// in\n    tag_202:\n        /* \"@openzeppelin/contracts/access/Ownable.sol\":1855:1878  owner() != _msgSender() */\n      0xffffffffffffffffffffffffffffffffffffffff\n      and\n        /* \"@openzeppelin/contracts/access/Ownable.sol\":1855:1862  owner() */\n      tag_203\n        /* \"@openzeppelin/contracts/access/Ownable.sol\":1855:1860  owner */\n      tag_65\n        /* \"@openzeppelin/contracts/access/Ownable.sol\":1855:1862  owner() */\n      jump\t// in\n    tag_203:\n        /* \"@openzeppelin/contracts/access/Ownable.sol\":1855:1878  owner() != _msgSender() */\n      0xffffffffffffffffffffffffffffffffffffffff\n      and\n      eq\n        /* \"@openzeppelin/contracts/access/Ownable.sol\":1851:1952  if (owner() != _msgSender()) {... */\n      tag_204\n      jumpi\n        /* \"@openzeppelin/contracts/access/Ownable.sol\":1928:1940  _msgSender() */\n      tag_205\n        /* \"@openzeppelin/contracts/access/Ownable.sol\":1928:1938  _msgSender */\n      tag_114\n        /* \"@openzeppelin/contracts/access/Ownable.sol\":1928:1940  _msgSender() */\n      jump\t// in\n    tag_205:\n        /* \"@openzeppelin/contracts/access/Ownable.sol\":1901:1941  OwnableUnauthorizedAccount(_msgSender()) */\n      mload(0x40)\n      0x118cdaa700000000000000000000000000000000000000000000000000000000\n      dup2\n      mstore\n      0x04\n      add\n      tag_206\n      swap2\n      swap1\n      tag_67\n      jump\t// in\n    tag_206:\n      mload(0x40)\n      dup1\n      swap2\n      sub\n      swap1\n      revert\n        /* \"@openzeppelin/contracts/access/Ownable.sol\":1851:1952  if (owner() != _msgSender()) {... */\n    tag_204:\n        /* \"@openzeppelin/contracts/access/Ownable.sol\":1796:1958  function _checkOwner() internal view virtual {... */\n      jump\t// out\n        /* \"@openzeppelin/contracts/token/ERC1155/ERC1155.sol\":10282:10368  function _setURI(string memory newuri) internal virtual {... */\n    tag_104:\n        /* \"@openzeppelin/contracts/token/ERC1155/ERC1155.sol\":10355:10361  newuri */\n      dup1\n        /* \"@openzeppelin/contracts/token/ERC1155/ERC1155.sol\":10348:10352  _uri */\n      0x02\n        /* \"@openzeppelin/contracts/token/ERC1155/ERC1155.sol\":10348:10361  _uri = newuri */\n      swap1\n      dup2\n      tag_208\n      swap2\n      swap1\n      tag_209\n      jump\t// in\n    tag_208:\n      pop\n        /* \"@openzeppelin/contracts/token/ERC1155/ERC1155.sol\":10282:10368  function _setURI(string memory newuri) internal virtual {... */\n      pop\n      jump\t// out\n        /* \"@openzeppelin/contracts/utils/Context.sol\":656:752  function _msgSender() internal view virtual returns (address) {... */\n    tag_114:\n        /* \"@openzeppelin/contracts/utils/Context.sol\":709:716  address */\n      0x00\n        /* \"@openzeppelin/contracts/utils/Context.sol\":735:745  msg.sender */\n      caller\n        /* \"@openzeppelin/contracts/utils/Context.sol\":728:745  return msg.sender */\n      swap1\n      pop\n        /* \"@openzeppelin/contracts/utils/Context.sol\":656:752  function _msgSender() internal view virtual returns (address) {... */\n      swap1\n      jump\t// out\n        /* \"@openzeppelin/contracts/token/ERC1155/ERC1155.sol\":9015:9460  function _safeBatchTransferFrom(... */\n    tag_121:\n        /* \"@openzeppelin/contracts/token/ERC1155/ERC1155.sol\":9222:9223  0 */\n      0x00\n        /* \"@openzeppelin/contracts/token/ERC1155/ERC1155.sol\":9208:9224  to == address(0) */\n      0xffffffffffffffffffffffffffffffffffffffff\n      and\n        /* \"@openzeppelin/contracts/token/ERC1155/ERC1155.sol\":9208:9210  to */\n      dup5\n        /* \"@openzeppelin/contracts/token/ERC1155/ERC1155.sol\":9208:9224  to == address(0) */\n      0xffffffffffffffffffffffffffffffffffffffff\n      and\n      sub\n        /* \"@openzeppelin/contracts/token/ERC1155/ERC1155.sol\":9204:9292  if (to == address(0)) {... */\n      tag_212\n      jumpi\n        /* \"@openzeppelin/contracts/token/ERC1155/ERC1155.sol\":9278:9279  0 */\n      0x00\n        /* \"@openzeppelin/contracts/token/ERC1155/ERC1155.sol\":9247:9281  ERC1155InvalidReceiver(address(0)) */\n      mload(0x40)\n      0x57f447ce00000000000000000000000000000000000000000000000000000000\n      dup2\n      mstore\n      0x04\n      add\n      tag_213\n      swap2\n      swap1\n      tag_67\n      jump\t// in\n    tag_213:\n      mload(0x40)\n      dup1\n      swap2\n      sub\n      swap1\n      revert\n        /* \"@openzeppelin/contracts/token/ERC1155/ERC1155.sol\":9204:9292  if (to == address(0)) {... */\n    tag_212:\n        /* \"@openzeppelin/contracts/token/ERC1155/ERC1155.sol\":9321:9322  0 */\n      0x00\n        /* \"@openzeppelin/contracts/token/ERC1155/ERC1155.sol\":9305:9323  from == address(0) */\n      0xffffffffffffffffffffffffffffffffffffffff\n      and\n        /* \"@openzeppelin/contracts/token/ERC1155/ERC1155.sol\":9305:9309  from */\n      dup6\n        /* \"@openzeppelin/contracts/token/ERC1155/ERC1155.sol\":9305:9323  from == address(0) */\n      0xffffffffffffffffffffffffffffffffffffffff\n      and\n      sub\n        /* \"@openzeppelin/contracts/token/ERC1155/ERC1155.sol\":9301:9389  if (from == address(0)) {... */\n      tag_214\n      jumpi\n        /* \"@openzeppelin/contracts/token/ERC1155/ERC1155.sol\":9375:9376  0 */\n      0x00\n        /* \"@openzeppelin/contracts/token/ERC1155/ERC1155.sol\":9346:9378  ERC1155InvalidSender(address(0)) */\n      mload(0x40)\n      0x01a8351400000000000000000000000000000000000000000000000000000000\n      dup2\n      mstore\n      0x04\n      add\n      tag_215\n      swap2\n      swap1\n      tag_67\n      jump\t// in\n    tag_215:\n      mload(0x40)\n      dup1\n      swap2\n      sub\n      swap1\n      revert\n        /* \"@openzeppelin/contracts/token/ERC1155/ERC1155.sol\":9301:9389  if (from == address(0)) {... */\n    tag_214:\n        /* \"@openzeppelin/contracts/token/ERC1155/ERC1155.sol\":9398:9453  _updateWithAcceptanceCheck(from, to, ids, values, data) */\n      tag_216\n        /* \"@openzeppelin/contracts/token/ERC1155/ERC1155.sol\":9425:9429  from */\n      dup6\n        /* \"@openzeppelin/contracts/token/ERC1155/ERC1155.sol\":9431:9433  to */\n      dup6\n        /* \"@openzeppelin/contracts/token/ERC1155/ERC1155.sol\":9435:9438  ids */\n      dup6\n        /* \"@openzeppelin/contracts/token/ERC1155/ERC1155.sol\":9440:9446  values */\n      dup6\n        /* \"@openzeppelin/contracts/token/ERC1155/ERC1155.sol\":9448:9452  data */\n      dup6\n        /* \"@openzeppelin/contracts/token/ERC1155/ERC1155.sol\":9398:9424  _updateWithAcceptanceCheck */\n      tag_217\n        /* \"@openzeppelin/contracts/token/ERC1155/ERC1155.sol\":9398:9453  _updateWithAcceptanceCheck(from, to, ids, values, data) */\n      jump\t// in\n    tag_216:\n        /* \"@openzeppelin/contracts/token/ERC1155/ERC1155.sol\":9015:9460  function _safeBatchTransferFrom(... */\n      pop\n      pop\n      pop\n      pop\n      pop\n      jump\t// out\n        /* \"@openzeppelin/contracts/utils/Arrays.sol\":4603:4800  function unsafeMemoryAccess(address[] memory arr, uint256 pos) internal pure returns (address res) {... */\n    tag_142:\n        /* \"@openzeppelin/contracts/utils/Arrays.sol\":4689:4700  address res */\n      0x00\n        /* \"@openzeppelin/contracts/utils/Arrays.sol\":4777:4781  0x20 */\n      0x20\n        /* \"@openzeppelin/contracts/utils/Arrays.sol\":4772:4775  pos */\n      dup3\n        /* \"@openzeppelin/contracts/utils/Arrays.sol\":4768:4782  mul(pos, 0x20) */\n      mul\n        /* \"@openzeppelin/contracts/utils/Arrays.sol\":4761:4765  0x20 */\n      0x20\n        /* \"@openzeppelin/contracts/utils/Arrays.sol\":4756:4759  arr */\n      dup5\n        /* \"@openzeppelin/contracts/utils/Arrays.sol\":4752:4766  add(arr, 0x20) */\n      add\n        /* \"@openzeppelin/contracts/utils/Arrays.sol\":4748:4783  add(add(arr, 0x20), mul(pos, 0x20)) */\n      add\n        /* \"@openzeppelin/contracts/utils/Arrays.sol\":4742:4784  mload(add(add(arr, 0x20), mul(pos, 0x20))) */\n      mload\n        /* \"@openzeppelin/contracts/utils/Arrays.sol\":4735:4784  res := mload(add(add(arr, 0x20), mul(pos, 0x20))) */\n      swap1\n      pop\n        /* \"@openzeppelin/contracts/utils/Arrays.sol\":4603:4800  function unsafeMemoryAccess(address[] memory arr, uint256 pos) internal pure returns (address res) {... */\n      swap3\n      swap2\n      pop\n      pop\n      jump\t// out\n        /* \"@openzeppelin/contracts/utils/Arrays.sol\":4204:4401  function unsafeMemoryAccess(uint256[] memory arr, uint256 pos) internal pure returns (uint256 res) {... */\n    tag_144:\n        /* \"@openzeppelin/contracts/utils/Arrays.sol\":4290:4301  uint256 res */\n      0x00\n        /* \"@openzeppelin/contracts/utils/Arrays.sol\":4378:4382  0x20 */\n      0x20\n        /* \"@openzeppelin/contracts/utils/Arrays.sol\":4373:4376  pos */\n      dup3\n        /* \"@openzeppelin/contracts/utils/Arrays.sol\":4369:4383  mul(pos, 0x20) */\n      mul\n        /* \"@openzeppelin/contracts/utils/Arrays.sol\":4362:4366  0x20 */\n      0x20\n        /* \"@openzeppelin/contracts/utils/Arrays.sol\":4357:4360  arr */\n      dup5\n        /* \"@openzeppelin/contracts/utils/Arrays.sol\":4353:4367  add(arr, 0x20) */\n      add\n        /* \"@openzeppelin/contracts/utils/Arrays.sol\":4349:4384  add(add(arr, 0x20), mul(pos, 0x20)) */\n      add\n        /* \"@openzeppelin/contracts/utils/Arrays.sol\":4343:4385  mload(add(add(arr, 0x20), mul(pos, 0x20))) */\n      mload\n        /* \"@openzeppelin/contracts/utils/Arrays.sol\":4336:4385  res := mload(add(add(arr, 0x20), mul(pos, 0x20))) */\n      swap1\n      pop\n        /* \"@openzeppelin/contracts/utils/Arrays.sol\":4204:4401  function unsafeMemoryAccess(uint256[] memory arr, uint256 pos) internal pure returns (uint256 res) {... */\n      swap3\n      swap2\n      pop\n      pop\n      jump\t// out\n        /* \"@openzeppelin/contracts/token/ERC1155/ERC1155.sol\":12784:13049  function _burnBatch(address from, uint256[] memory ids, uint256[] memory values) internal {... */\n    tag_157:\n        /* \"@openzeppelin/contracts/token/ERC1155/ERC1155.sol\":12904:12905  0 */\n      0x00\n        /* \"@openzeppelin/contracts/token/ERC1155/ERC1155.sol\":12888:12906  from == address(0) */\n      0xffffffffffffffffffffffffffffffffffffffff\n      and\n        /* \"@openzeppelin/contracts/token/ERC1155/ERC1155.sol\":12888:12892  from */\n      dup4\n        /* \"@openzeppelin/contracts/token/ERC1155/ERC1155.sol\":12888:12906  from == address(0) */\n      0xffffffffffffffffffffffffffffffffffffffff\n      and\n      sub\n        /* \"@openzeppelin/contracts/token/ERC1155/ERC1155.sol\":12884:12972  if (from == address(0)) {... */\n      tag_221\n      jumpi\n        /* \"@openzeppelin/contracts/token/ERC1155/ERC1155.sol\":12958:12959  0 */\n      0x00\n        /* \"@openzeppelin/contracts/token/ERC1155/ERC1155.sol\":12929:12961  ERC1155InvalidSender(address(0)) */\n      mload(0x40)\n      0x01a8351400000000000000000000000000000000000000000000000000000000\n      dup2\n      mstore\n      0x04\n      add\n      tag_222\n      swap2\n      swap1\n      tag_67\n      jump\t// in\n    tag_222:\n      mload(0x40)\n      dup1\n      swap2\n      sub\n      swap1\n      revert\n        /* \"@openzeppelin/contracts/token/ERC1155/ERC1155.sol\":12884:12972  if (from == address(0)) {... */\n    tag_221:\n        /* \"@openzeppelin/contracts/token/ERC1155/ERC1155.sol\":12981:13042  _updateWithAcceptanceCheck(from, address(0), ids, values, \"\") */\n      tag_223\n        /* \"@openzeppelin/contracts/token/ERC1155/ERC1155.sol\":13008:13012  from */\n      dup4\n        /* \"@openzeppelin/contracts/token/ERC1155/ERC1155.sol\":13022:13023  0 */\n      0x00\n        /* \"@openzeppelin/contracts/token/ERC1155/ERC1155.sol\":13026:13029  ids */\n      dup5\n        /* \"@openzeppelin/contracts/token/ERC1155/ERC1155.sol\":13031:13037  values */\n      dup5\n        /* \"@openzeppelin/contracts/token/ERC1155/ERC1155.sol\":12981:13042  _updateWithAcceptanceCheck(from, address(0), ids, values, \"\") */\n      mload(0x40)\n      dup1\n      0x20\n      add\n      0x40\n      mstore\n      dup1\n      0x00\n      dup2\n      mstore\n      pop\n        /* \"@openzeppelin/contracts/token/ERC1155/ERC1155.sol\":12981:13007  _updateWithAcceptanceCheck */\n      tag_217\n        /* \"@openzeppelin/contracts/token/ERC1155/ERC1155.sol\":12981:13042  _updateWithAcceptanceCheck(from, address(0), ids, values, \"\") */\n      jump\t// in\n    tag_223:\n        /* \"@openzeppelin/contracts/token/ERC1155/ERC1155.sol\":12784:13049  function _burnBatch(address from, uint256[] memory ids, uint256[] memory values) internal {... */\n      pop\n      pop\n      pop\n      jump\t// out\n        /* \"@openzeppelin/contracts/access/Ownable.sol\":2912:3099  function _transferOwnership(address newOwner) internal virtual {... */\n    tag_162:\n        /* \"@openzeppelin/contracts/access/Ownable.sol\":2985:3001  address oldOwner */\n      0x00\n        /* \"@openzeppelin/contracts/access/Ownable.sol\":3004:3010  _owner */\n      0x03\n      0x00\n      swap1\n      sload\n      swap1\n      0x0100\n      exp\n      swap1\n      div\n      0xffffffffffffffffffffffffffffffffffffffff\n      and\n        /* \"@openzeppelin/contracts/access/Ownable.sol\":2985:3010  address oldOwner = _owner */\n      swap1\n      pop\n        /* \"@openzeppelin/contracts/access/Ownable.sol\":3029:3037  newOwner */\n      dup2\n        /* \"@openzeppelin/contracts/access/Ownable.sol\":3020:3026  _owner */\n      0x03\n      0x00\n        /* \"@openzeppelin/contracts/access/Ownable.sol\":3020:3037  _owner = newOwner */\n      0x0100\n      exp\n      dup2\n      sload\n      dup2\n      0xffffffffffffffffffffffffffffffffffffffff\n      mul\n      not\n      and\n      swap1\n      dup4\n      0xffffffffffffffffffffffffffffffffffffffff\n      and\n      mul\n      or\n      swap1\n      sstore\n      pop\n        /* \"@openzeppelin/contracts/access/Ownable.sol\":3083:3091  newOwner */\n      dup2\n        /* \"@openzeppelin/contracts/access/Ownable.sol\":3052:3092  OwnershipTransferred(oldOwner, newOwner) */\n      0xffffffffffffffffffffffffffffffffffffffff\n      and\n        /* \"@openzeppelin/contracts/access/Ownable.sol\":3073:3081  oldOwner */\n      dup2\n        /* \"@openzeppelin/contracts/access/Ownable.sol\":3052:3092  OwnershipTransferred(oldOwner, newOwner) */\n      0xffffffffffffffffffffffffffffffffffffffff\n      and\n      0x8be0079c531659141344cd1fd0a4f28419497f9722a3daafe3b4186f6b6457e0\n      mload(0x40)\n      mload(0x40)\n      dup1\n      swap2\n      sub\n      swap1\n      log3\n        /* \"@openzeppelin/contracts/access/Ownable.sol\":2975:3099  {... */\n      pop\n        /* \"@openzeppelin/contracts/access/Ownable.sol\":2912:3099  function _transferOwnership(address newOwner) internal virtual {... */\n      pop\n      jump\t// out\n        /* \"@openzeppelin/contracts/token/ERC1155/ERC1155.sol\":13268:13583  function _setApprovalForAll(address owner, address operator, bool approved) internal virtual {... */\n    tag_167:\n        /* \"@openzeppelin/contracts/token/ERC1155/ERC1155.sol\":13395:13396  0 */\n      0x00\n        /* \"@openzeppelin/contracts/token/ERC1155/ERC1155.sol\":13375:13397  operator == address(0) */\n      0xffffffffffffffffffffffffffffffffffffffff\n      and\n        /* \"@openzeppelin/contracts/token/ERC1155/ERC1155.sol\":13375:13383  operator */\n      dup3\n        /* \"@openzeppelin/contracts/token/ERC1155/ERC1155.sol\":13375:13397  operator == address(0) */\n      0xffffffffffffffffffffffffffffffffffffffff\n      and\n      sub\n        /* \"@openzeppelin/contracts/token/ERC1155/ERC1155.sol\":13371:13465  if (operator == address(0)) {... */\n      tag_226\n      jumpi\n        /* \"@openzeppelin/contracts/token/ERC1155/ERC1155.sol\":13451:13452  0 */\n      0x00\n        /* \"@openzeppelin/contracts/token/ERC1155/ERC1155.sol\":13420:13454  ERC1155InvalidOperator(address(0)) */\n      mload(0x40)\n      0xced3e10000000000000000000000000000000000000000000000000000000000\n      dup2\n      mstore\n      0x04\n      add\n      tag_227\n      swap2\n      swap1\n      tag_67\n      jump\t// in\n    tag_227:\n      mload(0x40)\n      dup1\n      swap2\n      sub\n      swap1\n      revert\n        /* \"@openzeppelin/contracts/token/ERC1155/ERC1155.sol\":13371:13465  if (operator == address(0)) {... */\n    tag_226:\n        /* \"@openzeppelin/contracts/token/ERC1155/ERC1155.sol\":13512:13520  approved */\n      dup1\n        /* \"@openzeppelin/contracts/token/ERC1155/ERC1155.sol\":13474:13492  _operatorApprovals */\n      0x01\n        /* \"@openzeppelin/contracts/token/ERC1155/ERC1155.sol\":13474:13499  _operatorApprovals[owner] */\n      0x00\n        /* \"@openzeppelin/contracts/token/ERC1155/ERC1155.sol\":13493:13498  owner */\n      dup6\n        /* \"@openzeppelin/contracts/token/ERC1155/ERC1155.sol\":13474:13499  _operatorApprovals[owner] */\n      0xffffffffffffffffffffffffffffffffffffffff\n      and\n      0xffffffffffffffffffffffffffffffffffffffff\n      and\n      dup2\n      mstore\n      0x20\n      add\n      swap1\n      dup2\n      mstore\n      0x20\n      add\n      0x00\n      keccak256\n        /* \"@openzeppelin/contracts/token/ERC1155/ERC1155.sol\":13474:13509  _operatorApprovals[owner][operator] */\n      0x00\n        /* \"@openzeppelin/contracts/token/ERC1155/ERC1155.sol\":13500:13508  operator */\n      dup5\n        /* \"@openzeppelin/contracts/token/ERC1155/ERC1155.sol\":13474:13509  _operatorApprovals[owner][operator] */\n      0xffffffffffffffffffffffffffffffffffffffff\n      and\n      0xffffffffffffffffffffffffffffffffffffffff\n      and\n      dup2\n      mstore\n      0x20\n      add\n      swap1\n      dup2\n      mstore\n      0x20\n      add\n      0x00\n      keccak256\n      0x00\n        /* \"@openzeppelin/contracts/token/ERC1155/ERC1155.sol\":13474:13520  _operatorApprovals[owner][operator] = approved */\n      0x0100\n      exp\n      dup2\n      sload\n      dup2\n      0xff\n      mul\n      not\n      and\n      swap1\n      dup4\n      iszero\n      iszero\n      mul\n      or\n      swap1\n      sstore\n      pop\n        /* \"@openzeppelin/contracts/token/ERC1155/ERC1155.sol\":13557:13565  operator */\n      dup2\n        /* \"@openzeppelin/contracts/token/ERC1155/ERC1155.sol\":13535:13576  ApprovalForAll(owner, operator, approved) */\n      0xffffffffffffffffffffffffffffffffffffffff\n      and\n        /* \"@openzeppelin/contracts/token/ERC1155/ERC1155.sol\":13550:13555  owner */\n      dup4\n        /* \"@openzeppelin/contracts/token/ERC1155/ERC1155.sol\":13535:13576  ApprovalForAll(owner, operator, approved) */\n      0xffffffffffffffffffffffffffffffffffffffff\n      and\n      0x17307eab39ab6107e8899845ad3d59bd9653f200f220920489ca2b5937696c31\n        /* \"@openzeppelin/contracts/token/ERC1155/ERC1155.sol\":13567:13575  approved */\n      dup4\n        /* \"@openzeppelin/contracts/token/ERC1155/ERC1155.sol\":13535:13576  ApprovalForAll(owner, operator, approved) */\n      mload(0x40)\n      tag_228\n      swap2\n      swap1\n      tag_33\n      jump\t// in\n    tag_228:\n      mload(0x40)\n      dup1\n      swap2\n      sub\n      swap1\n      log3\n        /* \"@openzeppelin/contracts/token/ERC1155/ERC1155.sol\":13268:13583  function _setApprovalForAll(address owner, address operator, bool approved) internal virtual {... */\n      pop\n      pop\n      pop\n      jump\t// out\n        /* \"@openzeppelin/contracts/token/ERC1155/ERC1155.sol\":10746:11092  function _mint(address to, uint256 id, uint256 value, bytes memory data) internal {... */\n    tag_172:\n        /* \"@openzeppelin/contracts/token/ERC1155/ERC1155.sol\":10856:10857  0 */\n      0x00\n        /* \"@openzeppelin/contracts/token/ERC1155/ERC1155.sol\":10842:10858  to == address(0) */\n      0xffffffffffffffffffffffffffffffffffffffff\n      and\n        /* \"@openzeppelin/contracts/token/ERC1155/ERC1155.sol\":10842:10844  to */\n      dup5\n        /* \"@openzeppelin/contracts/token/ERC1155/ERC1155.sol\":10842:10858  to == address(0) */\n      0xffffffffffffffffffffffffffffffffffffffff\n      and\n      sub\n        /* \"@openzeppelin/contracts/token/ERC1155/ERC1155.sol\":10838:10926  if (to == address(0)) {... */\n      tag_230\n      jumpi\n        /* \"@openzeppelin/contracts/token/ERC1155/ERC1155.sol\":10912:10913  0 */\n      0x00\n        /* \"@openzeppelin/contracts/token/ERC1155/ERC1155.sol\":10881:10915  ERC1155InvalidReceiver(address(0)) */\n      mload(0x40)\n      0x57f447ce00000000000000000000000000000000000000000000000000000000\n      dup2\n      mstore\n      0x04\n      add\n      tag_231\n      swap2\n      swap1\n      tag_67\n      jump\t// in\n    tag_231:\n      mload(0x40)\n      dup1\n      swap2\n      sub\n      swap1\n      revert\n        /* \"@openzeppelin/contracts/token/ERC1155/ERC1155.sol\":10838:10926  if (to == address(0)) {... */\n    tag_230:\n        /* \"@openzeppelin/contracts/token/ERC1155/ERC1155.sol\":10936:10956  uint256[] memory ids */\n      0x00\n        /* \"@openzeppelin/contracts/token/ERC1155/ERC1155.sol\":10958:10981  uint256[] memory values */\n      dup1\n        /* \"@openzeppelin/contracts/token/ERC1155/ERC1155.sol\":10985:11014  _asSingletonArrays(id, value) */\n      tag_232\n        /* \"@openzeppelin/contracts/token/ERC1155/ERC1155.sol\":11004:11006  id */\n      dup6\n        /* \"@openzeppelin/contracts/token/ERC1155/ERC1155.sol\":11008:11013  value */\n      dup6\n        /* \"@openzeppelin/contracts/token/ERC1155/ERC1155.sol\":10985:11003  _asSingletonArrays */\n      tag_233\n        /* \"@openzeppelin/contracts/token/ERC1155/ERC1155.sol\":10985:11014  _asSingletonArrays(id, value) */\n      jump\t// in\n    tag_232:\n        /* \"@openzeppelin/contracts/token/ERC1155/ERC1155.sol\":10935:11014  (uint256[] memory ids, uint256[] memory values) = _asSingletonArrays(id, value) */\n      swap2\n      pop\n      swap2\n      pop\n        /* \"@openzeppelin/contracts/token/ERC1155/ERC1155.sol\":11024:11085  _updateWithAcceptanceCheck(address(0), to, ids, values, data) */\n      tag_234\n        /* \"@openzeppelin/contracts/token/ERC1155/ERC1155.sol\":11059:11060  0 */\n      0x00\n        /* \"@openzeppelin/contracts/token/ERC1155/ERC1155.sol\":11063:11065  to */\n      dup8\n        /* \"@openzeppelin/contracts/token/ERC1155/ERC1155.sol\":11067:11070  ids */\n      dup5\n        /* \"@openzeppelin/contracts/token/ERC1155/ERC1155.sol\":11072:11078  values */\n      dup5\n        /* \"@openzeppelin/contracts/token/ERC1155/ERC1155.sol\":11080:11084  data */\n      dup8\n        /* \"@openzeppelin/contracts/token/ERC1155/ERC1155.sol\":11024:11050  _updateWithAcceptanceCheck */\n      tag_217\n        /* \"@openzeppelin/contracts/token/ERC1155/ERC1155.sol\":11024:11085  _updateWithAcceptanceCheck(address(0), to, ids, values, data) */\n      jump\t// in\n    tag_234:\n        /* \"@openzeppelin/contracts/token/ERC1155/ERC1155.sol\":10828:11092  {... */\n      pop\n      pop\n        /* \"@openzeppelin/contracts/token/ERC1155/ERC1155.sol\":10746:11092  function _mint(address to, uint256 id, uint256 value, bytes memory data) internal {... */\n      pop\n      pop\n      pop\n      pop\n      jump\t// out\n        /* \"@openzeppelin/contracts/token/ERC1155/ERC1155.sol\":8151:8614  function _safeTransferFrom(address from, address to, uint256 id, uint256 value, bytes memory data) internal {... */\n    tag_183:\n        /* \"@openzeppelin/contracts/token/ERC1155/ERC1155.sol\":8287:8288  0 */\n      0x00\n        /* \"@openzeppelin/contracts/token/ERC1155/ERC1155.sol\":8273:8289  to == address(0) */\n      0xffffffffffffffffffffffffffffffffffffffff\n      and\n        /* \"@openzeppelin/contracts/token/ERC1155/ERC1155.sol\":8273:8275  to */\n      dup5\n        /* \"@openzeppelin/contracts/token/ERC1155/ERC1155.sol\":8273:8289  to == address(0) */\n      0xffffffffffffffffffffffffffffffffffffffff\n      and\n      sub\n        /* \"@openzeppelin/contracts/token/ERC1155/ERC1155.sol\":8269:8357  if (to == address(0)) {... */\n      tag_236\n      jumpi\n        /* \"@openzeppelin/contracts/token/ERC1155/ERC1155.sol\":8343:8344  0 */\n      0x00\n        /* \"@openzeppelin/contracts/token/ERC1155/ERC1155.sol\":8312:8346  ERC1155InvalidReceiver(address(0)) */\n      mload(0x40)\n      0x57f447ce00000000000000000000000000000000000000000000000000000000\n      dup2\n      mstore\n      0x04\n      add\n      tag_237\n      swap2\n      swap1\n      tag_67\n      jump\t// in\n    tag_237:\n      mload(0x40)\n      dup1\n      swap2\n      sub\n      swap1\n      revert\n        /* \"@openzeppelin/contracts/token/ERC1155/ERC1155.sol\":8269:8357  if (to == address(0)) {... */\n    tag_236:\n        /* \"@openzeppelin/contracts/token/ERC1155/ERC1155.sol\":8386:8387  0 */\n      0x00\n        /* \"@openzeppelin/contracts/token/ERC1155/ERC1155.sol\":8370:8388  from == address(0) */\n      0xffffffffffffffffffffffffffffffffffffffff\n      and\n        /* \"@openzeppelin/contracts/token/ERC1155/ERC1155.sol\":8370:8374  from */\n      dup6\n        /* \"@openzeppelin/contracts/token/ERC1155/ERC1155.sol\":8370:8388  from == address(0) */\n      0xffffffffffffffffffffffffffffffffffffffff\n      and\n      sub\n        /* \"@openzeppelin/contracts/token/ERC1155/ERC1155.sol\":8366:8454  if (from == address(0)) {... */\n      tag_238\n      jumpi\n        /* \"@openzeppelin/contracts/token/ERC1155/ERC1155.sol\":8440:8441  0 */\n      0x00\n        /* \"@openzeppelin/contracts/token/ERC1155/ERC1155.sol\":8411:8443  ERC1155InvalidSender(address(0)) */\n      mload(0x40)\n      0x01a8351400000000000000000000000000000000000000000000000000000000\n      dup2\n      mstore\n      0x04\n      add\n      tag_239\n      swap2\n      swap1\n      tag_67\n      jump\t// in\n    tag_239:\n      mload(0x40)\n      dup1\n      swap2\n      sub\n      swap1\n      revert\n        /* \"@openzeppelin/contracts/token/ERC1155/ERC1155.sol\":8366:8454  if (from == address(0)) {... */\n    tag_238:\n        /* \"@openzeppelin/contracts/token/ERC1155/ERC1155.sol\":8464:8484  uint256[] memory ids */\n      0x00\n        /* \"@openzeppelin/contracts/token/ERC1155/ERC1155.sol\":8486:8509  uint256[] memory values */\n      dup1\n        /* \"@openzeppelin/contracts/token/ERC1155/ERC1155.sol\":8513:8542  _asSingletonArrays(id, value) */\n      tag_240\n        /* \"@openzeppelin/contracts/token/ERC1155/ERC1155.sol\":8532:8534  id */\n      dup6\n        /* \"@openzeppelin/contracts/token/ERC1155/ERC1155.sol\":8536:8541  value */\n      dup6\n        /* \"@openzeppelin/contracts/token/ERC1155/ERC1155.sol\":8513:8531  _asSingletonArrays */\n      tag_233\n        /* \"@openzeppelin/contracts/token/ERC1155/ERC1155.sol\":8513:8542  _asSingletonArrays(id, value) */\n      jump\t// in\n    tag_240:\n        /* \"@openzeppelin/contracts/token/ERC1155/ERC1155.sol\":8463:8542  (uint256[] memory ids, uint256[] memory values) = _asSingletonArrays(id, value) */\n      swap2\n      pop\n      swap2\n      pop\n        /* \"@openzeppelin/contracts/token/ERC1155/ERC1155.sol\":8552:8607  _updateWithAcceptanceCheck(from, to, ids, values, data) */\n      tag_241\n        /* \"@openzeppelin/contracts/token/ERC1155/ERC1155.sol\":8579:8583  from */\n      dup8\n        /* \"@openzeppelin/contracts/token/ERC1155/ERC1155.sol\":8585:8587  to */\n      dup8\n        /* \"@openzeppelin/contracts/token/ERC1155/ERC1155.sol\":8589:8592  ids */\n      dup5\n        /* \"@openzeppelin/contracts/token/ERC1155/ERC1155.sol\":8594:8600  values */\n      dup5\n        /* \"@openzeppelin/contracts/token/ERC1155/ERC1155.sol\":8602:8606  data */\n      dup8\n        /* \"@openzeppelin/contracts/token/ERC1155/ERC1155.sol\":8552:8578  _updateWithAcceptanceCheck */\n      tag_217\n        /* \"@openzeppelin/contracts/token/ERC1155/ERC1155.sol\":8552:8607  _updateWithAcceptanceCheck(from, to, ids, values, data) */\n      jump\t// in\n    tag_241:\n        /* \"@openzeppelin/contracts/token/ERC1155/ERC1155.sol\":8259:8614  {... */\n      pop\n      pop\n        /* \"@openzeppelin/contracts/token/ERC1155/ERC1155.sol\":8151:8614  function _safeTransferFrom(address from, address to, uint256 id, uint256 value, bytes memory data) internal {... */\n      pop\n      pop\n      pop\n      pop\n      pop\n      jump\t// out\n        /* \"@openzeppelin/contracts/token/ERC1155/ERC1155.sol\":12099:12428  function _burn(address from, uint256 id, uint256 value) internal {... */\n    tag_199:\n        /* \"@openzeppelin/contracts/token/ERC1155/ERC1155.sol\":12194:12195  0 */\n      0x00\n        /* \"@openzeppelin/contracts/token/ERC1155/ERC1155.sol\":12178:12196  from == address(0) */\n      0xffffffffffffffffffffffffffffffffffffffff\n      and\n        /* \"@openzeppelin/contracts/token/ERC1155/ERC1155.sol\":12178:12182  from */\n      dup4\n        /* \"@openzeppelin/contracts/token/ERC1155/ERC1155.sol\":12178:12196  from == address(0) */\n      0xffffffffffffffffffffffffffffffffffffffff\n      and\n      sub\n        /* \"@openzeppelin/contracts/token/ERC1155/ERC1155.sol\":12174:12262  if (from == address(0)) {... */\n      tag_243\n      jumpi\n        /* \"@openzeppelin/contracts/token/ERC1155/ERC1155.sol\":12248:12249  0 */\n      0x00\n        /* \"@openzeppelin/contracts/token/ERC1155/ERC1155.sol\":12219:12251  ERC1155InvalidSender(address(0)) */\n      mload(0x40)\n      0x01a8351400000000000000000000000000000000000000000000000000000000\n      dup2\n      mstore\n      0x04\n      add\n      tag_244\n      swap2\n      swap1\n      tag_67\n      jump\t// in\n    tag_244:\n      mload(0x40)\n      dup1\n      swap2\n      sub\n      swap1\n      revert\n        /* \"@openzeppelin/contracts/token/ERC1155/ERC1155.sol\":12174:12262  if (from == address(0)) {... */\n    tag_243:\n        /* \"@openzeppelin/contracts/token/ERC1155/ERC1155.sol\":12272:12292  uint256[] memory ids */\n      0x00\n        /* \"@openzeppelin/contracts/token/ERC1155/ERC1155.sol\":12294:12317  uint256[] memory values */\n      dup1\n        /* \"@openzeppelin/contracts/token/ERC1155/ERC1155.sol\":12321:12350  _asSingletonArrays(id, value) */\n      tag_245\n        /* \"@openzeppelin/contracts/token/ERC1155/ERC1155.sol\":12340:12342  id */\n      dup5\n        /* \"@openzeppelin/contracts/token/ERC1155/ERC1155.sol\":12344:12349  value */\n      dup5\n        /* \"@openzeppelin/contracts/token/ERC1155/ERC1155.sol\":12321:12339  _asSingletonArrays */\n      tag_233\n        /* \"@openzeppelin/contracts/token/ERC1155/ERC1155.sol\":12321:12350  _asSingletonArrays(id, value) */\n      jump\t// in\n    tag_245:\n        /* \"@openzeppelin/contracts/token/ERC1155/ERC1155.sol\":12271:12350  (uint256[] memory ids, uint256[] memory values) = _asSingletonArrays(id, value) */\n      swap2\n      pop\n      swap2\n      pop\n        /* \"@openzeppelin/contracts/token/ERC1155/ERC1155.sol\":12360:12421  _updateWithAcceptanceCheck(from, address(0), ids, values, \"\") */\n      tag_246\n        /* \"@openzeppelin/contracts/token/ERC1155/ERC1155.sol\":12387:12391  from */\n      dup6\n        /* \"@openzeppelin/contracts/token/ERC1155/ERC1155.sol\":12401:12402  0 */\n      0x00\n        /* \"@openzeppelin/contracts/token/ERC1155/ERC1155.sol\":12405:12408  ids */\n      dup5\n        /* \"@openzeppelin/contracts/token/ERC1155/ERC1155.sol\":12410:12416  values */\n      dup5\n        /* \"@openzeppelin/contracts/token/ERC1155/ERC1155.sol\":12360:12421  _updateWithAcceptanceCheck(from, address(0), ids, values, \"\") */\n      mload(0x40)\n      dup1\n      0x20\n      add\n      0x40\n      mstore\n      dup1\n      0x00\n      dup2\n      mstore\n      pop\n        /* \"@openzeppelin/contracts/token/ERC1155/ERC1155.sol\":12360:12386  _updateWithAcceptanceCheck */\n      tag_217\n        /* \"@openzeppelin/contracts/token/ERC1155/ERC1155.sol\":12360:12421  _updateWithAcceptanceCheck(from, address(0), ids, values, \"\") */\n      jump\t// in\n    tag_246:\n        /* \"@openzeppelin/contracts/token/ERC1155/ERC1155.sol\":12164:12428  {... */\n      pop\n      pop\n        /* \"@openzeppelin/contracts/token/ERC1155/ERC1155.sol\":12099:12428  function _burn(address from, uint256 id, uint256 value) internal {... */\n      pop\n      pop\n      pop\n      jump\t// out\n        /* \"@openzeppelin/contracts/token/ERC1155/ERC1155.sol\":7004:7694  function _updateWithAcceptanceCheck(... */\n    tag_217:\n        /* \"@openzeppelin/contracts/token/ERC1155/ERC1155.sol\":7205:7235  _update(from, to, ids, values) */\n      tag_248\n        /* \"@openzeppelin/contracts/token/ERC1155/ERC1155.sol\":7213:7217  from */\n      dup6\n        /* \"@openzeppelin/contracts/token/ERC1155/ERC1155.sol\":7219:7221  to */\n      dup6\n        /* \"@openzeppelin/contracts/token/ERC1155/ERC1155.sol\":7223:7226  ids */\n      dup6\n        /* \"@openzeppelin/contracts/token/ERC1155/ERC1155.sol\":7228:7234  values */\n      dup6\n        /* \"@openzeppelin/contracts/token/ERC1155/ERC1155.sol\":7205:7212  _update */\n      tag_249\n        /* \"@openzeppelin/contracts/token/ERC1155/ERC1155.sol\":7205:7235  _update(from, to, ids, values) */\n      jump\t// in\n    tag_248:\n        /* \"@openzeppelin/contracts/token/ERC1155/ERC1155.sol\":7263:7264  0 */\n      0x00\n        /* \"@openzeppelin/contracts/token/ERC1155/ERC1155.sol\":7249:7265  to != address(0) */\n      0xffffffffffffffffffffffffffffffffffffffff\n      and\n        /* \"@openzeppelin/contracts/token/ERC1155/ERC1155.sol\":7249:7251  to */\n      dup5\n        /* \"@openzeppelin/contracts/token/ERC1155/ERC1155.sol\":7249:7265  to != address(0) */\n      0xffffffffffffffffffffffffffffffffffffffff\n      and\n      eq\n        /* \"@openzeppelin/contracts/token/ERC1155/ERC1155.sol\":7245:7688  if (to != address(0)) {... */\n      tag_250\n      jumpi\n        /* \"@openzeppelin/contracts/token/ERC1155/ERC1155.sol\":7281:7297  address operator */\n      0x00\n        /* \"@openzeppelin/contracts/token/ERC1155/ERC1155.sol\":7300:7312  _msgSender() */\n      tag_251\n        /* \"@openzeppelin/contracts/token/ERC1155/ERC1155.sol\":7300:7310  _msgSender */\n      tag_114\n        /* \"@openzeppelin/contracts/token/ERC1155/ERC1155.sol\":7300:7312  _msgSender() */\n      jump\t// in\n    tag_251:\n        /* \"@openzeppelin/contracts/token/ERC1155/ERC1155.sol\":7281:7312  address operator = _msgSender() */\n      swap1\n      pop\n        /* \"@openzeppelin/contracts/token/ERC1155/ERC1155.sol\":7344:7345  1 */\n      0x01\n        /* \"@openzeppelin/contracts/token/ERC1155/ERC1155.sol\":7330:7333  ids */\n      dup5\n        /* \"@openzeppelin/contracts/token/ERC1155/ERC1155.sol\":7330:7340  ids.length */\n      mload\n        /* \"@openzeppelin/contracts/token/ERC1155/ERC1155.sol\":7330:7345  ids.length == 1 */\n      sub\n        /* \"@openzeppelin/contracts/token/ERC1155/ERC1155.sol\":7326:7678  if (ids.length == 1) {... */\n      tag_252\n      jumpi\n        /* \"@openzeppelin/contracts/token/ERC1155/ERC1155.sol\":7365:7375  uint256 id */\n      0x00\n        /* \"@openzeppelin/contracts/token/ERC1155/ERC1155.sol\":7378:7403  ids.unsafeMemoryAccess(0) */\n      tag_253\n        /* \"@openzeppelin/contracts/token/ERC1155/ERC1155.sol\":7401:7402  0 */\n      0x00\n        /* \"@openzeppelin/contracts/token/ERC1155/ERC1155.sol\":7378:7381  ids */\n      dup7\n        /* \"@openzeppelin/contracts/token/ERC1155/ERC1155.sol\":7378:7400  ids.unsafeMemoryAccess */\n      tag_144\n      swap1\n        /* \"@openzeppelin/contracts/token/ERC1155/ERC1155.sol\":7378:7403  ids.unsafeMemoryAccess(0) */\n      swap2\n      swap1\n      0xffffffff\n      and\n      jump\t// in\n    tag_253:\n        /* \"@openzeppelin/contracts/token/ERC1155/ERC1155.sol\":7365:7403  uint256 id = ids.unsafeMemoryAccess(0) */\n      swap1\n      pop\n        /* \"@openzeppelin/contracts/token/ERC1155/ERC1155.sol\":7421:7434  uint256 value */\n      0x00\n        /* \"@openzeppelin/contracts/token/ERC1155/ERC1155.sol\":7437:7465  values.unsafeMemoryAccess(0) */\n      tag_254\n        /* \"@openzeppelin/contracts/token/ERC1155/ERC1155.sol\":7463:7464  0 */\n      0x00\n        /* \"@openzeppelin/contracts/token/ERC1155/ERC1155.sol\":7437:7443  values */\n      dup7\n        /* \"@openzeppelin/contracts/token/ERC1155/ERC1155.sol\":7437:7462  values.unsafeMemoryAccess */\n      tag_144\n      swap1\n        /* \"@openzeppelin/contracts/token/ERC1155/ERC1155.sol\":7437:7465  values.unsafeMemoryAccess(0) */\n      swap2\n      swap1\n      0xffffffff\n      and\n      jump\t// in\n    tag_254:\n        /* \"@openzeppelin/contracts/token/ERC1155/ERC1155.sol\":7421:7465  uint256 value = values.unsafeMemoryAccess(0) */\n      swap1\n      pop\n        /* \"@openzeppelin/contracts/token/ERC1155/ERC1155.sol\":7483:7550  _doSafeTransferAcceptanceCheck(operator, from, to, id, value, data) */\n      tag_255\n        /* \"@openzeppelin/contracts/token/ERC1155/ERC1155.sol\":7514:7522  operator */\n      dup4\n        /* \"@openzeppelin/contracts/token/ERC1155/ERC1155.sol\":7524:7528  from */\n      dup10\n        /* \"@openzeppelin/contracts/token/ERC1155/ERC1155.sol\":7530:7532  to */\n      dup10\n        /* \"@openzeppelin/contracts/token/ERC1155/ERC1155.sol\":7534:7536  id */\n      dup6\n        /* \"@openzeppelin/contracts/token/ERC1155/ERC1155.sol\":7538:7543  value */\n      dup6\n        /* \"@openzeppelin/contracts/token/ERC1155/ERC1155.sol\":7545:7549  data */\n      dup10\n        /* \"@openzeppelin/contracts/token/ERC1155/ERC1155.sol\":7483:7513  _doSafeTransferAcceptanceCheck */\n      tag_256\n        /* \"@openzeppelin/contracts/token/ERC1155/ERC1155.sol\":7483:7550  _doSafeTransferAcceptanceCheck(operator, from, to, id, value, data) */\n      jump\t// in\n    tag_255:\n        /* \"@openzeppelin/contracts/token/ERC1155/ERC1155.sol\":7347:7565  {... */\n      pop\n      pop\n        /* \"@openzeppelin/contracts/token/ERC1155/ERC1155.sol\":7326:7678  if (ids.length == 1) {... */\n      jump(tag_257)\n    tag_252:\n        /* \"@openzeppelin/contracts/token/ERC1155/ERC1155.sol\":7589:7663  _doSafeBatchTransferAcceptanceCheck(operator, from, to, ids, values, data) */\n      tag_258\n        /* \"@openzeppelin/contracts/token/ERC1155/ERC1155.sol\":7625:7633  operator */\n      dup2\n        /* \"@openzeppelin/contracts/token/ERC1155/ERC1155.sol\":7635:7639  from */\n      dup8\n        /* \"@openzeppelin/contracts/token/ERC1155/ERC1155.sol\":7641:7643  to */\n      dup8\n        /* \"@openzeppelin/contracts/token/ERC1155/ERC1155.sol\":7645:7648  ids */\n      dup8\n        /* \"@openzeppelin/contracts/token/ERC1155/ERC1155.sol\":7650:7656  values */\n      dup8\n        /* \"@openzeppelin/contracts/token/ERC1155/ERC1155.sol\":7658:7662  data */\n      dup8\n        /* \"@openzeppelin/contracts/token/ERC1155/ERC1155.sol\":7589:7624  _doSafeBatchTransferAcceptanceCheck */\n      tag_259\n        /* \"@openzeppelin/contracts/token/ERC1155/ERC1155.sol\":7589:7663  _doSafeBatchTransferAcceptanceCheck(operator, from, to, ids, values, data) */\n      jump\t// in\n    tag_258:\n        /* \"@openzeppelin/contracts/token/ERC1155/ERC1155.sol\":7326:7678  if (ids.length == 1) {... */\n    tag_257:\n        /* \"@openzeppelin/contracts/token/ERC1155/ERC1155.sol\":7267:7688  {... */\n      pop\n        /* \"@openzeppelin/contracts/token/ERC1155/ERC1155.sol\":7245:7688  if (to != address(0)) {... */\n    tag_250:\n        /* \"@openzeppelin/contracts/token/ERC1155/ERC1155.sol\":7004:7694  function _updateWithAcceptanceCheck(... */\n      pop\n      pop\n      pop\n      pop\n      pop\n      jump\t// out\n        /* \"@openzeppelin/contracts/token/ERC1155/ERC1155.sol\":16080:16929  function _asSingletonArrays(... */\n    tag_233:\n        /* \"@openzeppelin/contracts/token/ERC1155/ERC1155.sol\":16188:16211  uint256[] memory array1 */\n      0x60\n        /* \"@openzeppelin/contracts/token/ERC1155/ERC1155.sol\":16213:16236  uint256[] memory array2 */\n      dup1\n        /* \"@openzeppelin/contracts/token/ERC1155/ERC1155.sol\":16374:16378  0x40 */\n      0x40\n        /* \"@openzeppelin/contracts/token/ERC1155/ERC1155.sol\":16368:16379  mload(0x40) */\n      mload\n        /* \"@openzeppelin/contracts/token/ERC1155/ERC1155.sol\":16358:16379  array1 := mload(0x40) */\n      swap2\n      pop\n        /* \"@openzeppelin/contracts/token/ERC1155/ERC1155.sol\":16444:16445  1 */\n      0x01\n        /* \"@openzeppelin/contracts/token/ERC1155/ERC1155.sol\":16436:16442  array1 */\n      dup3\n        /* \"@openzeppelin/contracts/token/ERC1155/ERC1155.sol\":16429:16446  mstore(array1, 1) */\n      mstore\n        /* \"@openzeppelin/contracts/token/ERC1155/ERC1155.sol\":16582:16590  element1 */\n      dup4\n        /* \"@openzeppelin/contracts/token/ERC1155/ERC1155.sol\":16575:16579  0x20 */\n      0x20\n        /* \"@openzeppelin/contracts/token/ERC1155/ERC1155.sol\":16567:16573  array1 */\n      dup4\n        /* \"@openzeppelin/contracts/token/ERC1155/ERC1155.sol\":16563:16580  add(array1, 0x20) */\n      add\n        /* \"@openzeppelin/contracts/token/ERC1155/ERC1155.sol\":16556:16591  mstore(add(array1, 0x20), element1) */\n      mstore\n        /* \"@openzeppelin/contracts/token/ERC1155/ERC1155.sol\":16704:16708  0x40 */\n      0x40\n        /* \"@openzeppelin/contracts/token/ERC1155/ERC1155.sol\":16696:16702  array1 */\n      dup3\n        /* \"@openzeppelin/contracts/token/ERC1155/ERC1155.sol\":16692:16709  add(array1, 0x40) */\n      add\n        /* \"@openzeppelin/contracts/token/ERC1155/ERC1155.sol\":16682:16709  array2 := add(array1, 0x40) */\n      swap1\n      pop\n        /* \"@openzeppelin/contracts/token/ERC1155/ERC1155.sol\":16737:16738  1 */\n      0x01\n        /* \"@openzeppelin/contracts/token/ERC1155/ERC1155.sol\":16729:16735  array2 */\n      dup2\n        /* \"@openzeppelin/contracts/token/ERC1155/ERC1155.sol\":16722:16739  mstore(array2, 1) */\n      mstore\n        /* \"@openzeppelin/contracts/token/ERC1155/ERC1155.sol\":16778:16786  element2 */\n      dup3\n        /* \"@openzeppelin/contracts/token/ERC1155/ERC1155.sol\":16771:16775  0x20 */\n      0x20\n        /* \"@openzeppelin/contracts/token/ERC1155/ERC1155.sol\":16763:16769  array2 */\n      dup3\n        /* \"@openzeppelin/contracts/token/ERC1155/ERC1155.sol\":16759:16776  add(array2, 0x20) */\n      add\n        /* \"@openzeppelin/contracts/token/ERC1155/ERC1155.sol\":16752:16787  mstore(add(array2, 0x20), element2) */\n      mstore\n        /* \"@openzeppelin/contracts/token/ERC1155/ERC1155.sol\":16907:16911  0x40 */\n      0x40\n        /* \"@openzeppelin/contracts/token/ERC1155/ERC1155.sol\":16899:16905  array2 */\n      dup2\n        /* \"@openzeppelin/contracts/token/ERC1155/ERC1155.sol\":16895:16912  add(array2, 0x40) */\n      add\n        /* \"@openzeppelin/contracts/token/ERC1155/ERC1155.sol\":16889:16893  0x40 */\n      0x40\n        /* \"@openzeppelin/contracts/token/ERC1155/ERC1155.sol\":16882:16913  mstore(0x40, add(array2, 0x40)) */\n      mstore\n        /* \"@openzeppelin/contracts/token/ERC1155/ERC1155.sol\":16080:16929  function _asSingletonArrays(... */\n      swap3\n      pop\n      swap3\n      swap1\n      pop\n      jump\t// out\n        /* \"@openzeppelin/contracts/token/ERC1155/ERC1155.sol\":5144:6425  function _update(address from, address to, uint256[] memory ids, uint256[] memory values) internal virtual {... */\n    tag_249:\n        /* \"@openzeppelin/contracts/token/ERC1155/ERC1155.sol\":5279:5285  values */\n      dup1\n        /* \"@openzeppelin/contracts/token/ERC1155/ERC1155.sol\":5279:5292  values.length */\n      mload\n        /* \"@openzeppelin/contracts/token/ERC1155/ERC1155.sol\":5265:5268  ids */\n      dup3\n        /* \"@openzeppelin/contracts/token/ERC1155/ERC1155.sol\":5265:5275  ids.length */\n      mload\n        /* \"@openzeppelin/contracts/token/ERC1155/ERC1155.sol\":5265:5292  ids.length != values.length */\n      eq\n        /* \"@openzeppelin/contracts/token/ERC1155/ERC1155.sol\":5261:5378  if (ids.length != values.length) {... */\n      tag_262\n      jumpi\n        /* \"@openzeppelin/contracts/token/ERC1155/ERC1155.sol\":5341:5344  ids */\n      dup2\n        /* \"@openzeppelin/contracts/token/ERC1155/ERC1155.sol\":5341:5351  ids.length */\n      mload\n        /* \"@openzeppelin/contracts/token/ERC1155/ERC1155.sol\":5353:5359  values */\n      dup2\n        /* \"@openzeppelin/contracts/token/ERC1155/ERC1155.sol\":5353:5366  values.length */\n      mload\n        /* \"@openzeppelin/contracts/token/ERC1155/ERC1155.sol\":5315:5367  ERC1155InvalidArrayLength(ids.length, values.length) */\n      mload(0x40)\n      0x5b05999100000000000000000000000000000000000000000000000000000000\n      dup2\n      mstore\n      0x04\n      add\n      tag_263\n      swap3\n      swap2\n      swap1\n      tag_132\n      jump\t// in\n    tag_263:\n      mload(0x40)\n      dup1\n      swap2\n      sub\n      swap1\n      revert\n        /* \"@openzeppelin/contracts/token/ERC1155/ERC1155.sol\":5261:5378  if (ids.length != values.length) {... */\n    tag_262:\n        /* \"@openzeppelin/contracts/token/ERC1155/ERC1155.sol\":5388:5404  address operator */\n      0x00\n        /* \"@openzeppelin/contracts/token/ERC1155/ERC1155.sol\":5407:5419  _msgSender() */\n      tag_264\n        /* \"@openzeppelin/contracts/token/ERC1155/ERC1155.sol\":5407:5417  _msgSender */\n      tag_114\n        /* \"@openzeppelin/contracts/token/ERC1155/ERC1155.sol\":5407:5419  _msgSender() */\n      jump\t// in\n    tag_264:\n        /* \"@openzeppelin/contracts/token/ERC1155/ERC1155.sol\":5388:5419  address operator = _msgSender() */\n      swap1\n      pop\n        /* \"@openzeppelin/contracts/token/ERC1155/ERC1155.sol\":5435:5444  uint256 i */\n      0x00\n        /* \"@openzeppelin/contracts/token/ERC1155/ERC1155.sol\":5430:6121  for (uint256 i = 0; i < ids.length; ++i) {... */\n    tag_265:\n        /* \"@openzeppelin/contracts/token/ERC1155/ERC1155.sol\":5454:5457  ids */\n      dup4\n        /* \"@openzeppelin/contracts/token/ERC1155/ERC1155.sol\":5454:5464  ids.length */\n      mload\n        /* \"@openzeppelin/contracts/token/ERC1155/ERC1155.sol\":5450:5451  i */\n      dup2\n        /* \"@openzeppelin/contracts/token/ERC1155/ERC1155.sol\":5450:5464  i < ids.length */\n      lt\n        /* \"@openzeppelin/contracts/token/ERC1155/ERC1155.sol\":5430:6121  for (uint256 i = 0; i < ids.length; ++i) {... */\n      iszero\n      tag_266\n      jumpi\n        /* \"@openzeppelin/contracts/token/ERC1155/ERC1155.sol\":5485:5495  uint256 id */\n      0x00\n        /* \"@openzeppelin/contracts/token/ERC1155/ERC1155.sol\":5498:5523  ids.unsafeMemoryAccess(i) */\n      tag_268\n        /* \"@openzeppelin/contracts/token/ERC1155/ERC1155.sol\":5521:5522  i */\n      dup3\n        /* \"@openzeppelin/contracts/token/ERC1155/ERC1155.sol\":5498:5501  ids */\n      dup7\n        /* \"@openzeppelin/contracts/token/ERC1155/ERC1155.sol\":5498:5520  ids.unsafeMemoryAccess */\n      tag_144\n      swap1\n        /* \"@openzeppelin/contracts/token/ERC1155/ERC1155.sol\":5498:5523  ids.unsafeMemoryAccess(i) */\n      swap2\n      swap1\n      0xffffffff\n      and\n      jump\t// in\n    tag_268:\n        /* \"@openzeppelin/contracts/token/ERC1155/ERC1155.sol\":5485:5523  uint256 id = ids.unsafeMemoryAccess(i) */\n      swap1\n      pop\n        /* \"@openzeppelin/contracts/token/ERC1155/ERC1155.sol\":5537:5550  uint256 value */\n      0x00\n        /* \"@openzeppelin/contracts/token/ERC1155/ERC1155.sol\":5553:5581  values.unsafeMemoryAccess(i) */\n      tag_269\n        /* \"@openzeppelin/contracts/token/ERC1155/ERC1155.sol\":5579:5580  i */\n      dup4\n        /* \"@openzeppelin/contracts/token/ERC1155/ERC1155.sol\":5553:5559  values */\n      dup7\n        /* \"@openzeppelin/contracts/token/ERC1155/ERC1155.sol\":5553:5578  values.unsafeMemoryAccess */\n      tag_144\n      swap1\n        /* \"@openzeppelin/contracts/token/ERC1155/ERC1155.sol\":5553:5581  values.unsafeMemoryAccess(i) */\n      swap2\n      swap1\n      0xffffffff\n      and\n      jump\t// in\n    tag_269:\n        /* \"@openzeppelin/contracts/token/ERC1155/ERC1155.sol\":5537:5581  uint256 value = values.unsafeMemoryAccess(i) */\n      swap1\n      pop\n        /* \"@openzeppelin/contracts/token/ERC1155/ERC1155.sol\":5616:5617  0 */\n      0x00\n        /* \"@openzeppelin/contracts/token/ERC1155/ERC1155.sol\":5600:5618  from != address(0) */\n      0xffffffffffffffffffffffffffffffffffffffff\n      and\n        /* \"@openzeppelin/contracts/token/ERC1155/ERC1155.sol\":5600:5604  from */\n      dup9\n        /* \"@openzeppelin/contracts/token/ERC1155/ERC1155.sol\":5600:5618  from != address(0) */\n      0xffffffffffffffffffffffffffffffffffffffff\n      and\n      eq\n        /* \"@openzeppelin/contracts/token/ERC1155/ERC1155.sol\":5596:6016  if (from != address(0)) {... */\n      tag_270\n      jumpi\n        /* \"@openzeppelin/contracts/token/ERC1155/ERC1155.sol\":5638:5657  uint256 fromBalance */\n      0x00\n        /* \"@openzeppelin/contracts/token/ERC1155/ERC1155.sol\":5660:5669  _balances */\n      dup1\n        /* \"@openzeppelin/contracts/token/ERC1155/ERC1155.sol\":5660:5673  _balances[id] */\n      0x00\n        /* \"@openzeppelin/contracts/token/ERC1155/ERC1155.sol\":5670:5672  id */\n      dup5\n        /* \"@openzeppelin/contracts/token/ERC1155/ERC1155.sol\":5660:5673  _balances[id] */\n      dup2\n      mstore\n      0x20\n      add\n      swap1\n      dup2\n      mstore\n      0x20\n      add\n      0x00\n      keccak256\n        /* \"@openzeppelin/contracts/token/ERC1155/ERC1155.sol\":5660:5679  _balances[id][from] */\n      0x00\n        /* \"@openzeppelin/contracts/token/ERC1155/ERC1155.sol\":5674:5678  from */\n      dup11\n        /* \"@openzeppelin/contracts/token/ERC1155/ERC1155.sol\":5660:5679  _balances[id][from] */\n      0xffffffffffffffffffffffffffffffffffffffff\n      and\n      0xffffffffffffffffffffffffffffffffffffffff\n      and\n      dup2\n      mstore\n      0x20\n      add\n      swap1\n      dup2\n      mstore\n      0x20\n      add\n      0x00\n      keccak256\n      sload\n        /* \"@openzeppelin/contracts/token/ERC1155/ERC1155.sol\":5638:5679  uint256 fromBalance = _balances[id][from] */\n      swap1\n      pop\n        /* \"@openzeppelin/contracts/token/ERC1155/ERC1155.sol\":5715:5720  value */\n      dup2\n        /* \"@openzeppelin/contracts/token/ERC1155/ERC1155.sol\":5701:5712  fromBalance */\n      dup2\n        /* \"@openzeppelin/contracts/token/ERC1155/ERC1155.sol\":5701:5720  fromBalance < value */\n      lt\n        /* \"@openzeppelin/contracts/token/ERC1155/ERC1155.sol\":5697:5826  if (fromBalance < value) {... */\n      iszero\n      tag_271\n      jumpi\n        /* \"@openzeppelin/contracts/token/ERC1155/ERC1155.sol\":5778:5782  from */\n      dup9\n        /* \"@openzeppelin/contracts/token/ERC1155/ERC1155.sol\":5784:5795  fromBalance */\n      dup2\n        /* \"@openzeppelin/contracts/token/ERC1155/ERC1155.sol\":5797:5802  value */\n      dup4\n        /* \"@openzeppelin/contracts/token/ERC1155/ERC1155.sol\":5804:5806  id */\n      dup6\n        /* \"@openzeppelin/contracts/token/ERC1155/ERC1155.sol\":5751:5807  ERC1155InsufficientBalance(from, fromBalance, value, id) */\n      mload(0x40)\n      0x03dee4c500000000000000000000000000000000000000000000000000000000\n      dup2\n      mstore\n      0x04\n      add\n      tag_272\n      swap5\n      swap4\n      swap3\n      swap2\n      swap1\n      tag_273\n      jump\t// in\n    tag_272:\n      mload(0x40)\n      dup1\n      swap2\n      sub\n      swap1\n      revert\n        /* \"@openzeppelin/contracts/token/ERC1155/ERC1155.sol\":5697:5826  if (fromBalance < value) {... */\n    tag_271:\n        /* \"@openzeppelin/contracts/token/ERC1155/ERC1155.sol\":5978:5983  value */\n      dup2\n        /* \"@openzeppelin/contracts/token/ERC1155/ERC1155.sol\":5964:5975  fromBalance */\n      dup2\n        /* \"@openzeppelin/contracts/token/ERC1155/ERC1155.sol\":5964:5983  fromBalance - value */\n      sub\n        /* \"@openzeppelin/contracts/token/ERC1155/ERC1155.sol\":5942:5951  _balances */\n      0x00\n        /* \"@openzeppelin/contracts/token/ERC1155/ERC1155.sol\":5942:5955  _balances[id] */\n      dup1\n        /* \"@openzeppelin/contracts/token/ERC1155/ERC1155.sol\":5952:5954  id */\n      dup6\n        /* \"@openzeppelin/contracts/token/ERC1155/ERC1155.sol\":5942:5955  _balances[id] */\n      dup2\n      mstore\n      0x20\n      add\n      swap1\n      dup2\n      mstore\n      0x20\n      add\n      0x00\n      keccak256\n        /* \"@openzeppelin/contracts/token/ERC1155/ERC1155.sol\":5942:5961  _balances[id][from] */\n      0x00\n        /* \"@openzeppelin/contracts/token/ERC1155/ERC1155.sol\":5956:5960  from */\n      dup12\n        /* \"@openzeppelin/contracts/token/ERC1155/ERC1155.sol\":5942:5961  _balances[id][from] */\n      0xffffffffffffffffffffffffffffffffffffffff\n      and\n      0xffffffffffffffffffffffffffffffffffffffff\n      and\n      dup2\n      mstore\n      0x20\n      add\n      swap1\n      dup2\n      mstore\n      0x20\n      add\n      0x00\n      keccak256\n        /* \"@openzeppelin/contracts/token/ERC1155/ERC1155.sol\":5942:5983  _balances[id][from] = fromBalance - value */\n      dup2\n      swap1\n      sstore\n      pop\n        /* \"@openzeppelin/contracts/token/ERC1155/ERC1155.sol\":5620:6016  {... */\n      pop\n        /* \"@openzeppelin/contracts/token/ERC1155/ERC1155.sol\":5596:6016  if (from != address(0)) {... */\n    tag_270:\n        /* \"@openzeppelin/contracts/token/ERC1155/ERC1155.sol\":6048:6049  0 */\n      0x00\n        /* \"@openzeppelin/contracts/token/ERC1155/ERC1155.sol\":6034:6050  to != address(0) */\n      0xffffffffffffffffffffffffffffffffffffffff\n      and\n        /* \"@openzeppelin/contracts/token/ERC1155/ERC1155.sol\":6034:6036  to */\n      dup8\n        /* \"@openzeppelin/contracts/token/ERC1155/ERC1155.sol\":6034:6050  to != address(0) */\n      0xffffffffffffffffffffffffffffffffffffffff\n      and\n      eq\n        /* \"@openzeppelin/contracts/token/ERC1155/ERC1155.sol\":6030:6111  if (to != address(0)) {... */\n      tag_274\n      jumpi\n        /* \"@openzeppelin/contracts/token/ERC1155/ERC1155.sol\":6091:6096  value */\n      dup1\n        /* \"@openzeppelin/contracts/token/ERC1155/ERC1155.sol\":6070:6079  _balances */\n      0x00\n        /* \"@openzeppelin/contracts/token/ERC1155/ERC1155.sol\":6070:6083  _balances[id] */\n      dup1\n        /* \"@openzeppelin/contracts/token/ERC1155/ERC1155.sol\":6080:6082  id */\n      dup5\n        /* \"@openzeppelin/contracts/token/ERC1155/ERC1155.sol\":6070:6083  _balances[id] */\n      dup2\n      mstore\n      0x20\n      add\n      swap1\n      dup2\n      mstore\n      0x20\n      add\n      0x00\n      keccak256\n        /* \"@openzeppelin/contracts/token/ERC1155/ERC1155.sol\":6070:6087  _balances[id][to] */\n      0x00\n        /* \"@openzeppelin/contracts/token/ERC1155/ERC1155.sol\":6084:6086  to */\n      dup10\n        /* \"@openzeppelin/contracts/token/ERC1155/ERC1155.sol\":6070:6087  _balances[id][to] */\n      0xffffffffffffffffffffffffffffffffffffffff\n      and\n      0xffffffffffffffffffffffffffffffffffffffff\n      and\n      dup2\n      mstore\n      0x20\n      add\n      swap1\n      dup2\n      mstore\n      0x20\n      add\n      0x00\n      keccak256\n      0x00\n        /* \"@openzeppelin/contracts/token/ERC1155/ERC1155.sol\":6070:6096  _balances[id][to] += value */\n      dup3\n      dup3\n      sload\n      tag_275\n      swap2\n      swap1\n      tag_174\n      jump\t// in\n    tag_275:\n      swap3\n      pop\n      pop\n      dup2\n      swap1\n      sstore\n      pop\n        /* \"@openzeppelin/contracts/token/ERC1155/ERC1155.sol\":6030:6111  if (to != address(0)) {... */\n    tag_274:\n        /* \"@openzeppelin/contracts/token/ERC1155/ERC1155.sol\":5471:6121  {... */\n      pop\n      pop\n        /* \"@openzeppelin/contracts/token/ERC1155/ERC1155.sol\":5466:5469  ++i */\n      dup1\n      0x01\n      add\n      swap1\n      pop\n        /* \"@openzeppelin/contracts/token/ERC1155/ERC1155.sol\":5430:6121  for (uint256 i = 0; i < ids.length; ++i) {... */\n      jump(tag_265)\n    tag_266:\n      pop\n        /* \"@openzeppelin/contracts/token/ERC1155/ERC1155.sol\":6149:6150  1 */\n      0x01\n        /* \"@openzeppelin/contracts/token/ERC1155/ERC1155.sol\":6135:6138  ids */\n      dup4\n        /* \"@openzeppelin/contracts/token/ERC1155/ERC1155.sol\":6135:6145  ids.length */\n      mload\n        /* \"@openzeppelin/contracts/token/ERC1155/ERC1155.sol\":6135:6150  ids.length == 1 */\n      sub\n        /* \"@openzeppelin/contracts/token/ERC1155/ERC1155.sol\":6131:6419  if (ids.length == 1) {... */\n      tag_276\n      jumpi\n        /* \"@openzeppelin/contracts/token/ERC1155/ERC1155.sol\":6166:6176  uint256 id */\n      0x00\n        /* \"@openzeppelin/contracts/token/ERC1155/ERC1155.sol\":6179:6204  ids.unsafeMemoryAccess(0) */\n      tag_277\n        /* \"@openzeppelin/contracts/token/ERC1155/ERC1155.sol\":6202:6203  0 */\n      0x00\n        /* \"@openzeppelin/contracts/token/ERC1155/ERC1155.sol\":6179:6182  ids */\n      dup6\n        /* \"@openzeppelin/contracts/token/ERC1155/ERC1155.sol\":6179:6201  ids.unsafeMemoryAccess */\n      tag_144\n      swap1\n        /* \"@openzeppelin/contracts/token/ERC1155/ERC1155.sol\":6179:6204  ids.unsafeMemoryAccess(0) */\n      swap2\n      swap1\n      0xffffffff\n      and\n      jump\t// in\n    tag_277:\n        /* \"@openzeppelin/contracts/token/ERC1155/ERC1155.sol\":6166:6204  uint256 id = ids.unsafeMemoryAccess(0) */\n      swap1\n      pop\n        /* \"@openzeppelin/contracts/token/ERC1155/ERC1155.sol\":6218:6231  uint256 value */\n      0x00\n        /* \"@openzeppelin/contracts/token/ERC1155/ERC1155.sol\":6234:6262  values.unsafeMemoryAccess(0) */\n      tag_278\n        /* \"@openzeppelin/contracts/token/ERC1155/ERC1155.sol\":6260:6261  0 */\n      0x00\n        /* \"@openzeppelin/contracts/token/ERC1155/ERC1155.sol\":6234:6240  values */\n      dup6\n        /* \"@openzeppelin/contracts/token/ERC1155/ERC1155.sol\":6234:6259  values.unsafeMemoryAccess */\n      tag_144\n      swap1\n        /* \"@openzeppelin/contracts/token/ERC1155/ERC1155.sol\":6234:6262  values.unsafeMemoryAccess(0) */\n      swap2\n      swap1\n      0xffffffff\n      and\n      jump\t// in\n    tag_278:\n        /* \"@openzeppelin/contracts/token/ERC1155/ERC1155.sol\":6218:6262  uint256 value = values.unsafeMemoryAccess(0) */\n      swap1\n      pop\n        /* \"@openzeppelin/contracts/token/ERC1155/ERC1155.sol\":6312:6314  to */\n      dup6\n        /* \"@openzeppelin/contracts/token/ERC1155/ERC1155.sol\":6281:6326  TransferSingle(operator, from, to, id, value) */\n      0xffffffffffffffffffffffffffffffffffffffff\n      and\n        /* \"@openzeppelin/contracts/token/ERC1155/ERC1155.sol\":6306:6310  from */\n      dup8\n        /* \"@openzeppelin/contracts/token/ERC1155/ERC1155.sol\":6281:6326  TransferSingle(operator, from, to, id, value) */\n      0xffffffffffffffffffffffffffffffffffffffff\n      and\n        /* \"@openzeppelin/contracts/token/ERC1155/ERC1155.sol\":6296:6304  operator */\n      dup5\n        /* \"@openzeppelin/contracts/token/ERC1155/ERC1155.sol\":6281:6326  TransferSingle(operator, from, to, id, value) */\n      0xffffffffffffffffffffffffffffffffffffffff\n      and\n      0xc3d58168c5ae7397731d063d5bbf3d657854427343f4c083240f7aacaa2d0f62\n        /* \"@openzeppelin/contracts/token/ERC1155/ERC1155.sol\":6316:6318  id */\n      dup6\n        /* \"@openzeppelin/contracts/token/ERC1155/ERC1155.sol\":6320:6325  value */\n      dup6\n        /* \"@openzeppelin/contracts/token/ERC1155/ERC1155.sol\":6281:6326  TransferSingle(operator, from, to, id, value) */\n      mload(0x40)\n      tag_279\n      swap3\n      swap2\n      swap1\n      tag_132\n      jump\t// in\n    tag_279:\n      mload(0x40)\n      dup1\n      swap2\n      sub\n      swap1\n      log4\n        /* \"@openzeppelin/contracts/token/ERC1155/ERC1155.sol\":6152:6337  {... */\n      pop\n      pop\n        /* \"@openzeppelin/contracts/token/ERC1155/ERC1155.sol\":6131:6419  if (ids.length == 1) {... */\n      jump(tag_280)\n    tag_276:\n        /* \"@openzeppelin/contracts/token/ERC1155/ERC1155.sol\":6392:6394  to */\n      dup4\n        /* \"@openzeppelin/contracts/token/ERC1155/ERC1155.sol\":6362:6408  TransferBatch(operator, from, to, ids, values) */\n      0xffffffffffffffffffffffffffffffffffffffff\n      and\n        /* \"@openzeppelin/contracts/token/ERC1155/ERC1155.sol\":6386:6390  from */\n      dup6\n        /* \"@openzeppelin/contracts/token/ERC1155/ERC1155.sol\":6362:6408  TransferBatch(operator, from, to, ids, values) */\n      0xffffffffffffffffffffffffffffffffffffffff\n      and\n        /* \"@openzeppelin/contracts/token/ERC1155/ERC1155.sol\":6376:6384  operator */\n      dup3\n        /* \"@openzeppelin/contracts/token/ERC1155/ERC1155.sol\":6362:6408  TransferBatch(operator, from, to, ids, values) */\n      0xffffffffffffffffffffffffffffffffffffffff\n      and\n      0x4a39dc06d4c0dbc64b70af90fd698a233a518aa5d07e595d983b8c0526c8f7fb\n        /* \"@openzeppelin/contracts/token/ERC1155/ERC1155.sol\":6396:6399  ids */\n      dup7\n        /* \"@openzeppelin/contracts/token/ERC1155/ERC1155.sol\":6401:6407  values */\n      dup7\n        /* \"@openzeppelin/contracts/token/ERC1155/ERC1155.sol\":6362:6408  TransferBatch(operator, from, to, ids, values) */\n      mload(0x40)\n      tag_281\n      swap3\n      swap2\n      swap1\n      tag_282\n      jump\t// in\n    tag_281:\n      mload(0x40)\n      dup1\n      swap2\n      sub\n      swap1\n      log4\n        /* \"@openzeppelin/contracts/token/ERC1155/ERC1155.sol\":6131:6419  if (ids.length == 1) {... */\n    tag_280:\n        /* \"@openzeppelin/contracts/token/ERC1155/ERC1155.sol\":5251:6425  {... */\n      pop\n        /* \"@openzeppelin/contracts/token/ERC1155/ERC1155.sol\":5144:6425  function _update(address from, address to, uint256[] memory ids, uint256[] memory values) internal virtual {... */\n      pop\n      pop\n      pop\n      pop\n      jump\t// out\n        /* \"@openzeppelin/contracts/token/ERC1155/ERC1155.sol\":13761:14735  function _doSafeTransferAcceptanceCheck(... */\n    tag_256:\n        /* \"@openzeppelin/contracts/token/ERC1155/ERC1155.sol\":13984:13985  0 */\n      0x00\n        /* \"@openzeppelin/contracts/token/ERC1155/ERC1155.sol\":13967:13969  to */\n      dup5\n        /* \"@openzeppelin/contracts/token/ERC1155/ERC1155.sol\":13967:13981  to.code.length */\n      0xffffffffffffffffffffffffffffffffffffffff\n      and\n      extcodesize\n        /* \"@openzeppelin/contracts/token/ERC1155/ERC1155.sol\":13967:13985  to.code.length > 0 */\n      gt\n        /* \"@openzeppelin/contracts/token/ERC1155/ERC1155.sol\":13963:14729  if (to.code.length > 0) {... */\n      iszero\n      tag_284\n      jumpi\n        /* \"@openzeppelin/contracts/token/ERC1155/ERC1155.sol\":14022:14024  to */\n      dup4\n        /* \"@openzeppelin/contracts/token/ERC1155/ERC1155.sol\":14005:14043  IERC1155Receiver(to).onERC1155Received */\n      0xffffffffffffffffffffffffffffffffffffffff\n      and\n      0xf23a6e61\n        /* \"@openzeppelin/contracts/token/ERC1155/ERC1155.sol\":14044:14052  operator */\n      dup8\n        /* \"@openzeppelin/contracts/token/ERC1155/ERC1155.sol\":14054:14058  from */\n      dup8\n        /* \"@openzeppelin/contracts/token/ERC1155/ERC1155.sol\":14060:14062  id */\n      dup7\n        /* \"@openzeppelin/contracts/token/ERC1155/ERC1155.sol\":14064:14069  value */\n      dup7\n        /* \"@openzeppelin/contracts/token/ERC1155/ERC1155.sol\":14071:14075  data */\n      dup7\n        /* \"@openzeppelin/contracts/token/ERC1155/ERC1155.sol\":14005:14076  IERC1155Receiver(to).onERC1155Received(operator, from, id, value, data) */\n      mload(0x40)\n      dup7\n      0xffffffff\n      and\n      0xe0\n      shl\n      dup2\n      mstore\n      0x04\n      add\n      tag_285\n      swap6\n      swap5\n      swap4\n      swap3\n      swap2\n      swap1\n      tag_286\n      jump\t// in\n    tag_285:\n      0x20\n      mload(0x40)\n      dup1\n      dup4\n      sub\n      dup2\n      0x00\n      dup8\n      gas\n      call\n      swap3\n      pop\n      pop\n      pop\n      dup1\n      iszero\n      tag_287\n      jumpi\n      pop\n      mload(0x40)\n      returndatasize\n      not(0x1f)\n      0x1f\n      dup3\n      add\n      and\n      dup3\n      add\n      dup1\n      0x40\n      mstore\n      pop\n      dup2\n      add\n      swap1\n      tag_288\n      swap2\n      swap1\n      tag_289\n      jump\t// in\n    tag_288:\n      0x01\n    tag_287:\n        /* \"@openzeppelin/contracts/token/ERC1155/ERC1155.sol\":14001:14719  try IERC1155Receiver(to).onERC1155Received(operator, from, id, value, data) returns (bytes4 response) {... */\n      tag_290\n      jumpi\n      returndatasize\n      dup1\n      0x00\n      dup2\n      eq\n      tag_295\n      jumpi\n      mload(0x40)\n      swap2\n      pop\n      and(add(returndatasize, 0x3f), not(0x1f))\n      dup3\n      add\n      0x40\n      mstore\n      returndatasize\n      dup3\n      mstore\n      returndatasize\n      0x00\n      0x20\n      dup5\n      add\n      returndatacopy\n      jump(tag_294)\n    tag_295:\n      0x60\n      swap2\n      pop\n    tag_294:\n      pop\n        /* \"@openzeppelin/contracts/token/ERC1155/ERC1155.sol\":14377:14378  0 */\n      0x00\n        /* \"@openzeppelin/contracts/token/ERC1155/ERC1155.sol\":14360:14366  reason */\n      dup2\n        /* \"@openzeppelin/contracts/token/ERC1155/ERC1155.sol\":14360:14373  reason.length */\n      mload\n        /* \"@openzeppelin/contracts/token/ERC1155/ERC1155.sol\":14360:14378  reason.length == 0 */\n      sub\n        /* \"@openzeppelin/contracts/token/ERC1155/ERC1155.sol\":14356:14705  if (reason.length == 0) {... */\n      tag_296\n      jumpi\n        /* \"@openzeppelin/contracts/token/ERC1155/ERC1155.sol\":14487:14489  to */\n      dup5\n        /* \"@openzeppelin/contracts/token/ERC1155/ERC1155.sol\":14464:14490  ERC1155InvalidReceiver(to) */\n      mload(0x40)\n      0x57f447ce00000000000000000000000000000000000000000000000000000000\n      dup2\n      mstore\n      0x04\n      add\n      tag_297\n      swap2\n      swap1\n      tag_67\n      jump\t// in\n    tag_297:\n      mload(0x40)\n      dup1\n      swap2\n      sub\n      swap1\n      revert\n        /* \"@openzeppelin/contracts/token/ERC1155/ERC1155.sol\":14356:14705  if (reason.length == 0) {... */\n    tag_296:\n        /* \"@openzeppelin/contracts/token/ERC1155/ERC1155.sol\":14657:14663  reason */\n      dup1\n        /* \"@openzeppelin/contracts/token/ERC1155/ERC1155.sol\":14651:14664  mload(reason) */\n      mload\n        /* \"@openzeppelin/contracts/token/ERC1155/ERC1155.sol\":14642:14648  reason */\n      dup2\n        /* \"@openzeppelin/contracts/token/ERC1155/ERC1155.sol\":14638:14640  32 */\n      0x20\n        /* \"@openzeppelin/contracts/token/ERC1155/ERC1155.sol\":14634:14649  add(32, reason) */\n      add\n        /* \"@openzeppelin/contracts/token/ERC1155/ERC1155.sol\":14627:14665  revert(add(32, reason), mload(reason)) */\n      revert\n        /* \"@openzeppelin/contracts/token/ERC1155/ERC1155.sol\":14001:14719  try IERC1155Receiver(to).onERC1155Received(operator, from, id, value, data) returns (bytes4 response) {... */\n    tag_290:\n        /* \"@openzeppelin/contracts/token/ERC1155/ERC1155.sol\":14137:14180  IERC1155Receiver.onERC1155Received.selector */\n      shl(0xe0, 0xf23a6e61)\n        /* \"@openzeppelin/contracts/token/ERC1155/ERC1155.sol\":14125:14180  response != IERC1155Receiver.onERC1155Received.selector */\n      not(0xffffffffffffffffffffffffffffffffffffffffffffffffffffffff)\n      and\n        /* \"@openzeppelin/contracts/token/ERC1155/ERC1155.sol\":14125:14133  response */\n      dup2\n        /* \"@openzeppelin/contracts/token/ERC1155/ERC1155.sol\":14125:14180  response != IERC1155Receiver.onERC1155Received.selector */\n      not(0xffffffffffffffffffffffffffffffffffffffffffffffffffffffff)\n      and\n      eq\n        /* \"@openzeppelin/contracts/token/ERC1155/ERC1155.sol\":14121:14295  if (response != IERC1155Receiver.onERC1155Received.selector) {... */\n      tag_300\n      jumpi\n        /* \"@openzeppelin/contracts/token/ERC1155/ERC1155.sol\":14273:14275  to */\n      dup5\n        /* \"@openzeppelin/contracts/token/ERC1155/ERC1155.sol\":14250:14276  ERC1155InvalidReceiver(to) */\n      mload(0x40)\n      0x57f447ce00000000000000000000000000000000000000000000000000000000\n      dup2\n      mstore\n      0x04\n      add\n      tag_301\n      swap2\n      swap1\n      tag_67\n      jump\t// in\n    tag_301:\n      mload(0x40)\n      dup1\n      swap2\n      sub\n      swap1\n      revert\n        /* \"@openzeppelin/contracts/token/ERC1155/ERC1155.sol\":14121:14295  if (response != IERC1155Receiver.onERC1155Received.selector) {... */\n    tag_300:\n        /* \"@openzeppelin/contracts/token/ERC1155/ERC1155.sol\":14077:14309  returns (bytes4 response) {... */\n      pop\n        /* \"@openzeppelin/contracts/token/ERC1155/ERC1155.sol\":13963:14729  if (to.code.length > 0) {... */\n    tag_284:\n        /* \"@openzeppelin/contracts/token/ERC1155/ERC1155.sol\":13761:14735  function _doSafeTransferAcceptanceCheck(... */\n      pop\n      pop\n      pop\n      pop\n      pop\n      pop\n      jump\t// out\n        /* \"@openzeppelin/contracts/token/ERC1155/ERC1155.sol\":14923:15964  function _doSafeBatchTransferAcceptanceCheck(... */\n    tag_259:\n        /* \"@openzeppelin/contracts/token/ERC1155/ERC1155.sol\":15171:15172  0 */\n      0x00\n        /* \"@openzeppelin/contracts/token/ERC1155/ERC1155.sol\":15154:15156  to */\n      dup5\n        /* \"@openzeppelin/contracts/token/ERC1155/ERC1155.sol\":15154:15168  to.code.length */\n      0xffffffffffffffffffffffffffffffffffffffff\n      and\n      extcodesize\n        /* \"@openzeppelin/contracts/token/ERC1155/ERC1155.sol\":15154:15172  to.code.length > 0 */\n      gt\n        /* \"@openzeppelin/contracts/token/ERC1155/ERC1155.sol\":15150:15958  if (to.code.length > 0) {... */\n      iszero\n      tag_303\n      jumpi\n        /* \"@openzeppelin/contracts/token/ERC1155/ERC1155.sol\":15209:15211  to */\n      dup4\n        /* \"@openzeppelin/contracts/token/ERC1155/ERC1155.sol\":15192:15235  IERC1155Receiver(to).onERC1155BatchReceived */\n      0xffffffffffffffffffffffffffffffffffffffff\n      and\n      0xbc197c81\n        /* \"@openzeppelin/contracts/token/ERC1155/ERC1155.sol\":15236:15244  operator */\n      dup8\n        /* \"@openzeppelin/contracts/token/ERC1155/ERC1155.sol\":15246:15250  from */\n      dup8\n        /* \"@openzeppelin/contracts/token/ERC1155/ERC1155.sol\":15252:15255  ids */\n      dup7\n        /* \"@openzeppelin/contracts/token/ERC1155/ERC1155.sol\":15257:15263  values */\n      dup7\n        /* \"@openzeppelin/contracts/token/ERC1155/ERC1155.sol\":15265:15269  data */\n      dup7\n        /* \"@openzeppelin/contracts/token/ERC1155/ERC1155.sol\":15192:15270  IERC1155Receiver(to).onERC1155BatchReceived(operator, from, ids, values, data) */\n      mload(0x40)\n      dup7\n      0xffffffff\n      and\n      0xe0\n      shl\n      dup2\n      mstore\n      0x04\n      add\n      tag_304\n      swap6\n      swap5\n      swap4\n      swap3\n      swap2\n      swap1\n      tag_305\n      jump\t// in\n    tag_304:\n      0x20\n      mload(0x40)\n      dup1\n      dup4\n      sub\n      dup2\n      0x00\n      dup8\n      gas\n      call\n      swap3\n      pop\n      pop\n      pop\n      dup1\n      iszero\n      tag_306\n      jumpi\n      pop\n      mload(0x40)\n      returndatasize\n      not(0x1f)\n      0x1f\n      dup3\n      add\n      and\n      dup3\n      add\n      dup1\n      0x40\n      mstore\n      pop\n      dup2\n      add\n      swap1\n      tag_307\n      swap2\n      swap1\n      tag_289\n      jump\t// in\n    tag_307:\n      0x01\n    tag_306:\n        /* \"@openzeppelin/contracts/token/ERC1155/ERC1155.sol\":15188:15948  try IERC1155Receiver(to).onERC1155BatchReceived(operator, from, ids, values, data) returns (... */\n      tag_308\n      jumpi\n      returndatasize\n      dup1\n      0x00\n      dup2\n      eq\n      tag_313\n      jumpi\n      mload(0x40)\n      swap2\n      pop\n      and(add(returndatasize, 0x3f), not(0x1f))\n      dup3\n      add\n      0x40\n      mstore\n      returndatasize\n      dup3\n      mstore\n      returndatasize\n      0x00\n      0x20\n      dup5\n      add\n      returndatacopy\n      jump(tag_312)\n    tag_313:\n      0x60\n      swap2\n      pop\n    tag_312:\n      pop\n        /* \"@openzeppelin/contracts/token/ERC1155/ERC1155.sol\":15606:15607  0 */\n      0x00\n        /* \"@openzeppelin/contracts/token/ERC1155/ERC1155.sol\":15589:15595  reason */\n      dup2\n        /* \"@openzeppelin/contracts/token/ERC1155/ERC1155.sol\":15589:15602  reason.length */\n      mload\n        /* \"@openzeppelin/contracts/token/ERC1155/ERC1155.sol\":15589:15607  reason.length == 0 */\n      sub\n        /* \"@openzeppelin/contracts/token/ERC1155/ERC1155.sol\":15585:15934  if (reason.length == 0) {... */\n      tag_314\n      jumpi\n        /* \"@openzeppelin/contracts/token/ERC1155/ERC1155.sol\":15716:15718  to */\n      dup5\n        /* \"@openzeppelin/contracts/token/ERC1155/ERC1155.sol\":15693:15719  ERC1155InvalidReceiver(to) */\n      mload(0x40)\n      0x57f447ce00000000000000000000000000000000000000000000000000000000\n      dup2\n      mstore\n      0x04\n      add\n      tag_315\n      swap2\n      swap1\n      tag_67\n      jump\t// in\n    tag_315:\n      mload(0x40)\n      dup1\n      swap2\n      sub\n      swap1\n      revert\n        /* \"@openzeppelin/contracts/token/ERC1155/ERC1155.sol\":15585:15934  if (reason.length == 0) {... */\n    tag_314:\n        /* \"@openzeppelin/contracts/token/ERC1155/ERC1155.sol\":15886:15892  reason */\n      dup1\n        /* \"@openzeppelin/contracts/token/ERC1155/ERC1155.sol\":15880:15893  mload(reason) */\n      mload\n        /* \"@openzeppelin/contracts/token/ERC1155/ERC1155.sol\":15871:15877  reason */\n      dup2\n        /* \"@openzeppelin/contracts/token/ERC1155/ERC1155.sol\":15867:15869  32 */\n      0x20\n        /* \"@openzeppelin/contracts/token/ERC1155/ERC1155.sol\":15863:15878  add(32, reason) */\n      add\n        /* \"@openzeppelin/contracts/token/ERC1155/ERC1155.sol\":15856:15894  revert(add(32, reason), mload(reason)) */\n      revert\n        /* \"@openzeppelin/contracts/token/ERC1155/ERC1155.sol\":15188:15948  try IERC1155Receiver(to).onERC1155BatchReceived(operator, from, ids, values, data) returns (... */\n    tag_308:\n        /* \"@openzeppelin/contracts/token/ERC1155/ERC1155.sol\":15361:15409  IERC1155Receiver.onERC1155BatchReceived.selector */\n      shl(0xe0, 0xbc197c81)\n        /* \"@openzeppelin/contracts/token/ERC1155/ERC1155.sol\":15349:15409  response != IERC1155Receiver.onERC1155BatchReceived.selector */\n      not(0xffffffffffffffffffffffffffffffffffffffffffffffffffffffff)\n      and\n        /* \"@openzeppelin/contracts/token/ERC1155/ERC1155.sol\":15349:15357  response */\n      dup2\n        /* \"@openzeppelin/contracts/token/ERC1155/ERC1155.sol\":15349:15409  response != IERC1155Receiver.onERC1155BatchReceived.selector */\n      not(0xffffffffffffffffffffffffffffffffffffffffffffffffffffffff)\n      and\n      eq\n        /* \"@openzeppelin/contracts/token/ERC1155/ERC1155.sol\":15345:15524  if (response != IERC1155Receiver.onERC1155BatchReceived.selector) {... */\n      tag_318\n      jumpi\n        /* \"@openzeppelin/contracts/token/ERC1155/ERC1155.sol\":15502:15504  to */\n      dup5\n        /* \"@openzeppelin/contracts/token/ERC1155/ERC1155.sol\":15479:15505  ERC1155InvalidReceiver(to) */\n      mload(0x40)\n      0x57f447ce00000000000000000000000000000000000000000000000000000000\n      dup2\n      mstore\n      0x04\n      add\n      tag_319\n      swap2\n      swap1\n      tag_67\n      jump\t// in\n    tag_319:\n      mload(0x40)\n      dup1\n      swap2\n      sub\n      swap1\n      revert\n        /* \"@openzeppelin/contracts/token/ERC1155/ERC1155.sol\":15345:15524  if (response != IERC1155Receiver.onERC1155BatchReceived.selector) {... */\n    tag_318:\n        /* \"@openzeppelin/contracts/token/ERC1155/ERC1155.sol\":15271:15538  returns (... */\n      pop\n        /* \"@openzeppelin/contracts/token/ERC1155/ERC1155.sol\":15150:15958  if (to.code.length > 0) {... */\n    tag_303:\n        /* \"@openzeppelin/contracts/token/ERC1155/ERC1155.sol\":14923:15964  function _doSafeBatchTransferAcceptanceCheck(... */\n      pop\n      pop\n      pop\n      pop\n      pop\n      pop\n      jump\t// out\n        /* \"#utility.yul\":7:82   */\n    tag_320:\n        /* \"#utility.yul\":40:46   */\n      0x00\n        /* \"#utility.yul\":73:75   */\n      0x40\n        /* \"#utility.yul\":67:76   */\n      mload\n        /* \"#utility.yul\":57:76   */\n      swap1\n      pop\n        /* \"#utility.yul\":7:82   */\n      swap1\n      jump\t// out\n        /* \"#utility.yul\":88:205   */\n    tag_321:\n        /* \"#utility.yul\":197:198   */\n      0x00\n        /* \"#utility.yul\":194:195   */\n      dup1\n        /* \"#utility.yul\":187:199   */\n      revert\n        /* \"#utility.yul\":211:328   */\n    tag_322:\n        /* \"#utility.yul\":320:321   */\n      0x00\n        /* \"#utility.yul\":317:318   */\n      dup1\n        /* \"#utility.yul\":310:322   */\n      revert\n        /* \"#utility.yul\":334:460   */\n    tag_323:\n        /* \"#utility.yul\":371:378   */\n      0x00\n        /* \"#utility.yul\":411:453   */\n      0xffffffffffffffffffffffffffffffffffffffff\n        /* \"#utility.yul\":404:409   */\n      dup3\n        /* \"#utility.yul\":400:454   */\n      and\n        /* \"#utility.yul\":389:454   */\n      swap1\n      pop\n        /* \"#utility.yul\":334:460   */\n      swap2\n      swap1\n      pop\n      jump\t// out\n        /* \"#utility.yul\":466:562   */\n    tag_324:\n        /* \"#utility.yul\":503:510   */\n      0x00\n        /* \"#utility.yul\":532:556   */\n      tag_396\n        /* \"#utility.yul\":550:555   */\n      dup3\n        /* \"#utility.yul\":532:556   */\n      tag_323\n      jump\t// in\n    tag_396:\n        /* \"#utility.yul\":521:556   */\n      swap1\n      pop\n        /* \"#utility.yul\":466:562   */\n      swap2\n      swap1\n      pop\n      jump\t// out\n        /* \"#utility.yul\":568:690   */\n    tag_325:\n        /* \"#utility.yul\":641:665   */\n      tag_398\n        /* \"#utility.yul\":659:664   */\n      dup2\n        /* \"#utility.yul\":641:665   */\n      tag_324\n      jump\t// in\n    tag_398:\n        /* \"#utility.yul\":634:639   */\n      dup2\n        /* \"#utility.yul\":631:666   */\n      eq\n        /* \"#utility.yul\":621:684   */\n      tag_399\n      jumpi\n        /* \"#utility.yul\":680:681   */\n      0x00\n        /* \"#utility.yul\":677:678   */\n      dup1\n        /* \"#utility.yul\":670:682   */\n      revert\n        /* \"#utility.yul\":621:684   */\n    tag_399:\n        /* \"#utility.yul\":568:690   */\n      pop\n      jump\t// out\n        /* \"#utility.yul\":696:835   */\n    tag_326:\n        /* \"#utility.yul\":742:747   */\n      0x00\n        /* \"#utility.yul\":780:786   */\n      dup2\n        /* \"#utility.yul\":767:787   */\n      calldataload\n        /* \"#utility.yul\":758:787   */\n      swap1\n      pop\n        /* \"#utility.yul\":796:829   */\n      tag_401\n        /* \"#utility.yul\":823:828   */\n      dup2\n        /* \"#utility.yul\":796:829   */\n      tag_325\n      jump\t// in\n    tag_401:\n        /* \"#utility.yul\":696:835   */\n      swap3\n      swap2\n      pop\n      pop\n      jump\t// out\n        /* \"#utility.yul\":841:918   */\n    tag_327:\n        /* \"#utility.yul\":878:885   */\n      0x00\n        /* \"#utility.yul\":907:912   */\n      dup2\n        /* \"#utility.yul\":896:912   */\n      swap1\n      pop\n        /* \"#utility.yul\":841:918   */\n      swap2\n      swap1\n      pop\n      jump\t// out\n        /* \"#utility.yul\":924:1046   */\n    tag_328:\n        /* \"#utility.yul\":997:1021   */\n      tag_404\n        /* \"#utility.yul\":1015:1020   */\n      dup2\n        /* \"#utility.yul\":997:1021   */\n      tag_327\n      jump\t// in\n    tag_404:\n        /* \"#utility.yul\":990:995   */\n      dup2\n        /* \"#utility.yul\":987:1022   */\n      eq\n        /* \"#utility.yul\":977:1040   */\n      tag_405\n      jumpi\n        /* \"#utility.yul\":1036:1037   */\n      0x00\n        /* \"#utility.yul\":1033:1034   */\n      dup1\n        /* \"#utility.yul\":1026:1038   */\n      revert\n        /* \"#utility.yul\":977:1040   */\n    tag_405:\n        /* \"#utility.yul\":924:1046   */\n      pop\n      jump\t// out\n        /* \"#utility.yul\":1052:1191   */\n    tag_329:\n        /* \"#utility.yul\":1098:1103   */\n      0x00\n        /* \"#utility.yul\":1136:1142   */\n      dup2\n        /* \"#utility.yul\":1123:1143   */\n      calldataload\n        /* \"#utility.yul\":1114:1143   */\n      swap1\n      pop\n        /* \"#utility.yul\":1152:1185   */\n      tag_407\n        /* \"#utility.yul\":1179:1184   */\n      dup2\n        /* \"#utility.yul\":1152:1185   */\n      tag_328\n      jump\t// in\n    tag_407:\n        /* \"#utility.yul\":1052:1191   */\n      swap3\n      swap2\n      pop\n      pop\n      jump\t// out\n        /* \"#utility.yul\":1197:1671   */\n    tag_24:\n        /* \"#utility.yul\":1265:1271   */\n      0x00\n        /* \"#utility.yul\":1273:1279   */\n      dup1\n        /* \"#utility.yul\":1322:1324   */\n      0x40\n        /* \"#utility.yul\":1310:1319   */\n      dup4\n        /* \"#utility.yul\":1301:1308   */\n      dup6\n        /* \"#utility.yul\":1297:1320   */\n      sub\n        /* \"#utility.yul\":1293:1325   */\n      slt\n        /* \"#utility.yul\":1290:1409   */\n      iszero\n      tag_409\n      jumpi\n        /* \"#utility.yul\":1328:1407   */\n      tag_410\n      tag_321\n      jump\t// in\n    tag_410:\n        /* \"#utility.yul\":1290:1409   */\n    tag_409:\n        /* \"#utility.yul\":1448:1449   */\n      0x00\n        /* \"#utility.yul\":1473:1526   */\n      tag_411\n        /* \"#utility.yul\":1518:1525   */\n      dup6\n        /* \"#utility.yul\":1509:1515   */\n      dup3\n        /* \"#utility.yul\":1498:1507   */\n      dup7\n        /* \"#utility.yul\":1494:1516   */\n      add\n        /* \"#utility.yul\":1473:1526   */\n      tag_326\n      jump\t// in\n    tag_411:\n        /* \"#utility.yul\":1463:1526   */\n      swap3\n      pop\n        /* \"#utility.yul\":1419:1536   */\n      pop\n        /* \"#utility.yul\":1575:1577   */\n      0x20\n        /* \"#utility.yul\":1601:1654   */\n      tag_412\n        /* \"#utility.yul\":1646:1653   */\n      dup6\n        /* \"#utility.yul\":1637:1643   */\n      dup3\n        /* \"#utility.yul\":1626:1635   */\n      dup7\n        /* \"#utility.yul\":1622:1644   */\n      add\n        /* \"#utility.yul\":1601:1654   */\n      tag_329\n      jump\t// in\n    tag_412:\n        /* \"#utility.yul\":1591:1654   */\n      swap2\n      pop\n        /* \"#utility.yul\":1546:1664   */\n      pop\n        /* \"#utility.yul\":1197:1671   */\n      swap3\n      pop\n      swap3\n      swap1\n      pop\n      jump\t// out\n        /* \"#utility.yul\":1677:1795   */\n    tag_330:\n        /* \"#utility.yul\":1764:1788   */\n      tag_414\n        /* \"#utility.yul\":1782:1787   */\n      dup2\n        /* \"#utility.yul\":1764:1788   */\n      tag_327\n      jump\t// in\n    tag_414:\n        /* \"#utility.yul\":1759:1762   */\n      dup3\n        /* \"#utility.yul\":1752:1789   */\n      mstore\n        /* \"#utility.yul\":1677:1795   */\n      pop\n      pop\n      jump\t// out\n        /* \"#utility.yul\":1801:2023   */\n    tag_27:\n        /* \"#utility.yul\":1894:1898   */\n      0x00\n        /* \"#utility.yul\":1932:1934   */\n      0x20\n        /* \"#utility.yul\":1921:1930   */\n      dup3\n        /* \"#utility.yul\":1917:1935   */\n      add\n        /* \"#utility.yul\":1909:1935   */\n      swap1\n      pop\n        /* \"#utility.yul\":1945:2016   */\n      tag_416\n        /* \"#utility.yul\":2013:2014   */\n      0x00\n        /* \"#utility.yul\":2002:2011   */\n      dup4\n        /* \"#utility.yul\":1998:2015   */\n      add\n        /* \"#utility.yul\":1989:1995   */\n      dup5\n        /* \"#utility.yul\":1945:2016   */\n      tag_330\n      jump\t// in\n    tag_416:\n        /* \"#utility.yul\":1801:2023   */\n      swap3\n      swap2\n      pop\n      pop\n      jump\t// out\n        /* \"#utility.yul\":2029:2178   */\n    tag_331:\n        /* \"#utility.yul\":2065:2072   */\n      0x00\n        /* \"#utility.yul\":2105:2171   */\n      0xffffffff00000000000000000000000000000000000000000000000000000000\n        /* \"#utility.yul\":2098:2103   */\n      dup3\n        /* \"#utility.yul\":2094:2172   */\n      and\n        /* \"#utility.yul\":2083:2172   */\n      swap1\n      pop\n        /* \"#utility.yul\":2029:2178   */\n      swap2\n      swap1\n      pop\n      jump\t// out\n        /* \"#utility.yul\":2184:2304   */\n    tag_332:\n        /* \"#utility.yul\":2256:2279   */\n      tag_419\n        /* \"#utility.yul\":2273:2278   */\n      dup2\n        /* \"#utility.yul\":2256:2279   */\n      tag_331\n      jump\t// in\n    tag_419:\n        /* \"#utility.yul\":2249:2254   */\n      dup2\n        /* \"#utility.yul\":2246:2280   */\n      eq\n        /* \"#utility.yul\":2236:2298   */\n      tag_420\n      jumpi\n        /* \"#utility.yul\":2294:2295   */\n      0x00\n        /* \"#utility.yul\":2291:2292   */\n      dup1\n        /* \"#utility.yul\":2284:2296   */\n      revert\n        /* \"#utility.yul\":2236:2298   */\n    tag_420:\n        /* \"#utility.yul\":2184:2304   */\n      pop\n      jump\t// out\n        /* \"#utility.yul\":2310:2447   */\n    tag_333:\n        /* \"#utility.yul\":2355:2360   */\n      0x00\n        /* \"#utility.yul\":2393:2399   */\n      dup2\n        /* \"#utility.yul\":2380:2400   */\n      calldataload\n        /* \"#utility.yul\":2371:2400   */\n      swap1\n      pop\n        /* \"#utility.yul\":2409:2441   */\n      tag_422\n        /* \"#utility.yul\":2435:2440   */\n      dup2\n        /* \"#utility.yul\":2409:2441   */\n      tag_332\n      jump\t// in\n    tag_422:\n        /* \"#utility.yul\":2310:2447   */\n      swap3\n      swap2\n      pop\n      pop\n      jump\t// out\n        /* \"#utility.yul\":2453:2780   */\n    tag_30:\n        /* \"#utility.yul\":2511:2517   */\n      0x00\n        /* \"#utility.yul\":2560:2562   */\n      0x20\n        /* \"#utility.yul\":2548:2557   */\n      dup3\n        /* \"#utility.yul\":2539:2546   */\n      dup5\n        /* \"#utility.yul\":2535:2558   */\n      sub\n        /* \"#utility.yul\":2531:2563   */\n      slt\n        /* \"#utility.yul\":2528:2647   */\n      iszero\n      tag_424\n      jumpi\n        /* \"#utility.yul\":2566:2645   */\n      tag_425\n      tag_321\n      jump\t// in\n    tag_425:\n        /* \"#utility.yul\":2528:2647   */\n    tag_424:\n        /* \"#utility.yul\":2686:2687   */\n      0x00\n        /* \"#utility.yul\":2711:2763   */\n      tag_426\n        /* \"#utility.yul\":2755:2762   */\n      dup5\n        /* \"#utility.yul\":2746:2752   */\n      dup3\n        /* \"#utility.yul\":2735:2744   */\n      dup6\n        /* \"#utility.yul\":2731:2753   */\n      add\n        /* \"#utility.yul\":2711:2763   */\n      tag_333\n      jump\t// in\n    tag_426:\n        /* \"#utility.yul\":2701:2763   */\n      swap2\n      pop\n        /* \"#utility.yul\":2657:2773   */\n      pop\n        /* \"#utility.yul\":2453:2780   */\n      swap3\n      swap2\n      pop\n      pop\n      jump\t// out\n        /* \"#utility.yul\":2786:2876   */\n    tag_334:\n        /* \"#utility.yul\":2820:2827   */\n      0x00\n        /* \"#utility.yul\":2863:2868   */\n      dup2\n        /* \"#utility.yul\":2856:2869   */\n      iszero\n        /* \"#utility.yul\":2849:2870   */\n      iszero\n        /* \"#utility.yul\":2838:2870   */\n      swap1\n      pop\n        /* \"#utility.yul\":2786:2876   */\n      swap2\n      swap1\n      pop\n      jump\t// out\n        /* \"#utility.yul\":2882:2991   */\n    tag_335:\n        /* \"#utility.yul\":2963:2984   */\n      tag_429\n        /* \"#utility.yul\":2978:2983   */\n      dup2\n        /* \"#utility.yul\":2963:2984   */\n      tag_334\n      jump\t// in\n    tag_429:\n        /* \"#utility.yul\":2958:2961   */\n      dup3\n        /* \"#utility.yul\":2951:2985   */\n      mstore\n        /* \"#utility.yul\":2882:2991   */\n      pop\n      pop\n      jump\t// out\n        /* \"#utility.yul\":2997:3207   */\n    tag_33:\n        /* \"#utility.yul\":3084:3088   */\n      0x00\n        /* \"#utility.yul\":3122:3124   */\n      0x20\n        /* \"#utility.yul\":3111:3120   */\n      dup3\n        /* \"#utility.yul\":3107:3125   */\n      add\n        /* \"#utility.yul\":3099:3125   */\n      swap1\n      pop\n        /* \"#utility.yul\":3135:3200   */\n      tag_431\n        /* \"#utility.yul\":3197:3198   */\n      0x00\n        /* \"#utility.yul\":3186:3195   */\n      dup4\n        /* \"#utility.yul\":3182:3199   */\n      add\n        /* \"#utility.yul\":3173:3179   */\n      dup5\n        /* \"#utility.yul\":3135:3200   */\n      tag_335\n      jump\t// in\n    tag_431:\n        /* \"#utility.yul\":2997:3207   */\n      swap3\n      swap2\n      pop\n      pop\n      jump\t// out\n        /* \"#utility.yul\":3213:3330   */\n    tag_336:\n        /* \"#utility.yul\":3322:3323   */\n      0x00\n        /* \"#utility.yul\":3319:3320   */\n      dup1\n        /* \"#utility.yul\":3312:3324   */\n      revert\n        /* \"#utility.yul\":3336:3453   */\n    tag_337:\n        /* \"#utility.yul\":3445:3446   */\n      0x00\n        /* \"#utility.yul\":3442:3443   */\n      dup1\n        /* \"#utility.yul\":3435:3447   */\n      revert\n        /* \"#utility.yul\":3459:3561   */\n    tag_338:\n        /* \"#utility.yul\":3500:3506   */\n      0x00\n        /* \"#utility.yul\":3551:3553   */\n      0x1f\n        /* \"#utility.yul\":3547:3554   */\n      not\n        /* \"#utility.yul\":3542:3544   */\n      0x1f\n        /* \"#utility.yul\":3535:3540   */\n      dup4\n        /* \"#utility.yul\":3531:3545   */\n      add\n        /* \"#utility.yul\":3527:3555   */\n      and\n        /* \"#utility.yul\":3517:3555   */\n      swap1\n      pop\n        /* \"#utility.yul\":3459:3561   */\n      swap2\n      swap1\n      pop\n      jump\t// out\n        /* \"#utility.yul\":3567:3747   */\n    tag_135:\n        /* \"#utility.yul\":3615:3692   */\n      0x4e487b7100000000000000000000000000000000000000000000000000000000\n        /* \"#utility.yul\":3612:3613   */\n      0x00\n        /* \"#utility.yul\":3605:3693   */\n      mstore\n        /* \"#utility.yul\":3712:3716   */\n      0x41\n        /* \"#utility.yul\":3709:3710   */\n      0x04\n        /* \"#utility.yul\":3702:3717   */\n      mstore\n        /* \"#utility.yul\":3736:3740   */\n      0x24\n        /* \"#utility.yul\":3733:3734   */\n      0x00\n        /* \"#utility.yul\":3726:3741   */\n      revert\n        /* \"#utility.yul\":3753:4034   */\n    tag_339:\n        /* \"#utility.yul\":3836:3863   */\n      tag_437\n        /* \"#utility.yul\":3858:3862   */\n      dup3\n        /* \"#utility.yul\":3836:3863   */\n      tag_338\n      jump\t// in\n    tag_437:\n        /* \"#utility.yul\":3828:3834   */\n      dup2\n        /* \"#utility.yul\":3824:3864   */\n      add\n        /* \"#utility.yul\":3966:3972   */\n      dup2\n        /* \"#utility.yul\":3954:3964   */\n      dup2\n        /* \"#utility.yul\":3951:3973   */\n      lt\n        /* \"#utility.yul\":3930:3948   */\n      0xffffffffffffffff\n        /* \"#utility.yul\":3918:3928   */\n      dup3\n        /* \"#utility.yul\":3915:3949   */\n      gt\n        /* \"#utility.yul\":3912:3974   */\n      or\n        /* \"#utility.yul\":3909:3997   */\n      iszero\n      tag_438\n      jumpi\n        /* \"#utility.yul\":3977:3995   */\n      tag_439\n      tag_135\n      jump\t// in\n    tag_439:\n        /* \"#utility.yul\":3909:3997   */\n    tag_438:\n        /* \"#utility.yul\":4017:4027   */\n      dup1\n        /* \"#utility.yul\":4013:4015   */\n      0x40\n        /* \"#utility.yul\":4006:4028   */\n      mstore\n        /* \"#utility.yul\":3796:4034   */\n      pop\n        /* \"#utility.yul\":3753:4034   */\n      pop\n      pop\n      jump\t// out\n        /* \"#utility.yul\":4040:4169   */\n    tag_340:\n        /* \"#utility.yul\":4074:4080   */\n      0x00\n        /* \"#utility.yul\":4101:4121   */\n      tag_441\n      tag_320\n      jump\t// in\n    tag_441:\n        /* \"#utility.yul\":4091:4121   */\n      swap1\n      pop\n        /* \"#utility.yul\":4130:4163   */\n      tag_442\n        /* \"#utility.yul\":4158:4162   */\n      dup3\n        /* \"#utility.yul\":4150:4156   */\n      dup3\n        /* \"#utility.yul\":4130:4163   */\n      tag_339\n      jump\t// in\n    tag_442:\n        /* \"#utility.yul\":4040:4169   */\n      swap2\n      swap1\n      pop\n      jump\t// out\n        /* \"#utility.yul\":4175:4483   */\n    tag_341:\n        /* \"#utility.yul\":4237:4241   */\n      0x00\n        /* \"#utility.yul\":4327:4345   */\n      0xffffffffffffffff\n        /* \"#utility.yul\":4319:4325   */\n      dup3\n        /* \"#utility.yul\":4316:4346   */\n      gt\n        /* \"#utility.yul\":4313:4369   */\n      iszero\n      tag_444\n      jumpi\n        /* \"#utility.yul\":4349:4367   */\n      tag_445\n      tag_135\n      jump\t// in\n    tag_445:\n        /* \"#utility.yul\":4313:4369   */\n    tag_444:\n        /* \"#utility.yul\":4387:4416   */\n      tag_446\n        /* \"#utility.yul\":4409:4415   */\n      dup3\n        /* \"#utility.yul\":4387:4416   */\n      tag_338\n      jump\t// in\n    tag_446:\n        /* \"#utility.yul\":4379:4416   */\n      swap1\n      pop\n        /* \"#utility.yul\":4471:4475   */\n      0x20\n        /* \"#utility.yul\":4465:4469   */\n      dup2\n        /* \"#utility.yul\":4461:4476   */\n      add\n        /* \"#utility.yul\":4453:4476   */\n      swap1\n      pop\n        /* \"#utility.yul\":4175:4483   */\n      swap2\n      swap1\n      pop\n      jump\t// out\n        /* \"#utility.yul\":4489:4637   */\n    tag_342:\n        /* \"#utility.yul\":4587:4593   */\n      dup3\n        /* \"#utility.yul\":4582:4585   */\n      dup2\n        /* \"#utility.yul\":4577:4580   */\n      dup4\n        /* \"#utility.yul\":4564:4594   */\n      calldatacopy\n        /* \"#utility.yul\":4628:4629   */\n      0x00\n        /* \"#utility.yul\":4619:4625   */\n      dup4\n        /* \"#utility.yul\":4614:4617   */\n      dup4\n        /* \"#utility.yul\":4610:4626   */\n      add\n        /* \"#utility.yul\":4603:4630   */\n      mstore\n        /* \"#utility.yul\":4489:4637   */\n      pop\n      pop\n      pop\n      jump\t// out\n        /* \"#utility.yul\":4643:5068   */\n    tag_343:\n        /* \"#utility.yul\":4721:4726   */\n      0x00\n        /* \"#utility.yul\":4746:4812   */\n      tag_449\n        /* \"#utility.yul\":4762:4811   */\n      tag_450\n        /* \"#utility.yul\":4804:4810   */\n      dup5\n        /* \"#utility.yul\":4762:4811   */\n      tag_341\n      jump\t// in\n    tag_450:\n        /* \"#utility.yul\":4746:4812   */\n      tag_340\n      jump\t// in\n    tag_449:\n        /* \"#utility.yul\":4737:4812   */\n      swap1\n      pop\n        /* \"#utility.yul\":4835:4841   */\n      dup3\n        /* \"#utility.yul\":4828:4833   */\n      dup2\n        /* \"#utility.yul\":4821:4842   */\n      mstore\n        /* \"#utility.yul\":4873:4877   */\n      0x20\n        /* \"#utility.yul\":4866:4871   */\n      dup2\n        /* \"#utility.yul\":4862:4878   */\n      add\n        /* \"#utility.yul\":4911:4914   */\n      dup5\n        /* \"#utility.yul\":4902:4908   */\n      dup5\n        /* \"#utility.yul\":4897:4900   */\n      dup5\n        /* \"#utility.yul\":4893:4909   */\n      add\n        /* \"#utility.yul\":4890:4915   */\n      gt\n        /* \"#utility.yul\":4887:4999   */\n      iszero\n      tag_451\n      jumpi\n        /* \"#utility.yul\":4918:4997   */\n      tag_452\n      tag_337\n      jump\t// in\n    tag_452:\n        /* \"#utility.yul\":4887:4999   */\n    tag_451:\n        /* \"#utility.yul\":5008:5062   */\n      tag_453\n        /* \"#utility.yul\":5055:5061   */\n      dup5\n        /* \"#utility.yul\":5050:5053   */\n      dup3\n        /* \"#utility.yul\":5045:5048   */\n      dup6\n        /* \"#utility.yul\":5008:5062   */\n      tag_342\n      jump\t// in\n    tag_453:\n        /* \"#utility.yul\":4727:5068   */\n      pop\n        /* \"#utility.yul\":4643:5068   */\n      swap4\n      swap3\n      pop\n      pop\n      pop\n      jump\t// out\n        /* \"#utility.yul\":5088:5428   */\n    tag_344:\n        /* \"#utility.yul\":5144:5149   */\n      0x00\n        /* \"#utility.yul\":5193:5196   */\n      dup3\n        /* \"#utility.yul\":5186:5190   */\n      0x1f\n        /* \"#utility.yul\":5178:5184   */\n      dup4\n        /* \"#utility.yul\":5174:5191   */\n      add\n        /* \"#utility.yul\":5170:5197   */\n      slt\n        /* \"#utility.yul\":5160:5282   */\n      tag_455\n      jumpi\n        /* \"#utility.yul\":5201:5280   */\n      tag_456\n      tag_336\n      jump\t// in\n    tag_456:\n        /* \"#utility.yul\":5160:5282   */\n    tag_455:\n        /* \"#utility.yul\":5318:5324   */\n      dup2\n        /* \"#utility.yul\":5305:5325   */\n      calldataload\n        /* \"#utility.yul\":5343:5422   */\n      tag_457\n        /* \"#utility.yul\":5418:5421   */\n      dup5\n        /* \"#utility.yul\":5410:5416   */\n      dup3\n        /* \"#utility.yul\":5403:5407   */\n      0x20\n        /* \"#utility.yul\":5395:5401   */\n      dup7\n        /* \"#utility.yul\":5391:5408   */\n      add\n        /* \"#utility.yul\":5343:5422   */\n      tag_343\n      jump\t// in\n    tag_457:\n        /* \"#utility.yul\":5334:5422   */\n      swap2\n      pop\n        /* \"#utility.yul\":5150:5428   */\n      pop\n        /* \"#utility.yul\":5088:5428   */\n      swap3\n      swap2\n      pop\n      pop\n      jump\t// out\n        /* \"#utility.yul\":5434:5943   */\n    tag_36:\n        /* \"#utility.yul\":5503:5509   */\n      0x00\n        /* \"#utility.yul\":5552:5554   */\n      0x20\n        /* \"#utility.yul\":5540:5549   */\n      dup3\n        /* \"#utility.yul\":5531:5538   */\n      dup5\n        /* \"#utility.yul\":5527:5550   */\n      sub\n        /* \"#utility.yul\":5523:5555   */\n      slt\n        /* \"#utility.yul\":5520:5639   */\n      iszero\n      tag_459\n      jumpi\n        /* \"#utility.yul\":5558:5637   */\n      tag_460\n      tag_321\n      jump\t// in\n    tag_460:\n        /* \"#utility.yul\":5520:5639   */\n    tag_459:\n        /* \"#utility.yul\":5706:5707   */\n      0x00\n        /* \"#utility.yul\":5695:5704   */\n      dup3\n        /* \"#utility.yul\":5691:5708   */\n      add\n        /* \"#utility.yul\":5678:5709   */\n      calldataload\n        /* \"#utility.yul\":5736:5754   */\n      0xffffffffffffffff\n        /* \"#utility.yul\":5728:5734   */\n      dup2\n        /* \"#utility.yul\":5725:5755   */\n      gt\n        /* \"#utility.yul\":5722:5839   */\n      iszero\n      tag_461\n      jumpi\n        /* \"#utility.yul\":5758:5837   */\n      tag_462\n      tag_322\n      jump\t// in\n    tag_462:\n        /* \"#utility.yul\":5722:5839   */\n    tag_461:\n        /* \"#utility.yul\":5863:5926   */\n      tag_463\n        /* \"#utility.yul\":5918:5925   */\n      dup5\n        /* \"#utility.yul\":5909:5915   */\n      dup3\n        /* \"#utility.yul\":5898:5907   */\n      dup6\n        /* \"#utility.yul\":5894:5916   */\n      add\n        /* \"#utility.yul\":5863:5926   */\n      tag_344\n      jump\t// in\n    tag_463:\n        /* \"#utility.yul\":5853:5926   */\n      swap2\n      pop\n        /* \"#utility.yul\":5649:5936   */\n      pop\n        /* \"#utility.yul\":5434:5943   */\n      swap3\n      swap2\n      pop\n      pop\n      jump\t// out\n        /* \"#utility.yul\":5949:6278   */\n    tag_40:\n        /* \"#utility.yul\":6008:6014   */\n      0x00\n        /* \"#utility.yul\":6057:6059   */\n      0x20\n        /* \"#utility.yul\":6045:6054   */\n      dup3\n        /* \"#utility.yul\":6036:6043   */\n      dup5\n        /* \"#utility.yul\":6032:6055   */\n      sub\n        /* \"#utility.yul\":6028:6060   */\n      slt\n        /* \"#utility.yul\":6025:6144   */\n      iszero\n      tag_465\n      jumpi\n        /* \"#utility.yul\":6063:6142   */\n      tag_466\n      tag_321\n      jump\t// in\n    tag_466:\n        /* \"#utility.yul\":6025:6144   */\n    tag_465:\n        /* \"#utility.yul\":6183:6184   */\n      0x00\n        /* \"#utility.yul\":6208:6261   */\n      tag_467\n        /* \"#utility.yul\":6253:6260   */\n      dup5\n        /* \"#utility.yul\":6244:6250   */\n      dup3\n        /* \"#utility.yul\":6233:6242   */\n      dup6\n        /* \"#utility.yul\":6229:6251   */\n      add\n        /* \"#utility.yul\":6208:6261   */\n      tag_329\n      jump\t// in\n    tag_467:\n        /* \"#utility.yul\":6198:6261   */\n      swap2\n      pop\n        /* \"#utility.yul\":6154:6271   */\n      pop\n        /* \"#utility.yul\":5949:6278   */\n      swap3\n      swap2\n      pop\n      pop\n      jump\t// out\n        /* \"#utility.yul\":6284:6383   */\n    tag_345:\n        /* \"#utility.yul\":6336:6342   */\n      0x00\n        /* \"#utility.yul\":6370:6375   */\n      dup2\n        /* \"#utility.yul\":6364:6376   */\n      mload\n        /* \"#utility.yul\":6354:6376   */\n      swap1\n      pop\n        /* \"#utility.yul\":6284:6383   */\n      swap2\n      swap1\n      pop\n      jump\t// out\n        /* \"#utility.yul\":6389:6558   */\n    tag_346:\n        /* \"#utility.yul\":6473:6484   */\n      0x00\n        /* \"#utility.yul\":6507:6513   */\n      dup3\n        /* \"#utility.yul\":6502:6505   */\n      dup3\n        /* \"#utility.yul\":6495:6514   */\n      mstore\n        /* \"#utility.yul\":6547:6551   */\n      0x20\n        /* \"#utility.yul\":6542:6545   */\n      dup3\n        /* \"#utility.yul\":6538:6552   */\n      add\n        /* \"#utility.yul\":6523:6552   */\n      swap1\n      pop\n        /* \"#utility.yul\":6389:6558   */\n      swap3\n      swap2\n      pop\n      pop\n      jump\t// out\n        /* \"#utility.yul\":6564:6703   */\n    tag_347:\n        /* \"#utility.yul\":6653:6659   */\n      dup3\n        /* \"#utility.yul\":6648:6651   */\n      dup2\n        /* \"#utility.yul\":6643:6646   */\n      dup4\n        /* \"#utility.yul\":6637:6660   */\n      mcopy\n        /* \"#utility.yul\":6694:6695   */\n      0x00\n        /* \"#utility.yul\":6685:6691   */\n      dup4\n        /* \"#utility.yul\":6680:6683   */\n      dup4\n        /* \"#utility.yul\":6676:6692   */\n      add\n        /* \"#utility.yul\":6669:6696   */\n      mstore\n        /* \"#utility.yul\":6564:6703   */\n      pop\n      pop\n      pop\n      jump\t// out\n        /* \"#utility.yul\":6709:7086   */\n    tag_348:\n        /* \"#utility.yul\":6797:6800   */\n      0x00\n        /* \"#utility.yul\":6825:6864   */\n      tag_472\n        /* \"#utility.yul\":6858:6863   */\n      dup3\n        /* \"#utility.yul\":6825:6864   */\n      tag_345\n      jump\t// in\n    tag_472:\n        /* \"#utility.yul\":6880:6951   */\n      tag_473\n        /* \"#utility.yul\":6944:6950   */\n      dup2\n        /* \"#utility.yul\":6939:6942   */\n      dup6\n        /* \"#utility.yul\":6880:6951   */\n      tag_346\n      jump\t// in\n    tag_473:\n        /* \"#utility.yul\":6873:6951   */\n      swap4\n      pop\n        /* \"#utility.yul\":6960:7025   */\n      tag_474\n        /* \"#utility.yul\":7018:7024   */\n      dup2\n        /* \"#utility.yul\":7013:7016   */\n      dup6\n        /* \"#utility.yul\":7006:7010   */\n      0x20\n        /* \"#utility.yul\":6999:7004   */\n      dup7\n        /* \"#utility.yul\":6995:7011   */\n      add\n        /* \"#utility.yul\":6960:7025   */\n      tag_347\n      jump\t// in\n    tag_474:\n        /* \"#utility.yul\":7050:7079   */\n      tag_475\n        /* \"#utility.yul\":7072:7078   */\n      dup2\n        /* \"#utility.yul\":7050:7079   */\n      tag_338\n      jump\t// in\n    tag_475:\n        /* \"#utility.yul\":7045:7048   */\n      dup5\n        /* \"#utility.yul\":7041:7080   */\n      add\n        /* \"#utility.yul\":7034:7080   */\n      swap2\n      pop\n        /* \"#utility.yul\":6801:7086   */\n      pop\n        /* \"#utility.yul\":6709:7086   */\n      swap3\n      swap2\n      pop\n      pop\n      jump\t// out\n        /* \"#utility.yul\":7092:7405   */\n    tag_43:\n        /* \"#utility.yul\":7205:7209   */\n      0x00\n        /* \"#utility.yul\":7243:7245   */\n      0x20\n        /* \"#utility.yul\":7232:7241   */\n      dup3\n        /* \"#utility.yul\":7228:7246   */\n      add\n        /* \"#utility.yul\":7220:7246   */\n      swap1\n      pop\n        /* \"#utility.yul\":7292:7301   */\n      dup2\n        /* \"#utility.yul\":7286:7290   */\n      dup2\n        /* \"#utility.yul\":7282:7302   */\n      sub\n        /* \"#utility.yul\":7278:7279   */\n      0x00\n        /* \"#utility.yul\":7267:7276   */\n      dup4\n        /* \"#utility.yul\":7263:7280   */\n      add\n        /* \"#utility.yul\":7256:7303   */\n      mstore\n        /* \"#utility.yul\":7320:7398   */\n      tag_477\n        /* \"#utility.yul\":7393:7397   */\n      dup2\n        /* \"#utility.yul\":7384:7390   */\n      dup5\n        /* \"#utility.yul\":7320:7398   */\n      tag_348\n      jump\t// in\n    tag_477:\n        /* \"#utility.yul\":7312:7398   */\n      swap1\n      pop\n        /* \"#utility.yul\":7092:7405   */\n      swap3\n      swap2\n      pop\n      pop\n      jump\t// out\n        /* \"#utility.yul\":7411:7722   */\n    tag_349:\n        /* \"#utility.yul\":7488:7492   */\n      0x00\n        /* \"#utility.yul\":7578:7596   */\n      0xffffffffffffffff\n        /* \"#utility.yul\":7570:7576   */\n      dup3\n        /* \"#utility.yul\":7567:7597   */\n      gt\n        /* \"#utility.yul\":7564:7620   */\n      iszero\n      tag_479\n      jumpi\n        /* \"#utility.yul\":7600:7618   */\n      tag_480\n      tag_135\n      jump\t// in\n    tag_480:\n        /* \"#utility.yul\":7564:7620   */\n    tag_479:\n        /* \"#utility.yul\":7650:7654   */\n      0x20\n        /* \"#utility.yul\":7642:7648   */\n      dup3\n        /* \"#utility.yul\":7638:7655   */\n      mul\n        /* \"#utility.yul\":7630:7655   */\n      swap1\n      pop\n        /* \"#utility.yul\":7710:7714   */\n      0x20\n        /* \"#utility.yul\":7704:7708   */\n      dup2\n        /* \"#utility.yul\":7700:7715   */\n      add\n        /* \"#utility.yul\":7692:7715   */\n      swap1\n      pop\n        /* \"#utility.yul\":7411:7722   */\n      swap2\n      swap1\n      pop\n      jump\t// out\n        /* \"#utility.yul\":7728:7845   */\n    tag_350:\n        /* \"#utility.yul\":7837:7838   */\n      0x00\n        /* \"#utility.yul\":7834:7835   */\n      dup1\n        /* \"#utility.yul\":7827:7839   */\n      revert\n        /* \"#utility.yul\":7868:8578   */\n    tag_351:\n        /* \"#utility.yul\":7964:7969   */\n      0x00\n        /* \"#utility.yul\":7989:8070   */\n      tag_483\n        /* \"#utility.yul\":8005:8069   */\n      tag_484\n        /* \"#utility.yul\":8062:8068   */\n      dup5\n        /* \"#utility.yul\":8005:8069   */\n      tag_349\n      jump\t// in\n    tag_484:\n        /* \"#utility.yul\":7989:8070   */\n      tag_340\n      jump\t// in\n    tag_483:\n        /* \"#utility.yul\":7980:8070   */\n      swap1\n      pop\n        /* \"#utility.yul\":8090:8095   */\n      dup1\n        /* \"#utility.yul\":8119:8125   */\n      dup4\n        /* \"#utility.yul\":8112:8117   */\n      dup3\n        /* \"#utility.yul\":8105:8126   */\n      mstore\n        /* \"#utility.yul\":8153:8157   */\n      0x20\n        /* \"#utility.yul\":8146:8151   */\n      dup3\n        /* \"#utility.yul\":8142:8158   */\n      add\n        /* \"#utility.yul\":8135:8158   */\n      swap1\n      pop\n        /* \"#utility.yul\":8206:8210   */\n      0x20\n        /* \"#utility.yul\":8198:8204   */\n      dup5\n        /* \"#utility.yul\":8194:8211   */\n      mul\n        /* \"#utility.yul\":8186:8192   */\n      dup4\n        /* \"#utility.yul\":8182:8212   */\n      add\n        /* \"#utility.yul\":8235:8238   */\n      dup6\n        /* \"#utility.yul\":8227:8233   */\n      dup2\n        /* \"#utility.yul\":8224:8239   */\n      gt\n        /* \"#utility.yul\":8221:8343   */\n      iszero\n      tag_485\n      jumpi\n        /* \"#utility.yul\":8254:8333   */\n      tag_486\n      tag_350\n      jump\t// in\n    tag_486:\n        /* \"#utility.yul\":8221:8343   */\n    tag_485:\n        /* \"#utility.yul\":8369:8375   */\n      dup4\n        /* \"#utility.yul\":8352:8572   */\n    tag_487:\n        /* \"#utility.yul\":8386:8392   */\n      dup2\n        /* \"#utility.yul\":8381:8384   */\n      dup2\n        /* \"#utility.yul\":8378:8393   */\n      lt\n        /* \"#utility.yul\":8352:8572   */\n      iszero\n      tag_489\n      jumpi\n        /* \"#utility.yul\":8461:8464   */\n      dup1\n        /* \"#utility.yul\":8490:8527   */\n      tag_490\n        /* \"#utility.yul\":8523:8526   */\n      dup9\n        /* \"#utility.yul\":8511:8521   */\n      dup3\n        /* \"#utility.yul\":8490:8527   */\n      tag_329\n      jump\t// in\n    tag_490:\n        /* \"#utility.yul\":8485:8488   */\n      dup5\n        /* \"#utility.yul\":8478:8528   */\n      mstore\n        /* \"#utility.yul\":8557:8561   */\n      0x20\n        /* \"#utility.yul\":8552:8555   */\n      dup5\n        /* \"#utility.yul\":8548:8562   */\n      add\n        /* \"#utility.yul\":8541:8562   */\n      swap4\n      pop\n        /* \"#utility.yul\":8428:8572   */\n      pop\n        /* \"#utility.yul\":8412:8416   */\n      0x20\n        /* \"#utility.yul\":8407:8410   */\n      dup2\n        /* \"#utility.yul\":8403:8417   */\n      add\n        /* \"#utility.yul\":8396:8417   */\n      swap1\n      pop\n        /* \"#utility.yul\":8352:8572   */\n      jump(tag_487)\n    tag_489:\n        /* \"#utility.yul\":8356:8377   */\n      pop\n        /* \"#utility.yul\":7970:8578   */\n      pop\n      pop\n        /* \"#utility.yul\":7868:8578   */\n      swap4\n      swap3\n      pop\n      pop\n      pop\n      jump\t// out\n        /* \"#utility.yul\":8601:8971   */\n    tag_352:\n        /* \"#utility.yul\":8672:8677   */\n      0x00\n        /* \"#utility.yul\":8721:8724   */\n      dup3\n        /* \"#utility.yul\":8714:8718   */\n      0x1f\n        /* \"#utility.yul\":8706:8712   */\n      dup4\n        /* \"#utility.yul\":8702:8719   */\n      add\n        /* \"#utility.yul\":8698:8725   */\n      slt\n        /* \"#utility.yul\":8688:8810   */\n      tag_492\n      jumpi\n        /* \"#utility.yul\":8729:8808   */\n      tag_493\n      tag_336\n      jump\t// in\n    tag_493:\n        /* \"#utility.yul\":8688:8810   */\n    tag_492:\n        /* \"#utility.yul\":8846:8852   */\n      dup2\n        /* \"#utility.yul\":8833:8853   */\n      calldataload\n        /* \"#utility.yul\":8871:8965   */\n      tag_494\n        /* \"#utility.yul\":8961:8964   */\n      dup5\n        /* \"#utility.yul\":8953:8959   */\n      dup3\n        /* \"#utility.yul\":8946:8950   */\n      0x20\n        /* \"#utility.yul\":8938:8944   */\n      dup7\n        /* \"#utility.yul\":8934:8951   */\n      add\n        /* \"#utility.yul\":8871:8965   */\n      tag_351\n      jump\t// in\n    tag_494:\n        /* \"#utility.yul\":8862:8965   */\n      swap2\n      pop\n        /* \"#utility.yul\":8678:8971   */\n      pop\n        /* \"#utility.yul\":8601:8971   */\n      swap3\n      swap2\n      pop\n      pop\n      jump\t// out\n        /* \"#utility.yul\":8977:9284   */\n    tag_353:\n        /* \"#utility.yul\":9038:9042   */\n      0x00\n        /* \"#utility.yul\":9128:9146   */\n      0xffffffffffffffff\n        /* \"#utility.yul\":9120:9126   */\n      dup3\n        /* \"#utility.yul\":9117:9147   */\n      gt\n        /* \"#utility.yul\":9114:9170   */\n      iszero\n      tag_496\n      jumpi\n        /* \"#utility.yul\":9150:9168   */\n      tag_497\n      tag_135\n      jump\t// in\n    tag_497:\n        /* \"#utility.yul\":9114:9170   */\n    tag_496:\n        /* \"#utility.yul\":9188:9217   */\n      tag_498\n        /* \"#utility.yul\":9210:9216   */\n      dup3\n        /* \"#utility.yul\":9188:9217   */\n      tag_338\n      jump\t// in\n    tag_498:\n        /* \"#utility.yul\":9180:9217   */\n      swap1\n      pop\n        /* \"#utility.yul\":9272:9276   */\n      0x20\n        /* \"#utility.yul\":9266:9270   */\n      dup2\n        /* \"#utility.yul\":9262:9277   */\n      add\n        /* \"#utility.yul\":9254:9277   */\n      swap1\n      pop\n        /* \"#utility.yul\":8977:9284   */\n      swap2\n      swap1\n      pop\n      jump\t// out\n        /* \"#utility.yul\":9290:9713   */\n    tag_354:\n        /* \"#utility.yul\":9367:9372   */\n      0x00\n        /* \"#utility.yul\":9392:9457   */\n      tag_500\n        /* \"#utility.yul\":9408:9456   */\n      tag_501\n        /* \"#utility.yul\":9449:9455   */\n      dup5\n        /* \"#utility.yul\":9408:9456   */\n      tag_353\n      jump\t// in\n    tag_501:\n        /* \"#utility.yul\":9392:9457   */\n      tag_340\n      jump\t// in\n    tag_500:\n        /* \"#utility.yul\":9383:9457   */\n      swap1\n      pop\n        /* \"#utility.yul\":9480:9486   */\n      dup3\n        /* \"#utility.yul\":9473:9478   */\n      dup2\n        /* \"#utility.yul\":9466:9487   */\n      mstore\n        /* \"#utility.yul\":9518:9522   */\n      0x20\n        /* \"#utility.yul\":9511:9516   */\n      dup2\n        /* \"#utility.yul\":9507:9523   */\n      add\n        /* \"#utility.yul\":9556:9559   */\n      dup5\n        /* \"#utility.yul\":9547:9553   */\n      dup5\n        /* \"#utility.yul\":9542:9545   */\n      dup5\n        /* \"#utility.yul\":9538:9554   */\n      add\n        /* \"#utility.yul\":9535:9560   */\n      gt\n        /* \"#utility.yul\":9532:9644   */\n      iszero\n      tag_502\n      jumpi\n        /* \"#utility.yul\":9563:9642   */\n      tag_503\n      tag_337\n      jump\t// in\n    tag_503:\n        /* \"#utility.yul\":9532:9644   */\n    tag_502:\n        /* \"#utility.yul\":9653:9707   */\n      tag_504\n        /* \"#utility.yul\":9700:9706   */\n      dup5\n        /* \"#utility.yul\":9695:9698   */\n      dup3\n        /* \"#utility.yul\":9690:9693   */\n      dup6\n        /* \"#utility.yul\":9653:9707   */\n      tag_342\n      jump\t// in\n    tag_504:\n        /* \"#utility.yul\":9373:9713   */\n      pop\n        /* \"#utility.yul\":9290:9713   */\n      swap4\n      swap3\n      pop\n      pop\n      pop\n      jump\t// out\n        /* \"#utility.yul\":9732:10070   */\n    tag_355:\n        /* \"#utility.yul\":9787:9792   */\n      0x00\n        /* \"#utility.yul\":9836:9839   */\n      dup3\n        /* \"#utility.yul\":9829:9833   */\n      0x1f\n        /* \"#utility.yul\":9821:9827   */\n      dup4\n        /* \"#utility.yul\":9817:9834   */\n      add\n        /* \"#utility.yul\":9813:9840   */\n      slt\n        /* \"#utility.yul\":9803:9925   */\n      tag_506\n      jumpi\n        /* \"#utility.yul\":9844:9923   */\n      tag_507\n      tag_336\n      jump\t// in\n    tag_507:\n        /* \"#utility.yul\":9803:9925   */\n    tag_506:\n        /* \"#utility.yul\":9961:9967   */\n      dup2\n        /* \"#utility.yul\":9948:9968   */\n      calldataload\n        /* \"#utility.yul\":9986:10064   */\n      tag_508\n        /* \"#utility.yul\":10060:10063   */\n      dup5\n        /* \"#utility.yul\":10052:10058   */\n      dup3\n        /* \"#utility.yul\":10045:10049   */\n      0x20\n        /* \"#utility.yul\":10037:10043   */\n      dup7\n        /* \"#utility.yul\":10033:10050   */\n      add\n        /* \"#utility.yul\":9986:10064   */\n      tag_354\n      jump\t// in\n    tag_508:\n        /* \"#utility.yul\":9977:10064   */\n      swap2\n      pop\n        /* \"#utility.yul\":9793:10070   */\n      pop\n        /* \"#utility.yul\":9732:10070   */\n      swap3\n      swap2\n      pop\n      pop\n      jump\t// out\n        /* \"#utility.yul\":10076:11585   */\n    tag_46:\n        /* \"#utility.yul\":10230:10236   */\n      0x00\n        /* \"#utility.yul\":10238:10244   */\n      dup1\n        /* \"#utility.yul\":10246:10252   */\n      0x00\n        /* \"#utility.yul\":10254:10260   */\n      dup1\n        /* \"#utility.yul\":10262:10268   */\n      0x00\n        /* \"#utility.yul\":10311:10314   */\n      0xa0\n        /* \"#utility.yul\":10299:10308   */\n      dup7\n        /* \"#utility.yul\":10290:10297   */\n      dup9\n        /* \"#utility.yul\":10286:10309   */\n      sub\n        /* \"#utility.yul\":10282:10315   */\n      slt\n        /* \"#utility.yul\":10279:10399   */\n      iszero\n      tag_510\n      jumpi\n        /* \"#utility.yul\":10318:10397   */\n      tag_511\n      tag_321\n      jump\t// in\n    tag_511:\n        /* \"#utility.yul\":10279:10399   */\n    tag_510:\n        /* \"#utility.yul\":10438:10439   */\n      0x00\n        /* \"#utility.yul\":10463:10516   */\n      tag_512\n        /* \"#utility.yul\":10508:10515   */\n      dup9\n        /* \"#utility.yul\":10499:10505   */\n      dup3\n        /* \"#utility.yul\":10488:10497   */\n      dup10\n        /* \"#utility.yul\":10484:10506   */\n      add\n        /* \"#utility.yul\":10463:10516   */\n      tag_326\n      jump\t// in\n    tag_512:\n        /* \"#utility.yul\":10453:10516   */\n      swap6\n      pop\n        /* \"#utility.yul\":10409:10526   */\n      pop\n        /* \"#utility.yul\":10565:10567   */\n      0x20\n        /* \"#utility.yul\":10591:10644   */\n      tag_513\n        /* \"#utility.yul\":10636:10643   */\n      dup9\n        /* \"#utility.yul\":10627:10633   */\n      dup3\n        /* \"#utility.yul\":10616:10625   */\n      dup10\n        /* \"#utility.yul\":10612:10634   */\n      add\n        /* \"#utility.yul\":10591:10644   */\n      tag_326\n      jump\t// in\n    tag_513:\n        /* \"#utility.yul\":10581:10644   */\n      swap5\n      pop\n        /* \"#utility.yul\":10536:10654   */\n      pop\n        /* \"#utility.yul\":10721:10723   */\n      0x40\n        /* \"#utility.yul\":10710:10719   */\n      dup7\n        /* \"#utility.yul\":10706:10724   */\n      add\n        /* \"#utility.yul\":10693:10725   */\n      calldataload\n        /* \"#utility.yul\":10752:10770   */\n      0xffffffffffffffff\n        /* \"#utility.yul\":10744:10750   */\n      dup2\n        /* \"#utility.yul\":10741:10771   */\n      gt\n        /* \"#utility.yul\":10738:10855   */\n      iszero\n      tag_514\n      jumpi\n        /* \"#utility.yul\":10774:10853   */\n      tag_515\n      tag_322\n      jump\t// in\n    tag_515:\n        /* \"#utility.yul\":10738:10855   */\n    tag_514:\n        /* \"#utility.yul\":10879:10957   */\n      tag_516\n        /* \"#utility.yul\":10949:10956   */\n      dup9\n        /* \"#utility.yul\":10940:10946   */\n      dup3\n        /* \"#utility.yul\":10929:10938   */\n      dup10\n        /* \"#utility.yul\":10925:10947   */\n      add\n        /* \"#utility.yul\":10879:10957   */\n      tag_352\n      jump\t// in\n    tag_516:\n        /* \"#utility.yul\":10869:10957   */\n      swap4\n      pop\n        /* \"#utility.yul\":10664:10967   */\n      pop\n        /* \"#utility.yul\":11034:11036   */\n      0x60\n        /* \"#utility.yul\":11023:11032   */\n      dup7\n        /* \"#utility.yul\":11019:11037   */\n      add\n        /* \"#utility.yul\":11006:11038   */\n      calldataload\n        /* \"#utility.yul\":11065:11083   */\n      0xffffffffffffffff\n        /* \"#utility.yul\":11057:11063   */\n      dup2\n        /* \"#utility.yul\":11054:11084   */\n      gt\n        /* \"#utility.yul\":11051:11168   */\n      iszero\n      tag_517\n      jumpi\n        /* \"#utility.yul\":11087:11166   */\n      tag_518\n      tag_322\n      jump\t// in\n    tag_518:\n        /* \"#utility.yul\":11051:11168   */\n    tag_517:\n        /* \"#utility.yul\":11192:11270   */\n      tag_519\n        /* \"#utility.yul\":11262:11269   */\n      dup9\n        /* \"#utility.yul\":11253:11259   */\n      dup3\n        /* \"#utility.yul\":11242:11251   */\n      dup10\n        /* \"#utility.yul\":11238:11260   */\n      add\n        /* \"#utility.yul\":11192:11270   */\n      tag_352\n      jump\t// in\n    tag_519:\n        /* \"#utility.yul\":11182:11270   */\n      swap3\n      pop\n        /* \"#utility.yul\":10977:11280   */\n      pop\n        /* \"#utility.yul\":11347:11350   */\n      0x80\n        /* \"#utility.yul\":11336:11345   */\n      dup7\n        /* \"#utility.yul\":11332:11351   */\n      add\n        /* \"#utility.yul\":11319:11352   */\n      calldataload\n        /* \"#utility.yul\":11379:11397   */\n      0xffffffffffffffff\n        /* \"#utility.yul\":11371:11377   */\n      dup2\n        /* \"#utility.yul\":11368:11398   */\n      gt\n        /* \"#utility.yul\":11365:11482   */\n      iszero\n      tag_520\n      jumpi\n        /* \"#utility.yul\":11401:11480   */\n      tag_521\n      tag_322\n      jump\t// in\n    tag_521:\n        /* \"#utility.yul\":11365:11482   */\n    tag_520:\n        /* \"#utility.yul\":11506:11568   */\n      tag_522\n        /* \"#utility.yul\":11560:11567   */\n      dup9\n        /* \"#utility.yul\":11551:11557   */\n      dup3\n        /* \"#utility.yul\":11540:11549   */\n      dup10\n        /* \"#utility.yul\":11536:11558   */\n      add\n        /* \"#utility.yul\":11506:11568   */\n      tag_355\n      jump\t// in\n    tag_522:\n        /* \"#utility.yul\":11496:11568   */\n      swap2\n      pop\n        /* \"#utility.yul\":11290:11578   */\n      pop\n        /* \"#utility.yul\":10076:11585   */\n      swap3\n      swap6\n      pop\n      swap3\n      swap6\n      swap1\n      swap4\n      pop\n      jump\t// out\n        /* \"#utility.yul\":11591:12388   */\n    tag_50:\n        /* \"#utility.yul\":11677:11683   */\n      0x00\n        /* \"#utility.yul\":11685:11691   */\n      dup1\n        /* \"#utility.yul\":11693:11699   */\n      0x00\n        /* \"#utility.yul\":11742:11744   */\n      0x60\n        /* \"#utility.yul\":11730:11739   */\n      dup5\n        /* \"#utility.yul\":11721:11728   */\n      dup7\n        /* \"#utility.yul\":11717:11740   */\n      sub\n        /* \"#utility.yul\":11713:11745   */\n      slt\n        /* \"#utility.yul\":11710:11829   */\n      iszero\n      tag_524\n      jumpi\n        /* \"#utility.yul\":11748:11827   */\n      tag_525\n      tag_321\n      jump\t// in\n    tag_525:\n        /* \"#utility.yul\":11710:11829   */\n    tag_524:\n        /* \"#utility.yul\":11868:11869   */\n      0x00\n        /* \"#utility.yul\":11893:11946   */\n      tag_526\n        /* \"#utility.yul\":11938:11945   */\n      dup7\n        /* \"#utility.yul\":11929:11935   */\n      dup3\n        /* \"#utility.yul\":11918:11927   */\n      dup8\n        /* \"#utility.yul\":11914:11936   */\n      add\n        /* \"#utility.yul\":11893:11946   */\n      tag_326\n      jump\t// in\n    tag_526:\n        /* \"#utility.yul\":11883:11946   */\n      swap4\n      pop\n        /* \"#utility.yul\":11839:11956   */\n      pop\n        /* \"#utility.yul\":11995:11997   */\n      0x20\n        /* \"#utility.yul\":12021:12074   */\n      tag_527\n        /* \"#utility.yul\":12066:12073   */\n      dup7\n        /* \"#utility.yul\":12057:12063   */\n      dup3\n        /* \"#utility.yul\":12046:12055   */\n      dup8\n        /* \"#utility.yul\":12042:12064   */\n      add\n        /* \"#utility.yul\":12021:12074   */\n      tag_329\n      jump\t// in\n    tag_527:\n        /* \"#utility.yul\":12011:12074   */\n      swap3\n      pop\n        /* \"#utility.yul\":11966:12084   */\n      pop\n        /* \"#utility.yul\":12151:12153   */\n      0x40\n        /* \"#utility.yul\":12140:12149   */\n      dup5\n        /* \"#utility.yul\":12136:12154   */\n      add\n        /* \"#utility.yul\":12123:12155   */\n      calldataload\n        /* \"#utility.yul\":12182:12200   */\n      0xffffffffffffffff\n        /* \"#utility.yul\":12174:12180   */\n      dup2\n        /* \"#utility.yul\":12171:12201   */\n      gt\n        /* \"#utility.yul\":12168:12285   */\n      iszero\n      tag_528\n      jumpi\n        /* \"#utility.yul\":12204:12283   */\n      tag_529\n      tag_322\n      jump\t// in\n    tag_529:\n        /* \"#utility.yul\":12168:12285   */\n    tag_528:\n        /* \"#utility.yul\":12309:12371   */\n      tag_530\n        /* \"#utility.yul\":12363:12370   */\n      dup7\n        /* \"#utility.yul\":12354:12360   */\n      dup3\n        /* \"#utility.yul\":12343:12352   */\n      dup8\n        /* \"#utility.yul\":12339:12361   */\n      add\n        /* \"#utility.yul\":12309:12371   */\n      tag_355\n      jump\t// in\n    tag_530:\n        /* \"#utility.yul\":12299:12371   */\n      swap2\n      pop\n        /* \"#utility.yul\":12094:12381   */\n      pop\n        /* \"#utility.yul\":11591:12388   */\n      swap3\n      pop\n      swap3\n      pop\n      swap3\n      jump\t// out\n        /* \"#utility.yul\":12394:12705   */\n    tag_356:\n        /* \"#utility.yul\":12471:12475   */\n      0x00\n        /* \"#utility.yul\":12561:12579   */\n      0xffffffffffffffff\n        /* \"#utility.yul\":12553:12559   */\n      dup3\n        /* \"#utility.yul\":12550:12580   */\n      gt\n        /* \"#utility.yul\":12547:12603   */\n      iszero\n      tag_532\n      jumpi\n        /* \"#utility.yul\":12583:12601   */\n      tag_533\n      tag_135\n      jump\t// in\n    tag_533:\n        /* \"#utility.yul\":12547:12603   */\n    tag_532:\n        /* \"#utility.yul\":12633:12637   */\n      0x20\n        /* \"#utility.yul\":12625:12631   */\n      dup3\n        /* \"#utility.yul\":12621:12638   */\n      mul\n        /* \"#utility.yul\":12613:12638   */\n      swap1\n      pop\n        /* \"#utility.yul\":12693:12697   */\n      0x20\n        /* \"#utility.yul\":12687:12691   */\n      dup2\n        /* \"#utility.yul\":12683:12698   */\n      add\n        /* \"#utility.yul\":12675:12698   */\n      swap1\n      pop\n        /* \"#utility.yul\":12394:12705   */\n      swap2\n      swap1\n      pop\n      jump\t// out\n        /* \"#utility.yul\":12728:13438   */\n    tag_357:\n        /* \"#utility.yul\":12824:12829   */\n      0x00\n        /* \"#utility.yul\":12849:12930   */\n      tag_535\n        /* \"#utility.yul\":12865:12929   */\n      tag_536\n        /* \"#utility.yul\":12922:12928   */\n      dup5\n        /* \"#utility.yul\":12865:12929   */\n      tag_356\n      jump\t// in\n    tag_536:\n        /* \"#utility.yul\":12849:12930   */\n      tag_340\n      jump\t// in\n    tag_535:\n        /* \"#utility.yul\":12840:12930   */\n      swap1\n      pop\n        /* \"#utility.yul\":12950:12955   */\n      dup1\n        /* \"#utility.yul\":12979:12985   */\n      dup4\n        /* \"#utility.yul\":12972:12977   */\n      dup3\n        /* \"#utility.yul\":12965:12986   */\n      mstore\n        /* \"#utility.yul\":13013:13017   */\n      0x20\n        /* \"#utility.yul\":13006:13011   */\n      dup3\n        /* \"#utility.yul\":13002:13018   */\n      add\n        /* \"#utility.yul\":12995:13018   */\n      swap1\n      pop\n        /* \"#utility.yul\":13066:13070   */\n      0x20\n        /* \"#utility.yul\":13058:13064   */\n      dup5\n        /* \"#utility.yul\":13054:13071   */\n      mul\n        /* \"#utility.yul\":13046:13052   */\n      dup4\n        /* \"#utility.yul\":13042:13072   */\n      add\n        /* \"#utility.yul\":13095:13098   */\n      dup6\n        /* \"#utility.yul\":13087:13093   */\n      dup2\n        /* \"#utility.yul\":13084:13099   */\n      gt\n        /* \"#utility.yul\":13081:13203   */\n      iszero\n      tag_537\n      jumpi\n        /* \"#utility.yul\":13114:13193   */\n      tag_538\n      tag_350\n      jump\t// in\n    tag_538:\n        /* \"#utility.yul\":13081:13203   */\n    tag_537:\n        /* \"#utility.yul\":13229:13235   */\n      dup4\n        /* \"#utility.yul\":13212:13432   */\n    tag_539:\n        /* \"#utility.yul\":13246:13252   */\n      dup2\n        /* \"#utility.yul\":13241:13244   */\n      dup2\n        /* \"#utility.yul\":13238:13253   */\n      lt\n        /* \"#utility.yul\":13212:13432   */\n      iszero\n      tag_541\n      jumpi\n        /* \"#utility.yul\":13321:13324   */\n      dup1\n        /* \"#utility.yul\":13350:13387   */\n      tag_542\n        /* \"#utility.yul\":13383:13386   */\n      dup9\n        /* \"#utility.yul\":13371:13381   */\n      dup3\n        /* \"#utility.yul\":13350:13387   */\n      tag_326\n      jump\t// in\n    tag_542:\n        /* \"#utility.yul\":13345:13348   */\n      dup5\n        /* \"#utility.yul\":13338:13388   */\n      mstore\n        /* \"#utility.yul\":13417:13421   */\n      0x20\n        /* \"#utility.yul\":13412:13415   */\n      dup5\n        /* \"#utility.yul\":13408:13422   */\n      add\n        /* \"#utility.yul\":13401:13422   */\n      swap4\n      pop\n        /* \"#utility.yul\":13288:13432   */\n      pop\n        /* \"#utility.yul\":13272:13276   */\n      0x20\n        /* \"#utility.yul\":13267:13270   */\n      dup2\n        /* \"#utility.yul\":13263:13277   */\n      add\n        /* \"#utility.yul\":13256:13277   */\n      swap1\n      pop\n        /* \"#utility.yul\":13212:13432   */\n      jump(tag_539)\n    tag_541:\n        /* \"#utility.yul\":13216:13237   */\n      pop\n        /* \"#utility.yul\":12830:13438   */\n      pop\n      pop\n        /* \"#utility.yul\":12728:13438   */\n      swap4\n      swap3\n      pop\n      pop\n      pop\n      jump\t// out\n        /* \"#utility.yul\":13461:13831   */\n    tag_358:\n        /* \"#utility.yul\":13532:13537   */\n      0x00\n        /* \"#utility.yul\":13581:13584   */\n      dup3\n        /* \"#utility.yul\":13574:13578   */\n      0x1f\n        /* \"#utility.yul\":13566:13572   */\n      dup4\n        /* \"#utility.yul\":13562:13579   */\n      add\n        /* \"#utility.yul\":13558:13585   */\n      slt\n        /* \"#utility.yul\":13548:13670   */\n      tag_544\n      jumpi\n        /* \"#utility.yul\":13589:13668   */\n      tag_545\n      tag_336\n      jump\t// in\n    tag_545:\n        /* \"#utility.yul\":13548:13670   */\n    tag_544:\n        /* \"#utility.yul\":13706:13712   */\n      dup2\n        /* \"#utility.yul\":13693:13713   */\n      calldataload\n        /* \"#utility.yul\":13731:13825   */\n      tag_546\n        /* \"#utility.yul\":13821:13824   */\n      dup5\n        /* \"#utility.yul\":13813:13819   */\n      dup3\n        /* \"#utility.yul\":13806:13810   */\n      0x20\n        /* \"#utility.yul\":13798:13804   */\n      dup7\n        /* \"#utility.yul\":13794:13811   */\n      add\n        /* \"#utility.yul\":13731:13825   */\n      tag_357\n      jump\t// in\n    tag_546:\n        /* \"#utility.yul\":13722:13825   */\n      swap2\n      pop\n        /* \"#utility.yul\":13538:13831   */\n      pop\n        /* \"#utility.yul\":13461:13831   */\n      swap3\n      swap2\n      pop\n      pop\n      jump\t// out\n        /* \"#utility.yul\":13837:14731   */\n    tag_54:\n        /* \"#utility.yul\":13955:13961   */\n      0x00\n        /* \"#utility.yul\":13963:13969   */\n      dup1\n        /* \"#utility.yul\":14012:14014   */\n      0x40\n        /* \"#utility.yul\":14000:14009   */\n      dup4\n        /* \"#utility.yul\":13991:13998   */\n      dup6\n        /* \"#utility.yul\":13987:14010   */\n      sub\n        /* \"#utility.yul\":13983:14015   */\n      slt\n        /* \"#utility.yul\":13980:14099   */\n      iszero\n      tag_548\n      jumpi\n        /* \"#utility.yul\":14018:14097   */\n      tag_549\n      tag_321\n      jump\t// in\n    tag_549:\n        /* \"#utility.yul\":13980:14099   */\n    tag_548:\n        /* \"#utility.yul\":14166:14167   */\n      0x00\n        /* \"#utility.yul\":14155:14164   */\n      dup4\n        /* \"#utility.yul\":14151:14168   */\n      add\n        /* \"#utility.yul\":14138:14169   */\n      calldataload\n        /* \"#utility.yul\":14196:14214   */\n      0xffffffffffffffff\n        /* \"#utility.yul\":14188:14194   */\n      dup2\n        /* \"#utility.yul\":14185:14215   */\n      gt\n        /* \"#utility.yul\":14182:14299   */\n      iszero\n      tag_550\n      jumpi\n        /* \"#utility.yul\":14218:14297   */\n      tag_551\n      tag_322\n      jump\t// in\n    tag_551:\n        /* \"#utility.yul\":14182:14299   */\n    tag_550:\n        /* \"#utility.yul\":14323:14401   */\n      tag_552\n        /* \"#utility.yul\":14393:14400   */\n      dup6\n        /* \"#utility.yul\":14384:14390   */\n      dup3\n        /* \"#utility.yul\":14373:14382   */\n      dup7\n        /* \"#utility.yul\":14369:14391   */\n      add\n        /* \"#utility.yul\":14323:14401   */\n      tag_358\n      jump\t// in\n    tag_552:\n        /* \"#utility.yul\":14313:14401   */\n      swap3\n      pop\n        /* \"#utility.yul\":14109:14411   */\n      pop\n        /* \"#utility.yul\":14478:14480   */\n      0x20\n        /* \"#utility.yul\":14467:14476   */\n      dup4\n        /* \"#utility.yul\":14463:14481   */\n      add\n        /* \"#utility.yul\":14450:14482   */\n      calldataload\n        /* \"#utility.yul\":14509:14527   */\n      0xffffffffffffffff\n        /* \"#utility.yul\":14501:14507   */\n      dup2\n        /* \"#utility.yul\":14498:14528   */\n      gt\n        /* \"#utility.yul\":14495:14612   */\n      iszero\n      tag_553\n      jumpi\n        /* \"#utility.yul\":14531:14610   */\n      tag_554\n      tag_322\n      jump\t// in\n    tag_554:\n        /* \"#utility.yul\":14495:14612   */\n    tag_553:\n        /* \"#utility.yul\":14636:14714   */\n      tag_555\n        /* \"#utility.yul\":14706:14713   */\n      dup6\n        /* \"#utility.yul\":14697:14703   */\n      dup3\n        /* \"#utility.yul\":14686:14695   */\n      dup7\n        /* \"#utility.yul\":14682:14704   */\n      add\n        /* \"#utility.yul\":14636:14714   */\n      tag_352\n      jump\t// in\n    tag_555:\n        /* \"#utility.yul\":14626:14714   */\n      swap2\n      pop\n        /* \"#utility.yul\":14421:14724   */\n      pop\n        /* \"#utility.yul\":13837:14731   */\n      swap3\n      pop\n      swap3\n      swap1\n      pop\n      jump\t// out\n        /* \"#utility.yul\":14737:14851   */\n    tag_359:\n        /* \"#utility.yul\":14804:14810   */\n      0x00\n        /* \"#utility.yul\":14838:14843   */\n      dup2\n        /* \"#utility.yul\":14832:14844   */\n      mload\n        /* \"#utility.yul\":14822:14844   */\n      swap1\n      pop\n        /* \"#utility.yul\":14737:14851   */\n      swap2\n      swap1\n      pop\n      jump\t// out\n        /* \"#utility.yul\":14857:15041   */\n    tag_360:\n        /* \"#utility.yul\":14956:14967   */\n      0x00\n        /* \"#utility.yul\":14990:14996   */\n      dup3\n        /* \"#utility.yul\":14985:14988   */\n      dup3\n        /* \"#utility.yul\":14978:14997   */\n      mstore\n        /* \"#utility.yul\":15030:15034   */\n      0x20\n        /* \"#utility.yul\":15025:15028   */\n      dup3\n        /* \"#utility.yul\":15021:15035   */\n      add\n        /* \"#utility.yul\":15006:15035   */\n      swap1\n      pop\n        /* \"#utility.yul\":14857:15041   */\n      swap3\n      swap2\n      pop\n      pop\n      jump\t// out\n        /* \"#utility.yul\":15047:15179   */\n    tag_361:\n        /* \"#utility.yul\":15114:15118   */\n      0x00\n        /* \"#utility.yul\":15137:15140   */\n      dup2\n        /* \"#utility.yul\":15129:15140   */\n      swap1\n      pop\n        /* \"#utility.yul\":15167:15171   */\n      0x20\n        /* \"#utility.yul\":15162:15165   */\n      dup3\n        /* \"#utility.yul\":15158:15172   */\n      add\n        /* \"#utility.yul\":15150:15172   */\n      swap1\n      pop\n        /* \"#utility.yul\":15047:15179   */\n      swap2\n      swap1\n      pop\n      jump\t// out\n        /* \"#utility.yul\":15185:15293   */\n    tag_362:\n        /* \"#utility.yul\":15262:15286   */\n      tag_560\n        /* \"#utility.yul\":15280:15285   */\n      dup2\n        /* \"#utility.yul\":15262:15286   */\n      tag_327\n      jump\t// in\n    tag_560:\n        /* \"#utility.yul\":15257:15260   */\n      dup3\n        /* \"#utility.yul\":15250:15287   */\n      mstore\n        /* \"#utility.yul\":15185:15293   */\n      pop\n      pop\n      jump\t// out\n        /* \"#utility.yul\":15299:15478   */\n    tag_363:\n        /* \"#utility.yul\":15368:15378   */\n      0x00\n        /* \"#utility.yul\":15389:15435   */\n      tag_562\n        /* \"#utility.yul\":15431:15434   */\n      dup4\n        /* \"#utility.yul\":15423:15429   */\n      dup4\n        /* \"#utility.yul\":15389:15435   */\n      tag_362\n      jump\t// in\n    tag_562:\n        /* \"#utility.yul\":15467:15471   */\n      0x20\n        /* \"#utility.yul\":15462:15465   */\n      dup4\n        /* \"#utility.yul\":15458:15472   */\n      add\n        /* \"#utility.yul\":15444:15472   */\n      swap1\n      pop\n        /* \"#utility.yul\":15299:15478   */\n      swap3\n      swap2\n      pop\n      pop\n      jump\t// out\n        /* \"#utility.yul\":15484:15597   */\n    tag_364:\n        /* \"#utility.yul\":15554:15558   */\n      0x00\n        /* \"#utility.yul\":15586:15590   */\n      0x20\n        /* \"#utility.yul\":15581:15584   */\n      dup3\n        /* \"#utility.yul\":15577:15591   */\n      add\n        /* \"#utility.yul\":15569:15591   */\n      swap1\n      pop\n        /* \"#utility.yul\":15484:15597   */\n      swap2\n      swap1\n      pop\n      jump\t// out\n        /* \"#utility.yul\":15633:16365   */\n    tag_365:\n        /* \"#utility.yul\":15752:15755   */\n      0x00\n        /* \"#utility.yul\":15781:15835   */\n      tag_565\n        /* \"#utility.yul\":15829:15834   */\n      dup3\n        /* \"#utility.yul\":15781:15835   */\n      tag_359\n      jump\t// in\n    tag_565:\n        /* \"#utility.yul\":15851:15937   */\n      tag_566\n        /* \"#utility.yul\":15930:15936   */\n      dup2\n        /* \"#utility.yul\":15925:15928   */\n      dup6\n        /* \"#utility.yul\":15851:15937   */\n      tag_360\n      jump\t// in\n    tag_566:\n        /* \"#utility.yul\":15844:15937   */\n      swap4\n      pop\n        /* \"#utility.yul\":15961:16017   */\n      tag_567\n        /* \"#utility.yul\":16011:16016   */\n      dup4\n        /* \"#utility.yul\":15961:16017   */\n      tag_361\n      jump\t// in\n    tag_567:\n        /* \"#utility.yul\":16040:16047   */\n      dup1\n        /* \"#utility.yul\":16071:16072   */\n      0x00\n        /* \"#utility.yul\":16056:16340   */\n    tag_568:\n        /* \"#utility.yul\":16081:16087   */\n      dup4\n        /* \"#utility.yul\":16078:16079   */\n      dup2\n        /* \"#utility.yul\":16075:16088   */\n      lt\n        /* \"#utility.yul\":16056:16340   */\n      iszero\n      tag_570\n      jumpi\n        /* \"#utility.yul\":16157:16163   */\n      dup2\n        /* \"#utility.yul\":16151:16164   */\n      mload\n        /* \"#utility.yul\":16184:16247   */\n      tag_571\n        /* \"#utility.yul\":16243:16246   */\n      dup9\n        /* \"#utility.yul\":16228:16241   */\n      dup3\n        /* \"#utility.yul\":16184:16247   */\n      tag_363\n      jump\t// in\n    tag_571:\n        /* \"#utility.yul\":16177:16247   */\n      swap8\n      pop\n        /* \"#utility.yul\":16270:16330   */\n      tag_572\n        /* \"#utility.yul\":16323:16329   */\n      dup4\n        /* \"#utility.yul\":16270:16330   */\n      tag_364\n      jump\t// in\n    tag_572:\n        /* \"#utility.yul\":16260:16330   */\n      swap3\n      pop\n        /* \"#utility.yul\":16116:16340   */\n      pop\n        /* \"#utility.yul\":16103:16104   */\n      0x01\n        /* \"#utility.yul\":16100:16101   */\n      dup2\n        /* \"#utility.yul\":16096:16105   */\n      add\n        /* \"#utility.yul\":16091:16105   */\n      swap1\n      pop\n        /* \"#utility.yul\":16056:16340   */\n      jump(tag_568)\n    tag_570:\n        /* \"#utility.yul\":16060:16074   */\n      pop\n        /* \"#utility.yul\":16356:16359   */\n      dup6\n        /* \"#utility.yul\":16349:16359   */\n      swap4\n      pop\n        /* \"#utility.yul\":15757:16365   */\n      pop\n      pop\n      pop\n        /* \"#utility.yul\":15633:16365   */\n      swap3\n      swap2\n      pop\n      pop\n      jump\t// out\n        /* \"#utility.yul\":16371:16744   */\n    tag_57:\n        /* \"#utility.yul\":16514:16518   */\n      0x00\n        /* \"#utility.yul\":16552:16554   */\n      0x20\n        /* \"#utility.yul\":16541:16550   */\n      dup3\n        /* \"#utility.yul\":16537:16555   */\n      add\n        /* \"#utility.yul\":16529:16555   */\n      swap1\n      pop\n        /* \"#utility.yul\":16601:16610   */\n      dup2\n        /* \"#utility.yul\":16595:16599   */\n      dup2\n        /* \"#utility.yul\":16591:16611   */\n      sub\n        /* \"#utility.yul\":16587:16588   */\n      0x00\n        /* \"#utility.yul\":16576:16585   */\n      dup4\n        /* \"#utility.yul\":16572:16589   */\n      add\n        /* \"#utility.yul\":16565:16612   */\n      mstore\n        /* \"#utility.yul\":16629:16737   */\n      tag_574\n        /* \"#utility.yul\":16732:16736   */\n      dup2\n        /* \"#utility.yul\":16723:16729   */\n      dup5\n        /* \"#utility.yul\":16629:16737   */\n      tag_365\n      jump\t// in\n    tag_574:\n        /* \"#utility.yul\":16621:16737   */\n      swap1\n      pop\n        /* \"#utility.yul\":16371:16744   */\n      swap3\n      swap2\n      pop\n      pop\n      jump\t// out\n        /* \"#utility.yul\":16750:17789   */\n    tag_60:\n        /* \"#utility.yul\":16877:16883   */\n      0x00\n        /* \"#utility.yul\":16885:16891   */\n      dup1\n        /* \"#utility.yul\":16893:16899   */\n      0x00\n        /* \"#utility.yul\":16942:16944   */\n      0x60\n        /* \"#utility.yul\":16930:16939   */\n      dup5\n        /* \"#utility.yul\":16921:16928   */\n      dup7\n        /* \"#utility.yul\":16917:16940   */\n      sub\n        /* \"#utility.yul\":16913:16945   */\n      slt\n        /* \"#utility.yul\":16910:17029   */\n      iszero\n      tag_576\n      jumpi\n        /* \"#utility.yul\":16948:17027   */\n      tag_577\n      tag_321\n      jump\t// in\n    tag_577:\n        /* \"#utility.yul\":16910:17029   */\n    tag_576:\n        /* \"#utility.yul\":17068:17069   */\n      0x00\n        /* \"#utility.yul\":17093:17146   */\n      tag_578\n        /* \"#utility.yul\":17138:17145   */\n      dup7\n        /* \"#utility.yul\":17129:17135   */\n      dup3\n        /* \"#utility.yul\":17118:17127   */\n      dup8\n        /* \"#utility.yul\":17114:17136   */\n      add\n        /* \"#utility.yul\":17093:17146   */\n      tag_326\n      jump\t// in\n    tag_578:\n        /* \"#utility.yul\":17083:17146   */\n      swap4\n      pop\n        /* \"#utility.yul\":17039:17156   */\n      pop\n        /* \"#utility.yul\":17223:17225   */\n      0x20\n        /* \"#utility.yul\":17212:17221   */\n      dup5\n        /* \"#utility.yul\":17208:17226   */\n      add\n        /* \"#utility.yul\":17195:17227   */\n      calldataload\n        /* \"#utility.yul\":17254:17272   */\n      0xffffffffffffffff\n        /* \"#utility.yul\":17246:17252   */\n      dup2\n        /* \"#utility.yul\":17243:17273   */\n      gt\n        /* \"#utility.yul\":17240:17357   */\n      iszero\n      tag_579\n      jumpi\n        /* \"#utility.yul\":17276:17355   */\n      tag_580\n      tag_322\n      jump\t// in\n    tag_580:\n        /* \"#utility.yul\":17240:17357   */\n    tag_579:\n        /* \"#utility.yul\":17381:17459   */\n      tag_581\n        /* \"#utility.yul\":17451:17458   */\n      dup7\n        /* \"#utility.yul\":17442:17448   */\n      dup3\n        /* \"#utility.yul\":17431:17440   */\n      dup8\n        /* \"#utility.yul\":17427:17449   */\n      add\n        /* \"#utility.yul\":17381:17459   */\n      tag_352\n      jump\t// in\n    tag_581:\n        /* \"#utility.yul\":17371:17459   */\n      swap3\n      pop\n        /* \"#utility.yul\":17166:17469   */\n      pop\n        /* \"#utility.yul\":17536:17538   */\n      0x40\n        /* \"#utility.yul\":17525:17534   */\n      dup5\n        /* \"#utility.yul\":17521:17539   */\n      add\n        /* \"#utility.yul\":17508:17540   */\n      calldataload\n        /* \"#utility.yul\":17567:17585   */\n      0xffffffffffffffff\n        /* \"#utility.yul\":17559:17565   */\n      dup2\n        /* \"#utility.yul\":17556:17586   */\n      gt\n        /* \"#utility.yul\":17553:17670   */\n      iszero\n      tag_582\n      jumpi\n        /* \"#utility.yul\":17589:17668   */\n      tag_583\n      tag_322\n      jump\t// in\n    tag_583:\n        /* \"#utility.yul\":17553:17670   */\n    tag_582:\n        /* \"#utility.yul\":17694:17772   */\n      tag_584\n        /* \"#utility.yul\":17764:17771   */\n      dup7\n        /* \"#utility.yul\":17755:17761   */\n      dup3\n        /* \"#utility.yul\":17744:17753   */\n      dup8\n        /* \"#utility.yul\":17740:17762   */\n      add\n        /* \"#utility.yul\":17694:17772   */\n      tag_352\n      jump\t// in\n    tag_584:\n        /* \"#utility.yul\":17684:17772   */\n      swap2\n      pop\n        /* \"#utility.yul\":17479:17782   */\n      pop\n        /* \"#utility.yul\":16750:17789   */\n      swap3\n      pop\n      swap3\n      pop\n      swap3\n      jump\t// out\n        /* \"#utility.yul\":17795:17913   */\n    tag_366:\n        /* \"#utility.yul\":17882:17906   */\n      tag_586\n        /* \"#utility.yul\":17900:17905   */\n      dup2\n        /* \"#utility.yul\":17882:17906   */\n      tag_324\n      jump\t// in\n    tag_586:\n        /* \"#utility.yul\":17877:17880   */\n      dup3\n        /* \"#utility.yul\":17870:17907   */\n      mstore\n        /* \"#utility.yul\":17795:17913   */\n      pop\n      pop\n      jump\t// out\n        /* \"#utility.yul\":17919:18141   */\n    tag_67:\n        /* \"#utility.yul\":18012:18016   */\n      0x00\n        /* \"#utility.yul\":18050:18052   */\n      0x20\n        /* \"#utility.yul\":18039:18048   */\n      dup3\n        /* \"#utility.yul\":18035:18053   */\n      add\n        /* \"#utility.yul\":18027:18053   */\n      swap1\n      pop\n        /* \"#utility.yul\":18063:18134   */\n      tag_588\n        /* \"#utility.yul\":18131:18132   */\n      0x00\n        /* \"#utility.yul\":18120:18129   */\n      dup4\n        /* \"#utility.yul\":18116:18133   */\n      add\n        /* \"#utility.yul\":18107:18113   */\n      dup5\n        /* \"#utility.yul\":18063:18134   */\n      tag_366\n      jump\t// in\n    tag_588:\n        /* \"#utility.yul\":17919:18141   */\n      swap3\n      swap2\n      pop\n      pop\n      jump\t// out\n        /* \"#utility.yul\":18147:18263   */\n    tag_367:\n        /* \"#utility.yul\":18217:18238   */\n      tag_590\n        /* \"#utility.yul\":18232:18237   */\n      dup2\n        /* \"#utility.yul\":18217:18238   */\n      tag_334\n      jump\t// in\n    tag_590:\n        /* \"#utility.yul\":18210:18215   */\n      dup2\n        /* \"#utility.yul\":18207:18239   */\n      eq\n        /* \"#utility.yul\":18197:18257   */\n      tag_591\n      jumpi\n        /* \"#utility.yul\":18253:18254   */\n      0x00\n        /* \"#utility.yul\":18250:18251   */\n      dup1\n        /* \"#utility.yul\":18243:18255   */\n      revert\n        /* \"#utility.yul\":18197:18257   */\n    tag_591:\n        /* \"#utility.yul\":18147:18263   */\n      pop\n      jump\t// out\n        /* \"#utility.yul\":18269:18402   */\n    tag_368:\n        /* \"#utility.yul\":18312:18317   */\n      0x00\n        /* \"#utility.yul\":18350:18356   */\n      dup2\n        /* \"#utility.yul\":18337:18357   */\n      calldataload\n        /* \"#utility.yul\":18328:18357   */\n      swap1\n      pop\n        /* \"#utility.yul\":18366:18396   */\n      tag_593\n        /* \"#utility.yul\":18390:18395   */\n      dup2\n        /* \"#utility.yul\":18366:18396   */\n      tag_367\n      jump\t// in\n    tag_593:\n        /* \"#utility.yul\":18269:18402   */\n      swap3\n      swap2\n      pop\n      pop\n      jump\t// out\n        /* \"#utility.yul\":18408:18876   */\n    tag_70:\n        /* \"#utility.yul\":18473:18479   */\n      0x00\n        /* \"#utility.yul\":18481:18487   */\n      dup1\n        /* \"#utility.yul\":18530:18532   */\n      0x40\n        /* \"#utility.yul\":18518:18527   */\n      dup4\n        /* \"#utility.yul\":18509:18516   */\n      dup6\n        /* \"#utility.yul\":18505:18528   */\n      sub\n        /* \"#utility.yul\":18501:18533   */\n      slt\n        /* \"#utility.yul\":18498:18617   */\n      iszero\n      tag_595\n      jumpi\n        /* \"#utility.yul\":18536:18615   */\n      tag_596\n      tag_321\n      jump\t// in\n    tag_596:\n        /* \"#utility.yul\":18498:18617   */\n    tag_595:\n        /* \"#utility.yul\":18656:18657   */\n      0x00\n        /* \"#utility.yul\":18681:18734   */\n      tag_597\n        /* \"#utility.yul\":18726:18733   */\n      dup6\n        /* \"#utility.yul\":18717:18723   */\n      dup3\n        /* \"#utility.yul\":18706:18715   */\n      dup7\n        /* \"#utility.yul\":18702:18724   */\n      add\n        /* \"#utility.yul\":18681:18734   */\n      tag_326\n      jump\t// in\n    tag_597:\n        /* \"#utility.yul\":18671:18734   */\n      swap3\n      pop\n        /* \"#utility.yul\":18627:18744   */\n      pop\n        /* \"#utility.yul\":18783:18785   */\n      0x20\n        /* \"#utility.yul\":18809:18859   */\n      tag_598\n        /* \"#utility.yul\":18851:18858   */\n      dup6\n        /* \"#utility.yul\":18842:18848   */\n      dup3\n        /* \"#utility.yul\":18831:18840   */\n      dup7\n        /* \"#utility.yul\":18827:18849   */\n      add\n        /* \"#utility.yul\":18809:18859   */\n      tag_368\n      jump\t// in\n    tag_598:\n        /* \"#utility.yul\":18799:18859   */\n      swap2\n      pop\n        /* \"#utility.yul\":18754:18869   */\n      pop\n        /* \"#utility.yul\":18408:18876   */\n      swap3\n      pop\n      swap3\n      swap1\n      pop\n      jump\t// out\n        /* \"#utility.yul\":18882:19534   */\n    tag_74:\n        /* \"#utility.yul\":18959:18965   */\n      0x00\n        /* \"#utility.yul\":18967:18973   */\n      dup1\n        /* \"#utility.yul\":19016:19018   */\n      0x40\n        /* \"#utility.yul\":19004:19013   */\n      dup4\n        /* \"#utility.yul\":18995:19002   */\n      dup6\n        /* \"#utility.yul\":18991:19014   */\n      sub\n        /* \"#utility.yul\":18987:19019   */\n      slt\n        /* \"#utility.yul\":18984:19103   */\n      iszero\n      tag_600\n      jumpi\n        /* \"#utility.yul\":19022:19101   */\n      tag_601\n      tag_321\n      jump\t// in\n    tag_601:\n        /* \"#utility.yul\":18984:19103   */\n    tag_600:\n        /* \"#utility.yul\":19142:19143   */\n      0x00\n        /* \"#utility.yul\":19167:19220   */\n      tag_602\n        /* \"#utility.yul\":19212:19219   */\n      dup6\n        /* \"#utility.yul\":19203:19209   */\n      dup3\n        /* \"#utility.yul\":19192:19201   */\n      dup7\n        /* \"#utility.yul\":19188:19210   */\n      add\n        /* \"#utility.yul\":19167:19220   */\n      tag_326\n      jump\t// in\n    tag_602:\n        /* \"#utility.yul\":19157:19220   */\n      swap3\n      pop\n        /* \"#utility.yul\":19113:19230   */\n      pop\n        /* \"#utility.yul\":19297:19299   */\n      0x20\n        /* \"#utility.yul\":19286:19295   */\n      dup4\n        /* \"#utility.yul\":19282:19300   */\n      add\n        /* \"#utility.yul\":19269:19301   */\n      calldataload\n        /* \"#utility.yul\":19328:19346   */\n      0xffffffffffffffff\n        /* \"#utility.yul\":19320:19326   */\n      dup2\n        /* \"#utility.yul\":19317:19347   */\n      gt\n        /* \"#utility.yul\":19314:19431   */\n      iszero\n      tag_603\n      jumpi\n        /* \"#utility.yul\":19350:19429   */\n      tag_604\n      tag_322\n      jump\t// in\n    tag_604:\n        /* \"#utility.yul\":19314:19431   */\n    tag_603:\n        /* \"#utility.yul\":19455:19517   */\n      tag_605\n        /* \"#utility.yul\":19509:19516   */\n      dup6\n        /* \"#utility.yul\":19500:19506   */\n      dup3\n        /* \"#utility.yul\":19489:19498   */\n      dup7\n        /* \"#utility.yul\":19485:19507   */\n      add\n        /* \"#utility.yul\":19455:19517   */\n      tag_355\n      jump\t// in\n    tag_605:\n        /* \"#utility.yul\":19445:19517   */\n      swap2\n      pop\n        /* \"#utility.yul\":19240:19527   */\n      pop\n        /* \"#utility.yul\":18882:19534   */\n      swap3\n      pop\n      swap3\n      swap1\n      pop\n      jump\t// out\n        /* \"#utility.yul\":19540:20014   */\n    tag_78:\n        /* \"#utility.yul\":19608:19614   */\n      0x00\n        /* \"#utility.yul\":19616:19622   */\n      dup1\n        /* \"#utility.yul\":19665:19667   */\n      0x40\n        /* \"#utility.yul\":19653:19662   */\n      dup4\n        /* \"#utility.yul\":19644:19651   */\n      dup6\n        /* \"#utility.yul\":19640:19663   */\n      sub\n        /* \"#utility.yul\":19636:19668   */\n      slt\n        /* \"#utility.yul\":19633:19752   */\n      iszero\n      tag_607\n      jumpi\n        /* \"#utility.yul\":19671:19750   */\n      tag_608\n      tag_321\n      jump\t// in\n    tag_608:\n        /* \"#utility.yul\":19633:19752   */\n    tag_607:\n        /* \"#utility.yul\":19791:19792   */\n      0x00\n        /* \"#utility.yul\":19816:19869   */\n      tag_609\n        /* \"#utility.yul\":19861:19868   */\n      dup6\n        /* \"#utility.yul\":19852:19858   */\n      dup3\n        /* \"#utility.yul\":19841:19850   */\n      dup7\n        /* \"#utility.yul\":19837:19859   */\n      add\n        /* \"#utility.yul\":19816:19869   */\n      tag_326\n      jump\t// in\n    tag_609:\n        /* \"#utility.yul\":19806:19869   */\n      swap3\n      pop\n        /* \"#utility.yul\":19762:19879   */\n      pop\n        /* \"#utility.yul\":19918:19920   */\n      0x20\n        /* \"#utility.yul\":19944:19997   */\n      tag_610\n        /* \"#utility.yul\":19989:19996   */\n      dup6\n        /* \"#utility.yul\":19980:19986   */\n      dup3\n        /* \"#utility.yul\":19969:19978   */\n      dup7\n        /* \"#utility.yul\":19965:19987   */\n      add\n        /* \"#utility.yul\":19944:19997   */\n      tag_326\n      jump\t// in\n    tag_610:\n        /* \"#utility.yul\":19934:19997   */\n      swap2\n      pop\n        /* \"#utility.yul\":19889:20007   */\n      pop\n        /* \"#utility.yul\":19540:20014   */\n      swap3\n      pop\n      swap3\n      swap1\n      pop\n      jump\t// out\n        /* \"#utility.yul\":20020:21109   */\n    tag_83:\n        /* \"#utility.yul\":20124:20130   */\n      0x00\n        /* \"#utility.yul\":20132:20138   */\n      dup1\n        /* \"#utility.yul\":20140:20146   */\n      0x00\n        /* \"#utility.yul\":20148:20154   */\n      dup1\n        /* \"#utility.yul\":20156:20162   */\n      0x00\n        /* \"#utility.yul\":20205:20208   */\n      0xa0\n        /* \"#utility.yul\":20193:20202   */\n      dup7\n        /* \"#utility.yul\":20184:20191   */\n      dup9\n        /* \"#utility.yul\":20180:20203   */\n      sub\n        /* \"#utility.yul\":20176:20209   */\n      slt\n        /* \"#utility.yul\":20173:20293   */\n      iszero\n      tag_612\n      jumpi\n        /* \"#utility.yul\":20212:20291   */\n      tag_613\n      tag_321\n      jump\t// in\n    tag_613:\n        /* \"#utility.yul\":20173:20293   */\n    tag_612:\n        /* \"#utility.yul\":20332:20333   */\n      0x00\n        /* \"#utility.yul\":20357:20410   */\n      tag_614\n        /* \"#utility.yul\":20402:20409   */\n      dup9\n        /* \"#utility.yul\":20393:20399   */\n      dup3\n        /* \"#utility.yul\":20382:20391   */\n      dup10\n        /* \"#utility.yul\":20378:20400   */\n      add\n        /* \"#utility.yul\":20357:20410   */\n      tag_326\n      jump\t// in\n    tag_614:\n        /* \"#utility.yul\":20347:20410   */\n      swap6\n      pop\n        /* \"#utility.yul\":20303:20420   */\n      pop\n        /* \"#utility.yul\":20459:20461   */\n      0x20\n        /* \"#utility.yul\":20485:20538   */\n      tag_615\n        /* \"#utility.yul\":20530:20537   */\n      dup9\n        /* \"#utility.yul\":20521:20527   */\n      dup3\n        /* \"#utility.yul\":20510:20519   */\n      dup10\n        /* \"#utility.yul\":20506:20528   */\n      add\n        /* \"#utility.yul\":20485:20538   */\n      tag_326\n      jump\t// in\n    tag_615:\n        /* \"#utility.yul\":20475:20538   */\n      swap5\n      pop\n        /* \"#utility.yul\":20430:20548   */\n      pop\n        /* \"#utility.yul\":20587:20589   */\n      0x40\n        /* \"#utility.yul\":20613:20666   */\n      tag_616\n        /* \"#utility.yul\":20658:20665   */\n      dup9\n        /* \"#utility.yul\":20649:20655   */\n      dup3\n        /* \"#utility.yul\":20638:20647   */\n      dup10\n        /* \"#utility.yul\":20634:20656   */\n      add\n        /* \"#utility.yul\":20613:20666   */\n      tag_329\n      jump\t// in\n    tag_616:\n        /* \"#utility.yul\":20603:20666   */\n      swap4\n      pop\n        /* \"#utility.yul\":20558:20676   */\n      pop\n        /* \"#utility.yul\":20715:20717   */\n      0x60\n        /* \"#utility.yul\":20741:20794   */\n      tag_617\n        /* \"#utility.yul\":20786:20793   */\n      dup9\n        /* \"#utility.yul\":20777:20783   */\n      dup3\n        /* \"#utility.yul\":20766:20775   */\n      dup10\n        /* \"#utility.yul\":20762:20784   */\n      add\n        /* \"#utility.yul\":20741:20794   */\n      tag_329\n      jump\t// in\n    tag_617:\n        /* \"#utility.yul\":20731:20794   */\n      swap3\n      pop\n        /* \"#utility.yul\":20686:20804   */\n      pop\n        /* \"#utility.yul\":20871:20874   */\n      0x80\n        /* \"#utility.yul\":20860:20869   */\n      dup7\n        /* \"#utility.yul\":20856:20875   */\n      add\n        /* \"#utility.yul\":20843:20876   */\n      calldataload\n        /* \"#utility.yul\":20903:20921   */\n      0xffffffffffffffff\n        /* \"#utility.yul\":20895:20901   */\n      dup2\n        /* \"#utility.yul\":20892:20922   */\n      gt\n        /* \"#utility.yul\":20889:21006   */\n      iszero\n      tag_618\n      jumpi\n        /* \"#utility.yul\":20925:21004   */\n      tag_619\n      tag_322\n      jump\t// in\n    tag_619:\n        /* \"#utility.yul\":20889:21006   */\n    tag_618:\n        /* \"#utility.yul\":21030:21092   */\n      tag_620\n        /* \"#utility.yul\":21084:21091   */\n      dup9\n        /* \"#utility.yul\":21075:21081   */\n      dup3\n        /* \"#utility.yul\":21064:21073   */\n      dup10\n        /* \"#utility.yul\":21060:21082   */\n      add\n        /* \"#utility.yul\":21030:21092   */\n      tag_355\n      jump\t// in\n    tag_620:\n        /* \"#utility.yul\":21020:21092   */\n      swap2\n      pop\n        /* \"#utility.yul\":20814:21102   */\n      pop\n        /* \"#utility.yul\":20020:21109   */\n      swap3\n      swap6\n      pop\n      swap3\n      swap6\n      swap1\n      swap4\n      pop\n      jump\t// out\n        /* \"#utility.yul\":21115:21444   */\n    tag_87:\n        /* \"#utility.yul\":21174:21180   */\n      0x00\n        /* \"#utility.yul\":21223:21225   */\n      0x20\n        /* \"#utility.yul\":21211:21220   */\n      dup3\n        /* \"#utility.yul\":21202:21209   */\n      dup5\n        /* \"#utility.yul\":21198:21221   */\n      sub\n        /* \"#utility.yul\":21194:21226   */\n      slt\n        /* \"#utility.yul\":21191:21310   */\n      iszero\n      tag_622\n      jumpi\n        /* \"#utility.yul\":21229:21308   */\n      tag_623\n      tag_321\n      jump\t// in\n    tag_623:\n        /* \"#utility.yul\":21191:21310   */\n    tag_622:\n        /* \"#utility.yul\":21349:21350   */\n      0x00\n        /* \"#utility.yul\":21374:21427   */\n      tag_624\n        /* \"#utility.yul\":21419:21426   */\n      dup5\n        /* \"#utility.yul\":21410:21416   */\n      dup3\n        /* \"#utility.yul\":21399:21408   */\n      dup6\n        /* \"#utility.yul\":21395:21417   */\n      add\n        /* \"#utility.yul\":21374:21427   */\n      tag_326\n      jump\t// in\n    tag_624:\n        /* \"#utility.yul\":21364:21427   */\n      swap2\n      pop\n        /* \"#utility.yul\":21320:21437   */\n      pop\n        /* \"#utility.yul\":21115:21444   */\n      swap3\n      swap2\n      pop\n      pop\n      jump\t// out\n        /* \"#utility.yul\":21450:22069   */\n    tag_91:\n        /* \"#utility.yul\":21527:21533   */\n      0x00\n        /* \"#utility.yul\":21535:21541   */\n      dup1\n        /* \"#utility.yul\":21543:21549   */\n      0x00\n        /* \"#utility.yul\":21592:21594   */\n      0x60\n        /* \"#utility.yul\":21580:21589   */\n      dup5\n        /* \"#utility.yul\":21571:21578   */\n      dup7\n        /* \"#utility.yul\":21567:21590   */\n      sub\n        /* \"#utility.yul\":21563:21595   */\n      slt\n        /* \"#utility.yul\":21560:21679   */\n      iszero\n      tag_626\n      jumpi\n        /* \"#utility.yul\":21598:21677   */\n      tag_627\n      tag_321\n      jump\t// in\n    tag_627:\n        /* \"#utility.yul\":21560:21679   */\n    tag_626:\n        /* \"#utility.yul\":21718:21719   */\n      0x00\n        /* \"#utility.yul\":21743:21796   */\n      tag_628\n        /* \"#utility.yul\":21788:21795   */\n      dup7\n        /* \"#utility.yul\":21779:21785   */\n      dup3\n        /* \"#utility.yul\":21768:21777   */\n      dup8\n        /* \"#utility.yul\":21764:21786   */\n      add\n        /* \"#utility.yul\":21743:21796   */\n      tag_326\n      jump\t// in\n    tag_628:\n        /* \"#utility.yul\":21733:21796   */\n      swap4\n      pop\n        /* \"#utility.yul\":21689:21806   */\n      pop\n        /* \"#utility.yul\":21845:21847   */\n      0x20\n        /* \"#utility.yul\":21871:21924   */\n      tag_629\n        /* \"#utility.yul\":21916:21923   */\n      dup7\n        /* \"#utility.yul\":21907:21913   */\n      dup3\n        /* \"#utility.yul\":21896:21905   */\n      dup8\n        /* \"#utility.yul\":21892:21914   */\n      add\n        /* \"#utility.yul\":21871:21924   */\n      tag_329\n      jump\t// in\n    tag_629:\n        /* \"#utility.yul\":21861:21924   */\n      swap3\n      pop\n        /* \"#utility.yul\":21816:21934   */\n      pop\n        /* \"#utility.yul\":21973:21975   */\n      0x40\n        /* \"#utility.yul\":21999:22052   */\n      tag_630\n        /* \"#utility.yul\":22044:22051   */\n      dup7\n        /* \"#utility.yul\":22035:22041   */\n      dup3\n        /* \"#utility.yul\":22024:22033   */\n      dup8\n        /* \"#utility.yul\":22020:22042   */\n      add\n        /* \"#utility.yul\":21999:22052   */\n      tag_329\n      jump\t// in\n    tag_630:\n        /* \"#utility.yul\":21989:22052   */\n      swap2\n      pop\n        /* \"#utility.yul\":21944:22062   */\n      pop\n        /* \"#utility.yul\":21450:22069   */\n      swap3\n      pop\n      swap3\n      pop\n      swap3\n      jump\t// out\n        /* \"#utility.yul\":22075:22255   */\n    tag_369:\n        /* \"#utility.yul\":22123:22200   */\n      0x4e487b7100000000000000000000000000000000000000000000000000000000\n        /* \"#utility.yul\":22120:22121   */\n      0x00\n        /* \"#utility.yul\":22113:22201   */\n      mstore\n        /* \"#utility.yul\":22220:22224   */\n      0x22\n        /* \"#utility.yul\":22217:22218   */\n      0x04\n        /* \"#utility.yul\":22210:22225   */\n      mstore\n        /* \"#utility.yul\":22244:22248   */\n      0x24\n        /* \"#utility.yul\":22241:22242   */\n      0x00\n        /* \"#utility.yul\":22234:22249   */\n      revert\n        /* \"#utility.yul\":22261:22581   */\n    tag_107:\n        /* \"#utility.yul\":22305:22311   */\n      0x00\n        /* \"#utility.yul\":22342:22343   */\n      0x02\n        /* \"#utility.yul\":22336:22340   */\n      dup3\n        /* \"#utility.yul\":22332:22344   */\n      div\n        /* \"#utility.yul\":22322:22344   */\n      swap1\n      pop\n        /* \"#utility.yul\":22389:22390   */\n      0x01\n        /* \"#utility.yul\":22383:22387   */\n      dup3\n        /* \"#utility.yul\":22379:22391   */\n      and\n        /* \"#utility.yul\":22410:22428   */\n      dup1\n        /* \"#utility.yul\":22400:22481   */\n      tag_633\n      jumpi\n        /* \"#utility.yul\":22466:22470   */\n      0x7f\n        /* \"#utility.yul\":22458:22464   */\n      dup3\n        /* \"#utility.yul\":22454:22471   */\n      and\n        /* \"#utility.yul\":22444:22471   */\n      swap2\n      pop\n        /* \"#utility.yul\":22400:22481   */\n    tag_633:\n        /* \"#utility.yul\":22528:22530   */\n      0x20\n        /* \"#utility.yul\":22520:22526   */\n      dup3\n        /* \"#utility.yul\":22517:22531   */\n      lt\n        /* \"#utility.yul\":22497:22515   */\n      dup2\n        /* \"#utility.yul\":22494:22532   */\n      sub\n        /* \"#utility.yul\":22491:22575   */\n      tag_634\n      jumpi\n        /* \"#utility.yul\":22547:22565   */\n      tag_635\n      tag_369\n      jump\t// in\n    tag_635:\n        /* \"#utility.yul\":22491:22575   */\n    tag_634:\n        /* \"#utility.yul\":22312:22581   */\n      pop\n        /* \"#utility.yul\":22261:22581   */\n      swap2\n      swap1\n      pop\n      jump\t// out\n        /* \"#utility.yul\":22587:22919   */\n    tag_119:\n        /* \"#utility.yul\":22708:22712   */\n      0x00\n        /* \"#utility.yul\":22746:22748   */\n      0x40\n        /* \"#utility.yul\":22735:22744   */\n      dup3\n        /* \"#utility.yul\":22731:22749   */\n      add\n        /* \"#utility.yul\":22723:22749   */\n      swap1\n      pop\n        /* \"#utility.yul\":22759:22830   */\n      tag_637\n        /* \"#utility.yul\":22827:22828   */\n      0x00\n        /* \"#utility.yul\":22816:22825   */\n      dup4\n        /* \"#utility.yul\":22812:22829   */\n      add\n        /* \"#utility.yul\":22803:22809   */\n      dup6\n        /* \"#utility.yul\":22759:22830   */\n      tag_366\n      jump\t// in\n    tag_637:\n        /* \"#utility.yul\":22840:22912   */\n      tag_638\n        /* \"#utility.yul\":22908:22910   */\n      0x20\n        /* \"#utility.yul\":22897:22906   */\n      dup4\n        /* \"#utility.yul\":22893:22911   */\n      add\n        /* \"#utility.yul\":22884:22890   */\n      dup5\n        /* \"#utility.yul\":22840:22912   */\n      tag_366\n      jump\t// in\n    tag_638:\n        /* \"#utility.yul\":22587:22919   */\n      swap4\n      swap3\n      pop\n      pop\n      pop\n      jump\t// out\n        /* \"#utility.yul\":22925:23257   */\n    tag_132:\n        /* \"#utility.yul\":23046:23050   */\n      0x00\n        /* \"#utility.yul\":23084:23086   */\n      0x40\n        /* \"#utility.yul\":23073:23082   */\n      dup3\n        /* \"#utility.yul\":23069:23087   */\n      add\n        /* \"#utility.yul\":23061:23087   */\n      swap1\n      pop\n        /* \"#utility.yul\":23097:23168   */\n      tag_640\n        /* \"#utility.yul\":23165:23166   */\n      0x00\n        /* \"#utility.yul\":23154:23163   */\n      dup4\n        /* \"#utility.yul\":23150:23167   */\n      add\n        /* \"#utility.yul\":23141:23147   */\n      dup6\n        /* \"#utility.yul\":23097:23168   */\n      tag_330\n      jump\t// in\n    tag_640:\n        /* \"#utility.yul\":23178:23250   */\n      tag_641\n        /* \"#utility.yul\":23246:23248   */\n      0x20\n        /* \"#utility.yul\":23235:23244   */\n      dup4\n        /* \"#utility.yul\":23231:23249   */\n      add\n        /* \"#utility.yul\":23222:23228   */\n      dup5\n        /* \"#utility.yul\":23178:23250   */\n      tag_330\n      jump\t// in\n    tag_641:\n        /* \"#utility.yul\":22925:23257   */\n      swap4\n      swap3\n      pop\n      pop\n      pop\n      jump\t// out\n        /* \"#utility.yul\":23263:23443   */\n    tag_147:\n        /* \"#utility.yul\":23311:23388   */\n      0x4e487b7100000000000000000000000000000000000000000000000000000000\n        /* \"#utility.yul\":23308:23309   */\n      0x00\n        /* \"#utility.yul\":23301:23389   */\n      mstore\n        /* \"#utility.yul\":23408:23412   */\n      0x32\n        /* \"#utility.yul\":23405:23406   */\n      0x04\n        /* \"#utility.yul\":23398:23413   */\n      mstore\n        /* \"#utility.yul\":23432:23436   */\n      0x24\n        /* \"#utility.yul\":23429:23430   */\n      0x00\n        /* \"#utility.yul\":23422:23437   */\n      revert\n        /* \"#utility.yul\":23449:23629   */\n    tag_370:\n        /* \"#utility.yul\":23497:23574   */\n      0x4e487b7100000000000000000000000000000000000000000000000000000000\n        /* \"#utility.yul\":23494:23495   */\n      0x00\n        /* \"#utility.yul\":23487:23575   */\n      mstore\n        /* \"#utility.yul\":23594:23598   */\n      0x11\n        /* \"#utility.yul\":23591:23592   */\n      0x04\n        /* \"#utility.yul\":23584:23599   */\n      mstore\n        /* \"#utility.yul\":23618:23622   */\n      0x24\n        /* \"#utility.yul\":23615:23616   */\n      0x00\n        /* \"#utility.yul\":23608:23623   */\n      revert\n        /* \"#utility.yul\":23635:23826   */\n    tag_174:\n        /* \"#utility.yul\":23675:23678   */\n      0x00\n        /* \"#utility.yul\":23694:23714   */\n      tag_645\n        /* \"#utility.yul\":23712:23713   */\n      dup3\n        /* \"#utility.yul\":23694:23714   */\n      tag_327\n      jump\t// in\n    tag_645:\n        /* \"#utility.yul\":23689:23714   */\n      swap2\n      pop\n        /* \"#utility.yul\":23728:23748   */\n      tag_646\n        /* \"#utility.yul\":23746:23747   */\n      dup4\n        /* \"#utility.yul\":23728:23748   */\n      tag_327\n      jump\t// in\n    tag_646:\n        /* \"#utility.yul\":23723:23748   */\n      swap3\n      pop\n        /* \"#utility.yul\":23771:23772   */\n      dup3\n        /* \"#utility.yul\":23768:23769   */\n      dup3\n        /* \"#utility.yul\":23764:23773   */\n      add\n        /* \"#utility.yul\":23757:23773   */\n      swap1\n      pop\n        /* \"#utility.yul\":23792:23795   */\n      dup1\n        /* \"#utility.yul\":23789:23790   */\n      dup3\n        /* \"#utility.yul\":23786:23796   */\n      gt\n        /* \"#utility.yul\":23783:23819   */\n      iszero\n      tag_647\n      jumpi\n        /* \"#utility.yul\":23799:23817   */\n      tag_648\n      tag_370\n      jump\t// in\n    tag_648:\n        /* \"#utility.yul\":23783:23819   */\n    tag_647:\n        /* \"#utility.yul\":23635:23826   */\n      swap3\n      swap2\n      pop\n      pop\n      jump\t// out\n        /* \"#utility.yul\":23832:23973   */\n    tag_371:\n        /* \"#utility.yul\":23881:23885   */\n      0x00\n        /* \"#utility.yul\":23904:23907   */\n      dup2\n        /* \"#utility.yul\":23896:23907   */\n      swap1\n      pop\n        /* \"#utility.yul\":23927:23930   */\n      dup2\n        /* \"#utility.yul\":23924:23925   */\n      0x00\n        /* \"#utility.yul\":23917:23931   */\n      mstore\n        /* \"#utility.yul\":23961:23965   */\n      0x20\n        /* \"#utility.yul\":23958:23959   */\n      0x00\n        /* \"#utility.yul\":23948:23966   */\n      keccak256\n        /* \"#utility.yul\":23940:23966   */\n      swap1\n      pop\n        /* \"#utility.yul\":23832:23973   */\n      swap2\n      swap1\n      pop\n      jump\t// out\n        /* \"#utility.yul\":23979:24072   */\n    tag_372:\n        /* \"#utility.yul\":24016:24022   */\n      0x00\n        /* \"#utility.yul\":24063:24065   */\n      0x20\n        /* \"#utility.yul\":24058:24060   */\n      0x1f\n        /* \"#utility.yul\":24051:24056   */\n      dup4\n        /* \"#utility.yul\":24047:24061   */\n      add\n        /* \"#utility.yul\":24043:24066   */\n      div\n        /* \"#utility.yul\":24033:24066   */\n      swap1\n      pop\n        /* \"#utility.yul\":23979:24072   */\n      swap2\n      swap1\n      pop\n      jump\t// out\n        /* \"#utility.yul\":24078:24185   */\n    tag_373:\n        /* \"#utility.yul\":24122:24130   */\n      0x00\n        /* \"#utility.yul\":24172:24177   */\n      dup3\n        /* \"#utility.yul\":24166:24170   */\n      dup3\n        /* \"#utility.yul\":24162:24178   */\n      shl\n        /* \"#utility.yul\":24141:24178   */\n      swap1\n      pop\n        /* \"#utility.yul\":24078:24185   */\n      swap3\n      swap2\n      pop\n      pop\n      jump\t// out\n        /* \"#utility.yul\":24191:24584   */\n    tag_374:\n        /* \"#utility.yul\":24260:24266   */\n      0x00\n        /* \"#utility.yul\":24310:24311   */\n      0x08\n        /* \"#utility.yul\":24298:24308   */\n      dup4\n        /* \"#utility.yul\":24294:24312   */\n      mul\n        /* \"#utility.yul\":24333:24430   */\n      tag_653\n        /* \"#utility.yul\":24363:24429   */\n      0xffffffffffffffffffffffffffffffffffffffffffffffffffffffffffffffff\n        /* \"#utility.yul\":24352:24361   */\n      dup3\n        /* \"#utility.yul\":24333:24430   */\n      tag_373\n      jump\t// in\n    tag_653:\n        /* \"#utility.yul\":24451:24490   */\n      tag_654\n        /* \"#utility.yul\":24481:24489   */\n      dup7\n        /* \"#utility.yul\":24470:24479   */\n      dup4\n        /* \"#utility.yul\":24451:24490   */\n      tag_373\n      jump\t// in\n    tag_654:\n        /* \"#utility.yul\":24439:24490   */\n      swap6\n      pop\n        /* \"#utility.yul\":24523:24527   */\n      dup1\n        /* \"#utility.yul\":24519:24528   */\n      not\n        /* \"#utility.yul\":24512:24517   */\n      dup5\n        /* \"#utility.yul\":24508:24529   */\n      and\n        /* \"#utility.yul\":24499:24529   */\n      swap4\n      pop\n        /* \"#utility.yul\":24572:24576   */\n      dup1\n        /* \"#utility.yul\":24562:24570   */\n      dup7\n        /* \"#utility.yul\":24558:24577   */\n      and\n        /* \"#utility.yul\":24551:24556   */\n      dup5\n        /* \"#utility.yul\":24548:24578   */\n      or\n        /* \"#utility.yul\":24538:24578   */\n      swap3\n      pop\n        /* \"#utility.yul\":24267:24584   */\n      pop\n      pop\n        /* \"#utility.yul\":24191:24584   */\n      swap4\n      swap3\n      pop\n      pop\n      pop\n      jump\t// out\n        /* \"#utility.yul\":24590:24650   */\n    tag_375:\n        /* \"#utility.yul\":24618:24621   */\n      0x00\n        /* \"#utility.yul\":24639:24644   */\n      dup2\n        /* \"#utility.yul\":24632:24644   */\n      swap1\n      pop\n        /* \"#utility.yul\":24590:24650   */\n      swap2\n      swap1\n      pop\n      jump\t// out\n        /* \"#utility.yul\":24656:24798   */\n    tag_376:\n        /* \"#utility.yul\":24706:24715   */\n      0x00\n        /* \"#utility.yul\":24739:24792   */\n      tag_657\n        /* \"#utility.yul\":24757:24791   */\n      tag_658\n        /* \"#utility.yul\":24766:24790   */\n      tag_659\n        /* \"#utility.yul\":24784:24789   */\n      dup5\n        /* \"#utility.yul\":24766:24790   */\n      tag_327\n      jump\t// in\n    tag_659:\n        /* \"#utility.yul\":24757:24791   */\n      tag_375\n      jump\t// in\n    tag_658:\n        /* \"#utility.yul\":24739:24792   */\n      tag_327\n      jump\t// in\n    tag_657:\n        /* \"#utility.yul\":24726:24792   */\n      swap1\n      pop\n        /* \"#utility.yul\":24656:24798   */\n      swap2\n      swap1\n      pop\n      jump\t// out\n        /* \"#utility.yul\":24804:24879   */\n    tag_377:\n        /* \"#utility.yul\":24847:24850   */\n      0x00\n        /* \"#utility.yul\":24868:24873   */\n      dup2\n        /* \"#utility.yul\":24861:24873   */\n      swap1\n      pop\n        /* \"#utility.yul\":24804:24879   */\n      swap2\n      swap1\n      pop\n      jump\t// out\n        /* \"#utility.yul\":24885:25154   */\n    tag_378:\n        /* \"#utility.yul\":24995:25034   */\n      tag_662\n        /* \"#utility.yul\":25026:25033   */\n      dup4\n        /* \"#utility.yul\":24995:25034   */\n      tag_376\n      jump\t// in\n    tag_662:\n        /* \"#utility.yul\":25056:25147   */\n      tag_663\n        /* \"#utility.yul\":25105:25146   */\n      tag_664\n        /* \"#utility.yul\":25129:25145   */\n      dup3\n        /* \"#utility.yul\":25105:25146   */\n      tag_377\n      jump\t// in\n    tag_664:\n        /* \"#utility.yul\":25097:25103   */\n      dup5\n        /* \"#utility.yul\":25090:25094   */\n      dup5\n        /* \"#utility.yul\":25084:25095   */\n      sload\n        /* \"#utility.yul\":25056:25147   */\n      tag_374\n      jump\t// in\n    tag_663:\n        /* \"#utility.yul\":25050:25054   */\n      dup3\n        /* \"#utility.yul\":25043:25148   */\n      sstore\n        /* \"#utility.yul\":24961:25154   */\n      pop\n        /* \"#utility.yul\":24885:25154   */\n      pop\n      pop\n      pop\n      jump\t// out\n        /* \"#utility.yul\":25160:25233   */\n    tag_379:\n        /* \"#utility.yul\":25205:25208   */\n      0x00\n        /* \"#utility.yul\":25160:25233   */\n      swap1\n      jump\t// out\n        /* \"#utility.yul\":25239:25428   */\n    tag_380:\n        /* \"#utility.yul\":25316:25348   */\n      tag_667\n      tag_379\n      jump\t// in\n    tag_667:\n        /* \"#utility.yul\":25357:25422   */\n      tag_668\n        /* \"#utility.yul\":25415:25421   */\n      dup2\n        /* \"#utility.yul\":25407:25413   */\n      dup5\n        /* \"#utility.yul\":25401:25405   */\n      dup5\n        /* \"#utility.yul\":25357:25422   */\n      tag_378\n      jump\t// in\n    tag_668:\n        /* \"#utility.yul\":25292:25428   */\n      pop\n        /* \"#utility.yul\":25239:25428   */\n      pop\n      pop\n      jump\t// out\n        /* \"#utility.yul\":25434:25620   */\n    tag_381:\n        /* \"#utility.yul\":25494:25614   */\n    tag_670:\n        /* \"#utility.yul\":25511:25514   */\n      dup2\n        /* \"#utility.yul\":25504:25509   */\n      dup2\n        /* \"#utility.yul\":25501:25515   */\n      lt\n        /* \"#utility.yul\":25494:25614   */\n      iszero\n      tag_672\n      jumpi\n        /* \"#utility.yul\":25565:25604   */\n      tag_673\n        /* \"#utility.yul\":25602:25603   */\n      0x00\n        /* \"#utility.yul\":25595:25600   */\n      dup3\n        /* \"#utility.yul\":25565:25604   */\n      tag_380\n      jump\t// in\n    tag_673:\n        /* \"#utility.yul\":25538:25539   */\n      0x01\n        /* \"#utility.yul\":25531:25536   */\n      dup2\n        /* \"#utility.yul\":25527:25540   */\n      add\n        /* \"#utility.yul\":25518:25540   */\n      swap1\n      pop\n        /* \"#utility.yul\":25494:25614   */\n      jump(tag_670)\n    tag_672:\n        /* \"#utility.yul\":25434:25620   */\n      pop\n      pop\n      jump\t// out\n        /* \"#utility.yul\":25626:26169   */\n    tag_382:\n        /* \"#utility.yul\":25727:25729   */\n      0x1f\n        /* \"#utility.yul\":25722:25725   */\n      dup3\n        /* \"#utility.yul\":25719:25730   */\n      gt\n        /* \"#utility.yul\":25716:26162   */\n      iszero\n      tag_675\n      jumpi\n        /* \"#utility.yul\":25761:25799   */\n      tag_676\n        /* \"#utility.yul\":25793:25798   */\n      dup2\n        /* \"#utility.yul\":25761:25799   */\n      tag_371\n      jump\t// in\n    tag_676:\n        /* \"#utility.yul\":25845:25874   */\n      tag_677\n        /* \"#utility.yul\":25863:25873   */\n      dup5\n        /* \"#utility.yul\":25845:25874   */\n      tag_372\n      jump\t// in\n    tag_677:\n        /* \"#utility.yul\":25835:25843   */\n      dup2\n        /* \"#utility.yul\":25831:25875   */\n      add\n        /* \"#utility.yul\":26028:26030   */\n      0x20\n        /* \"#utility.yul\":26016:26026   */\n      dup6\n        /* \"#utility.yul\":26013:26031   */\n      lt\n        /* \"#utility.yul\":26010:26059   */\n      iszero\n      tag_678\n      jumpi\n        /* \"#utility.yul\":26049:26057   */\n      dup2\n        /* \"#utility.yul\":26034:26057   */\n      swap1\n      pop\n        /* \"#utility.yul\":26010:26059   */\n    tag_678:\n        /* \"#utility.yul\":26072:26152   */\n      tag_679\n        /* \"#utility.yul\":26128:26150   */\n      tag_680\n        /* \"#utility.yul\":26146:26149   */\n      dup6\n        /* \"#utility.yul\":26128:26150   */\n      tag_372\n      jump\t// in\n    tag_680:\n        /* \"#utility.yul\":26118:26126   */\n      dup4\n        /* \"#utility.yul\":26114:26151   */\n      add\n        /* \"#utility.yul\":26101:26112   */\n      dup3\n        /* \"#utility.yul\":26072:26152   */\n      tag_381\n      jump\t// in\n    tag_679:\n        /* \"#utility.yul\":25731:26162   */\n      pop\n      pop\n        /* \"#utility.yul\":25716:26162   */\n    tag_675:\n        /* \"#utility.yul\":25626:26169   */\n      pop\n      pop\n      pop\n      jump\t// out\n        /* \"#utility.yul\":26175:26292   */\n    tag_383:\n        /* \"#utility.yul\":26229:26237   */\n      0x00\n        /* \"#utility.yul\":26279:26284   */\n      dup3\n        /* \"#utility.yul\":26273:26277   */\n      dup3\n        /* \"#utility.yul\":26269:26285   */\n      shr\n        /* \"#utility.yul\":26248:26285   */\n      swap1\n      pop\n        /* \"#utility.yul\":26175:26292   */\n      swap3\n      swap2\n      pop\n      pop\n      jump\t// out\n        /* \"#utility.yul\":26298:26467   */\n    tag_384:\n        /* \"#utility.yul\":26342:26348   */\n      0x00\n        /* \"#utility.yul\":26375:26426   */\n      tag_683\n        /* \"#utility.yul\":26423:26424   */\n      0x00\n        /* \"#utility.yul\":26419:26425   */\n      not\n        /* \"#utility.yul\":26411:26416   */\n      dup5\n        /* \"#utility.yul\":26408:26409   */\n      0x08\n        /* \"#utility.yul\":26404:26417   */\n      mul\n        /* \"#utility.yul\":26375:26426   */\n      tag_383\n      jump\t// in\n    tag_683:\n        /* \"#utility.yul\":26371:26427   */\n      not\n        /* \"#utility.yul\":26456:26460   */\n      dup1\n        /* \"#utility.yul\":26450:26454   */\n      dup4\n        /* \"#utility.yul\":26446:26461   */\n      and\n        /* \"#utility.yul\":26436:26461   */\n      swap2\n      pop\n        /* \"#utility.yul\":26349:26467   */\n      pop\n        /* \"#utility.yul\":26298:26467   */\n      swap3\n      swap2\n      pop\n      pop\n      jump\t// out\n        /* \"#utility.yul\":26472:26767   */\n    tag_385:\n        /* \"#utility.yul\":26548:26552   */\n      0x00\n        /* \"#utility.yul\":26694:26723   */\n      tag_685\n        /* \"#utility.yul\":26719:26722   */\n      dup4\n        /* \"#utility.yul\":26713:26717   */\n      dup4\n        /* \"#utility.yul\":26694:26723   */\n      tag_384\n      jump\t// in\n    tag_685:\n        /* \"#utility.yul\":26686:26723   */\n      swap2\n      pop\n        /* \"#utility.yul\":26756:26759   */\n      dup3\n        /* \"#utility.yul\":26753:26754   */\n      0x02\n        /* \"#utility.yul\":26749:26760   */\n      mul\n        /* \"#utility.yul\":26743:26747   */\n      dup3\n        /* \"#utility.yul\":26740:26761   */\n      or\n        /* \"#utility.yul\":26732:26761   */\n      swap1\n      pop\n        /* \"#utility.yul\":26472:26767   */\n      swap3\n      swap2\n      pop\n      pop\n      jump\t// out\n        /* \"#utility.yul\":26772:28167   */\n    tag_209:\n        /* \"#utility.yul\":26889:26926   */\n      tag_687\n        /* \"#utility.yul\":26922:26925   */\n      dup3\n        /* \"#utility.yul\":26889:26926   */\n      tag_345\n      jump\t// in\n    tag_687:\n        /* \"#utility.yul\":26991:27009   */\n      0xffffffffffffffff\n        /* \"#utility.yul\":26983:26989   */\n      dup2\n        /* \"#utility.yul\":26980:27010   */\n      gt\n        /* \"#utility.yul\":26977:27033   */\n      iszero\n      tag_688\n      jumpi\n        /* \"#utility.yul\":27013:27031   */\n      tag_689\n      tag_135\n      jump\t// in\n    tag_689:\n        /* \"#utility.yul\":26977:27033   */\n    tag_688:\n        /* \"#utility.yul\":27057:27095   */\n      tag_690\n        /* \"#utility.yul\":27089:27093   */\n      dup3\n        /* \"#utility.yul\":27083:27094   */\n      sload\n        /* \"#utility.yul\":27057:27095   */\n      tag_107\n      jump\t// in\n    tag_690:\n        /* \"#utility.yul\":27142:27209   */\n      tag_691\n        /* \"#utility.yul\":27202:27208   */\n      dup3\n        /* \"#utility.yul\":27194:27200   */\n      dup3\n        /* \"#utility.yul\":27188:27192   */\n      dup6\n        /* \"#utility.yul\":27142:27209   */\n      tag_382\n      jump\t// in\n    tag_691:\n        /* \"#utility.yul\":27236:27237   */\n      0x00\n        /* \"#utility.yul\":27260:27264   */\n      0x20\n        /* \"#utility.yul\":27247:27264   */\n      swap1\n      pop\n        /* \"#utility.yul\":27292:27294   */\n      0x1f\n        /* \"#utility.yul\":27284:27290   */\n      dup4\n        /* \"#utility.yul\":27281:27295   */\n      gt\n        /* \"#utility.yul\":27309:27310   */\n      0x01\n        /* \"#utility.yul\":27304:27922   */\n      dup2\n      eq\n      tag_693\n      jumpi\n        /* \"#utility.yul\":27966:27967   */\n      0x00\n        /* \"#utility.yul\":27983:27989   */\n      dup5\n        /* \"#utility.yul\":27980:28057   */\n      iszero\n      tag_694\n      jumpi\n        /* \"#utility.yul\":28032:28041   */\n      dup3\n        /* \"#utility.yul\":28027:28030   */\n      dup8\n        /* \"#utility.yul\":28023:28042   */\n      add\n        /* \"#utility.yul\":28017:28043   */\n      mload\n        /* \"#utility.yul\":28008:28043   */\n      swap1\n      pop\n        /* \"#utility.yul\":27980:28057   */\n    tag_694:\n        /* \"#utility.yul\":28083:28150   */\n      tag_695\n        /* \"#utility.yul\":28143:28149   */\n      dup6\n        /* \"#utility.yul\":28136:28141   */\n      dup3\n        /* \"#utility.yul\":28083:28150   */\n      tag_385\n      jump\t// in\n    tag_695:\n        /* \"#utility.yul\":28077:28081   */\n      dup7\n        /* \"#utility.yul\":28070:28151   */\n      sstore\n        /* \"#utility.yul\":27939:28161   */\n      pop\n        /* \"#utility.yul\":27274:28161   */\n      jump(tag_692)\n        /* \"#utility.yul\":27304:27922   */\n    tag_693:\n        /* \"#utility.yul\":27356:27360   */\n      0x1f\n        /* \"#utility.yul\":27352:27361   */\n      not\n        /* \"#utility.yul\":27344:27350   */\n      dup5\n        /* \"#utility.yul\":27340:27362   */\n      and\n        /* \"#utility.yul\":27390:27427   */\n      tag_696\n        /* \"#utility.yul\":27422:27426   */\n      dup7\n        /* \"#utility.yul\":27390:27427   */\n      tag_371\n      jump\t// in\n    tag_696:\n        /* \"#utility.yul\":27449:27450   */\n      0x00\n        /* \"#utility.yul\":27463:27671   */\n    tag_697:\n        /* \"#utility.yul\":27477:27484   */\n      dup3\n        /* \"#utility.yul\":27474:27475   */\n      dup2\n        /* \"#utility.yul\":27471:27485   */\n      lt\n        /* \"#utility.yul\":27463:27671   */\n      iszero\n      tag_699\n      jumpi\n        /* \"#utility.yul\":27556:27565   */\n      dup5\n        /* \"#utility.yul\":27551:27554   */\n      dup10\n        /* \"#utility.yul\":27547:27566   */\n      add\n        /* \"#utility.yul\":27541:27567   */\n      mload\n        /* \"#utility.yul\":27533:27539   */\n      dup3\n        /* \"#utility.yul\":27526:27568   */\n      sstore\n        /* \"#utility.yul\":27607:27608   */\n      0x01\n        /* \"#utility.yul\":27599:27605   */\n      dup3\n        /* \"#utility.yul\":27595:27609   */\n      add\n        /* \"#utility.yul\":27585:27609   */\n      swap2\n      pop\n        /* \"#utility.yul\":27654:27656   */\n      0x20\n        /* \"#utility.yul\":27643:27652   */\n      dup6\n        /* \"#utility.yul\":27639:27657   */\n      add\n        /* \"#utility.yul\":27626:27657   */\n      swap5\n      pop\n        /* \"#utility.yul\":27500:27504   */\n      0x20\n        /* \"#utility.yul\":27497:27498   */\n      dup2\n        /* \"#utility.yul\":27493:27505   */\n      add\n        /* \"#utility.yul\":27488:27505   */\n      swap1\n      pop\n        /* \"#utility.yul\":27463:27671   */\n      jump(tag_697)\n    tag_699:\n        /* \"#utility.yul\":27699:27705   */\n      dup7\n        /* \"#utility.yul\":27690:27697   */\n      dup4\n        /* \"#utility.yul\":27687:27706   */\n      lt\n        /* \"#utility.yul\":27684:27863   */\n      iszero\n      tag_700\n      jumpi\n        /* \"#utility.yul\":27757:27766   */\n      dup5\n        /* \"#utility.yul\":27752:27755   */\n      dup10\n        /* \"#utility.yul\":27748:27767   */\n      add\n        /* \"#utility.yul\":27742:27768   */\n      mload\n        /* \"#utility.yul\":27800:27848   */\n      tag_701\n        /* \"#utility.yul\":27842:27846   */\n      0x1f\n        /* \"#utility.yul\":27834:27840   */\n      dup10\n        /* \"#utility.yul\":27830:27847   */\n      and\n        /* \"#utility.yul\":27819:27828   */\n      dup3\n        /* \"#utility.yul\":27800:27848   */\n      tag_384\n      jump\t// in\n    tag_701:\n        /* \"#utility.yul\":27792:27798   */\n      dup4\n        /* \"#utility.yul\":27785:27849   */\n      sstore\n        /* \"#utility.yul\":27707:27863   */\n      pop\n        /* \"#utility.yul\":27684:27863   */\n    tag_700:\n        /* \"#utility.yul\":27909:27910   */\n      0x01\n        /* \"#utility.yul\":27905:27906   */\n      0x02\n        /* \"#utility.yul\":27897:27903   */\n      dup9\n        /* \"#utility.yul\":27893:27907   */\n      mul\n        /* \"#utility.yul\":27889:27911   */\n      add\n        /* \"#utility.yul\":27883:27887   */\n      dup9\n        /* \"#utility.yul\":27876:27912   */\n      sstore\n        /* \"#utility.yul\":27311:27922   */\n      pop\n      pop\n      pop\n        /* \"#utility.yul\":27274:28161   */\n    tag_692:\n      pop\n        /* \"#utility.yul\":26864:28167   */\n      pop\n      pop\n      pop\n        /* \"#utility.yul\":26772:28167   */\n      pop\n      pop\n      jump\t// out\n        /* \"#utility.yul\":28173:28726   */\n    tag_273:\n        /* \"#utility.yul\":28350:28354   */\n      0x00\n        /* \"#utility.yul\":28388:28391   */\n      0x80\n        /* \"#utility.yul\":28377:28386   */\n      dup3\n        /* \"#utility.yul\":28373:28392   */\n      add\n        /* \"#utility.yul\":28365:28392   */\n      swap1\n      pop\n        /* \"#utility.yul\":28402:28473   */\n      tag_703\n        /* \"#utility.yul\":28470:28471   */\n      0x00\n        /* \"#utility.yul\":28459:28468   */\n      dup4\n        /* \"#utility.yul\":28455:28472   */\n      add\n        /* \"#utility.yul\":28446:28452   */\n      dup8\n        /* \"#utility.yul\":28402:28473   */\n      tag_366\n      jump\t// in\n    tag_703:\n        /* \"#utility.yul\":28483:28555   */\n      tag_704\n        /* \"#utility.yul\":28551:28553   */\n      0x20\n        /* \"#utility.yul\":28540:28549   */\n      dup4\n        /* \"#utility.yul\":28536:28554   */\n      add\n        /* \"#utility.yul\":28527:28533   */\n      dup7\n        /* \"#utility.yul\":28483:28555   */\n      tag_330\n      jump\t// in\n    tag_704:\n        /* \"#utility.yul\":28565:28637   */\n      tag_705\n        /* \"#utility.yul\":28633:28635   */\n      0x40\n        /* \"#utility.yul\":28622:28631   */\n      dup4\n        /* \"#utility.yul\":28618:28636   */\n      add\n        /* \"#utility.yul\":28609:28615   */\n      dup6\n        /* \"#utility.yul\":28565:28637   */\n      tag_330\n      jump\t// in\n    tag_705:\n        /* \"#utility.yul\":28647:28719   */\n      tag_706\n        /* \"#utility.yul\":28715:28717   */\n      0x60\n        /* \"#utility.yul\":28704:28713   */\n      dup4\n        /* \"#utility.yul\":28700:28718   */\n      add\n        /* \"#utility.yul\":28691:28697   */\n      dup5\n        /* \"#utility.yul\":28647:28719   */\n      tag_330\n      jump\t// in\n    tag_706:\n        /* \"#utility.yul\":28173:28726   */\n      swap6\n      swap5\n      pop\n      pop\n      pop\n      pop\n      pop\n      jump\t// out\n        /* \"#utility.yul\":28732:29366   */\n    tag_282:\n        /* \"#utility.yul\":28953:28957   */\n      0x00\n        /* \"#utility.yul\":28991:28993   */\n      0x40\n        /* \"#utility.yul\":28980:28989   */\n      dup3\n        /* \"#utility.yul\":28976:28994   */\n      add\n        /* \"#utility.yul\":28968:28994   */\n      swap1\n      pop\n        /* \"#utility.yul\":29040:29049   */\n      dup2\n        /* \"#utility.yul\":29034:29038   */\n      dup2\n        /* \"#utility.yul\":29030:29050   */\n      sub\n        /* \"#utility.yul\":29026:29027   */\n      0x00\n        /* \"#utility.yul\":29015:29024   */\n      dup4\n        /* \"#utility.yul\":29011:29028   */\n      add\n        /* \"#utility.yul\":29004:29051   */\n      mstore\n        /* \"#utility.yul\":29068:29176   */\n      tag_708\n        /* \"#utility.yul\":29171:29175   */\n      dup2\n        /* \"#utility.yul\":29162:29168   */\n      dup6\n        /* \"#utility.yul\":29068:29176   */\n      tag_365\n      jump\t// in\n    tag_708:\n        /* \"#utility.yul\":29060:29176   */\n      swap1\n      pop\n        /* \"#utility.yul\":29223:29232   */\n      dup2\n        /* \"#utility.yul\":29217:29221   */\n      dup2\n        /* \"#utility.yul\":29213:29233   */\n      sub\n        /* \"#utility.yul\":29208:29210   */\n      0x20\n        /* \"#utility.yul\":29197:29206   */\n      dup4\n        /* \"#utility.yul\":29193:29211   */\n      add\n        /* \"#utility.yul\":29186:29234   */\n      mstore\n        /* \"#utility.yul\":29251:29359   */\n      tag_709\n        /* \"#utility.yul\":29354:29358   */\n      dup2\n        /* \"#utility.yul\":29345:29351   */\n      dup5\n        /* \"#utility.yul\":29251:29359   */\n      tag_365\n      jump\t// in\n    tag_709:\n        /* \"#utility.yul\":29243:29359   */\n      swap1\n      pop\n        /* \"#utility.yul\":28732:29366   */\n      swap4\n      swap3\n      pop\n      pop\n      pop\n      jump\t// out\n        /* \"#utility.yul\":29372:29470   */\n    tag_386:\n        /* \"#utility.yul\":29423:29429   */\n      0x00\n        /* \"#utility.yul\":29457:29462   */\n      dup2\n        /* \"#utility.yul\":29451:29463   */\n      mload\n        /* \"#utility.yul\":29441:29463   */\n      swap1\n      pop\n        /* \"#utility.yul\":29372:29470   */\n      swap2\n      swap1\n      pop\n      jump\t// out\n        /* \"#utility.yul\":29476:29644   */\n    tag_387:\n        /* \"#utility.yul\":29559:29570   */\n      0x00\n        /* \"#utility.yul\":29593:29599   */\n      dup3\n        /* \"#utility.yul\":29588:29591   */\n      dup3\n        /* \"#utility.yul\":29581:29600   */\n      mstore\n        /* \"#utility.yul\":29633:29637   */\n      0x20\n        /* \"#utility.yul\":29628:29631   */\n      dup3\n        /* \"#utility.yul\":29624:29638   */\n      add\n        /* \"#utility.yul\":29609:29638   */\n      swap1\n      pop\n        /* \"#utility.yul\":29476:29644   */\n      swap3\n      swap2\n      pop\n      pop\n      jump\t// out\n        /* \"#utility.yul\":29650:30023   */\n    tag_388:\n        /* \"#utility.yul\":29736:29739   */\n      0x00\n        /* \"#utility.yul\":29764:29802   */\n      tag_713\n        /* \"#utility.yul\":29796:29801   */\n      dup3\n        /* \"#utility.yul\":29764:29802   */\n      tag_386\n      jump\t// in\n    tag_713:\n        /* \"#utility.yul\":29818:29888   */\n      tag_714\n        /* \"#utility.yul\":29881:29887   */\n      dup2\n        /* \"#utility.yul\":29876:29879   */\n      dup6\n        /* \"#utility.yul\":29818:29888   */\n      tag_387\n      jump\t// in\n    tag_714:\n        /* \"#utility.yul\":29811:29888   */\n      swap4\n      pop\n        /* \"#utility.yul\":29897:29962   */\n      tag_715\n        /* \"#utility.yul\":29955:29961   */\n      dup2\n        /* \"#utility.yul\":29950:29953   */\n      dup6\n        /* \"#utility.yul\":29943:29947   */\n      0x20\n        /* \"#utility.yul\":29936:29941   */\n      dup7\n        /* \"#utility.yul\":29932:29948   */\n      add\n        /* \"#utility.yul\":29897:29962   */\n      tag_347\n      jump\t// in\n    tag_715:\n        /* \"#utility.yul\":29987:30016   */\n      tag_716\n        /* \"#utility.yul\":30009:30015   */\n      dup2\n        /* \"#utility.yul\":29987:30016   */\n      tag_338\n      jump\t// in\n    tag_716:\n        /* \"#utility.yul\":29982:29985   */\n      dup5\n        /* \"#utility.yul\":29978:30017   */\n      add\n        /* \"#utility.yul\":29971:30017   */\n      swap2\n      pop\n        /* \"#utility.yul\":29740:30023   */\n      pop\n        /* \"#utility.yul\":29650:30023   */\n      swap3\n      swap2\n      pop\n      pop\n      jump\t// out\n        /* \"#utility.yul\":30029:30780   */\n    tag_286:\n        /* \"#utility.yul\":30252:30256   */\n      0x00\n        /* \"#utility.yul\":30290:30293   */\n      0xa0\n        /* \"#utility.yul\":30279:30288   */\n      dup3\n        /* \"#utility.yul\":30275:30294   */\n      add\n        /* \"#utility.yul\":30267:30294   */\n      swap1\n      pop\n        /* \"#utility.yul\":30304:30375   */\n      tag_718\n        /* \"#utility.yul\":30372:30373   */\n      0x00\n        /* \"#utility.yul\":30361:30370   */\n      dup4\n        /* \"#utility.yul\":30357:30374   */\n      add\n        /* \"#utility.yul\":30348:30354   */\n      dup9\n        /* \"#utility.yul\":30304:30375   */\n      tag_366\n      jump\t// in\n    tag_718:\n        /* \"#utility.yul\":30385:30457   */\n      tag_719\n        /* \"#utility.yul\":30453:30455   */\n      0x20\n        /* \"#utility.yul\":30442:30451   */\n      dup4\n        /* \"#utility.yul\":30438:30456   */\n      add\n        /* \"#utility.yul\":30429:30435   */\n      dup8\n        /* \"#utility.yul\":30385:30457   */\n      tag_366\n      jump\t// in\n    tag_719:\n        /* \"#utility.yul\":30467:30539   */\n      tag_720\n        /* \"#utility.yul\":30535:30537   */\n      0x40\n        /* \"#utility.yul\":30524:30533   */\n      dup4\n        /* \"#utility.yul\":30520:30538   */\n      add\n        /* \"#utility.yul\":30511:30517   */\n      dup7\n        /* \"#utility.yul\":30467:30539   */\n      tag_330\n      jump\t// in\n    tag_720:\n        /* \"#utility.yul\":30549:30621   */\n      tag_721\n        /* \"#utility.yul\":30617:30619   */\n      0x60\n        /* \"#utility.yul\":30606:30615   */\n      dup4\n        /* \"#utility.yul\":30602:30620   */\n      add\n        /* \"#utility.yul\":30593:30599   */\n      dup6\n        /* \"#utility.yul\":30549:30621   */\n      tag_330\n      jump\t// in\n    tag_721:\n        /* \"#utility.yul\":30669:30678   */\n      dup2\n        /* \"#utility.yul\":30663:30667   */\n      dup2\n        /* \"#utility.yul\":30659:30679   */\n      sub\n        /* \"#utility.yul\":30653:30656   */\n      0x80\n        /* \"#utility.yul\":30642:30651   */\n      dup4\n        /* \"#utility.yul\":30638:30657   */\n      add\n        /* \"#utility.yul\":30631:30680   */\n      mstore\n        /* \"#utility.yul\":30697:30773   */\n      tag_722\n        /* \"#utility.yul\":30768:30772   */\n      dup2\n        /* \"#utility.yul\":30759:30765   */\n      dup5\n        /* \"#utility.yul\":30697:30773   */\n      tag_388\n      jump\t// in\n    tag_722:\n        /* \"#utility.yul\":30689:30773   */\n      swap1\n      pop\n        /* \"#utility.yul\":30029:30780   */\n      swap7\n      swap6\n      pop\n      pop\n      pop\n      pop\n      pop\n      pop\n      jump\t// out\n        /* \"#utility.yul\":30786:30927   */\n    tag_389:\n        /* \"#utility.yul\":30842:30847   */\n      0x00\n        /* \"#utility.yul\":30873:30879   */\n      dup2\n        /* \"#utility.yul\":30867:30880   */\n      mload\n        /* \"#utility.yul\":30858:30880   */\n      swap1\n      pop\n        /* \"#utility.yul\":30889:30921   */\n      tag_724\n        /* \"#utility.yul\":30915:30920   */\n      dup2\n        /* \"#utility.yul\":30889:30921   */\n      tag_332\n      jump\t// in\n    tag_724:\n        /* \"#utility.yul\":30786:30927   */\n      swap3\n      swap2\n      pop\n      pop\n      jump\t// out\n        /* \"#utility.yul\":30933:31282   */\n    tag_289:\n        /* \"#utility.yul\":31002:31008   */\n      0x00\n        /* \"#utility.yul\":31051:31053   */\n      0x20\n        /* \"#utility.yul\":31039:31048   */\n      dup3\n        /* \"#utility.yul\":31030:31037   */\n      dup5\n        /* \"#utility.yul\":31026:31049   */\n      sub\n        /* \"#utility.yul\":31022:31054   */\n      slt\n        /* \"#utility.yul\":31019:31138   */\n      iszero\n      tag_726\n      jumpi\n        /* \"#utility.yul\":31057:31136   */\n      tag_727\n      tag_321\n      jump\t// in\n    tag_727:\n        /* \"#utility.yul\":31019:31138   */\n    tag_726:\n        /* \"#utility.yul\":31177:31178   */\n      0x00\n        /* \"#utility.yul\":31202:31265   */\n      tag_728\n        /* \"#utility.yul\":31257:31264   */\n      dup5\n        /* \"#utility.yul\":31248:31254   */\n      dup3\n        /* \"#utility.yul\":31237:31246   */\n      dup6\n        /* \"#utility.yul\":31233:31255   */\n      add\n        /* \"#utility.yul\":31202:31265   */\n      tag_389\n      jump\t// in\n    tag_728:\n        /* \"#utility.yul\":31192:31265   */\n      swap2\n      pop\n        /* \"#utility.yul\":31148:31275   */\n      pop\n        /* \"#utility.yul\":30933:31282   */\n      swap3\n      swap2\n      pop\n      pop\n      jump\t// out\n        /* \"#utility.yul\":31288:32341   */\n    tag_305:\n        /* \"#utility.yul\":31611:31615   */\n      0x00\n        /* \"#utility.yul\":31649:31652   */\n      0xa0\n        /* \"#utility.yul\":31638:31647   */\n      dup3\n        /* \"#utility.yul\":31634:31653   */\n      add\n        /* \"#utility.yul\":31626:31653   */\n      swap1\n      pop\n        /* \"#utility.yul\":31663:31734   */\n      tag_730\n        /* \"#utility.yul\":31731:31732   */\n      0x00\n        /* \"#utility.yul\":31720:31729   */\n      dup4\n        /* \"#utility.yul\":31716:31733   */\n      add\n        /* \"#utility.yul\":31707:31713   */\n      dup9\n        /* \"#utility.yul\":31663:31734   */\n      tag_366\n      jump\t// in\n    tag_730:\n        /* \"#utility.yul\":31744:31816   */\n      tag_731\n        /* \"#utility.yul\":31812:31814   */\n      0x20\n        /* \"#utility.yul\":31801:31810   */\n      dup4\n        /* \"#utility.yul\":31797:31815   */\n      add\n        /* \"#utility.yul\":31788:31794   */\n      dup8\n        /* \"#utility.yul\":31744:31816   */\n      tag_366\n      jump\t// in\n    tag_731:\n        /* \"#utility.yul\":31863:31872   */\n      dup2\n        /* \"#utility.yul\":31857:31861   */\n      dup2\n        /* \"#utility.yul\":31853:31873   */\n      sub\n        /* \"#utility.yul\":31848:31850   */\n      0x40\n        /* \"#utility.yul\":31837:31846   */\n      dup4\n        /* \"#utility.yul\":31833:31851   */\n      add\n        /* \"#utility.yul\":31826:31874   */\n      mstore\n        /* \"#utility.yul\":31891:31999   */\n      tag_732\n        /* \"#utility.yul\":31994:31998   */\n      dup2\n        /* \"#utility.yul\":31985:31991   */\n      dup7\n        /* \"#utility.yul\":31891:31999   */\n      tag_365\n      jump\t// in\n    tag_732:\n        /* \"#utility.yul\":31883:31999   */\n      swap1\n      pop\n        /* \"#utility.yul\":32046:32055   */\n      dup2\n        /* \"#utility.yul\":32040:32044   */\n      dup2\n        /* \"#utility.yul\":32036:32056   */\n      sub\n        /* \"#utility.yul\":32031:32033   */\n      0x60\n        /* \"#utility.yul\":32020:32029   */\n      dup4\n        /* \"#utility.yul\":32016:32034   */\n      add\n        /* \"#utility.yul\":32009:32057   */\n      mstore\n        /* \"#utility.yul\":32074:32182   */\n      tag_733\n        /* \"#utility.yul\":32177:32181   */\n      dup2\n        /* \"#utility.yul\":32168:32174   */\n      dup6\n        /* \"#utility.yul\":32074:32182   */\n      tag_365\n      jump\t// in\n    tag_733:\n        /* \"#utility.yul\":32066:32182   */\n      swap1\n      pop\n        /* \"#utility.yul\":32230:32239   */\n      dup2\n        /* \"#utility.yul\":32224:32228   */\n      dup2\n        /* \"#utility.yul\":32220:32240   */\n      sub\n        /* \"#utility.yul\":32214:32217   */\n      0x80\n        /* \"#utility.yul\":32203:32212   */\n      dup4\n        /* \"#utility.yul\":32199:32218   */\n      add\n        /* \"#utility.yul\":32192:32241   */\n      mstore\n        /* \"#utility.yul\":32258:32334   */\n      tag_734\n        /* \"#utility.yul\":32329:32333   */\n      dup2\n        /* \"#utility.yul\":32320:32326   */\n      dup5\n        /* \"#utility.yul\":32258:32334   */\n      tag_388\n      jump\t// in\n    tag_734:\n        /* \"#utility.yul\":32250:32334   */\n      swap1\n      pop\n        /* \"#utility.yul\":31288:32341   */\n      swap7\n      swap6\n      pop\n      pop\n      pop\n      pop\n      pop\n      pop\n      jump\t// out\n\n    auxdata: 0xa26469706673582212208188fdba4badb1d6c7b77d7c8e4312a86d05e853a58231cfa5e8c49f884e862c64736f6c634300081a0033\n}\n",
				"bytecode": {
					"linkReferences": {},
					"object": "608060405234801561000f575f80fd5b506040516130f43803806130f48339818101604052810190610031919061034f565b8181610042816100d260201b60201c565b505f73ffffffffffffffffffffffffffffffffffffffff168173ffffffffffffffffffffffffffffffffffffffff16036100b3575f6040517f1e4fbdf70000000000000000000000000000000000000000000000000000000081526004016100aa91906103b8565b60405180910390fd5b6100c2816100e560201b60201c565b50600160048190555050506106ad565b80600290816100e191906105de565b5050565b5f60035f9054906101000a900473ffffffffffffffffffffffffffffffffffffffff1690508160035f6101000a81548173ffffffffffffffffffffffffffffffffffffffff021916908373ffffffffffffffffffffffffffffffffffffffff1602179055508173ffffffffffffffffffffffffffffffffffffffff168173ffffffffffffffffffffffffffffffffffffffff167f8be0079c531659141344cd1fd0a4f28419497f9722a3daafe3b4186f6b6457e060405160405180910390a35050565b5f604051905090565b5f80fd5b5f80fd5b5f73ffffffffffffffffffffffffffffffffffffffff82169050919050565b5f6101e2826101b9565b9050919050565b6101f2816101d8565b81146101fc575f80fd5b50565b5f8151905061020d816101e9565b92915050565b5f80fd5b5f80fd5b5f601f19601f8301169050919050565b7f4e487b71000000000000000000000000000000000000000000000000000000005f52604160045260245ffd5b6102618261021b565b810181811067ffffffffffffffff821117156102805761027f61022b565b5b80604052505050565b5f6102926101a8565b905061029e8282610258565b919050565b5f67ffffffffffffffff8211156102bd576102bc61022b565b5b6102c68261021b565b9050602081019050919050565b8281835e5f83830152505050565b5f6102f36102ee846102a3565b610289565b90508281526020810184848401111561030f5761030e610217565b5b61031a8482856102d3565b509392505050565b5f82601f83011261033657610335610213565b5b81516103468482602086016102e1565b91505092915050565b5f8060408385031215610365576103646101b1565b5b5f610372858286016101ff565b925050602083015167ffffffffffffffff811115610393576103926101b5565b5b61039f85828601610322565b9150509250929050565b6103b2816101d8565b82525050565b5f6020820190506103cb5f8301846103a9565b92915050565b5f81519050919050565b7f4e487b71000000000000000000000000000000000000000000000000000000005f52602260045260245ffd5b5f600282049050600182168061041f57607f821691505b602082108103610432576104316103db565b5b50919050565b5f819050815f5260205f209050919050565b5f6020601f8301049050919050565b5f82821b905092915050565b5f600883026104947fffffffffffffffffffffffffffffffffffffffffffffffffffffffffffffffff82610459565b61049e8683610459565b95508019841693508086168417925050509392505050565b5f819050919050565b5f819050919050565b5f6104e26104dd6104d8846104b6565b6104bf565b6104b6565b9050919050565b5f819050919050565b6104fb836104c8565b61050f610507826104e9565b848454610465565b825550505050565b5f90565b610523610517565b61052e8184846104f2565b505050565b5b81811015610551576105465f8261051b565b600181019050610534565b5050565b601f8211156105965761056781610438565b6105708461044a565b8101602085101561057f578190505b61059361058b8561044a565b830182610533565b50505b505050565b5f82821c905092915050565b5f6105b65f198460080261059b565b1980831691505092915050565b5f6105ce83836105a7565b9150826002028217905092915050565b6105e7826103d1565b67ffffffffffffffff811115610600576105ff61022b565b5b61060a8254610408565b610615828285610555565b5f60209050601f831160018114610646575f8415610634578287015190505b61063e85826105c3565b8655506106a5565b601f19841661065486610438565b5f5b8281101561067b57848901518255600182019150602085019450602081019050610656565b868310156106985784890151610694601f8916826105a7565b8355505b6001600288020188555050505b505050505050565b612a3a806106ba5f395ff3fe608060405234801561000f575f80fd5b50600436106100fd575f3560e01c8063715018a611610095578063e985e9c511610064578063e985e9c514610291578063f242432a146102c1578063f2fde38b146102dd578063f5298aca146102f9576100fd565b8063715018a6146102315780638da5cb5b1461023b578063a22cb46514610259578063b510391f14610275576100fd565b80632eb2c2d6116100d15780632eb2c2d6146101ad57806331f0e6c8146101c95780634e1273f4146101e55780636b20c45414610215576100fd565b8062fdd58e1461010157806301ffc9a71461013157806302fe5305146101615780630e89341c1461017d575b5f80fd5b61011b600480360381019061011691906119ee565b610315565b6040516101289190611a3b565b60405180910390f35b61014b60048036038101906101469190611aa9565b61036a565b6040516101589190611aee565b60405180910390f35b61017b60048036038101906101769190611c43565b61044b565b005b61019760048036038101906101929190611c8a565b61045f565b6040516101a49190611d15565b60405180910390f35b6101c760048036038101906101c29190611e97565b6104f1565b005b6101e360048036038101906101de9190611f62565b610598565b005b6101ff60048036038101906101fa919061208e565b6105c7565b60405161020c91906121bb565b60405180910390f35b61022f600480360381019061022a91906121db565b6106ce565b005b61023961077a565b005b61024361078d565b6040516102509190612272565b60405180910390f35b610273600480360381019061026e91906122b5565b6107b5565b005b61028f600480360381019061028a91906122f3565b6107cb565b005b6102ab60048036038101906102a6919061234d565b610804565b6040516102b89190611aee565b60405180910390f35b6102db60048036038101906102d6919061238b565b610892565b005b6102f760048036038101906102f2919061241e565b610939565b005b610313600480360381019061030e9190612449565b6109bd565b005b5f805f8381526020019081526020015f205f8473ffffffffffffffffffffffffffffffffffffffff1673ffffffffffffffffffffffffffffffffffffffff1681526020019081526020015f2054905092915050565b5f7fd9b67a26000000000000000000000000000000000000000000000000000000007bffffffffffffffffffffffffffffffffffffffffffffffffffffffff1916827bffffffffffffffffffffffffffffffffffffffffffffffffffffffff1916148061043457507f0e89341c000000000000000000000000000000000000000000000000000000007bffffffffffffffffffffffffffffffffffffffffffffffffffffffff1916827bffffffffffffffffffffffffffffffffffffffffffffffffffffffff1916145b80610444575061044382610a69565b5b9050919050565b610453610ad2565b61045c81610b59565b50565b60606002805461046e906124c6565b80601f016020809104026020016040519081016040528092919081815260200182805461049a906124c6565b80156104e55780601f106104bc576101008083540402835291602001916104e5565b820191905f5260205f20905b8154815290600101906020018083116104c857829003601f168201915b50505050509050919050565b5f6104fa610b6c565b90508073ffffffffffffffffffffffffffffffffffffffff168673ffffffffffffffffffffffffffffffffffffffff161415801561053f575061053d8682610804565b155b156105835780866040517fe237d92200000000000000000000000000000000000000000000000000000000815260040161057a9291906124f6565b60405180910390fd5b6105908686868686610b73565b505050505050565b6105a0610ad2565b5f5b828110156105c1576105b484836107cb565b80806001019150506105a2565b50505050565b6060815183511461061357815183516040517f5b05999100000000000000000000000000000000000000000000000000000000815260040161060a92919061251d565b60405180910390fd5b5f835167ffffffffffffffff81111561062f5761062e611b1f565b5b60405190808252806020026020018201604052801561065d5781602001602082028036833780820191505090505b5090505f5b84518110156106c3576106996106818287610c6790919063ffffffff16565b6106948387610c7a90919063ffffffff16565b610315565b8282815181106106ac576106ab612544565b5b602002602001018181525050806001019050610662565b508091505092915050565b6106d6610b6c565b73ffffffffffffffffffffffffffffffffffffffff168373ffffffffffffffffffffffffffffffffffffffff161415801561071f575061071d83610718610b6c565b610804565b155b1561076a5761072c610b6c565b836040517fe237d9220000000000000000000000000000000000000000000000000000000081526004016107619291906124f6565b60405180910390fd5b610775838383610c8d565b505050565b610782610ad2565b61078b5f610d1d565b565b5f60035f9054906101000a900473ffffffffffffffffffffffffffffffffffffffff16905090565b6107c76107c0610b6c565b8383610de0565b5050565b6107d3610ad2565b5f60045490506107e68382600185610f49565b600160045f8282546107f8919061259e565b92505081905550505050565b5f60015f8473ffffffffffffffffffffffffffffffffffffffff1673ffffffffffffffffffffffffffffffffffffffff1681526020019081526020015f205f8373ffffffffffffffffffffffffffffffffffffffff1673ffffffffffffffffffffffffffffffffffffffff1681526020019081526020015f205f9054906101000a900460ff16905092915050565b5f61089b610b6c565b90508073ffffffffffffffffffffffffffffffffffffffff168673ffffffffffffffffffffffffffffffffffffffff16141580156108e057506108de8682610804565b155b156109245780866040517fe237d92200000000000000000000000000000000000000000000000000000000815260040161091b9291906124f6565b60405180910390fd5b6109318686868686610fde565b505050505050565b610941610ad2565b5f73ffffffffffffffffffffffffffffffffffffffff168173ffffffffffffffffffffffffffffffffffffffff16036109b1575f6040517f1e4fbdf70000000000000000000000000000000000000000000000000000000081526004016109a89190612272565b60405180910390fd5b6109ba81610d1d565b50565b6109c5610b6c565b73ffffffffffffffffffffffffffffffffffffffff168373ffffffffffffffffffffffffffffffffffffffff1614158015610a0e5750610a0c83610a07610b6c565b610804565b155b15610a5957610a1b610b6c565b836040517fe237d922000000000000000000000000000000000000000000000000000000008152600401610a509291906124f6565b60405180910390fd5b610a648383836110e4565b505050565b5f7f01ffc9a7000000000000000000000000000000000000000000000000000000007bffffffffffffffffffffffffffffffffffffffffffffffffffffffff1916827bffffffffffffffffffffffffffffffffffffffffffffffffffffffff1916149050919050565b610ada610b6c565b73ffffffffffffffffffffffffffffffffffffffff16610af861078d565b73ffffffffffffffffffffffffffffffffffffffff1614610b5757610b1b610b6c565b6040517f118cdaa7000000000000000000000000000000000000000000000000000000008152600401610b4e9190612272565b60405180910390fd5b565b8060029081610b68919061276e565b5050565b5f33905090565b5f73ffffffffffffffffffffffffffffffffffffffff168473ffffffffffffffffffffffffffffffffffffffff1603610be3575f6040517f57f447ce000000000000000000000000000000000000000000000000000000008152600401610bda9190612272565b60405180910390fd5b5f73ffffffffffffffffffffffffffffffffffffffff168573ffffffffffffffffffffffffffffffffffffffff1603610c53575f6040517f01a83514000000000000000000000000000000000000000000000000000000008152600401610c4a9190612272565b60405180910390fd5b610c608585858585611186565b5050505050565b5f60208202602084010151905092915050565b5f60208202602084010151905092915050565b5f73ffffffffffffffffffffffffffffffffffffffff168373ffffffffffffffffffffffffffffffffffffffff1603610cfd575f6040517f01a83514000000000000000000000000000000000000000000000000000000008152600401610cf49190612272565b60405180910390fd5b610d18835f848460405180602001604052805f815250611186565b505050565b5f60035f9054906101000a900473ffffffffffffffffffffffffffffffffffffffff1690508160035f6101000a81548173ffffffffffffffffffffffffffffffffffffffff021916908373ffffffffffffffffffffffffffffffffffffffff1602179055508173ffffffffffffffffffffffffffffffffffffffff168173ffffffffffffffffffffffffffffffffffffffff167f8be0079c531659141344cd1fd0a4f28419497f9722a3daafe3b4186f6b6457e060405160405180910390a35050565b5f73ffffffffffffffffffffffffffffffffffffffff168273ffffffffffffffffffffffffffffffffffffffff1603610e50575f6040517fced3e100000000000000000000000000000000000000000000000000000000008152600401610e479190612272565b60405180910390fd5b8060015f8573ffffffffffffffffffffffffffffffffffffffff1673ffffffffffffffffffffffffffffffffffffffff1681526020019081526020015f205f8473ffffffffffffffffffffffffffffffffffffffff1673ffffffffffffffffffffffffffffffffffffffff1681526020019081526020015f205f6101000a81548160ff0219169083151502179055508173ffffffffffffffffffffffffffffffffffffffff168373ffffffffffffffffffffffffffffffffffffffff167f17307eab39ab6107e8899845ad3d59bd9653f200f220920489ca2b5937696c3183604051610f3c9190611aee565b60405180910390a3505050565b5f73ffffffffffffffffffffffffffffffffffffffff168473ffffffffffffffffffffffffffffffffffffffff1603610fb9575f6040517f57f447ce000000000000000000000000000000000000000000000000000000008152600401610fb09190612272565b60405180910390fd5b5f80610fc58585611232565b91509150610fd65f87848487611186565b505050505050565b5f73ffffffffffffffffffffffffffffffffffffffff168473ffffffffffffffffffffffffffffffffffffffff160361104e575f6040517f57f447ce0000000000000000000000000000000000000000000000000000000081526004016110459190612272565b60405180910390fd5b5f73ffffffffffffffffffffffffffffffffffffffff168573ffffffffffffffffffffffffffffffffffffffff16036110be575f6040517f01a835140000000000000000000000000000000000000000000000000000000081526004016110b59190612272565b60405180910390fd5b5f806110ca8585611232565b915091506110db8787848487611186565b50505050505050565b5f73ffffffffffffffffffffffffffffffffffffffff168373ffffffffffffffffffffffffffffffffffffffff1603611154575f6040517f01a8351400000000000000000000000000000000000000000000000000000000815260040161114b9190612272565b60405180910390fd5b5f806111608484611232565b9150915061117f855f848460405180602001604052805f815250611186565b5050505050565b61119285858585611262565b5f73ffffffffffffffffffffffffffffffffffffffff168473ffffffffffffffffffffffffffffffffffffffff161461122b575f6111ce610b6c565b9050600184510361121a575f6111ed5f86610c7a90919063ffffffff16565b90505f6112035f86610c7a90919063ffffffff16565b90506112138389898585896115f2565b5050611229565b6112288187878787876117a1565b5b505b5050505050565b60608060405191506001825283602083015260408201905060018152826020820152604081016040529250929050565b80518251146112ac57815181516040517f5b0599910000000000000000000000000000000000000000000000000000000081526004016112a392919061251d565b60405180910390fd5b5f6112b5610b6c565b90505f5b83518110156114b1575f6112d68286610c7a90919063ffffffff16565b90505f6112ec8386610c7a90919063ffffffff16565b90505f73ffffffffffffffffffffffffffffffffffffffff168873ffffffffffffffffffffffffffffffffffffffff161461140f575f805f8481526020019081526020015f205f8a73ffffffffffffffffffffffffffffffffffffffff1673ffffffffffffffffffffffffffffffffffffffff1681526020019081526020015f20549050818110156113bb57888183856040517f03dee4c50000000000000000000000000000000000000000000000000000000081526004016113b2949392919061283d565b60405180910390fd5b8181035f808581526020019081526020015f205f8b73ffffffffffffffffffffffffffffffffffffffff1673ffffffffffffffffffffffffffffffffffffffff1681526020019081526020015f2081905550505b5f73ffffffffffffffffffffffffffffffffffffffff168773ffffffffffffffffffffffffffffffffffffffff16146114a457805f808481526020019081526020015f205f8973ffffffffffffffffffffffffffffffffffffffff1673ffffffffffffffffffffffffffffffffffffffff1681526020019081526020015f205f82825461149c919061259e565b925050819055505b50508060010190506112b9565b50600183510361156c575f6114cf5f85610c7a90919063ffffffff16565b90505f6114e55f85610c7a90919063ffffffff16565b90508573ffffffffffffffffffffffffffffffffffffffff168773ffffffffffffffffffffffffffffffffffffffff168473ffffffffffffffffffffffffffffffffffffffff167fc3d58168c5ae7397731d063d5bbf3d657854427343f4c083240f7aacaa2d0f62858560405161155d92919061251d565b60405180910390a450506115eb565b8373ffffffffffffffffffffffffffffffffffffffff168573ffffffffffffffffffffffffffffffffffffffff168273ffffffffffffffffffffffffffffffffffffffff167f4a39dc06d4c0dbc64b70af90fd698a233a518aa5d07e595d983b8c0526c8f7fb86866040516115e2929190612880565b60405180910390a45b5050505050565b5f8473ffffffffffffffffffffffffffffffffffffffff163b1115611799578373ffffffffffffffffffffffffffffffffffffffff1663f23a6e6187878686866040518663ffffffff1660e01b8152600401611652959493929190612907565b6020604051808303815f875af192505050801561168d57506040513d601f19601f8201168201806040525081019061168a9190612973565b60015b61170e573d805f81146116bb576040519150601f19603f3d011682016040523d82523d5f602084013e6116c0565b606091505b505f81510361170657846040517f57f447ce0000000000000000000000000000000000000000000000000000000081526004016116fd9190612272565b60405180910390fd5b805181602001fd5b63f23a6e6160e01b7bffffffffffffffffffffffffffffffffffffffffffffffffffffffff1916817bffffffffffffffffffffffffffffffffffffffffffffffffffffffff19161461179757846040517f57f447ce00000000000000000000000000000000000000000000000000000000815260040161178e9190612272565b60405180910390fd5b505b505050505050565b5f8473ffffffffffffffffffffffffffffffffffffffff163b1115611948578373ffffffffffffffffffffffffffffffffffffffff1663bc197c8187878686866040518663ffffffff1660e01b815260040161180195949392919061299e565b6020604051808303815f875af192505050801561183c57506040513d601f19601f820116820180604052508101906118399190612973565b60015b6118bd573d805f811461186a576040519150601f19603f3d011682016040523d82523d5f602084013e61186f565b606091505b505f8151036118b557846040517f57f447ce0000000000000000000000000000000000000000000000000000000081526004016118ac9190612272565b60405180910390fd5b805181602001fd5b63bc197c8160e01b7bffffffffffffffffffffffffffffffffffffffffffffffffffffffff1916817bffffffffffffffffffffffffffffffffffffffffffffffffffffffff19161461194657846040517f57f447ce00000000000000000000000000000000000000000000000000000000815260040161193d9190612272565b60405180910390fd5b505b505050505050565b5f604051905090565b5f80fd5b5f80fd5b5f73ffffffffffffffffffffffffffffffffffffffff82169050919050565b5f61198a82611961565b9050919050565b61199a81611980565b81146119a4575f80fd5b50565b5f813590506119b581611991565b92915050565b5f819050919050565b6119cd816119bb565b81146119d7575f80fd5b50565b5f813590506119e8816119c4565b92915050565b5f8060408385031215611a0457611a03611959565b5b5f611a11858286016119a7565b9250506020611a22858286016119da565b9150509250929050565b611a35816119bb565b82525050565b5f602082019050611a4e5f830184611a2c565b92915050565b5f7fffffffff0000000000000000000000000000000000000000000000000000000082169050919050565b611a8881611a54565b8114611a92575f80fd5b50565b5f81359050611aa381611a7f565b92915050565b5f60208284031215611abe57611abd611959565b5b5f611acb84828501611a95565b91505092915050565b5f8115159050919050565b611ae881611ad4565b82525050565b5f602082019050611b015f830184611adf565b92915050565b5f80fd5b5f80fd5b5f601f19601f8301169050919050565b7f4e487b71000000000000000000000000000000000000000000000000000000005f52604160045260245ffd5b611b5582611b0f565b810181811067ffffffffffffffff82111715611b7457611b73611b1f565b5b80604052505050565b5f611b86611950565b9050611b928282611b4c565b919050565b5f67ffffffffffffffff821115611bb157611bb0611b1f565b5b611bba82611b0f565b9050602081019050919050565b828183375f83830152505050565b5f611be7611be284611b97565b611b7d565b905082815260208101848484011115611c0357611c02611b0b565b5b611c0e848285611bc7565b509392505050565b5f82601f830112611c2a57611c29611b07565b5b8135611c3a848260208601611bd5565b91505092915050565b5f60208284031215611c5857611c57611959565b5b5f82013567ffffffffffffffff811115611c7557611c7461195d565b5b611c8184828501611c16565b91505092915050565b5f60208284031215611c9f57611c9e611959565b5b5f611cac848285016119da565b91505092915050565b5f81519050919050565b5f82825260208201905092915050565b8281835e5f83830152505050565b5f611ce782611cb5565b611cf18185611cbf565b9350611d01818560208601611ccf565b611d0a81611b0f565b840191505092915050565b5f6020820190508181035f830152611d2d8184611cdd565b905092915050565b5f67ffffffffffffffff821115611d4f57611d4e611b1f565b5b602082029050602081019050919050565b5f80fd5b5f611d76611d7184611d35565b611b7d565b90508083825260208201905060208402830185811115611d9957611d98611d60565b5b835b81811015611dc25780611dae88826119da565b845260208401935050602081019050611d9b565b5050509392505050565b5f82601f830112611de057611ddf611b07565b5b8135611df0848260208601611d64565b91505092915050565b5f67ffffffffffffffff821115611e1357611e12611b1f565b5b611e1c82611b0f565b9050602081019050919050565b5f611e3b611e3684611df9565b611b7d565b905082815260208101848484011115611e5757611e56611b0b565b5b611e62848285611bc7565b509392505050565b5f82601f830112611e7e57611e7d611b07565b5b8135611e8e848260208601611e29565b91505092915050565b5f805f805f60a08688031215611eb057611eaf611959565b5b5f611ebd888289016119a7565b9550506020611ece888289016119a7565b945050604086013567ffffffffffffffff811115611eef57611eee61195d565b5b611efb88828901611dcc565b935050606086013567ffffffffffffffff811115611f1c57611f1b61195d565b5b611f2888828901611dcc565b925050608086013567ffffffffffffffff811115611f4957611f4861195d565b5b611f5588828901611e6a565b9150509295509295909350565b5f805f60608486031215611f7957611f78611959565b5b5f611f86868287016119a7565b9350506020611f97868287016119da565b925050604084013567ffffffffffffffff811115611fb857611fb761195d565b5b611fc486828701611e6a565b9150509250925092565b5f67ffffffffffffffff821115611fe857611fe7611b1f565b5b602082029050602081019050919050565b5f61200b61200684611fce565b611b7d565b9050808382526020820190506020840283018581111561202e5761202d611d60565b5b835b81811015612057578061204388826119a7565b845260208401935050602081019050612030565b5050509392505050565b5f82601f83011261207557612074611b07565b5b8135612085848260208601611ff9565b91505092915050565b5f80604083850312156120a4576120a3611959565b5b5f83013567ffffffffffffffff8111156120c1576120c061195d565b5b6120cd85828601612061565b925050602083013567ffffffffffffffff8111156120ee576120ed61195d565b5b6120fa85828601611dcc565b9150509250929050565b5f81519050919050565b5f82825260208201905092915050565b5f819050602082019050919050565b612136816119bb565b82525050565b5f612147838361212d565b60208301905092915050565b5f602082019050919050565b5f61216982612104565b612173818561210e565b935061217e8361211e565b805f5b838110156121ae578151612195888261213c565b97506121a083612153565b925050600181019050612181565b5085935050505092915050565b5f6020820190508181035f8301526121d3818461215f565b905092915050565b5f805f606084860312156121f2576121f1611959565b5b5f6121ff868287016119a7565b935050602084013567ffffffffffffffff8111156122205761221f61195d565b5b61222c86828701611dcc565b925050604084013567ffffffffffffffff81111561224d5761224c61195d565b5b61225986828701611dcc565b9150509250925092565b61226c81611980565b82525050565b5f6020820190506122855f830184612263565b92915050565b61229481611ad4565b811461229e575f80fd5b50565b5f813590506122af8161228b565b92915050565b5f80604083850312156122cb576122ca611959565b5b5f6122d8858286016119a7565b92505060206122e9858286016122a1565b9150509250929050565b5f806040838503121561230957612308611959565b5b5f612316858286016119a7565b925050602083013567ffffffffffffffff8111156123375761233661195d565b5b61234385828601611e6a565b9150509250929050565b5f806040838503121561236357612362611959565b5b5f612370858286016119a7565b9250506020612381858286016119a7565b9150509250929050565b5f805f805f60a086880312156123a4576123a3611959565b5b5f6123b1888289016119a7565b95505060206123c2888289016119a7565b94505060406123d3888289016119da565b93505060606123e4888289016119da565b925050608086013567ffffffffffffffff8111156124055761240461195d565b5b61241188828901611e6a565b9150509295509295909350565b5f6020828403121561243357612432611959565b5b5f612440848285016119a7565b91505092915050565b5f805f606084860312156124605761245f611959565b5b5f61246d868287016119a7565b935050602061247e868287016119da565b925050604061248f868287016119da565b9150509250925092565b7f4e487b71000000000000000000000000000000000000000000000000000000005f52602260045260245ffd5b5f60028204905060018216806124dd57607f821691505b6020821081036124f0576124ef612499565b5b50919050565b5f6040820190506125095f830185612263565b6125166020830184612263565b9392505050565b5f6040820190506125305f830185611a2c565b61253d6020830184611a2c565b9392505050565b7f4e487b71000000000000000000000000000000000000000000000000000000005f52603260045260245ffd5b7f4e487b71000000000000000000000000000000000000000000000000000000005f52601160045260245ffd5b5f6125a8826119bb565b91506125b3836119bb565b92508282019050808211156125cb576125ca612571565b5b92915050565b5f819050815f5260205f209050919050565b5f6020601f8301049050919050565b5f82821b905092915050565b5f6008830261262d7fffffffffffffffffffffffffffffffffffffffffffffffffffffffffffffffff826125f2565b61263786836125f2565b95508019841693508086168417925050509392505050565b5f819050919050565b5f61267261266d612668846119bb565b61264f565b6119bb565b9050919050565b5f819050919050565b61268b83612658565b61269f61269782612679565b8484546125fe565b825550505050565b5f90565b6126b36126a7565b6126be818484612682565b505050565b5b818110156126e1576126d65f826126ab565b6001810190506126c4565b5050565b601f821115612726576126f7816125d1565b612700846125e3565b8101602085101561270f578190505b61272361271b856125e3565b8301826126c3565b50505b505050565b5f82821c905092915050565b5f6127465f198460080261272b565b1980831691505092915050565b5f61275e8383612737565b9150826002028217905092915050565b61277782611cb5565b67ffffffffffffffff8111156127905761278f611b1f565b5b61279a82546124c6565b6127a58282856126e5565b5f60209050601f8311600181146127d6575f84156127c4578287015190505b6127ce8582612753565b865550612835565b601f1984166127e4866125d1565b5f5b8281101561280b578489015182556001820191506020850194506020810190506127e6565b868310156128285784890151612824601f891682612737565b8355505b6001600288020188555050505b505050505050565b5f6080820190506128505f830187612263565b61285d6020830186611a2c565b61286a6040830185611a2c565b6128776060830184611a2c565b95945050505050565b5f6040820190508181035f830152612898818561215f565b905081810360208301526128ac818461215f565b90509392505050565b5f81519050919050565b5f82825260208201905092915050565b5f6128d9826128b5565b6128e381856128bf565b93506128f3818560208601611ccf565b6128fc81611b0f565b840191505092915050565b5f60a08201905061291a5f830188612263565b6129276020830187612263565b6129346040830186611a2c565b6129416060830185611a2c565b818103608083015261295381846128cf565b90509695505050505050565b5f8151905061296d81611a7f565b92915050565b5f6020828403121561298857612987611959565b5b5f6129958482850161295f565b91505092915050565b5f60a0820190506129b15f830188612263565b6129be6020830187612263565b81810360408301526129d0818661215f565b905081810360608301526129e4818561215f565b905081810360808301526129f881846128cf565b9050969550505050505056fea26469706673582212208188fdba4badb1d6c7b77d7c8e4312a86d05e853a58231cfa5e8c49f884e862c64736f6c634300081a0033",
					"opcodes": "PUSH1 0x80 PUSH1 0x40 MSTORE CALLVALUE DUP1 ISZERO PUSH2 0xF JUMPI PUSH0 DUP1 REVERT JUMPDEST POP PUSH1 0x40 MLOAD PUSH2 0x30F4 CODESIZE SUB DUP1 PUSH2 0x30F4 DUP4 CODECOPY DUP2 DUP2 ADD PUSH1 0x40 MSTORE DUP2 ADD SWAP1 PUSH2 0x31 SWAP2 SWAP1 PUSH2 0x34F JUMP JUMPDEST DUP2 DUP2 PUSH2 0x42 DUP2 PUSH2 0xD2 PUSH1 0x20 SHL PUSH1 0x20 SHR JUMP JUMPDEST POP PUSH0 PUSH20 0xFFFFFFFFFFFFFFFFFFFFFFFFFFFFFFFFFFFFFFFF AND DUP2 PUSH20 0xFFFFFFFFFFFFFFFFFFFFFFFFFFFFFFFFFFFFFFFF AND SUB PUSH2 0xB3 JUMPI PUSH0 PUSH1 0x40 MLOAD PUSH32 0x1E4FBDF700000000000000000000000000000000000000000000000000000000 DUP2 MSTORE PUSH1 0x4 ADD PUSH2 0xAA SWAP2 SWAP1 PUSH2 0x3B8 JUMP JUMPDEST PUSH1 0x40 MLOAD DUP1 SWAP2 SUB SWAP1 REVERT JUMPDEST PUSH2 0xC2 DUP2 PUSH2 0xE5 PUSH1 0x20 SHL PUSH1 0x20 SHR JUMP JUMPDEST POP PUSH1 0x1 PUSH1 0x4 DUP2 SWAP1 SSTORE POP POP POP PUSH2 0x6AD JUMP JUMPDEST DUP1 PUSH1 0x2 SWAP1 DUP2 PUSH2 0xE1 SWAP2 SWAP1 PUSH2 0x5DE JUMP JUMPDEST POP POP JUMP JUMPDEST PUSH0 PUSH1 0x3 PUSH0 SWAP1 SLOAD SWAP1 PUSH2 0x100 EXP SWAP1 DIV PUSH20 0xFFFFFFFFFFFFFFFFFFFFFFFFFFFFFFFFFFFFFFFF AND SWAP1 POP DUP2 PUSH1 0x3 PUSH0 PUSH2 0x100 EXP DUP2 SLOAD DUP2 PUSH20 0xFFFFFFFFFFFFFFFFFFFFFFFFFFFFFFFFFFFFFFFF MUL NOT AND SWAP1 DUP4 PUSH20 0xFFFFFFFFFFFFFFFFFFFFFFFFFFFFFFFFFFFFFFFF AND MUL OR SWAP1 SSTORE POP DUP2 PUSH20 0xFFFFFFFFFFFFFFFFFFFFFFFFFFFFFFFFFFFFFFFF AND DUP2 PUSH20 0xFFFFFFFFFFFFFFFFFFFFFFFFFFFFFFFFFFFFFFFF AND PUSH32 0x8BE0079C531659141344CD1FD0A4F28419497F9722A3DAAFE3B4186F6B6457E0 PUSH1 0x40 MLOAD PUSH1 0x40 MLOAD DUP1 SWAP2 SUB SWAP1 LOG3 POP POP JUMP JUMPDEST PUSH0 PUSH1 0x40 MLOAD SWAP1 POP SWAP1 JUMP JUMPDEST PUSH0 DUP1 REVERT JUMPDEST PUSH0 DUP1 REVERT JUMPDEST PUSH0 PUSH20 0xFFFFFFFFFFFFFFFFFFFFFFFFFFFFFFFFFFFFFFFF DUP3 AND SWAP1 POP SWAP2 SWAP1 POP JUMP JUMPDEST PUSH0 PUSH2 0x1E2 DUP3 PUSH2 0x1B9 JUMP JUMPDEST SWAP1 POP SWAP2 SWAP1 POP JUMP JUMPDEST PUSH2 0x1F2 DUP2 PUSH2 0x1D8 JUMP JUMPDEST DUP2 EQ PUSH2 0x1FC JUMPI PUSH0 DUP1 REVERT JUMPDEST POP JUMP JUMPDEST PUSH0 DUP2 MLOAD SWAP1 POP PUSH2 0x20D DUP2 PUSH2 0x1E9 JUMP JUMPDEST SWAP3 SWAP2 POP POP JUMP JUMPDEST PUSH0 DUP1 REVERT JUMPDEST PUSH0 DUP1 REVERT JUMPDEST PUSH0 PUSH1 0x1F NOT PUSH1 0x1F DUP4 ADD AND SWAP1 POP SWAP2 SWAP1 POP JUMP JUMPDEST PUSH32 0x4E487B7100000000000000000000000000000000000000000000000000000000 PUSH0 MSTORE PUSH1 0x41 PUSH1 0x4 MSTORE PUSH1 0x24 PUSH0 REVERT JUMPDEST PUSH2 0x261 DUP3 PUSH2 0x21B JUMP JUMPDEST DUP2 ADD DUP2 DUP2 LT PUSH8 0xFFFFFFFFFFFFFFFF DUP3 GT OR ISZERO PUSH2 0x280 JUMPI PUSH2 0x27F PUSH2 0x22B JUMP JUMPDEST JUMPDEST DUP1 PUSH1 0x40 MSTORE POP POP POP JUMP JUMPDEST PUSH0 PUSH2 0x292 PUSH2 0x1A8 JUMP JUMPDEST SWAP1 POP PUSH2 0x29E DUP3 DUP3 PUSH2 0x258 JUMP JUMPDEST SWAP2 SWAP1 POP JUMP JUMPDEST PUSH0 PUSH8 0xFFFFFFFFFFFFFFFF DUP3 GT ISZERO PUSH2 0x2BD JUMPI PUSH2 0x2BC PUSH2 0x22B JUMP JUMPDEST JUMPDEST PUSH2 0x2C6 DUP3 PUSH2 0x21B JUMP JUMPDEST SWAP1 POP PUSH1 0x20 DUP2 ADD SWAP1 POP SWAP2 SWAP1 POP JUMP JUMPDEST DUP3 DUP2 DUP4 MCOPY PUSH0 DUP4 DUP4 ADD MSTORE POP POP POP JUMP JUMPDEST PUSH0 PUSH2 0x2F3 PUSH2 0x2EE DUP5 PUSH2 0x2A3 JUMP JUMPDEST PUSH2 0x289 JUMP JUMPDEST SWAP1 POP DUP3 DUP2 MSTORE PUSH1 0x20 DUP2 ADD DUP5 DUP5 DUP5 ADD GT ISZERO PUSH2 0x30F JUMPI PUSH2 0x30E PUSH2 0x217 JUMP JUMPDEST JUMPDEST PUSH2 0x31A DUP5 DUP3 DUP6 PUSH2 0x2D3 JUMP JUMPDEST POP SWAP4 SWAP3 POP POP POP JUMP JUMPDEST PUSH0 DUP3 PUSH1 0x1F DUP4 ADD SLT PUSH2 0x336 JUMPI PUSH2 0x335 PUSH2 0x213 JUMP JUMPDEST JUMPDEST DUP2 MLOAD PUSH2 0x346 DUP5 DUP3 PUSH1 0x20 DUP7 ADD PUSH2 0x2E1 JUMP JUMPDEST SWAP2 POP POP SWAP3 SWAP2 POP POP JUMP JUMPDEST PUSH0 DUP1 PUSH1 0x40 DUP4 DUP6 SUB SLT ISZERO PUSH2 0x365 JUMPI PUSH2 0x364 PUSH2 0x1B1 JUMP JUMPDEST JUMPDEST PUSH0 PUSH2 0x372 DUP6 DUP3 DUP7 ADD PUSH2 0x1FF JUMP JUMPDEST SWAP3 POP POP PUSH1 0x20 DUP4 ADD MLOAD PUSH8 0xFFFFFFFFFFFFFFFF DUP2 GT ISZERO PUSH2 0x393 JUMPI PUSH2 0x392 PUSH2 0x1B5 JUMP JUMPDEST JUMPDEST PUSH2 0x39F DUP6 DUP3 DUP7 ADD PUSH2 0x322 JUMP JUMPDEST SWAP2 POP POP SWAP3 POP SWAP3 SWAP1 POP JUMP JUMPDEST PUSH2 0x3B2 DUP2 PUSH2 0x1D8 JUMP JUMPDEST DUP3 MSTORE POP POP JUMP JUMPDEST PUSH0 PUSH1 0x20 DUP3 ADD SWAP1 POP PUSH2 0x3CB PUSH0 DUP4 ADD DUP5 PUSH2 0x3A9 JUMP JUMPDEST SWAP3 SWAP2 POP POP JUMP JUMPDEST PUSH0 DUP2 MLOAD SWAP1 POP SWAP2 SWAP1 POP JUMP JUMPDEST PUSH32 0x4E487B7100000000000000000000000000000000000000000000000000000000 PUSH0 MSTORE PUSH1 0x22 PUSH1 0x4 MSTORE PUSH1 0x24 PUSH0 REVERT JUMPDEST PUSH0 PUSH1 0x2 DUP3 DIV SWAP1 POP PUSH1 0x1 DUP3 AND DUP1 PUSH2 0x41F JUMPI PUSH1 0x7F DUP3 AND SWAP2 POP JUMPDEST PUSH1 0x20 DUP3 LT DUP2 SUB PUSH2 0x432 JUMPI PUSH2 0x431 PUSH2 0x3DB JUMP JUMPDEST JUMPDEST POP SWAP2 SWAP1 POP JUMP JUMPDEST PUSH0 DUP2 SWAP1 POP DUP2 PUSH0 MSTORE PUSH1 0x20 PUSH0 KECCAK256 SWAP1 POP SWAP2 SWAP1 POP JUMP JUMPDEST PUSH0 PUSH1 0x20 PUSH1 0x1F DUP4 ADD DIV SWAP1 POP SWAP2 SWAP1 POP JUMP JUMPDEST PUSH0 DUP3 DUP3 SHL SWAP1 POP SWAP3 SWAP2 POP POP JUMP JUMPDEST PUSH0 PUSH1 0x8 DUP4 MUL PUSH2 0x494 PUSH32 0xFFFFFFFFFFFFFFFFFFFFFFFFFFFFFFFFFFFFFFFFFFFFFFFFFFFFFFFFFFFFFFFF DUP3 PUSH2 0x459 JUMP JUMPDEST PUSH2 0x49E DUP7 DUP4 PUSH2 0x459 JUMP JUMPDEST SWAP6 POP DUP1 NOT DUP5 AND SWAP4 POP DUP1 DUP7 AND DUP5 OR SWAP3 POP POP POP SWAP4 SWAP3 POP POP POP JUMP JUMPDEST PUSH0 DUP2 SWAP1 POP SWAP2 SWAP1 POP JUMP JUMPDEST PUSH0 DUP2 SWAP1 POP SWAP2 SWAP1 POP JUMP JUMPDEST PUSH0 PUSH2 0x4E2 PUSH2 0x4DD PUSH2 0x4D8 DUP5 PUSH2 0x4B6 JUMP JUMPDEST PUSH2 0x4BF JUMP JUMPDEST PUSH2 0x4B6 JUMP JUMPDEST SWAP1 POP SWAP2 SWAP1 POP JUMP JUMPDEST PUSH0 DUP2 SWAP1 POP SWAP2 SWAP1 POP JUMP JUMPDEST PUSH2 0x4FB DUP4 PUSH2 0x4C8 JUMP JUMPDEST PUSH2 0x50F PUSH2 0x507 DUP3 PUSH2 0x4E9 JUMP JUMPDEST DUP5 DUP5 SLOAD PUSH2 0x465 JUMP JUMPDEST DUP3 SSTORE POP POP POP POP JUMP JUMPDEST PUSH0 SWAP1 JUMP JUMPDEST PUSH2 0x523 PUSH2 0x517 JUMP JUMPDEST PUSH2 0x52E DUP2 DUP5 DUP5 PUSH2 0x4F2 JUMP JUMPDEST POP POP POP JUMP JUMPDEST JUMPDEST DUP2 DUP2 LT ISZERO PUSH2 0x551 JUMPI PUSH2 0x546 PUSH0 DUP3 PUSH2 0x51B JUMP JUMPDEST PUSH1 0x1 DUP2 ADD SWAP1 POP PUSH2 0x534 JUMP JUMPDEST POP POP JUMP JUMPDEST PUSH1 0x1F DUP3 GT ISZERO PUSH2 0x596 JUMPI PUSH2 0x567 DUP2 PUSH2 0x438 JUMP JUMPDEST PUSH2 0x570 DUP5 PUSH2 0x44A JUMP JUMPDEST DUP2 ADD PUSH1 0x20 DUP6 LT ISZERO PUSH2 0x57F JUMPI DUP2 SWAP1 POP JUMPDEST PUSH2 0x593 PUSH2 0x58B DUP6 PUSH2 0x44A JUMP JUMPDEST DUP4 ADD DUP3 PUSH2 0x533 JUMP JUMPDEST POP POP JUMPDEST POP POP POP JUMP JUMPDEST PUSH0 DUP3 DUP3 SHR SWAP1 POP SWAP3 SWAP2 POP POP JUMP JUMPDEST PUSH0 PUSH2 0x5B6 PUSH0 NOT DUP5 PUSH1 0x8 MUL PUSH2 0x59B JUMP JUMPDEST NOT DUP1 DUP4 AND SWAP2 POP POP SWAP3 SWAP2 POP POP JUMP JUMPDEST PUSH0 PUSH2 0x5CE DUP4 DUP4 PUSH2 0x5A7 JUMP JUMPDEST SWAP2 POP DUP3 PUSH1 0x2 MUL DUP3 OR SWAP1 POP SWAP3 SWAP2 POP POP JUMP JUMPDEST PUSH2 0x5E7 DUP3 PUSH2 0x3D1 JUMP JUMPDEST PUSH8 0xFFFFFFFFFFFFFFFF DUP2 GT ISZERO PUSH2 0x600 JUMPI PUSH2 0x5FF PUSH2 0x22B JUMP JUMPDEST JUMPDEST PUSH2 0x60A DUP3 SLOAD PUSH2 0x408 JUMP JUMPDEST PUSH2 0x615 DUP3 DUP3 DUP6 PUSH2 0x555 JUMP JUMPDEST PUSH0 PUSH1 0x20 SWAP1 POP PUSH1 0x1F DUP4 GT PUSH1 0x1 DUP2 EQ PUSH2 0x646 JUMPI PUSH0 DUP5 ISZERO PUSH2 0x634 JUMPI DUP3 DUP8 ADD MLOAD SWAP1 POP JUMPDEST PUSH2 0x63E DUP6 DUP3 PUSH2 0x5C3 JUMP JUMPDEST DUP7 SSTORE POP PUSH2 0x6A5 JUMP JUMPDEST PUSH1 0x1F NOT DUP5 AND PUSH2 0x654 DUP7 PUSH2 0x438 JUMP JUMPDEST PUSH0 JUMPDEST DUP3 DUP2 LT ISZERO PUSH2 0x67B JUMPI DUP5 DUP10 ADD MLOAD DUP3 SSTORE PUSH1 0x1 DUP3 ADD SWAP2 POP PUSH1 0x20 DUP6 ADD SWAP5 POP PUSH1 0x20 DUP2 ADD SWAP1 POP PUSH2 0x656 JUMP JUMPDEST DUP7 DUP4 LT ISZERO PUSH2 0x698 JUMPI DUP5 DUP10 ADD MLOAD PUSH2 0x694 PUSH1 0x1F DUP10 AND DUP3 PUSH2 0x5A7 JUMP JUMPDEST DUP4 SSTORE POP JUMPDEST PUSH1 0x1 PUSH1 0x2 DUP9 MUL ADD DUP9 SSTORE POP POP POP JUMPDEST POP POP POP POP POP POP JUMP JUMPDEST PUSH2 0x2A3A DUP1 PUSH2 0x6BA PUSH0 CODECOPY PUSH0 RETURN INVALID PUSH1 0x80 PUSH1 0x40 MSTORE CALLVALUE DUP1 ISZERO PUSH2 0xF JUMPI PUSH0 DUP1 REVERT JUMPDEST POP PUSH1 0x4 CALLDATASIZE LT PUSH2 0xFD JUMPI PUSH0 CALLDATALOAD PUSH1 0xE0 SHR DUP1 PUSH4 0x715018A6 GT PUSH2 0x95 JUMPI DUP1 PUSH4 0xE985E9C5 GT PUSH2 0x64 JUMPI DUP1 PUSH4 0xE985E9C5 EQ PUSH2 0x291 JUMPI DUP1 PUSH4 0xF242432A EQ PUSH2 0x2C1 JUMPI DUP1 PUSH4 0xF2FDE38B EQ PUSH2 0x2DD JUMPI DUP1 PUSH4 0xF5298ACA EQ PUSH2 0x2F9 JUMPI PUSH2 0xFD JUMP JUMPDEST DUP1 PUSH4 0x715018A6 EQ PUSH2 0x231 JUMPI DUP1 PUSH4 0x8DA5CB5B EQ PUSH2 0x23B JUMPI DUP1 PUSH4 0xA22CB465 EQ PUSH2 0x259 JUMPI DUP1 PUSH4 0xB510391F EQ PUSH2 0x275 JUMPI PUSH2 0xFD JUMP JUMPDEST DUP1 PUSH4 0x2EB2C2D6 GT PUSH2 0xD1 JUMPI DUP1 PUSH4 0x2EB2C2D6 EQ PUSH2 0x1AD JUMPI DUP1 PUSH4 0x31F0E6C8 EQ PUSH2 0x1C9 JUMPI DUP1 PUSH4 0x4E1273F4 EQ PUSH2 0x1E5 JUMPI DUP1 PUSH4 0x6B20C454 EQ PUSH2 0x215 JUMPI PUSH2 0xFD JUMP JUMPDEST DUP1 PUSH3 0xFDD58E EQ PUSH2 0x101 JUMPI DUP1 PUSH4 0x1FFC9A7 EQ PUSH2 0x131 JUMPI DUP1 PUSH4 0x2FE5305 EQ PUSH2 0x161 JUMPI DUP1 PUSH4 0xE89341C EQ PUSH2 0x17D JUMPI JUMPDEST PUSH0 DUP1 REVERT JUMPDEST PUSH2 0x11B PUSH1 0x4 DUP1 CALLDATASIZE SUB DUP2 ADD SWAP1 PUSH2 0x116 SWAP2 SWAP1 PUSH2 0x19EE JUMP JUMPDEST PUSH2 0x315 JUMP JUMPDEST PUSH1 0x40 MLOAD PUSH2 0x128 SWAP2 SWAP1 PUSH2 0x1A3B JUMP JUMPDEST PUSH1 0x40 MLOAD DUP1 SWAP2 SUB SWAP1 RETURN JUMPDEST PUSH2 0x14B PUSH1 0x4 DUP1 CALLDATASIZE SUB DUP2 ADD SWAP1 PUSH2 0x146 SWAP2 SWAP1 PUSH2 0x1AA9 JUMP JUMPDEST PUSH2 0x36A JUMP JUMPDEST PUSH1 0x40 MLOAD PUSH2 0x158 SWAP2 SWAP1 PUSH2 0x1AEE JUMP JUMPDEST PUSH1 0x40 MLOAD DUP1 SWAP2 SUB SWAP1 RETURN JUMPDEST PUSH2 0x17B PUSH1 0x4 DUP1 CALLDATASIZE SUB DUP2 ADD SWAP1 PUSH2 0x176 SWAP2 SWAP1 PUSH2 0x1C43 JUMP JUMPDEST PUSH2 0x44B JUMP JUMPDEST STOP JUMPDEST PUSH2 0x197 PUSH1 0x4 DUP1 CALLDATASIZE SUB DUP2 ADD SWAP1 PUSH2 0x192 SWAP2 SWAP1 PUSH2 0x1C8A JUMP JUMPDEST PUSH2 0x45F JUMP JUMPDEST PUSH1 0x40 MLOAD PUSH2 0x1A4 SWAP2 SWAP1 PUSH2 0x1D15 JUMP JUMPDEST PUSH1 0x40 MLOAD DUP1 SWAP2 SUB SWAP1 RETURN JUMPDEST PUSH2 0x1C7 PUSH1 0x4 DUP1 CALLDATASIZE SUB DUP2 ADD SWAP1 PUSH2 0x1C2 SWAP2 SWAP1 PUSH2 0x1E97 JUMP JUMPDEST PUSH2 0x4F1 JUMP JUMPDEST STOP JUMPDEST PUSH2 0x1E3 PUSH1 0x4 DUP1 CALLDATASIZE SUB DUP2 ADD SWAP1 PUSH2 0x1DE SWAP2 SWAP1 PUSH2 0x1F62 JUMP JUMPDEST PUSH2 0x598 JUMP JUMPDEST STOP JUMPDEST PUSH2 0x1FF PUSH1 0x4 DUP1 CALLDATASIZE SUB DUP2 ADD SWAP1 PUSH2 0x1FA SWAP2 SWAP1 PUSH2 0x208E JUMP JUMPDEST PUSH2 0x5C7 JUMP JUMPDEST PUSH1 0x40 MLOAD PUSH2 0x20C SWAP2 SWAP1 PUSH2 0x21BB JUMP JUMPDEST PUSH1 0x40 MLOAD DUP1 SWAP2 SUB SWAP1 RETURN JUMPDEST PUSH2 0x22F PUSH1 0x4 DUP1 CALLDATASIZE SUB DUP2 ADD SWAP1 PUSH2 0x22A SWAP2 SWAP1 PUSH2 0x21DB JUMP JUMPDEST PUSH2 0x6CE JUMP JUMPDEST STOP JUMPDEST PUSH2 0x239 PUSH2 0x77A JUMP JUMPDEST STOP JUMPDEST PUSH2 0x243 PUSH2 0x78D JUMP JUMPDEST PUSH1 0x40 MLOAD PUSH2 0x250 SWAP2 SWAP1 PUSH2 0x2272 JUMP JUMPDEST PUSH1 0x40 MLOAD DUP1 SWAP2 SUB SWAP1 RETURN JUMPDEST PUSH2 0x273 PUSH1 0x4 DUP1 CALLDATASIZE SUB DUP2 ADD SWAP1 PUSH2 0x26E SWAP2 SWAP1 PUSH2 0x22B5 JUMP JUMPDEST PUSH2 0x7B5 JUMP JUMPDEST STOP JUMPDEST PUSH2 0x28F PUSH1 0x4 DUP1 CALLDATASIZE SUB DUP2 ADD SWAP1 PUSH2 0x28A SWAP2 SWAP1 PUSH2 0x22F3 JUMP JUMPDEST PUSH2 0x7CB JUMP JUMPDEST STOP JUMPDEST PUSH2 0x2AB PUSH1 0x4 DUP1 CALLDATASIZE SUB DUP2 ADD SWAP1 PUSH2 0x2A6 SWAP2 SWAP1 PUSH2 0x234D JUMP JUMPDEST PUSH2 0x804 JUMP JUMPDEST PUSH1 0x40 MLOAD PUSH2 0x2B8 SWAP2 SWAP1 PUSH2 0x1AEE JUMP JUMPDEST PUSH1 0x40 MLOAD DUP1 SWAP2 SUB SWAP1 RETURN JUMPDEST PUSH2 0x2DB PUSH1 0x4 DUP1 CALLDATASIZE SUB DUP2 ADD SWAP1 PUSH2 0x2D6 SWAP2 SWAP1 PUSH2 0x238B JUMP JUMPDEST PUSH2 0x892 JUMP JUMPDEST STOP JUMPDEST PUSH2 0x2F7 PUSH1 0x4 DUP1 CALLDATASIZE SUB DUP2 ADD SWAP1 PUSH2 0x2F2 SWAP2 SWAP1 PUSH2 0x241E JUMP JUMPDEST PUSH2 0x939 JUMP JUMPDEST STOP JUMPDEST PUSH2 0x313 PUSH1 0x4 DUP1 CALLDATASIZE SUB DUP2 ADD SWAP1 PUSH2 0x30E SWAP2 SWAP1 PUSH2 0x2449 JUMP JUMPDEST PUSH2 0x9BD JUMP JUMPDEST STOP JUMPDEST PUSH0 DUP1 PUSH0 DUP4 DUP2 MSTORE PUSH1 0x20 ADD SWAP1 DUP2 MSTORE PUSH1 0x20 ADD PUSH0 KECCAK256 PUSH0 DUP5 PUSH20 0xFFFFFFFFFFFFFFFFFFFFFFFFFFFFFFFFFFFFFFFF AND PUSH20 0xFFFFFFFFFFFFFFFFFFFFFFFFFFFFFFFFFFFFFFFF AND DUP2 MSTORE PUSH1 0x20 ADD SWAP1 DUP2 MSTORE PUSH1 0x20 ADD PUSH0 KECCAK256 SLOAD SWAP1 POP SWAP3 SWAP2 POP POP JUMP JUMPDEST PUSH0 PUSH32 0xD9B67A2600000000000000000000000000000000000000000000000000000000 PUSH28 0xFFFFFFFFFFFFFFFFFFFFFFFFFFFFFFFFFFFFFFFFFFFFFFFFFFFFFFFF NOT AND DUP3 PUSH28 0xFFFFFFFFFFFFFFFFFFFFFFFFFFFFFFFFFFFFFFFFFFFFFFFFFFFFFFFF NOT AND EQ DUP1 PUSH2 0x434 JUMPI POP PUSH32 0xE89341C00000000000000000000000000000000000000000000000000000000 PUSH28 0xFFFFFFFFFFFFFFFFFFFFFFFFFFFFFFFFFFFFFFFFFFFFFFFFFFFFFFFF NOT AND DUP3 PUSH28 0xFFFFFFFFFFFFFFFFFFFFFFFFFFFFFFFFFFFFFFFFFFFFFFFFFFFFFFFF NOT AND EQ JUMPDEST DUP1 PUSH2 0x444 JUMPI POP PUSH2 0x443 DUP3 PUSH2 0xA69 JUMP JUMPDEST JUMPDEST SWAP1 POP SWAP2 SWAP1 POP JUMP JUMPDEST PUSH2 0x453 PUSH2 0xAD2 JUMP JUMPDEST PUSH2 0x45C DUP2 PUSH2 0xB59 JUMP JUMPDEST POP JUMP JUMPDEST PUSH1 0x60 PUSH1 0x2 DUP1 SLOAD PUSH2 0x46E SWAP1 PUSH2 0x24C6 JUMP JUMPDEST DUP1 PUSH1 0x1F ADD PUSH1 0x20 DUP1 SWAP2 DIV MUL PUSH1 0x20 ADD PUSH1 0x40 MLOAD SWAP1 DUP2 ADD PUSH1 0x40 MSTORE DUP1 SWAP3 SWAP2 SWAP1 DUP2 DUP2 MSTORE PUSH1 0x20 ADD DUP3 DUP1 SLOAD PUSH2 0x49A SWAP1 PUSH2 0x24C6 JUMP JUMPDEST DUP1 ISZERO PUSH2 0x4E5 JUMPI DUP1 PUSH1 0x1F LT PUSH2 0x4BC JUMPI PUSH2 0x100 DUP1 DUP4 SLOAD DIV MUL DUP4 MSTORE SWAP2 PUSH1 0x20 ADD SWAP2 PUSH2 0x4E5 JUMP JUMPDEST DUP3 ADD SWAP2 SWAP1 PUSH0 MSTORE PUSH1 0x20 PUSH0 KECCAK256 SWAP1 JUMPDEST DUP2 SLOAD DUP2 MSTORE SWAP1 PUSH1 0x1 ADD SWAP1 PUSH1 0x20 ADD DUP1 DUP4 GT PUSH2 0x4C8 JUMPI DUP3 SWAP1 SUB PUSH1 0x1F AND DUP3 ADD SWAP2 JUMPDEST POP POP POP POP POP SWAP1 POP SWAP2 SWAP1 POP JUMP JUMPDEST PUSH0 PUSH2 0x4FA PUSH2 0xB6C JUMP JUMPDEST SWAP1 POP DUP1 PUSH20 0xFFFFFFFFFFFFFFFFFFFFFFFFFFFFFFFFFFFFFFFF AND DUP7 PUSH20 0xFFFFFFFFFFFFFFFFFFFFFFFFFFFFFFFFFFFFFFFF AND EQ ISZERO DUP1 ISZERO PUSH2 0x53F JUMPI POP PUSH2 0x53D DUP7 DUP3 PUSH2 0x804 JUMP JUMPDEST ISZERO JUMPDEST ISZERO PUSH2 0x583 JUMPI DUP1 DUP7 PUSH1 0x40 MLOAD PUSH32 0xE237D92200000000000000000000000000000000000000000000000000000000 DUP2 MSTORE PUSH1 0x4 ADD PUSH2 0x57A SWAP3 SWAP2 SWAP1 PUSH2 0x24F6 JUMP JUMPDEST PUSH1 0x40 MLOAD DUP1 SWAP2 SUB SWAP1 REVERT JUMPDEST PUSH2 0x590 DUP7 DUP7 DUP7 DUP7 DUP7 PUSH2 0xB73 JUMP JUMPDEST POP POP POP POP POP POP JUMP JUMPDEST PUSH2 0x5A0 PUSH2 0xAD2 JUMP JUMPDEST PUSH0 JUMPDEST DUP3 DUP2 LT ISZERO PUSH2 0x5C1 JUMPI PUSH2 0x5B4 DUP5 DUP4 PUSH2 0x7CB JUMP JUMPDEST DUP1 DUP1 PUSH1 0x1 ADD SWAP2 POP POP PUSH2 0x5A2 JUMP JUMPDEST POP POP POP POP JUMP JUMPDEST PUSH1 0x60 DUP2 MLOAD DUP4 MLOAD EQ PUSH2 0x613 JUMPI DUP2 MLOAD DUP4 MLOAD PUSH1 0x40 MLOAD PUSH32 0x5B05999100000000000000000000000000000000000000000000000000000000 DUP2 MSTORE PUSH1 0x4 ADD PUSH2 0x60A SWAP3 SWAP2 SWAP1 PUSH2 0x251D JUMP JUMPDEST PUSH1 0x40 MLOAD DUP1 SWAP2 SUB SWAP1 REVERT JUMPDEST PUSH0 DUP4 MLOAD PUSH8 0xFFFFFFFFFFFFFFFF DUP2 GT ISZERO PUSH2 0x62F JUMPI PUSH2 0x62E PUSH2 0x1B1F JUMP JUMPDEST JUMPDEST PUSH1 0x40 MLOAD SWAP1 DUP1 DUP3 MSTORE DUP1 PUSH1 0x20 MUL PUSH1 0x20 ADD DUP3 ADD PUSH1 0x40 MSTORE DUP1 ISZERO PUSH2 0x65D JUMPI DUP2 PUSH1 0x20 ADD PUSH1 0x20 DUP3 MUL DUP1 CALLDATASIZE DUP4 CALLDATACOPY DUP1 DUP3 ADD SWAP2 POP POP SWAP1 POP JUMPDEST POP SWAP1 POP PUSH0 JUMPDEST DUP5 MLOAD DUP2 LT ISZERO PUSH2 0x6C3 JUMPI PUSH2 0x699 PUSH2 0x681 DUP3 DUP8 PUSH2 0xC67 SWAP1 SWAP2 SWAP1 PUSH4 0xFFFFFFFF AND JUMP JUMPDEST PUSH2 0x694 DUP4 DUP8 PUSH2 0xC7A SWAP1 SWAP2 SWAP1 PUSH4 0xFFFFFFFF AND JUMP JUMPDEST PUSH2 0x315 JUMP JUMPDEST DUP3 DUP3 DUP2 MLOAD DUP2 LT PUSH2 0x6AC JUMPI PUSH2 0x6AB PUSH2 0x2544 JUMP JUMPDEST JUMPDEST PUSH1 0x20 MUL PUSH1 0x20 ADD ADD DUP2 DUP2 MSTORE POP POP DUP1 PUSH1 0x1 ADD SWAP1 POP PUSH2 0x662 JUMP JUMPDEST POP DUP1 SWAP2 POP POP SWAP3 SWAP2 POP POP JUMP JUMPDEST PUSH2 0x6D6 PUSH2 0xB6C JUMP JUMPDEST PUSH20 0xFFFFFFFFFFFFFFFFFFFFFFFFFFFFFFFFFFFFFFFF AND DUP4 PUSH20 0xFFFFFFFFFFFFFFFFFFFFFFFFFFFFFFFFFFFFFFFF AND EQ ISZERO DUP1 ISZERO PUSH2 0x71F JUMPI POP PUSH2 0x71D DUP4 PUSH2 0x718 PUSH2 0xB6C JUMP JUMPDEST PUSH2 0x804 JUMP JUMPDEST ISZERO JUMPDEST ISZERO PUSH2 0x76A JUMPI PUSH2 0x72C PUSH2 0xB6C JUMP JUMPDEST DUP4 PUSH1 0x40 MLOAD PUSH32 0xE237D92200000000000000000000000000000000000000000000000000000000 DUP2 MSTORE PUSH1 0x4 ADD PUSH2 0x761 SWAP3 SWAP2 SWAP1 PUSH2 0x24F6 JUMP JUMPDEST PUSH1 0x40 MLOAD DUP1 SWAP2 SUB SWAP1 REVERT JUMPDEST PUSH2 0x775 DUP4 DUP4 DUP4 PUSH2 0xC8D JUMP JUMPDEST POP POP POP JUMP JUMPDEST PUSH2 0x782 PUSH2 0xAD2 JUMP JUMPDEST PUSH2 0x78B PUSH0 PUSH2 0xD1D JUMP JUMPDEST JUMP JUMPDEST PUSH0 PUSH1 0x3 PUSH0 SWAP1 SLOAD SWAP1 PUSH2 0x100 EXP SWAP1 DIV PUSH20 0xFFFFFFFFFFFFFFFFFFFFFFFFFFFFFFFFFFFFFFFF AND SWAP1 POP SWAP1 JUMP JUMPDEST PUSH2 0x7C7 PUSH2 0x7C0 PUSH2 0xB6C JUMP JUMPDEST DUP4 DUP4 PUSH2 0xDE0 JUMP JUMPDEST POP POP JUMP JUMPDEST PUSH2 0x7D3 PUSH2 0xAD2 JUMP JUMPDEST PUSH0 PUSH1 0x4 SLOAD SWAP1 POP PUSH2 0x7E6 DUP4 DUP3 PUSH1 0x1 DUP6 PUSH2 0xF49 JUMP JUMPDEST PUSH1 0x1 PUSH1 0x4 PUSH0 DUP3 DUP3 SLOAD PUSH2 0x7F8 SWAP2 SWAP1 PUSH2 0x259E JUMP JUMPDEST SWAP3 POP POP DUP2 SWAP1 SSTORE POP POP POP POP JUMP JUMPDEST PUSH0 PUSH1 0x1 PUSH0 DUP5 PUSH20 0xFFFFFFFFFFFFFFFFFFFFFFFFFFFFFFFFFFFFFFFF AND PUSH20 0xFFFFFFFFFFFFFFFFFFFFFFFFFFFFFFFFFFFFFFFF AND DUP2 MSTORE PUSH1 0x20 ADD SWAP1 DUP2 MSTORE PUSH1 0x20 ADD PUSH0 KECCAK256 PUSH0 DUP4 PUSH20 0xFFFFFFFFFFFFFFFFFFFFFFFFFFFFFFFFFFFFFFFF AND PUSH20 0xFFFFFFFFFFFFFFFFFFFFFFFFFFFFFFFFFFFFFFFF AND DUP2 MSTORE PUSH1 0x20 ADD SWAP1 DUP2 MSTORE PUSH1 0x20 ADD PUSH0 KECCAK256 PUSH0 SWAP1 SLOAD SWAP1 PUSH2 0x100 EXP SWAP1 DIV PUSH1 0xFF AND SWAP1 POP SWAP3 SWAP2 POP POP JUMP JUMPDEST PUSH0 PUSH2 0x89B PUSH2 0xB6C JUMP JUMPDEST SWAP1 POP DUP1 PUSH20 0xFFFFFFFFFFFFFFFFFFFFFFFFFFFFFFFFFFFFFFFF AND DUP7 PUSH20 0xFFFFFFFFFFFFFFFFFFFFFFFFFFFFFFFFFFFFFFFF AND EQ ISZERO DUP1 ISZERO PUSH2 0x8E0 JUMPI POP PUSH2 0x8DE DUP7 DUP3 PUSH2 0x804 JUMP JUMPDEST ISZERO JUMPDEST ISZERO PUSH2 0x924 JUMPI DUP1 DUP7 PUSH1 0x40 MLOAD PUSH32 0xE237D92200000000000000000000000000000000000000000000000000000000 DUP2 MSTORE PUSH1 0x4 ADD PUSH2 0x91B SWAP3 SWAP2 SWAP1 PUSH2 0x24F6 JUMP JUMPDEST PUSH1 0x40 MLOAD DUP1 SWAP2 SUB SWAP1 REVERT JUMPDEST PUSH2 0x931 DUP7 DUP7 DUP7 DUP7 DUP7 PUSH2 0xFDE JUMP JUMPDEST POP POP POP POP POP POP JUMP JUMPDEST PUSH2 0x941 PUSH2 0xAD2 JUMP JUMPDEST PUSH0 PUSH20 0xFFFFFFFFFFFFFFFFFFFFFFFFFFFFFFFFFFFFFFFF AND DUP2 PUSH20 0xFFFFFFFFFFFFFFFFFFFFFFFFFFFFFFFFFFFFFFFF AND SUB PUSH2 0x9B1 JUMPI PUSH0 PUSH1 0x40 MLOAD PUSH32 0x1E4FBDF700000000000000000000000000000000000000000000000000000000 DUP2 MSTORE PUSH1 0x4 ADD PUSH2 0x9A8 SWAP2 SWAP1 PUSH2 0x2272 JUMP JUMPDEST PUSH1 0x40 MLOAD DUP1 SWAP2 SUB SWAP1 REVERT JUMPDEST PUSH2 0x9BA DUP2 PUSH2 0xD1D JUMP JUMPDEST POP JUMP JUMPDEST PUSH2 0x9C5 PUSH2 0xB6C JUMP JUMPDEST PUSH20 0xFFFFFFFFFFFFFFFFFFFFFFFFFFFFFFFFFFFFFFFF AND DUP4 PUSH20 0xFFFFFFFFFFFFFFFFFFFFFFFFFFFFFFFFFFFFFFFF AND EQ ISZERO DUP1 ISZERO PUSH2 0xA0E JUMPI POP PUSH2 0xA0C DUP4 PUSH2 0xA07 PUSH2 0xB6C JUMP JUMPDEST PUSH2 0x804 JUMP JUMPDEST ISZERO JUMPDEST ISZERO PUSH2 0xA59 JUMPI PUSH2 0xA1B PUSH2 0xB6C JUMP JUMPDEST DUP4 PUSH1 0x40 MLOAD PUSH32 0xE237D92200000000000000000000000000000000000000000000000000000000 DUP2 MSTORE PUSH1 0x4 ADD PUSH2 0xA50 SWAP3 SWAP2 SWAP1 PUSH2 0x24F6 JUMP JUMPDEST PUSH1 0x40 MLOAD DUP1 SWAP2 SUB SWAP1 REVERT JUMPDEST PUSH2 0xA64 DUP4 DUP4 DUP4 PUSH2 0x10E4 JUMP JUMPDEST POP POP POP JUMP JUMPDEST PUSH0 PUSH32 0x1FFC9A700000000000000000000000000000000000000000000000000000000 PUSH28 0xFFFFFFFFFFFFFFFFFFFFFFFFFFFFFFFFFFFFFFFFFFFFFFFFFFFFFFFF NOT AND DUP3 PUSH28 0xFFFFFFFFFFFFFFFFFFFFFFFFFFFFFFFFFFFFFFFFFFFFFFFFFFFFFFFF NOT AND EQ SWAP1 POP SWAP2 SWAP1 POP JUMP JUMPDEST PUSH2 0xADA PUSH2 0xB6C JUMP JUMPDEST PUSH20 0xFFFFFFFFFFFFFFFFFFFFFFFFFFFFFFFFFFFFFFFF AND PUSH2 0xAF8 PUSH2 0x78D JUMP JUMPDEST PUSH20 0xFFFFFFFFFFFFFFFFFFFFFFFFFFFFFFFFFFFFFFFF AND EQ PUSH2 0xB57 JUMPI PUSH2 0xB1B PUSH2 0xB6C JUMP JUMPDEST PUSH1 0x40 MLOAD PUSH32 0x118CDAA700000000000000000000000000000000000000000000000000000000 DUP2 MSTORE PUSH1 0x4 ADD PUSH2 0xB4E SWAP2 SWAP1 PUSH2 0x2272 JUMP JUMPDEST PUSH1 0x40 MLOAD DUP1 SWAP2 SUB SWAP1 REVERT JUMPDEST JUMP JUMPDEST DUP1 PUSH1 0x2 SWAP1 DUP2 PUSH2 0xB68 SWAP2 SWAP1 PUSH2 0x276E JUMP JUMPDEST POP POP JUMP JUMPDEST PUSH0 CALLER SWAP1 POP SWAP1 JUMP JUMPDEST PUSH0 PUSH20 0xFFFFFFFFFFFFFFFFFFFFFFFFFFFFFFFFFFFFFFFF AND DUP5 PUSH20 0xFFFFFFFFFFFFFFFFFFFFFFFFFFFFFFFFFFFFFFFF AND SUB PUSH2 0xBE3 JUMPI PUSH0 PUSH1 0x40 MLOAD PUSH32 0x57F447CE00000000000000000000000000000000000000000000000000000000 DUP2 MSTORE PUSH1 0x4 ADD PUSH2 0xBDA SWAP2 SWAP1 PUSH2 0x2272 JUMP JUMPDEST PUSH1 0x40 MLOAD DUP1 SWAP2 SUB SWAP1 REVERT JUMPDEST PUSH0 PUSH20 0xFFFFFFFFFFFFFFFFFFFFFFFFFFFFFFFFFFFFFFFF AND DUP6 PUSH20 0xFFFFFFFFFFFFFFFFFFFFFFFFFFFFFFFFFFFFFFFF AND SUB PUSH2 0xC53 JUMPI PUSH0 PUSH1 0x40 MLOAD PUSH32 0x1A8351400000000000000000000000000000000000000000000000000000000 DUP2 MSTORE PUSH1 0x4 ADD PUSH2 0xC4A SWAP2 SWAP1 PUSH2 0x2272 JUMP JUMPDEST PUSH1 0x40 MLOAD DUP1 SWAP2 SUB SWAP1 REVERT JUMPDEST PUSH2 0xC60 DUP6 DUP6 DUP6 DUP6 DUP6 PUSH2 0x1186 JUMP JUMPDEST POP POP POP POP POP JUMP JUMPDEST PUSH0 PUSH1 0x20 DUP3 MUL PUSH1 0x20 DUP5 ADD ADD MLOAD SWAP1 POP SWAP3 SWAP2 POP POP JUMP JUMPDEST PUSH0 PUSH1 0x20 DUP3 MUL PUSH1 0x20 DUP5 ADD ADD MLOAD SWAP1 POP SWAP3 SWAP2 POP POP JUMP JUMPDEST PUSH0 PUSH20 0xFFFFFFFFFFFFFFFFFFFFFFFFFFFFFFFFFFFFFFFF AND DUP4 PUSH20 0xFFFFFFFFFFFFFFFFFFFFFFFFFFFFFFFFFFFFFFFF AND SUB PUSH2 0xCFD JUMPI PUSH0 PUSH1 0x40 MLOAD PUSH32 0x1A8351400000000000000000000000000000000000000000000000000000000 DUP2 MSTORE PUSH1 0x4 ADD PUSH2 0xCF4 SWAP2 SWAP1 PUSH2 0x2272 JUMP JUMPDEST PUSH1 0x40 MLOAD DUP1 SWAP2 SUB SWAP1 REVERT JUMPDEST PUSH2 0xD18 DUP4 PUSH0 DUP5 DUP5 PUSH1 0x40 MLOAD DUP1 PUSH1 0x20 ADD PUSH1 0x40 MSTORE DUP1 PUSH0 DUP2 MSTORE POP PUSH2 0x1186 JUMP JUMPDEST POP POP POP JUMP JUMPDEST PUSH0 PUSH1 0x3 PUSH0 SWAP1 SLOAD SWAP1 PUSH2 0x100 EXP SWAP1 DIV PUSH20 0xFFFFFFFFFFFFFFFFFFFFFFFFFFFFFFFFFFFFFFFF AND SWAP1 POP DUP2 PUSH1 0x3 PUSH0 PUSH2 0x100 EXP DUP2 SLOAD DUP2 PUSH20 0xFFFFFFFFFFFFFFFFFFFFFFFFFFFFFFFFFFFFFFFF MUL NOT AND SWAP1 DUP4 PUSH20 0xFFFFFFFFFFFFFFFFFFFFFFFFFFFFFFFFFFFFFFFF AND MUL OR SWAP1 SSTORE POP DUP2 PUSH20 0xFFFFFFFFFFFFFFFFFFFFFFFFFFFFFFFFFFFFFFFF AND DUP2 PUSH20 0xFFFFFFFFFFFFFFFFFFFFFFFFFFFFFFFFFFFFFFFF AND PUSH32 0x8BE0079C531659141344CD1FD0A4F28419497F9722A3DAAFE3B4186F6B6457E0 PUSH1 0x40 MLOAD PUSH1 0x40 MLOAD DUP1 SWAP2 SUB SWAP1 LOG3 POP POP JUMP JUMPDEST PUSH0 PUSH20 0xFFFFFFFFFFFFFFFFFFFFFFFFFFFFFFFFFFFFFFFF AND DUP3 PUSH20 0xFFFFFFFFFFFFFFFFFFFFFFFFFFFFFFFFFFFFFFFF AND SUB PUSH2 0xE50 JUMPI PUSH0 PUSH1 0x40 MLOAD PUSH32 0xCED3E10000000000000000000000000000000000000000000000000000000000 DUP2 MSTORE PUSH1 0x4 ADD PUSH2 0xE47 SWAP2 SWAP1 PUSH2 0x2272 JUMP JUMPDEST PUSH1 0x40 MLOAD DUP1 SWAP2 SUB SWAP1 REVERT JUMPDEST DUP1 PUSH1 0x1 PUSH0 DUP6 PUSH20 0xFFFFFFFFFFFFFFFFFFFFFFFFFFFFFFFFFFFFFFFF AND PUSH20 0xFFFFFFFFFFFFFFFFFFFFFFFFFFFFFFFFFFFFFFFF AND DUP2 MSTORE PUSH1 0x20 ADD SWAP1 DUP2 MSTORE PUSH1 0x20 ADD PUSH0 KECCAK256 PUSH0 DUP5 PUSH20 0xFFFFFFFFFFFFFFFFFFFFFFFFFFFFFFFFFFFFFFFF AND PUSH20 0xFFFFFFFFFFFFFFFFFFFFFFFFFFFFFFFFFFFFFFFF AND DUP2 MSTORE PUSH1 0x20 ADD SWAP1 DUP2 MSTORE PUSH1 0x20 ADD PUSH0 KECCAK256 PUSH0 PUSH2 0x100 EXP DUP2 SLOAD DUP2 PUSH1 0xFF MUL NOT AND SWAP1 DUP4 ISZERO ISZERO MUL OR SWAP1 SSTORE POP DUP2 PUSH20 0xFFFFFFFFFFFFFFFFFFFFFFFFFFFFFFFFFFFFFFFF AND DUP4 PUSH20 0xFFFFFFFFFFFFFFFFFFFFFFFFFFFFFFFFFFFFFFFF AND PUSH32 0x17307EAB39AB6107E8899845AD3D59BD9653F200F220920489CA2B5937696C31 DUP4 PUSH1 0x40 MLOAD PUSH2 0xF3C SWAP2 SWAP1 PUSH2 0x1AEE JUMP JUMPDEST PUSH1 0x40 MLOAD DUP1 SWAP2 SUB SWAP1 LOG3 POP POP POP JUMP JUMPDEST PUSH0 PUSH20 0xFFFFFFFFFFFFFFFFFFFFFFFFFFFFFFFFFFFFFFFF AND DUP5 PUSH20 0xFFFFFFFFFFFFFFFFFFFFFFFFFFFFFFFFFFFFFFFF AND SUB PUSH2 0xFB9 JUMPI PUSH0 PUSH1 0x40 MLOAD PUSH32 0x57F447CE00000000000000000000000000000000000000000000000000000000 DUP2 MSTORE PUSH1 0x4 ADD PUSH2 0xFB0 SWAP2 SWAP1 PUSH2 0x2272 JUMP JUMPDEST PUSH1 0x40 MLOAD DUP1 SWAP2 SUB SWAP1 REVERT JUMPDEST PUSH0 DUP1 PUSH2 0xFC5 DUP6 DUP6 PUSH2 0x1232 JUMP JUMPDEST SWAP2 POP SWAP2 POP PUSH2 0xFD6 PUSH0 DUP8 DUP5 DUP5 DUP8 PUSH2 0x1186 JUMP JUMPDEST POP POP POP POP POP POP JUMP JUMPDEST PUSH0 PUSH20 0xFFFFFFFFFFFFFFFFFFFFFFFFFFFFFFFFFFFFFFFF AND DUP5 PUSH20 0xFFFFFFFFFFFFFFFFFFFFFFFFFFFFFFFFFFFFFFFF AND SUB PUSH2 0x104E JUMPI PUSH0 PUSH1 0x40 MLOAD PUSH32 0x57F447CE00000000000000000000000000000000000000000000000000000000 DUP2 MSTORE PUSH1 0x4 ADD PUSH2 0x1045 SWAP2 SWAP1 PUSH2 0x2272 JUMP JUMPDEST PUSH1 0x40 MLOAD DUP1 SWAP2 SUB SWAP1 REVERT JUMPDEST PUSH0 PUSH20 0xFFFFFFFFFFFFFFFFFFFFFFFFFFFFFFFFFFFFFFFF AND DUP6 PUSH20 0xFFFFFFFFFFFFFFFFFFFFFFFFFFFFFFFFFFFFFFFF AND SUB PUSH2 0x10BE JUMPI PUSH0 PUSH1 0x40 MLOAD PUSH32 0x1A8351400000000000000000000000000000000000000000000000000000000 DUP2 MSTORE PUSH1 0x4 ADD PUSH2 0x10B5 SWAP2 SWAP1 PUSH2 0x2272 JUMP JUMPDEST PUSH1 0x40 MLOAD DUP1 SWAP2 SUB SWAP1 REVERT JUMPDEST PUSH0 DUP1 PUSH2 0x10CA DUP6 DUP6 PUSH2 0x1232 JUMP JUMPDEST SWAP2 POP SWAP2 POP PUSH2 0x10DB DUP8 DUP8 DUP5 DUP5 DUP8 PUSH2 0x1186 JUMP JUMPDEST POP POP POP POP POP POP POP JUMP JUMPDEST PUSH0 PUSH20 0xFFFFFFFFFFFFFFFFFFFFFFFFFFFFFFFFFFFFFFFF AND DUP4 PUSH20 0xFFFFFFFFFFFFFFFFFFFFFFFFFFFFFFFFFFFFFFFF AND SUB PUSH2 0x1154 JUMPI PUSH0 PUSH1 0x40 MLOAD PUSH32 0x1A8351400000000000000000000000000000000000000000000000000000000 DUP2 MSTORE PUSH1 0x4 ADD PUSH2 0x114B SWAP2 SWAP1 PUSH2 0x2272 JUMP JUMPDEST PUSH1 0x40 MLOAD DUP1 SWAP2 SUB SWAP1 REVERT JUMPDEST PUSH0 DUP1 PUSH2 0x1160 DUP5 DUP5 PUSH2 0x1232 JUMP JUMPDEST SWAP2 POP SWAP2 POP PUSH2 0x117F DUP6 PUSH0 DUP5 DUP5 PUSH1 0x40 MLOAD DUP1 PUSH1 0x20 ADD PUSH1 0x40 MSTORE DUP1 PUSH0 DUP2 MSTORE POP PUSH2 0x1186 JUMP JUMPDEST POP POP POP POP POP JUMP JUMPDEST PUSH2 0x1192 DUP6 DUP6 DUP6 DUP6 PUSH2 0x1262 JUMP JUMPDEST PUSH0 PUSH20 0xFFFFFFFFFFFFFFFFFFFFFFFFFFFFFFFFFFFFFFFF AND DUP5 PUSH20 0xFFFFFFFFFFFFFFFFFFFFFFFFFFFFFFFFFFFFFFFF AND EQ PUSH2 0x122B JUMPI PUSH0 PUSH2 0x11CE PUSH2 0xB6C JUMP JUMPDEST SWAP1 POP PUSH1 0x1 DUP5 MLOAD SUB PUSH2 0x121A JUMPI PUSH0 PUSH2 0x11ED PUSH0 DUP7 PUSH2 0xC7A SWAP1 SWAP2 SWAP1 PUSH4 0xFFFFFFFF AND JUMP JUMPDEST SWAP1 POP PUSH0 PUSH2 0x1203 PUSH0 DUP7 PUSH2 0xC7A SWAP1 SWAP2 SWAP1 PUSH4 0xFFFFFFFF AND JUMP JUMPDEST SWAP1 POP PUSH2 0x1213 DUP4 DUP10 DUP10 DUP6 DUP6 DUP10 PUSH2 0x15F2 JUMP JUMPDEST POP POP PUSH2 0x1229 JUMP JUMPDEST PUSH2 0x1228 DUP2 DUP8 DUP8 DUP8 DUP8 DUP8 PUSH2 0x17A1 JUMP JUMPDEST JUMPDEST POP JUMPDEST POP POP POP POP POP JUMP JUMPDEST PUSH1 0x60 DUP1 PUSH1 0x40 MLOAD SWAP2 POP PUSH1 0x1 DUP3 MSTORE DUP4 PUSH1 0x20 DUP4 ADD MSTORE PUSH1 0x40 DUP3 ADD SWAP1 POP PUSH1 0x1 DUP2 MSTORE DUP3 PUSH1 0x20 DUP3 ADD MSTORE PUSH1 0x40 DUP2 ADD PUSH1 0x40 MSTORE SWAP3 POP SWAP3 SWAP1 POP JUMP JUMPDEST DUP1 MLOAD DUP3 MLOAD EQ PUSH2 0x12AC JUMPI DUP2 MLOAD DUP2 MLOAD PUSH1 0x40 MLOAD PUSH32 0x5B05999100000000000000000000000000000000000000000000000000000000 DUP2 MSTORE PUSH1 0x4 ADD PUSH2 0x12A3 SWAP3 SWAP2 SWAP1 PUSH2 0x251D JUMP JUMPDEST PUSH1 0x40 MLOAD DUP1 SWAP2 SUB SWAP1 REVERT JUMPDEST PUSH0 PUSH2 0x12B5 PUSH2 0xB6C JUMP JUMPDEST SWAP1 POP PUSH0 JUMPDEST DUP4 MLOAD DUP2 LT ISZERO PUSH2 0x14B1 JUMPI PUSH0 PUSH2 0x12D6 DUP3 DUP7 PUSH2 0xC7A SWAP1 SWAP2 SWAP1 PUSH4 0xFFFFFFFF AND JUMP JUMPDEST SWAP1 POP PUSH0 PUSH2 0x12EC DUP4 DUP7 PUSH2 0xC7A SWAP1 SWAP2 SWAP1 PUSH4 0xFFFFFFFF AND JUMP JUMPDEST SWAP1 POP PUSH0 PUSH20 0xFFFFFFFFFFFFFFFFFFFFFFFFFFFFFFFFFFFFFFFF AND DUP9 PUSH20 0xFFFFFFFFFFFFFFFFFFFFFFFFFFFFFFFFFFFFFFFF AND EQ PUSH2 0x140F JUMPI PUSH0 DUP1 PUSH0 DUP5 DUP2 MSTORE PUSH1 0x20 ADD SWAP1 DUP2 MSTORE PUSH1 0x20 ADD PUSH0 KECCAK256 PUSH0 DUP11 PUSH20 0xFFFFFFFFFFFFFFFFFFFFFFFFFFFFFFFFFFFFFFFF AND PUSH20 0xFFFFFFFFFFFFFFFFFFFFFFFFFFFFFFFFFFFFFFFF AND DUP2 MSTORE PUSH1 0x20 ADD SWAP1 DUP2 MSTORE PUSH1 0x20 ADD PUSH0 KECCAK256 SLOAD SWAP1 POP DUP2 DUP2 LT ISZERO PUSH2 0x13BB JUMPI DUP9 DUP2 DUP4 DUP6 PUSH1 0x40 MLOAD PUSH32 0x3DEE4C500000000000000000000000000000000000000000000000000000000 DUP2 MSTORE PUSH1 0x4 ADD PUSH2 0x13B2 SWAP5 SWAP4 SWAP3 SWAP2 SWAP1 PUSH2 0x283D JUMP JUMPDEST PUSH1 0x40 MLOAD DUP1 SWAP2 SUB SWAP1 REVERT JUMPDEST DUP2 DUP2 SUB PUSH0 DUP1 DUP6 DUP2 MSTORE PUSH1 0x20 ADD SWAP1 DUP2 MSTORE PUSH1 0x20 ADD PUSH0 KECCAK256 PUSH0 DUP12 PUSH20 0xFFFFFFFFFFFFFFFFFFFFFFFFFFFFFFFFFFFFFFFF AND PUSH20 0xFFFFFFFFFFFFFFFFFFFFFFFFFFFFFFFFFFFFFFFF AND DUP2 MSTORE PUSH1 0x20 ADD SWAP1 DUP2 MSTORE PUSH1 0x20 ADD PUSH0 KECCAK256 DUP2 SWAP1 SSTORE POP POP JUMPDEST PUSH0 PUSH20 0xFFFFFFFFFFFFFFFFFFFFFFFFFFFFFFFFFFFFFFFF AND DUP8 PUSH20 0xFFFFFFFFFFFFFFFFFFFFFFFFFFFFFFFFFFFFFFFF AND EQ PUSH2 0x14A4 JUMPI DUP1 PUSH0 DUP1 DUP5 DUP2 MSTORE PUSH1 0x20 ADD SWAP1 DUP2 MSTORE PUSH1 0x20 ADD PUSH0 KECCAK256 PUSH0 DUP10 PUSH20 0xFFFFFFFFFFFFFFFFFFFFFFFFFFFFFFFFFFFFFFFF AND PUSH20 0xFFFFFFFFFFFFFFFFFFFFFFFFFFFFFFFFFFFFFFFF AND DUP2 MSTORE PUSH1 0x20 ADD SWAP1 DUP2 MSTORE PUSH1 0x20 ADD PUSH0 KECCAK256 PUSH0 DUP3 DUP3 SLOAD PUSH2 0x149C SWAP2 SWAP1 PUSH2 0x259E JUMP JUMPDEST SWAP3 POP POP DUP2 SWAP1 SSTORE POP JUMPDEST POP POP DUP1 PUSH1 0x1 ADD SWAP1 POP PUSH2 0x12B9 JUMP JUMPDEST POP PUSH1 0x1 DUP4 MLOAD SUB PUSH2 0x156C JUMPI PUSH0 PUSH2 0x14CF PUSH0 DUP6 PUSH2 0xC7A SWAP1 SWAP2 SWAP1 PUSH4 0xFFFFFFFF AND JUMP JUMPDEST SWAP1 POP PUSH0 PUSH2 0x14E5 PUSH0 DUP6 PUSH2 0xC7A SWAP1 SWAP2 SWAP1 PUSH4 0xFFFFFFFF AND JUMP JUMPDEST SWAP1 POP DUP6 PUSH20 0xFFFFFFFFFFFFFFFFFFFFFFFFFFFFFFFFFFFFFFFF AND DUP8 PUSH20 0xFFFFFFFFFFFFFFFFFFFFFFFFFFFFFFFFFFFFFFFF AND DUP5 PUSH20 0xFFFFFFFFFFFFFFFFFFFFFFFFFFFFFFFFFFFFFFFF AND PUSH32 0xC3D58168C5AE7397731D063D5BBF3D657854427343F4C083240F7AACAA2D0F62 DUP6 DUP6 PUSH1 0x40 MLOAD PUSH2 0x155D SWAP3 SWAP2 SWAP1 PUSH2 0x251D JUMP JUMPDEST PUSH1 0x40 MLOAD DUP1 SWAP2 SUB SWAP1 LOG4 POP POP PUSH2 0x15EB JUMP JUMPDEST DUP4 PUSH20 0xFFFFFFFFFFFFFFFFFFFFFFFFFFFFFFFFFFFFFFFF AND DUP6 PUSH20 0xFFFFFFFFFFFFFFFFFFFFFFFFFFFFFFFFFFFFFFFF AND DUP3 PUSH20 0xFFFFFFFFFFFFFFFFFFFFFFFFFFFFFFFFFFFFFFFF AND PUSH32 0x4A39DC06D4C0DBC64B70AF90FD698A233A518AA5D07E595D983B8C0526C8F7FB DUP7 DUP7 PUSH1 0x40 MLOAD PUSH2 0x15E2 SWAP3 SWAP2 SWAP1 PUSH2 0x2880 JUMP JUMPDEST PUSH1 0x40 MLOAD DUP1 SWAP2 SUB SWAP1 LOG4 JUMPDEST POP POP POP POP POP JUMP JUMPDEST PUSH0 DUP5 PUSH20 0xFFFFFFFFFFFFFFFFFFFFFFFFFFFFFFFFFFFFFFFF AND EXTCODESIZE GT ISZERO PUSH2 0x1799 JUMPI DUP4 PUSH20 0xFFFFFFFFFFFFFFFFFFFFFFFFFFFFFFFFFFFFFFFF AND PUSH4 0xF23A6E61 DUP8 DUP8 DUP7 DUP7 DUP7 PUSH1 0x40 MLOAD DUP7 PUSH4 0xFFFFFFFF AND PUSH1 0xE0 SHL DUP2 MSTORE PUSH1 0x4 ADD PUSH2 0x1652 SWAP6 SWAP5 SWAP4 SWAP3 SWAP2 SWAP1 PUSH2 0x2907 JUMP JUMPDEST PUSH1 0x20 PUSH1 0x40 MLOAD DUP1 DUP4 SUB DUP2 PUSH0 DUP8 GAS CALL SWAP3 POP POP POP DUP1 ISZERO PUSH2 0x168D JUMPI POP PUSH1 0x40 MLOAD RETURNDATASIZE PUSH1 0x1F NOT PUSH1 0x1F DUP3 ADD AND DUP3 ADD DUP1 PUSH1 0x40 MSTORE POP DUP2 ADD SWAP1 PUSH2 0x168A SWAP2 SWAP1 PUSH2 0x2973 JUMP JUMPDEST PUSH1 0x1 JUMPDEST PUSH2 0x170E JUMPI RETURNDATASIZE DUP1 PUSH0 DUP2 EQ PUSH2 0x16BB JUMPI PUSH1 0x40 MLOAD SWAP2 POP PUSH1 0x1F NOT PUSH1 0x3F RETURNDATASIZE ADD AND DUP3 ADD PUSH1 0x40 MSTORE RETURNDATASIZE DUP3 MSTORE RETURNDATASIZE PUSH0 PUSH1 0x20 DUP5 ADD RETURNDATACOPY PUSH2 0x16C0 JUMP JUMPDEST PUSH1 0x60 SWAP2 POP JUMPDEST POP PUSH0 DUP2 MLOAD SUB PUSH2 0x1706 JUMPI DUP5 PUSH1 0x40 MLOAD PUSH32 0x57F447CE00000000000000000000000000000000000000000000000000000000 DUP2 MSTORE PUSH1 0x4 ADD PUSH2 0x16FD SWAP2 SWAP1 PUSH2 0x2272 JUMP JUMPDEST PUSH1 0x40 MLOAD DUP1 SWAP2 SUB SWAP1 REVERT JUMPDEST DUP1 MLOAD DUP2 PUSH1 0x20 ADD REVERT JUMPDEST PUSH4 0xF23A6E61 PUSH1 0xE0 SHL PUSH28 0xFFFFFFFFFFFFFFFFFFFFFFFFFFFFFFFFFFFFFFFFFFFFFFFFFFFFFFFF NOT AND DUP2 PUSH28 0xFFFFFFFFFFFFFFFFFFFFFFFFFFFFFFFFFFFFFFFFFFFFFFFFFFFFFFFF NOT AND EQ PUSH2 0x1797 JUMPI DUP5 PUSH1 0x40 MLOAD PUSH32 0x57F447CE00000000000000000000000000000000000000000000000000000000 DUP2 MSTORE PUSH1 0x4 ADD PUSH2 0x178E SWAP2 SWAP1 PUSH2 0x2272 JUMP JUMPDEST PUSH1 0x40 MLOAD DUP1 SWAP2 SUB SWAP1 REVERT JUMPDEST POP JUMPDEST POP POP POP POP POP POP JUMP JUMPDEST PUSH0 DUP5 PUSH20 0xFFFFFFFFFFFFFFFFFFFFFFFFFFFFFFFFFFFFFFFF AND EXTCODESIZE GT ISZERO PUSH2 0x1948 JUMPI DUP4 PUSH20 0xFFFFFFFFFFFFFFFFFFFFFFFFFFFFFFFFFFFFFFFF AND PUSH4 0xBC197C81 DUP8 DUP8 DUP7 DUP7 DUP7 PUSH1 0x40 MLOAD DUP7 PUSH4 0xFFFFFFFF AND PUSH1 0xE0 SHL DUP2 MSTORE PUSH1 0x4 ADD PUSH2 0x1801 SWAP6 SWAP5 SWAP4 SWAP3 SWAP2 SWAP1 PUSH2 0x299E JUMP JUMPDEST PUSH1 0x20 PUSH1 0x40 MLOAD DUP1 DUP4 SUB DUP2 PUSH0 DUP8 GAS CALL SWAP3 POP POP POP DUP1 ISZERO PUSH2 0x183C JUMPI POP PUSH1 0x40 MLOAD RETURNDATASIZE PUSH1 0x1F NOT PUSH1 0x1F DUP3 ADD AND DUP3 ADD DUP1 PUSH1 0x40 MSTORE POP DUP2 ADD SWAP1 PUSH2 0x1839 SWAP2 SWAP1 PUSH2 0x2973 JUMP JUMPDEST PUSH1 0x1 JUMPDEST PUSH2 0x18BD JUMPI RETURNDATASIZE DUP1 PUSH0 DUP2 EQ PUSH2 0x186A JUMPI PUSH1 0x40 MLOAD SWAP2 POP PUSH1 0x1F NOT PUSH1 0x3F RETURNDATASIZE ADD AND DUP3 ADD PUSH1 0x40 MSTORE RETURNDATASIZE DUP3 MSTORE RETURNDATASIZE PUSH0 PUSH1 0x20 DUP5 ADD RETURNDATACOPY PUSH2 0x186F JUMP JUMPDEST PUSH1 0x60 SWAP2 POP JUMPDEST POP PUSH0 DUP2 MLOAD SUB PUSH2 0x18B5 JUMPI DUP5 PUSH1 0x40 MLOAD PUSH32 0x57F447CE00000000000000000000000000000000000000000000000000000000 DUP2 MSTORE PUSH1 0x4 ADD PUSH2 0x18AC SWAP2 SWAP1 PUSH2 0x2272 JUMP JUMPDEST PUSH1 0x40 MLOAD DUP1 SWAP2 SUB SWAP1 REVERT JUMPDEST DUP1 MLOAD DUP2 PUSH1 0x20 ADD REVERT JUMPDEST PUSH4 0xBC197C81 PUSH1 0xE0 SHL PUSH28 0xFFFFFFFFFFFFFFFFFFFFFFFFFFFFFFFFFFFFFFFFFFFFFFFFFFFFFFFF NOT AND DUP2 PUSH28 0xFFFFFFFFFFFFFFFFFFFFFFFFFFFFFFFFFFFFFFFFFFFFFFFFFFFFFFFF NOT AND EQ PUSH2 0x1946 JUMPI DUP5 PUSH1 0x40 MLOAD PUSH32 0x57F447CE00000000000000000000000000000000000000000000000000000000 DUP2 MSTORE PUSH1 0x4 ADD PUSH2 0x193D SWAP2 SWAP1 PUSH2 0x2272 JUMP JUMPDEST PUSH1 0x40 MLOAD DUP1 SWAP2 SUB SWAP1 REVERT JUMPDEST POP JUMPDEST POP POP POP POP POP POP JUMP JUMPDEST PUSH0 PUSH1 0x40 MLOAD SWAP1 POP SWAP1 JUMP JUMPDEST PUSH0 DUP1 REVERT JUMPDEST PUSH0 DUP1 REVERT JUMPDEST PUSH0 PUSH20 0xFFFFFFFFFFFFFFFFFFFFFFFFFFFFFFFFFFFFFFFF DUP3 AND SWAP1 POP SWAP2 SWAP1 POP JUMP JUMPDEST PUSH0 PUSH2 0x198A DUP3 PUSH2 0x1961 JUMP JUMPDEST SWAP1 POP SWAP2 SWAP1 POP JUMP JUMPDEST PUSH2 0x199A DUP2 PUSH2 0x1980 JUMP JUMPDEST DUP2 EQ PUSH2 0x19A4 JUMPI PUSH0 DUP1 REVERT JUMPDEST POP JUMP JUMPDEST PUSH0 DUP2 CALLDATALOAD SWAP1 POP PUSH2 0x19B5 DUP2 PUSH2 0x1991 JUMP JUMPDEST SWAP3 SWAP2 POP POP JUMP JUMPDEST PUSH0 DUP2 SWAP1 POP SWAP2 SWAP1 POP JUMP JUMPDEST PUSH2 0x19CD DUP2 PUSH2 0x19BB JUMP JUMPDEST DUP2 EQ PUSH2 0x19D7 JUMPI PUSH0 DUP1 REVERT JUMPDEST POP JUMP JUMPDEST PUSH0 DUP2 CALLDATALOAD SWAP1 POP PUSH2 0x19E8 DUP2 PUSH2 0x19C4 JUMP JUMPDEST SWAP3 SWAP2 POP POP JUMP JUMPDEST PUSH0 DUP1 PUSH1 0x40 DUP4 DUP6 SUB SLT ISZERO PUSH2 0x1A04 JUMPI PUSH2 0x1A03 PUSH2 0x1959 JUMP JUMPDEST JUMPDEST PUSH0 PUSH2 0x1A11 DUP6 DUP3 DUP7 ADD PUSH2 0x19A7 JUMP JUMPDEST SWAP3 POP POP PUSH1 0x20 PUSH2 0x1A22 DUP6 DUP3 DUP7 ADD PUSH2 0x19DA JUMP JUMPDEST SWAP2 POP POP SWAP3 POP SWAP3 SWAP1 POP JUMP JUMPDEST PUSH2 0x1A35 DUP2 PUSH2 0x19BB JUMP JUMPDEST DUP3 MSTORE POP POP JUMP JUMPDEST PUSH0 PUSH1 0x20 DUP3 ADD SWAP1 POP PUSH2 0x1A4E PUSH0 DUP4 ADD DUP5 PUSH2 0x1A2C JUMP JUMPDEST SWAP3 SWAP2 POP POP JUMP JUMPDEST PUSH0 PUSH32 0xFFFFFFFF00000000000000000000000000000000000000000000000000000000 DUP3 AND SWAP1 POP SWAP2 SWAP1 POP JUMP JUMPDEST PUSH2 0x1A88 DUP2 PUSH2 0x1A54 JUMP JUMPDEST DUP2 EQ PUSH2 0x1A92 JUMPI PUSH0 DUP1 REVERT JUMPDEST POP JUMP JUMPDEST PUSH0 DUP2 CALLDATALOAD SWAP1 POP PUSH2 0x1AA3 DUP2 PUSH2 0x1A7F JUMP JUMPDEST SWAP3 SWAP2 POP POP JUMP JUMPDEST PUSH0 PUSH1 0x20 DUP3 DUP5 SUB SLT ISZERO PUSH2 0x1ABE JUMPI PUSH2 0x1ABD PUSH2 0x1959 JUMP JUMPDEST JUMPDEST PUSH0 PUSH2 0x1ACB DUP5 DUP3 DUP6 ADD PUSH2 0x1A95 JUMP JUMPDEST SWAP2 POP POP SWAP3 SWAP2 POP POP JUMP JUMPDEST PUSH0 DUP2 ISZERO ISZERO SWAP1 POP SWAP2 SWAP1 POP JUMP JUMPDEST PUSH2 0x1AE8 DUP2 PUSH2 0x1AD4 JUMP JUMPDEST DUP3 MSTORE POP POP JUMP JUMPDEST PUSH0 PUSH1 0x20 DUP3 ADD SWAP1 POP PUSH2 0x1B01 PUSH0 DUP4 ADD DUP5 PUSH2 0x1ADF JUMP JUMPDEST SWAP3 SWAP2 POP POP JUMP JUMPDEST PUSH0 DUP1 REVERT JUMPDEST PUSH0 DUP1 REVERT JUMPDEST PUSH0 PUSH1 0x1F NOT PUSH1 0x1F DUP4 ADD AND SWAP1 POP SWAP2 SWAP1 POP JUMP JUMPDEST PUSH32 0x4E487B7100000000000000000000000000000000000000000000000000000000 PUSH0 MSTORE PUSH1 0x41 PUSH1 0x4 MSTORE PUSH1 0x24 PUSH0 REVERT JUMPDEST PUSH2 0x1B55 DUP3 PUSH2 0x1B0F JUMP JUMPDEST DUP2 ADD DUP2 DUP2 LT PUSH8 0xFFFFFFFFFFFFFFFF DUP3 GT OR ISZERO PUSH2 0x1B74 JUMPI PUSH2 0x1B73 PUSH2 0x1B1F JUMP JUMPDEST JUMPDEST DUP1 PUSH1 0x40 MSTORE POP POP POP JUMP JUMPDEST PUSH0 PUSH2 0x1B86 PUSH2 0x1950 JUMP JUMPDEST SWAP1 POP PUSH2 0x1B92 DUP3 DUP3 PUSH2 0x1B4C JUMP JUMPDEST SWAP2 SWAP1 POP JUMP JUMPDEST PUSH0 PUSH8 0xFFFFFFFFFFFFFFFF DUP3 GT ISZERO PUSH2 0x1BB1 JUMPI PUSH2 0x1BB0 PUSH2 0x1B1F JUMP JUMPDEST JUMPDEST PUSH2 0x1BBA DUP3 PUSH2 0x1B0F JUMP JUMPDEST SWAP1 POP PUSH1 0x20 DUP2 ADD SWAP1 POP SWAP2 SWAP1 POP JUMP JUMPDEST DUP3 DUP2 DUP4 CALLDATACOPY PUSH0 DUP4 DUP4 ADD MSTORE POP POP POP JUMP JUMPDEST PUSH0 PUSH2 0x1BE7 PUSH2 0x1BE2 DUP5 PUSH2 0x1B97 JUMP JUMPDEST PUSH2 0x1B7D JUMP JUMPDEST SWAP1 POP DUP3 DUP2 MSTORE PUSH1 0x20 DUP2 ADD DUP5 DUP5 DUP5 ADD GT ISZERO PUSH2 0x1C03 JUMPI PUSH2 0x1C02 PUSH2 0x1B0B JUMP JUMPDEST JUMPDEST PUSH2 0x1C0E DUP5 DUP3 DUP6 PUSH2 0x1BC7 JUMP JUMPDEST POP SWAP4 SWAP3 POP POP POP JUMP JUMPDEST PUSH0 DUP3 PUSH1 0x1F DUP4 ADD SLT PUSH2 0x1C2A JUMPI PUSH2 0x1C29 PUSH2 0x1B07 JUMP JUMPDEST JUMPDEST DUP2 CALLDATALOAD PUSH2 0x1C3A DUP5 DUP3 PUSH1 0x20 DUP7 ADD PUSH2 0x1BD5 JUMP JUMPDEST SWAP2 POP POP SWAP3 SWAP2 POP POP JUMP JUMPDEST PUSH0 PUSH1 0x20 DUP3 DUP5 SUB SLT ISZERO PUSH2 0x1C58 JUMPI PUSH2 0x1C57 PUSH2 0x1959 JUMP JUMPDEST JUMPDEST PUSH0 DUP3 ADD CALLDATALOAD PUSH8 0xFFFFFFFFFFFFFFFF DUP2 GT ISZERO PUSH2 0x1C75 JUMPI PUSH2 0x1C74 PUSH2 0x195D JUMP JUMPDEST JUMPDEST PUSH2 0x1C81 DUP5 DUP3 DUP6 ADD PUSH2 0x1C16 JUMP JUMPDEST SWAP2 POP POP SWAP3 SWAP2 POP POP JUMP JUMPDEST PUSH0 PUSH1 0x20 DUP3 DUP5 SUB SLT ISZERO PUSH2 0x1C9F JUMPI PUSH2 0x1C9E PUSH2 0x1959 JUMP JUMPDEST JUMPDEST PUSH0 PUSH2 0x1CAC DUP5 DUP3 DUP6 ADD PUSH2 0x19DA JUMP JUMPDEST SWAP2 POP POP SWAP3 SWAP2 POP POP JUMP JUMPDEST PUSH0 DUP2 MLOAD SWAP1 POP SWAP2 SWAP1 POP JUMP JUMPDEST PUSH0 DUP3 DUP3 MSTORE PUSH1 0x20 DUP3 ADD SWAP1 POP SWAP3 SWAP2 POP POP JUMP JUMPDEST DUP3 DUP2 DUP4 MCOPY PUSH0 DUP4 DUP4 ADD MSTORE POP POP POP JUMP JUMPDEST PUSH0 PUSH2 0x1CE7 DUP3 PUSH2 0x1CB5 JUMP JUMPDEST PUSH2 0x1CF1 DUP2 DUP6 PUSH2 0x1CBF JUMP JUMPDEST SWAP4 POP PUSH2 0x1D01 DUP2 DUP6 PUSH1 0x20 DUP7 ADD PUSH2 0x1CCF JUMP JUMPDEST PUSH2 0x1D0A DUP2 PUSH2 0x1B0F JUMP JUMPDEST DUP5 ADD SWAP2 POP POP SWAP3 SWAP2 POP POP JUMP JUMPDEST PUSH0 PUSH1 0x20 DUP3 ADD SWAP1 POP DUP2 DUP2 SUB PUSH0 DUP4 ADD MSTORE PUSH2 0x1D2D DUP2 DUP5 PUSH2 0x1CDD JUMP JUMPDEST SWAP1 POP SWAP3 SWAP2 POP POP JUMP JUMPDEST PUSH0 PUSH8 0xFFFFFFFFFFFFFFFF DUP3 GT ISZERO PUSH2 0x1D4F JUMPI PUSH2 0x1D4E PUSH2 0x1B1F JUMP JUMPDEST JUMPDEST PUSH1 0x20 DUP3 MUL SWAP1 POP PUSH1 0x20 DUP2 ADD SWAP1 POP SWAP2 SWAP1 POP JUMP JUMPDEST PUSH0 DUP1 REVERT JUMPDEST PUSH0 PUSH2 0x1D76 PUSH2 0x1D71 DUP5 PUSH2 0x1D35 JUMP JUMPDEST PUSH2 0x1B7D JUMP JUMPDEST SWAP1 POP DUP1 DUP4 DUP3 MSTORE PUSH1 0x20 DUP3 ADD SWAP1 POP PUSH1 0x20 DUP5 MUL DUP4 ADD DUP6 DUP2 GT ISZERO PUSH2 0x1D99 JUMPI PUSH2 0x1D98 PUSH2 0x1D60 JUMP JUMPDEST JUMPDEST DUP4 JUMPDEST DUP2 DUP2 LT ISZERO PUSH2 0x1DC2 JUMPI DUP1 PUSH2 0x1DAE DUP9 DUP3 PUSH2 0x19DA JUMP JUMPDEST DUP5 MSTORE PUSH1 0x20 DUP5 ADD SWAP4 POP POP PUSH1 0x20 DUP2 ADD SWAP1 POP PUSH2 0x1D9B JUMP JUMPDEST POP POP POP SWAP4 SWAP3 POP POP POP JUMP JUMPDEST PUSH0 DUP3 PUSH1 0x1F DUP4 ADD SLT PUSH2 0x1DE0 JUMPI PUSH2 0x1DDF PUSH2 0x1B07 JUMP JUMPDEST JUMPDEST DUP2 CALLDATALOAD PUSH2 0x1DF0 DUP5 DUP3 PUSH1 0x20 DUP7 ADD PUSH2 0x1D64 JUMP JUMPDEST SWAP2 POP POP SWAP3 SWAP2 POP POP JUMP JUMPDEST PUSH0 PUSH8 0xFFFFFFFFFFFFFFFF DUP3 GT ISZERO PUSH2 0x1E13 JUMPI PUSH2 0x1E12 PUSH2 0x1B1F JUMP JUMPDEST JUMPDEST PUSH2 0x1E1C DUP3 PUSH2 0x1B0F JUMP JUMPDEST SWAP1 POP PUSH1 0x20 DUP2 ADD SWAP1 POP SWAP2 SWAP1 POP JUMP JUMPDEST PUSH0 PUSH2 0x1E3B PUSH2 0x1E36 DUP5 PUSH2 0x1DF9 JUMP JUMPDEST PUSH2 0x1B7D JUMP JUMPDEST SWAP1 POP DUP3 DUP2 MSTORE PUSH1 0x20 DUP2 ADD DUP5 DUP5 DUP5 ADD GT ISZERO PUSH2 0x1E57 JUMPI PUSH2 0x1E56 PUSH2 0x1B0B JUMP JUMPDEST JUMPDEST PUSH2 0x1E62 DUP5 DUP3 DUP6 PUSH2 0x1BC7 JUMP JUMPDEST POP SWAP4 SWAP3 POP POP POP JUMP JUMPDEST PUSH0 DUP3 PUSH1 0x1F DUP4 ADD SLT PUSH2 0x1E7E JUMPI PUSH2 0x1E7D PUSH2 0x1B07 JUMP JUMPDEST JUMPDEST DUP2 CALLDATALOAD PUSH2 0x1E8E DUP5 DUP3 PUSH1 0x20 DUP7 ADD PUSH2 0x1E29 JUMP JUMPDEST SWAP2 POP POP SWAP3 SWAP2 POP POP JUMP JUMPDEST PUSH0 DUP1 PUSH0 DUP1 PUSH0 PUSH1 0xA0 DUP7 DUP9 SUB SLT ISZERO PUSH2 0x1EB0 JUMPI PUSH2 0x1EAF PUSH2 0x1959 JUMP JUMPDEST JUMPDEST PUSH0 PUSH2 0x1EBD DUP9 DUP3 DUP10 ADD PUSH2 0x19A7 JUMP JUMPDEST SWAP6 POP POP PUSH1 0x20 PUSH2 0x1ECE DUP9 DUP3 DUP10 ADD PUSH2 0x19A7 JUMP JUMPDEST SWAP5 POP POP PUSH1 0x40 DUP7 ADD CALLDATALOAD PUSH8 0xFFFFFFFFFFFFFFFF DUP2 GT ISZERO PUSH2 0x1EEF JUMPI PUSH2 0x1EEE PUSH2 0x195D JUMP JUMPDEST JUMPDEST PUSH2 0x1EFB DUP9 DUP3 DUP10 ADD PUSH2 0x1DCC JUMP JUMPDEST SWAP4 POP POP PUSH1 0x60 DUP7 ADD CALLDATALOAD PUSH8 0xFFFFFFFFFFFFFFFF DUP2 GT ISZERO PUSH2 0x1F1C JUMPI PUSH2 0x1F1B PUSH2 0x195D JUMP JUMPDEST JUMPDEST PUSH2 0x1F28 DUP9 DUP3 DUP10 ADD PUSH2 0x1DCC JUMP JUMPDEST SWAP3 POP POP PUSH1 0x80 DUP7 ADD CALLDATALOAD PUSH8 0xFFFFFFFFFFFFFFFF DUP2 GT ISZERO PUSH2 0x1F49 JUMPI PUSH2 0x1F48 PUSH2 0x195D JUMP JUMPDEST JUMPDEST PUSH2 0x1F55 DUP9 DUP3 DUP10 ADD PUSH2 0x1E6A JUMP JUMPDEST SWAP2 POP POP SWAP3 SWAP6 POP SWAP3 SWAP6 SWAP1 SWAP4 POP JUMP JUMPDEST PUSH0 DUP1 PUSH0 PUSH1 0x60 DUP5 DUP7 SUB SLT ISZERO PUSH2 0x1F79 JUMPI PUSH2 0x1F78 PUSH2 0x1959 JUMP JUMPDEST JUMPDEST PUSH0 PUSH2 0x1F86 DUP7 DUP3 DUP8 ADD PUSH2 0x19A7 JUMP JUMPDEST SWAP4 POP POP PUSH1 0x20 PUSH2 0x1F97 DUP7 DUP3 DUP8 ADD PUSH2 0x19DA JUMP JUMPDEST SWAP3 POP POP PUSH1 0x40 DUP5 ADD CALLDATALOAD PUSH8 0xFFFFFFFFFFFFFFFF DUP2 GT ISZERO PUSH2 0x1FB8 JUMPI PUSH2 0x1FB7 PUSH2 0x195D JUMP JUMPDEST JUMPDEST PUSH2 0x1FC4 DUP7 DUP3 DUP8 ADD PUSH2 0x1E6A JUMP JUMPDEST SWAP2 POP POP SWAP3 POP SWAP3 POP SWAP3 JUMP JUMPDEST PUSH0 PUSH8 0xFFFFFFFFFFFFFFFF DUP3 GT ISZERO PUSH2 0x1FE8 JUMPI PUSH2 0x1FE7 PUSH2 0x1B1F JUMP JUMPDEST JUMPDEST PUSH1 0x20 DUP3 MUL SWAP1 POP PUSH1 0x20 DUP2 ADD SWAP1 POP SWAP2 SWAP1 POP JUMP JUMPDEST PUSH0 PUSH2 0x200B PUSH2 0x2006 DUP5 PUSH2 0x1FCE JUMP JUMPDEST PUSH2 0x1B7D JUMP JUMPDEST SWAP1 POP DUP1 DUP4 DUP3 MSTORE PUSH1 0x20 DUP3 ADD SWAP1 POP PUSH1 0x20 DUP5 MUL DUP4 ADD DUP6 DUP2 GT ISZERO PUSH2 0x202E JUMPI PUSH2 0x202D PUSH2 0x1D60 JUMP JUMPDEST JUMPDEST DUP4 JUMPDEST DUP2 DUP2 LT ISZERO PUSH2 0x2057 JUMPI DUP1 PUSH2 0x2043 DUP9 DUP3 PUSH2 0x19A7 JUMP JUMPDEST DUP5 MSTORE PUSH1 0x20 DUP5 ADD SWAP4 POP POP PUSH1 0x20 DUP2 ADD SWAP1 POP PUSH2 0x2030 JUMP JUMPDEST POP POP POP SWAP4 SWAP3 POP POP POP JUMP JUMPDEST PUSH0 DUP3 PUSH1 0x1F DUP4 ADD SLT PUSH2 0x2075 JUMPI PUSH2 0x2074 PUSH2 0x1B07 JUMP JUMPDEST JUMPDEST DUP2 CALLDATALOAD PUSH2 0x2085 DUP5 DUP3 PUSH1 0x20 DUP7 ADD PUSH2 0x1FF9 JUMP JUMPDEST SWAP2 POP POP SWAP3 SWAP2 POP POP JUMP JUMPDEST PUSH0 DUP1 PUSH1 0x40 DUP4 DUP6 SUB SLT ISZERO PUSH2 0x20A4 JUMPI PUSH2 0x20A3 PUSH2 0x1959 JUMP JUMPDEST JUMPDEST PUSH0 DUP4 ADD CALLDATALOAD PUSH8 0xFFFFFFFFFFFFFFFF DUP2 GT ISZERO PUSH2 0x20C1 JUMPI PUSH2 0x20C0 PUSH2 0x195D JUMP JUMPDEST JUMPDEST PUSH2 0x20CD DUP6 DUP3 DUP7 ADD PUSH2 0x2061 JUMP JUMPDEST SWAP3 POP POP PUSH1 0x20 DUP4 ADD CALLDATALOAD PUSH8 0xFFFFFFFFFFFFFFFF DUP2 GT ISZERO PUSH2 0x20EE JUMPI PUSH2 0x20ED PUSH2 0x195D JUMP JUMPDEST JUMPDEST PUSH2 0x20FA DUP6 DUP3 DUP7 ADD PUSH2 0x1DCC JUMP JUMPDEST SWAP2 POP POP SWAP3 POP SWAP3 SWAP1 POP JUMP JUMPDEST PUSH0 DUP2 MLOAD SWAP1 POP SWAP2 SWAP1 POP JUMP JUMPDEST PUSH0 DUP3 DUP3 MSTORE PUSH1 0x20 DUP3 ADD SWAP1 POP SWAP3 SWAP2 POP POP JUMP JUMPDEST PUSH0 DUP2 SWAP1 POP PUSH1 0x20 DUP3 ADD SWAP1 POP SWAP2 SWAP1 POP JUMP JUMPDEST PUSH2 0x2136 DUP2 PUSH2 0x19BB JUMP JUMPDEST DUP3 MSTORE POP POP JUMP JUMPDEST PUSH0 PUSH2 0x2147 DUP4 DUP4 PUSH2 0x212D JUMP JUMPDEST PUSH1 0x20 DUP4 ADD SWAP1 POP SWAP3 SWAP2 POP POP JUMP JUMPDEST PUSH0 PUSH1 0x20 DUP3 ADD SWAP1 POP SWAP2 SWAP1 POP JUMP JUMPDEST PUSH0 PUSH2 0x2169 DUP3 PUSH2 0x2104 JUMP JUMPDEST PUSH2 0x2173 DUP2 DUP6 PUSH2 0x210E JUMP JUMPDEST SWAP4 POP PUSH2 0x217E DUP4 PUSH2 0x211E JUMP JUMPDEST DUP1 PUSH0 JUMPDEST DUP4 DUP2 LT ISZERO PUSH2 0x21AE JUMPI DUP2 MLOAD PUSH2 0x2195 DUP9 DUP3 PUSH2 0x213C JUMP JUMPDEST SWAP8 POP PUSH2 0x21A0 DUP4 PUSH2 0x2153 JUMP JUMPDEST SWAP3 POP POP PUSH1 0x1 DUP2 ADD SWAP1 POP PUSH2 0x2181 JUMP JUMPDEST POP DUP6 SWAP4 POP POP POP POP SWAP3 SWAP2 POP POP JUMP JUMPDEST PUSH0 PUSH1 0x20 DUP3 ADD SWAP1 POP DUP2 DUP2 SUB PUSH0 DUP4 ADD MSTORE PUSH2 0x21D3 DUP2 DUP5 PUSH2 0x215F JUMP JUMPDEST SWAP1 POP SWAP3 SWAP2 POP POP JUMP JUMPDEST PUSH0 DUP1 PUSH0 PUSH1 0x60 DUP5 DUP7 SUB SLT ISZERO PUSH2 0x21F2 JUMPI PUSH2 0x21F1 PUSH2 0x1959 JUMP JUMPDEST JUMPDEST PUSH0 PUSH2 0x21FF DUP7 DUP3 DUP8 ADD PUSH2 0x19A7 JUMP JUMPDEST SWAP4 POP POP PUSH1 0x20 DUP5 ADD CALLDATALOAD PUSH8 0xFFFFFFFFFFFFFFFF DUP2 GT ISZERO PUSH2 0x2220 JUMPI PUSH2 0x221F PUSH2 0x195D JUMP JUMPDEST JUMPDEST PUSH2 0x222C DUP7 DUP3 DUP8 ADD PUSH2 0x1DCC JUMP JUMPDEST SWAP3 POP POP PUSH1 0x40 DUP5 ADD CALLDATALOAD PUSH8 0xFFFFFFFFFFFFFFFF DUP2 GT ISZERO PUSH2 0x224D JUMPI PUSH2 0x224C PUSH2 0x195D JUMP JUMPDEST JUMPDEST PUSH2 0x2259 DUP7 DUP3 DUP8 ADD PUSH2 0x1DCC JUMP JUMPDEST SWAP2 POP POP SWAP3 POP SWAP3 POP SWAP3 JUMP JUMPDEST PUSH2 0x226C DUP2 PUSH2 0x1980 JUMP JUMPDEST DUP3 MSTORE POP POP JUMP JUMPDEST PUSH0 PUSH1 0x20 DUP3 ADD SWAP1 POP PUSH2 0x2285 PUSH0 DUP4 ADD DUP5 PUSH2 0x2263 JUMP JUMPDEST SWAP3 SWAP2 POP POP JUMP JUMPDEST PUSH2 0x2294 DUP2 PUSH2 0x1AD4 JUMP JUMPDEST DUP2 EQ PUSH2 0x229E JUMPI PUSH0 DUP1 REVERT JUMPDEST POP JUMP JUMPDEST PUSH0 DUP2 CALLDATALOAD SWAP1 POP PUSH2 0x22AF DUP2 PUSH2 0x228B JUMP JUMPDEST SWAP3 SWAP2 POP POP JUMP JUMPDEST PUSH0 DUP1 PUSH1 0x40 DUP4 DUP6 SUB SLT ISZERO PUSH2 0x22CB JUMPI PUSH2 0x22CA PUSH2 0x1959 JUMP JUMPDEST JUMPDEST PUSH0 PUSH2 0x22D8 DUP6 DUP3 DUP7 ADD PUSH2 0x19A7 JUMP JUMPDEST SWAP3 POP POP PUSH1 0x20 PUSH2 0x22E9 DUP6 DUP3 DUP7 ADD PUSH2 0x22A1 JUMP JUMPDEST SWAP2 POP POP SWAP3 POP SWAP3 SWAP1 POP JUMP JUMPDEST PUSH0 DUP1 PUSH1 0x40 DUP4 DUP6 SUB SLT ISZERO PUSH2 0x2309 JUMPI PUSH2 0x2308 PUSH2 0x1959 JUMP JUMPDEST JUMPDEST PUSH0 PUSH2 0x2316 DUP6 DUP3 DUP7 ADD PUSH2 0x19A7 JUMP JUMPDEST SWAP3 POP POP PUSH1 0x20 DUP4 ADD CALLDATALOAD PUSH8 0xFFFFFFFFFFFFFFFF DUP2 GT ISZERO PUSH2 0x2337 JUMPI PUSH2 0x2336 PUSH2 0x195D JUMP JUMPDEST JUMPDEST PUSH2 0x2343 DUP6 DUP3 DUP7 ADD PUSH2 0x1E6A JUMP JUMPDEST SWAP2 POP POP SWAP3 POP SWAP3 SWAP1 POP JUMP JUMPDEST PUSH0 DUP1 PUSH1 0x40 DUP4 DUP6 SUB SLT ISZERO PUSH2 0x2363 JUMPI PUSH2 0x2362 PUSH2 0x1959 JUMP JUMPDEST JUMPDEST PUSH0 PUSH2 0x2370 DUP6 DUP3 DUP7 ADD PUSH2 0x19A7 JUMP JUMPDEST SWAP3 POP POP PUSH1 0x20 PUSH2 0x2381 DUP6 DUP3 DUP7 ADD PUSH2 0x19A7 JUMP JUMPDEST SWAP2 POP POP SWAP3 POP SWAP3 SWAP1 POP JUMP JUMPDEST PUSH0 DUP1 PUSH0 DUP1 PUSH0 PUSH1 0xA0 DUP7 DUP9 SUB SLT ISZERO PUSH2 0x23A4 JUMPI PUSH2 0x23A3 PUSH2 0x1959 JUMP JUMPDEST JUMPDEST PUSH0 PUSH2 0x23B1 DUP9 DUP3 DUP10 ADD PUSH2 0x19A7 JUMP JUMPDEST SWAP6 POP POP PUSH1 0x20 PUSH2 0x23C2 DUP9 DUP3 DUP10 ADD PUSH2 0x19A7 JUMP JUMPDEST SWAP5 POP POP PUSH1 0x40 PUSH2 0x23D3 DUP9 DUP3 DUP10 ADD PUSH2 0x19DA JUMP JUMPDEST SWAP4 POP POP PUSH1 0x60 PUSH2 0x23E4 DUP9 DUP3 DUP10 ADD PUSH2 0x19DA JUMP JUMPDEST SWAP3 POP POP PUSH1 0x80 DUP7 ADD CALLDATALOAD PUSH8 0xFFFFFFFFFFFFFFFF DUP2 GT ISZERO PUSH2 0x2405 JUMPI PUSH2 0x2404 PUSH2 0x195D JUMP JUMPDEST JUMPDEST PUSH2 0x2411 DUP9 DUP3 DUP10 ADD PUSH2 0x1E6A JUMP JUMPDEST SWAP2 POP POP SWAP3 SWAP6 POP SWAP3 SWAP6 SWAP1 SWAP4 POP JUMP JUMPDEST PUSH0 PUSH1 0x20 DUP3 DUP5 SUB SLT ISZERO PUSH2 0x2433 JUMPI PUSH2 0x2432 PUSH2 0x1959 JUMP JUMPDEST JUMPDEST PUSH0 PUSH2 0x2440 DUP5 DUP3 DUP6 ADD PUSH2 0x19A7 JUMP JUMPDEST SWAP2 POP POP SWAP3 SWAP2 POP POP JUMP JUMPDEST PUSH0 DUP1 PUSH0 PUSH1 0x60 DUP5 DUP7 SUB SLT ISZERO PUSH2 0x2460 JUMPI PUSH2 0x245F PUSH2 0x1959 JUMP JUMPDEST JUMPDEST PUSH0 PUSH2 0x246D DUP7 DUP3 DUP8 ADD PUSH2 0x19A7 JUMP JUMPDEST SWAP4 POP POP PUSH1 0x20 PUSH2 0x247E DUP7 DUP3 DUP8 ADD PUSH2 0x19DA JUMP JUMPDEST SWAP3 POP POP PUSH1 0x40 PUSH2 0x248F DUP7 DUP3 DUP8 ADD PUSH2 0x19DA JUMP JUMPDEST SWAP2 POP POP SWAP3 POP SWAP3 POP SWAP3 JUMP JUMPDEST PUSH32 0x4E487B7100000000000000000000000000000000000000000000000000000000 PUSH0 MSTORE PUSH1 0x22 PUSH1 0x4 MSTORE PUSH1 0x24 PUSH0 REVERT JUMPDEST PUSH0 PUSH1 0x2 DUP3 DIV SWAP1 POP PUSH1 0x1 DUP3 AND DUP1 PUSH2 0x24DD JUMPI PUSH1 0x7F DUP3 AND SWAP2 POP JUMPDEST PUSH1 0x20 DUP3 LT DUP2 SUB PUSH2 0x24F0 JUMPI PUSH2 0x24EF PUSH2 0x2499 JUMP JUMPDEST JUMPDEST POP SWAP2 SWAP1 POP JUMP JUMPDEST PUSH0 PUSH1 0x40 DUP3 ADD SWAP1 POP PUSH2 0x2509 PUSH0 DUP4 ADD DUP6 PUSH2 0x2263 JUMP JUMPDEST PUSH2 0x2516 PUSH1 0x20 DUP4 ADD DUP5 PUSH2 0x2263 JUMP JUMPDEST SWAP4 SWAP3 POP POP POP JUMP JUMPDEST PUSH0 PUSH1 0x40 DUP3 ADD SWAP1 POP PUSH2 0x2530 PUSH0 DUP4 ADD DUP6 PUSH2 0x1A2C JUMP JUMPDEST PUSH2 0x253D PUSH1 0x20 DUP4 ADD DUP5 PUSH2 0x1A2C JUMP JUMPDEST SWAP4 SWAP3 POP POP POP JUMP JUMPDEST PUSH32 0x4E487B7100000000000000000000000000000000000000000000000000000000 PUSH0 MSTORE PUSH1 0x32 PUSH1 0x4 MSTORE PUSH1 0x24 PUSH0 REVERT JUMPDEST PUSH32 0x4E487B7100000000000000000000000000000000000000000000000000000000 PUSH0 MSTORE PUSH1 0x11 PUSH1 0x4 MSTORE PUSH1 0x24 PUSH0 REVERT JUMPDEST PUSH0 PUSH2 0x25A8 DUP3 PUSH2 0x19BB JUMP JUMPDEST SWAP2 POP PUSH2 0x25B3 DUP4 PUSH2 0x19BB JUMP JUMPDEST SWAP3 POP DUP3 DUP3 ADD SWAP1 POP DUP1 DUP3 GT ISZERO PUSH2 0x25CB JUMPI PUSH2 0x25CA PUSH2 0x2571 JUMP JUMPDEST JUMPDEST SWAP3 SWAP2 POP POP JUMP JUMPDEST PUSH0 DUP2 SWAP1 POP DUP2 PUSH0 MSTORE PUSH1 0x20 PUSH0 KECCAK256 SWAP1 POP SWAP2 SWAP1 POP JUMP JUMPDEST PUSH0 PUSH1 0x20 PUSH1 0x1F DUP4 ADD DIV SWAP1 POP SWAP2 SWAP1 POP JUMP JUMPDEST PUSH0 DUP3 DUP3 SHL SWAP1 POP SWAP3 SWAP2 POP POP JUMP JUMPDEST PUSH0 PUSH1 0x8 DUP4 MUL PUSH2 0x262D PUSH32 0xFFFFFFFFFFFFFFFFFFFFFFFFFFFFFFFFFFFFFFFFFFFFFFFFFFFFFFFFFFFFFFFF DUP3 PUSH2 0x25F2 JUMP JUMPDEST PUSH2 0x2637 DUP7 DUP4 PUSH2 0x25F2 JUMP JUMPDEST SWAP6 POP DUP1 NOT DUP5 AND SWAP4 POP DUP1 DUP7 AND DUP5 OR SWAP3 POP POP POP SWAP4 SWAP3 POP POP POP JUMP JUMPDEST PUSH0 DUP2 SWAP1 POP SWAP2 SWAP1 POP JUMP JUMPDEST PUSH0 PUSH2 0x2672 PUSH2 0x266D PUSH2 0x2668 DUP5 PUSH2 0x19BB JUMP JUMPDEST PUSH2 0x264F JUMP JUMPDEST PUSH2 0x19BB JUMP JUMPDEST SWAP1 POP SWAP2 SWAP1 POP JUMP JUMPDEST PUSH0 DUP2 SWAP1 POP SWAP2 SWAP1 POP JUMP JUMPDEST PUSH2 0x268B DUP4 PUSH2 0x2658 JUMP JUMPDEST PUSH2 0x269F PUSH2 0x2697 DUP3 PUSH2 0x2679 JUMP JUMPDEST DUP5 DUP5 SLOAD PUSH2 0x25FE JUMP JUMPDEST DUP3 SSTORE POP POP POP POP JUMP JUMPDEST PUSH0 SWAP1 JUMP JUMPDEST PUSH2 0x26B3 PUSH2 0x26A7 JUMP JUMPDEST PUSH2 0x26BE DUP2 DUP5 DUP5 PUSH2 0x2682 JUMP JUMPDEST POP POP POP JUMP JUMPDEST JUMPDEST DUP2 DUP2 LT ISZERO PUSH2 0x26E1 JUMPI PUSH2 0x26D6 PUSH0 DUP3 PUSH2 0x26AB JUMP JUMPDEST PUSH1 0x1 DUP2 ADD SWAP1 POP PUSH2 0x26C4 JUMP JUMPDEST POP POP JUMP JUMPDEST PUSH1 0x1F DUP3 GT ISZERO PUSH2 0x2726 JUMPI PUSH2 0x26F7 DUP2 PUSH2 0x25D1 JUMP JUMPDEST PUSH2 0x2700 DUP5 PUSH2 0x25E3 JUMP JUMPDEST DUP2 ADD PUSH1 0x20 DUP6 LT ISZERO PUSH2 0x270F JUMPI DUP2 SWAP1 POP JUMPDEST PUSH2 0x2723 PUSH2 0x271B DUP6 PUSH2 0x25E3 JUMP JUMPDEST DUP4 ADD DUP3 PUSH2 0x26C3 JUMP JUMPDEST POP POP JUMPDEST POP POP POP JUMP JUMPDEST PUSH0 DUP3 DUP3 SHR SWAP1 POP SWAP3 SWAP2 POP POP JUMP JUMPDEST PUSH0 PUSH2 0x2746 PUSH0 NOT DUP5 PUSH1 0x8 MUL PUSH2 0x272B JUMP JUMPDEST NOT DUP1 DUP4 AND SWAP2 POP POP SWAP3 SWAP2 POP POP JUMP JUMPDEST PUSH0 PUSH2 0x275E DUP4 DUP4 PUSH2 0x2737 JUMP JUMPDEST SWAP2 POP DUP3 PUSH1 0x2 MUL DUP3 OR SWAP1 POP SWAP3 SWAP2 POP POP JUMP JUMPDEST PUSH2 0x2777 DUP3 PUSH2 0x1CB5 JUMP JUMPDEST PUSH8 0xFFFFFFFFFFFFFFFF DUP2 GT ISZERO PUSH2 0x2790 JUMPI PUSH2 0x278F PUSH2 0x1B1F JUMP JUMPDEST JUMPDEST PUSH2 0x279A DUP3 SLOAD PUSH2 0x24C6 JUMP JUMPDEST PUSH2 0x27A5 DUP3 DUP3 DUP6 PUSH2 0x26E5 JUMP JUMPDEST PUSH0 PUSH1 0x20 SWAP1 POP PUSH1 0x1F DUP4 GT PUSH1 0x1 DUP2 EQ PUSH2 0x27D6 JUMPI PUSH0 DUP5 ISZERO PUSH2 0x27C4 JUMPI DUP3 DUP8 ADD MLOAD SWAP1 POP JUMPDEST PUSH2 0x27CE DUP6 DUP3 PUSH2 0x2753 JUMP JUMPDEST DUP7 SSTORE POP PUSH2 0x2835 JUMP JUMPDEST PUSH1 0x1F NOT DUP5 AND PUSH2 0x27E4 DUP7 PUSH2 0x25D1 JUMP JUMPDEST PUSH0 JUMPDEST DUP3 DUP2 LT ISZERO PUSH2 0x280B JUMPI DUP5 DUP10 ADD MLOAD DUP3 SSTORE PUSH1 0x1 DUP3 ADD SWAP2 POP PUSH1 0x20 DUP6 ADD SWAP5 POP PUSH1 0x20 DUP2 ADD SWAP1 POP PUSH2 0x27E6 JUMP JUMPDEST DUP7 DUP4 LT ISZERO PUSH2 0x2828 JUMPI DUP5 DUP10 ADD MLOAD PUSH2 0x2824 PUSH1 0x1F DUP10 AND DUP3 PUSH2 0x2737 JUMP JUMPDEST DUP4 SSTORE POP JUMPDEST PUSH1 0x1 PUSH1 0x2 DUP9 MUL ADD DUP9 SSTORE POP POP POP JUMPDEST POP POP POP POP POP POP JUMP JUMPDEST PUSH0 PUSH1 0x80 DUP3 ADD SWAP1 POP PUSH2 0x2850 PUSH0 DUP4 ADD DUP8 PUSH2 0x2263 JUMP JUMPDEST PUSH2 0x285D PUSH1 0x20 DUP4 ADD DUP7 PUSH2 0x1A2C JUMP JUMPDEST PUSH2 0x286A PUSH1 0x40 DUP4 ADD DUP6 PUSH2 0x1A2C JUMP JUMPDEST PUSH2 0x2877 PUSH1 0x60 DUP4 ADD DUP5 PUSH2 0x1A2C JUMP JUMPDEST SWAP6 SWAP5 POP POP POP POP POP JUMP JUMPDEST PUSH0 PUSH1 0x40 DUP3 ADD SWAP1 POP DUP2 DUP2 SUB PUSH0 DUP4 ADD MSTORE PUSH2 0x2898 DUP2 DUP6 PUSH2 0x215F JUMP JUMPDEST SWAP1 POP DUP2 DUP2 SUB PUSH1 0x20 DUP4 ADD MSTORE PUSH2 0x28AC DUP2 DUP5 PUSH2 0x215F JUMP JUMPDEST SWAP1 POP SWAP4 SWAP3 POP POP POP JUMP JUMPDEST PUSH0 DUP2 MLOAD SWAP1 POP SWAP2 SWAP1 POP JUMP JUMPDEST PUSH0 DUP3 DUP3 MSTORE PUSH1 0x20 DUP3 ADD SWAP1 POP SWAP3 SWAP2 POP POP JUMP JUMPDEST PUSH0 PUSH2 0x28D9 DUP3 PUSH2 0x28B5 JUMP JUMPDEST PUSH2 0x28E3 DUP2 DUP6 PUSH2 0x28BF JUMP JUMPDEST SWAP4 POP PUSH2 0x28F3 DUP2 DUP6 PUSH1 0x20 DUP7 ADD PUSH2 0x1CCF JUMP JUMPDEST PUSH2 0x28FC DUP2 PUSH2 0x1B0F JUMP JUMPDEST DUP5 ADD SWAP2 POP POP SWAP3 SWAP2 POP POP JUMP JUMPDEST PUSH0 PUSH1 0xA0 DUP3 ADD SWAP1 POP PUSH2 0x291A PUSH0 DUP4 ADD DUP9 PUSH2 0x2263 JUMP JUMPDEST PUSH2 0x2927 PUSH1 0x20 DUP4 ADD DUP8 PUSH2 0x2263 JUMP JUMPDEST PUSH2 0x2934 PUSH1 0x40 DUP4 ADD DUP7 PUSH2 0x1A2C JUMP JUMPDEST PUSH2 0x2941 PUSH1 0x60 DUP4 ADD DUP6 PUSH2 0x1A2C JUMP JUMPDEST DUP2 DUP2 SUB PUSH1 0x80 DUP4 ADD MSTORE PUSH2 0x2953 DUP2 DUP5 PUSH2 0x28CF JUMP JUMPDEST SWAP1 POP SWAP7 SWAP6 POP POP POP POP POP POP JUMP JUMPDEST PUSH0 DUP2 MLOAD SWAP1 POP PUSH2 0x296D DUP2 PUSH2 0x1A7F JUMP JUMPDEST SWAP3 SWAP2 POP POP JUMP JUMPDEST PUSH0 PUSH1 0x20 DUP3 DUP5 SUB SLT ISZERO PUSH2 0x2988 JUMPI PUSH2 0x2987 PUSH2 0x1959 JUMP JUMPDEST JUMPDEST PUSH0 PUSH2 0x2995 DUP5 DUP3 DUP6 ADD PUSH2 0x295F JUMP JUMPDEST SWAP2 POP POP SWAP3 SWAP2 POP POP JUMP JUMPDEST PUSH0 PUSH1 0xA0 DUP3 ADD SWAP1 POP PUSH2 0x29B1 PUSH0 DUP4 ADD DUP9 PUSH2 0x2263 JUMP JUMPDEST PUSH2 0x29BE PUSH1 0x20 DUP4 ADD DUP8 PUSH2 0x2263 JUMP JUMPDEST DUP2 DUP2 SUB PUSH1 0x40 DUP4 ADD MSTORE PUSH2 0x29D0 DUP2 DUP7 PUSH2 0x215F JUMP JUMPDEST SWAP1 POP DUP2 DUP2 SUB PUSH1 0x60 DUP4 ADD MSTORE PUSH2 0x29E4 DUP2 DUP6 PUSH2 0x215F JUMP JUMPDEST SWAP1 POP DUP2 DUP2 SUB PUSH1 0x80 DUP4 ADD MSTORE PUSH2 0x29F8 DUP2 DUP5 PUSH2 0x28CF JUMP JUMPDEST SWAP1 POP SWAP7 SWAP6 POP POP POP POP POP POP JUMP INVALID LOG2 PUSH5 0x6970667358 0x22 SLT KECCAK256 DUP2 DUP9 REVERT 0xBA 0x4B 0xAD 0xB1 0xD6 0xC7 0xB7 PUSH30 0x7C8E4312A86D05E853A58231CFA5E8C49F884E862C64736F6C634300081A STOP CALLER "
				},
				"gasEstimates": {
					"creation": {
						"codeDepositCost": "2162000",
						"executionCost": "infinite",
						"totalCost": "infinite"
					},
					"external": {
						"balanceOf(address,uint256)": "infinite",
						"balanceOfBatch(address[],uint256[])": "infinite",
						"burn(address,uint256,uint256)": "infinite",
						"burnBatch(address,uint256[],uint256[])": "infinite",
						"isApprovedForAll(address,address)": "infinite",
						"mint(address,bytes)": "infinite",
						"mintBatch(address,uint256,bytes)": "infinite",
						"owner()": "2560",
						"renounceOwnership()": "infinite",
						"safeBatchTransferFrom(address,address,uint256[],uint256[],bytes)": "infinite",
						"safeTransferFrom(address,address,uint256,uint256,bytes)": "infinite",
						"setApprovalForAll(address,bool)": "infinite",
						"setURI(string)": "infinite",
						"supportsInterface(bytes4)": "809",
						"transferOwnership(address)": "infinite",
						"uri(uint256)": "infinite"
					}
				},
				"methodIdentifiers": {
					"balanceOf(address,uint256)": "00fdd58e",
					"balanceOfBatch(address[],uint256[])": "4e1273f4",
					"burn(address,uint256,uint256)": "f5298aca",
					"burnBatch(address,uint256[],uint256[])": "6b20c454",
					"isApprovedForAll(address,address)": "e985e9c5",
					"mint(address,bytes)": "b510391f",
					"mintBatch(address,uint256,bytes)": "31f0e6c8",
					"owner()": "8da5cb5b",
					"renounceOwnership()": "715018a6",
					"safeBatchTransferFrom(address,address,uint256[],uint256[],bytes)": "2eb2c2d6",
					"safeTransferFrom(address,address,uint256,uint256,bytes)": "f242432a",
					"setApprovalForAll(address,bool)": "a22cb465",
					"setURI(string)": "02fe5305",
					"supportsInterface(bytes4)": "01ffc9a7",
					"transferOwnership(address)": "f2fde38b",
					"uri(uint256)": "0e89341c"
				}
			},
			"storageLayout": {
				"storage": [
					{
						"astId": 326,
						"contract": "contracts/common/CapybaraNFT.sol:CapybaraNFT",
						"label": "_balances",
						"offset": 0,
						"slot": "0",
						"type": "t_mapping(t_uint256,t_mapping(t_address,t_uint256))"
					},
					{
						"astId": 332,
						"contract": "contracts/common/CapybaraNFT.sol:CapybaraNFT",
						"label": "_operatorApprovals",
						"offset": 0,
						"slot": "1",
						"type": "t_mapping(t_address,t_mapping(t_address,t_bool))"
					},
					{
						"astId": 334,
						"contract": "contracts/common/CapybaraNFT.sol:CapybaraNFT",
						"label": "_uri",
						"offset": 0,
						"slot": "2",
						"type": "t_string_storage"
					},
					{
						"astId": 8,
						"contract": "contracts/common/CapybaraNFT.sol:CapybaraNFT",
						"label": "_owner",
						"offset": 0,
						"slot": "3",
						"type": "t_address"
					},
					{
						"astId": 3022,
						"contract": "contracts/common/CapybaraNFT.sol:CapybaraNFT",
						"label": "_nextTokenId",
						"offset": 0,
						"slot": "4",
						"type": "t_uint256"
					}
				],
				"types": {
					"t_address": {
						"encoding": "inplace",
						"label": "address",
						"numberOfBytes": "20"
					},
					"t_bool": {
						"encoding": "inplace",
						"label": "bool",
						"numberOfBytes": "1"
					},
					"t_mapping(t_address,t_bool)": {
						"encoding": "mapping",
						"key": "t_address",
						"label": "mapping(address => bool)",
						"numberOfBytes": "32",
						"value": "t_bool"
					},
					"t_mapping(t_address,t_mapping(t_address,t_bool))": {
						"encoding": "mapping",
						"key": "t_address",
						"label": "mapping(address => mapping(address => bool))",
						"numberOfBytes": "32",
						"value": "t_mapping(t_address,t_bool)"
					},
					"t_mapping(t_address,t_uint256)": {
						"encoding": "mapping",
						"key": "t_address",
						"label": "mapping(address => uint256)",
						"numberOfBytes": "32",
						"value": "t_uint256"
					},
					"t_mapping(t_uint256,t_mapping(t_address,t_uint256))": {
						"encoding": "mapping",
						"key": "t_uint256",
						"label": "mapping(uint256 => mapping(address => uint256))",
						"numberOfBytes": "32",
						"value": "t_mapping(t_address,t_uint256)"
					},
					"t_string_storage": {
						"encoding": "bytes",
						"label": "string",
						"numberOfBytes": "32"
					},
					"t_uint256": {
						"encoding": "inplace",
						"label": "uint256",
						"numberOfBytes": "32"
					}
				}
			},
			"userdoc": {
				"kind": "user",
				"methods": {},
				"version": 1
			}
		}
	}
}